{"abi":[{"inputs":[{"internalType":"uint256","name":"","type":"uint256"}],"name":"campaigns","outputs":[{"internalType":"address","name":"","type":"address"}],"stateMutability":"view","type":"function"},{"inputs":[{"internalType":"string","name":"titl","type":"string"},{"internalType":"string","name":"desc","type":"string"},{"internalType":"string","name":"image","type":"string"},{"internalType":"uint256","name":"minAmt","type":"uint256"}],"name":"createCampaign","outputs":[],"stateMutability":"nonpayable","type":"function"},{"inputs":[],"name":"getAllCampaigns","outputs":[{"internalType":"address[]","name":"","type":"address[]"}],"stateMutability":"view","type":"function"}],"devdoc":{"kind":"dev","methods":{},"version":1},"evm":{"assembly":"    /* \"AEIOU.sol\":25:453  contract AEIOUCampaignFactory {... */\n  mstore(0x40, 0x80)\n  callvalue\n  dup1\n  iszero\n  tag_1\n  jumpi\n  0x00\n  dup1\n  revert\ntag_1:\n  pop\n  dataSize(sub_0)\n  dup1\n  dataOffset(sub_0)\n  0x00\n  codecopy\n  0x00\n  return\nstop\n\nsub_0: assembly {\n        /* \"AEIOU.sol\":25:453  contract AEIOUCampaignFactory {... */\n      mstore(0x40, 0x80)\n      callvalue\n      dup1\n      iszero\n      tag_1\n      jumpi\n      0x00\n      dup1\n      revert\n    tag_1:\n      pop\n      jumpi(tag_2, lt(calldatasize, 0x04))\n      shr(0xe0, calldataload(0x00))\n      dup1\n      0x141961bc\n      eq\n      tag_3\n      jumpi\n      dup1\n      0x4a15ef92\n      eq\n      tag_4\n      jumpi\n      dup1\n      0x86cdf604\n      eq\n      tag_5\n      jumpi\n    tag_2:\n      0x00\n      dup1\n      revert\n        /* \"AEIOU.sol\":61:87  address[] public campaigns */\n    tag_3:\n      tag_6\n      0x04\n      dup1\n      calldatasize\n      sub\n      dup2\n      add\n      swap1\n      tag_7\n      swap2\n      swap1\n      tag_8\n      jump\t// in\n    tag_7:\n      tag_9\n      jump\t// in\n    tag_6:\n      mload(0x40)\n      tag_10\n      swap2\n      swap1\n      tag_11\n      jump\t// in\n    tag_10:\n      mload(0x40)\n      dup1\n      swap2\n      sub\n      swap1\n      return\n        /* \"AEIOU.sol\":94:346  function createCampaign(string memory titl, string memory desc, string memory image, uint minAmt) public {... */\n    tag_4:\n      tag_12\n      0x04\n      dup1\n      calldatasize\n      sub\n      dup2\n      add\n      swap1\n      tag_13\n      swap2\n      swap1\n      tag_14\n      jump\t// in\n    tag_13:\n      tag_15\n      jump\t// in\n    tag_12:\n      stop\n        /* \"AEIOU.sol\":352:451  function getAllCampaigns() public view returns (address[] memory) {... */\n    tag_5:\n      tag_16\n      tag_17\n      jump\t// in\n    tag_16:\n      mload(0x40)\n      tag_18\n      swap2\n      swap1\n      tag_19\n      jump\t// in\n    tag_18:\n      mload(0x40)\n      dup1\n      swap2\n      sub\n      swap1\n      return\n        /* \"AEIOU.sol\":61:87  address[] public campaigns */\n    tag_9:\n      0x00\n      dup2\n      dup2\n      sload\n      dup2\n      lt\n      tag_20\n      jumpi\n      0x00\n      dup1\n      revert\n    tag_20:\n      swap1\n      0x00\n      mstore\n      keccak256(0x00, 0x20)\n      add\n      0x00\n      swap2\n      pop\n      sload\n      swap1\n      0x0100\n      exp\n      swap1\n      div\n      0xffffffffffffffffffffffffffffffffffffffff\n      and\n      dup2\n      jump\t// out\n        /* \"AEIOU.sol\":94:346  function createCampaign(string memory titl, string memory desc, string memory image, uint minAmt) public {... */\n    tag_15:\n        /* \"AEIOU.sol\":209:234  AEIOUCampaign newCampaign */\n      0x00\n        /* \"AEIOU.sol\":255:259  titl */\n      dup5\n        /* \"AEIOU.sol\":261:265  desc */\n      dup5\n        /* \"AEIOU.sol\":267:272  image */\n      dup5\n        /* \"AEIOU.sol\":274:280  minAmt */\n      dup5\n        /* \"AEIOU.sol\":282:292  msg.sender */\n      caller\n        /* \"AEIOU.sol\":237:293  new AEIOUCampaign(titl, desc, image, minAmt, msg.sender) */\n      mload(0x40)\n      tag_23\n      swap1\n      tag_24\n      jump\t// in\n    tag_23:\n      tag_25\n      swap6\n      swap5\n      swap4\n      swap3\n      swap2\n      swap1\n      tag_26\n      jump\t// in\n    tag_25:\n      mload(0x40)\n      dup1\n      swap2\n      sub\n      swap1\n      0x00\n      create\n      dup1\n      iszero\n      dup1\n      iszero\n      tag_27\n      jumpi\n      returndatasize\n      0x00\n      dup1\n      returndatacopy\n      revert(0x00, returndatasize)\n    tag_27:\n      pop\n        /* \"AEIOU.sol\":209:293  AEIOUCampaign newCampaign = new AEIOUCampaign(titl, desc, image, minAmt, msg.sender) */\n      swap1\n      pop\n        /* \"AEIOU.sol\":303:312  campaigns */\n      0x00\n        /* \"AEIOU.sol\":326:337  newCampaign */\n      dup2\n        /* \"AEIOU.sol\":303:339  campaigns.push(address(newCampaign)) */\n      swap1\n      dup1\n      0x01\n      dup2\n      sload\n      add\n      dup1\n      dup3\n      sstore\n      dup1\n      swap2\n      pop\n      pop\n      0x01\n      swap1\n      sub\n      swap1\n      0x00\n      mstore\n      keccak256(0x00, 0x20)\n      add\n      0x00\n      swap1\n      swap2\n      swap1\n      swap2\n      swap1\n      swap2\n      0x0100\n      exp\n      dup2\n      sload\n      dup2\n      0xffffffffffffffffffffffffffffffffffffffff\n      mul\n      not\n      and\n      swap1\n      dup4\n      0xffffffffffffffffffffffffffffffffffffffff\n      and\n      mul\n      or\n      swap1\n      sstore\n      pop\n        /* \"AEIOU.sol\":199:346  {... */\n      pop\n        /* \"AEIOU.sol\":94:346  function createCampaign(string memory titl, string memory desc, string memory image, uint minAmt) public {... */\n      pop\n      pop\n      pop\n      pop\n      jump\t// out\n        /* \"AEIOU.sol\":352:451  function getAllCampaigns() public view returns (address[] memory) {... */\n    tag_17:\n        /* \"AEIOU.sol\":400:416  address[] memory */\n      0x60\n        /* \"AEIOU.sol\":435:444  campaigns */\n      0x00\n        /* \"AEIOU.sol\":428:444  return campaigns */\n      dup1\n      sload\n      dup1\n      0x20\n      mul\n      0x20\n      add\n      mload(0x40)\n      swap1\n      dup2\n      add\n      0x40\n      mstore\n      dup1\n      swap3\n      swap2\n      swap1\n      dup2\n      dup2\n      mstore\n      0x20\n      add\n      dup3\n      dup1\n      sload\n      dup1\n      iszero\n      tag_30\n      jumpi\n      0x20\n      mul\n      dup3\n      add\n      swap2\n      swap1\n      0x00\n      mstore\n      keccak256(0x00, 0x20)\n      swap1\n    tag_31:\n      dup2\n      0x00\n      swap1\n      sload\n      swap1\n      0x0100\n      exp\n      swap1\n      div\n      0xffffffffffffffffffffffffffffffffffffffff\n      and\n      0xffffffffffffffffffffffffffffffffffffffff\n      and\n      dup2\n      mstore\n      0x20\n      add\n      swap1\n      0x01\n      add\n      swap1\n      dup1\n      dup4\n      gt\n      tag_31\n      jumpi\n    tag_30:\n      pop\n      pop\n      pop\n      pop\n      pop\n      swap1\n      pop\n        /* \"AEIOU.sol\":352:451  function getAllCampaigns() public view returns (address[] memory) {... */\n      swap1\n      jump\t// out\n    tag_24:\n      dataSize(sub_0)\n      dup1\n      dataOffset(sub_0)\n      dup4\n      codecopy\n      add\n      swap1\n      jump\t// out\n        /* \"#utility.yul\":7:82   */\n    tag_32:\n        /* \"#utility.yul\":40:46   */\n      0x00\n        /* \"#utility.yul\":73:75   */\n      0x40\n        /* \"#utility.yul\":67:76   */\n      mload\n        /* \"#utility.yul\":57:76   */\n      swap1\n      pop\n        /* \"#utility.yul\":7:82   */\n      swap1\n      jump\t// out\n        /* \"#utility.yul\":88:205   */\n    tag_33:\n        /* \"#utility.yul\":197:198   */\n      0x00\n        /* \"#utility.yul\":194:195   */\n      dup1\n        /* \"#utility.yul\":187:199   */\n      revert\n        /* \"#utility.yul\":211:328   */\n    tag_34:\n        /* \"#utility.yul\":320:321   */\n      0x00\n        /* \"#utility.yul\":317:318   */\n      dup1\n        /* \"#utility.yul\":310:322   */\n      revert\n        /* \"#utility.yul\":334:411   */\n    tag_35:\n        /* \"#utility.yul\":371:378   */\n      0x00\n        /* \"#utility.yul\":400:405   */\n      dup2\n        /* \"#utility.yul\":389:405   */\n      swap1\n      pop\n        /* \"#utility.yul\":334:411   */\n      swap2\n      swap1\n      pop\n      jump\t// out\n        /* \"#utility.yul\":417:539   */\n    tag_36:\n        /* \"#utility.yul\":490:514   */\n      tag_69\n        /* \"#utility.yul\":508:513   */\n      dup2\n        /* \"#utility.yul\":490:514   */\n      tag_35\n      jump\t// in\n    tag_69:\n        /* \"#utility.yul\":483:488   */\n      dup2\n        /* \"#utility.yul\":480:515   */\n      eq\n        /* \"#utility.yul\":470:533   */\n      tag_70\n      jumpi\n        /* \"#utility.yul\":529:530   */\n      0x00\n        /* \"#utility.yul\":526:527   */\n      dup1\n        /* \"#utility.yul\":519:531   */\n      revert\n        /* \"#utility.yul\":470:533   */\n    tag_70:\n        /* \"#utility.yul\":417:539   */\n      pop\n      jump\t// out\n        /* \"#utility.yul\":545:684   */\n    tag_37:\n        /* \"#utility.yul\":591:596   */\n      0x00\n        /* \"#utility.yul\":629:635   */\n      dup2\n        /* \"#utility.yul\":616:636   */\n      calldataload\n        /* \"#utility.yul\":607:636   */\n      swap1\n      pop\n        /* \"#utility.yul\":645:678   */\n      tag_72\n        /* \"#utility.yul\":672:677   */\n      dup2\n        /* \"#utility.yul\":645:678   */\n      tag_36\n      jump\t// in\n    tag_72:\n        /* \"#utility.yul\":545:684   */\n      swap3\n      swap2\n      pop\n      pop\n      jump\t// out\n        /* \"#utility.yul\":690:1019   */\n    tag_8:\n        /* \"#utility.yul\":749:755   */\n      0x00\n        /* \"#utility.yul\":798:800   */\n      0x20\n        /* \"#utility.yul\":786:795   */\n      dup3\n        /* \"#utility.yul\":777:784   */\n      dup5\n        /* \"#utility.yul\":773:796   */\n      sub\n        /* \"#utility.yul\":769:801   */\n      slt\n        /* \"#utility.yul\":766:885   */\n      iszero\n      tag_74\n      jumpi\n        /* \"#utility.yul\":804:883   */\n      tag_75\n      tag_33\n      jump\t// in\n    tag_75:\n        /* \"#utility.yul\":766:885   */\n    tag_74:\n        /* \"#utility.yul\":924:925   */\n      0x00\n        /* \"#utility.yul\":949:1002   */\n      tag_76\n        /* \"#utility.yul\":994:1001   */\n      dup5\n        /* \"#utility.yul\":985:991   */\n      dup3\n        /* \"#utility.yul\":974:983   */\n      dup6\n        /* \"#utility.yul\":970:992   */\n      add\n        /* \"#utility.yul\":949:1002   */\n      tag_37\n      jump\t// in\n    tag_76:\n        /* \"#utility.yul\":939:1002   */\n      swap2\n      pop\n        /* \"#utility.yul\":895:1012   */\n      pop\n        /* \"#utility.yul\":690:1019   */\n      swap3\n      swap2\n      pop\n      pop\n      jump\t// out\n        /* \"#utility.yul\":1025:1151   */\n    tag_38:\n        /* \"#utility.yul\":1062:1069   */\n      0x00\n        /* \"#utility.yul\":1102:1144   */\n      0xffffffffffffffffffffffffffffffffffffffff\n        /* \"#utility.yul\":1095:1100   */\n      dup3\n        /* \"#utility.yul\":1091:1145   */\n      and\n        /* \"#utility.yul\":1080:1145   */\n      swap1\n      pop\n        /* \"#utility.yul\":1025:1151   */\n      swap2\n      swap1\n      pop\n      jump\t// out\n        /* \"#utility.yul\":1157:1253   */\n    tag_39:\n        /* \"#utility.yul\":1194:1201   */\n      0x00\n        /* \"#utility.yul\":1223:1247   */\n      tag_79\n        /* \"#utility.yul\":1241:1246   */\n      dup3\n        /* \"#utility.yul\":1223:1247   */\n      tag_38\n      jump\t// in\n    tag_79:\n        /* \"#utility.yul\":1212:1247   */\n      swap1\n      pop\n        /* \"#utility.yul\":1157:1253   */\n      swap2\n      swap1\n      pop\n      jump\t// out\n        /* \"#utility.yul\":1259:1377   */\n    tag_40:\n        /* \"#utility.yul\":1346:1370   */\n      tag_81\n        /* \"#utility.yul\":1364:1369   */\n      dup2\n        /* \"#utility.yul\":1346:1370   */\n      tag_39\n      jump\t// in\n    tag_81:\n        /* \"#utility.yul\":1341:1344   */\n      dup3\n        /* \"#utility.yul\":1334:1371   */\n      mstore\n        /* \"#utility.yul\":1259:1377   */\n      pop\n      pop\n      jump\t// out\n        /* \"#utility.yul\":1383:1605   */\n    tag_11:\n        /* \"#utility.yul\":1476:1480   */\n      0x00\n        /* \"#utility.yul\":1514:1516   */\n      0x20\n        /* \"#utility.yul\":1503:1512   */\n      dup3\n        /* \"#utility.yul\":1499:1517   */\n      add\n        /* \"#utility.yul\":1491:1517   */\n      swap1\n      pop\n        /* \"#utility.yul\":1527:1598   */\n      tag_83\n        /* \"#utility.yul\":1595:1596   */\n      0x00\n        /* \"#utility.yul\":1584:1593   */\n      dup4\n        /* \"#utility.yul\":1580:1597   */\n      add\n        /* \"#utility.yul\":1571:1577   */\n      dup5\n        /* \"#utility.yul\":1527:1598   */\n      tag_40\n      jump\t// in\n    tag_83:\n        /* \"#utility.yul\":1383:1605   */\n      swap3\n      swap2\n      pop\n      pop\n      jump\t// out\n        /* \"#utility.yul\":1611:1728   */\n    tag_41:\n        /* \"#utility.yul\":1720:1721   */\n      0x00\n        /* \"#utility.yul\":1717:1718   */\n      dup1\n        /* \"#utility.yul\":1710:1722   */\n      revert\n        /* \"#utility.yul\":1734:1851   */\n    tag_42:\n        /* \"#utility.yul\":1843:1844   */\n      0x00\n        /* \"#utility.yul\":1840:1841   */\n      dup1\n        /* \"#utility.yul\":1833:1845   */\n      revert\n        /* \"#utility.yul\":1857:1959   */\n    tag_43:\n        /* \"#utility.yul\":1898:1904   */\n      0x00\n        /* \"#utility.yul\":1949:1951   */\n      0x1f\n        /* \"#utility.yul\":1945:1952   */\n      not\n        /* \"#utility.yul\":1940:1942   */\n      0x1f\n        /* \"#utility.yul\":1933:1938   */\n      dup4\n        /* \"#utility.yul\":1929:1943   */\n      add\n        /* \"#utility.yul\":1925:1953   */\n      and\n        /* \"#utility.yul\":1915:1953   */\n      swap1\n      pop\n        /* \"#utility.yul\":1857:1959   */\n      swap2\n      swap1\n      pop\n      jump\t// out\n        /* \"#utility.yul\":1965:2145   */\n    tag_44:\n        /* \"#utility.yul\":2013:2090   */\n      0x4e487b7100000000000000000000000000000000000000000000000000000000\n        /* \"#utility.yul\":2010:2011   */\n      0x00\n        /* \"#utility.yul\":2003:2091   */\n      mstore\n        /* \"#utility.yul\":2110:2114   */\n      0x41\n        /* \"#utility.yul\":2107:2108   */\n      0x04\n        /* \"#utility.yul\":2100:2115   */\n      mstore\n        /* \"#utility.yul\":2134:2138   */\n      0x24\n        /* \"#utility.yul\":2131:2132   */\n      0x00\n        /* \"#utility.yul\":2124:2139   */\n      revert\n        /* \"#utility.yul\":2151:2432   */\n    tag_45:\n        /* \"#utility.yul\":2234:2261   */\n      tag_89\n        /* \"#utility.yul\":2256:2260   */\n      dup3\n        /* \"#utility.yul\":2234:2261   */\n      tag_43\n      jump\t// in\n    tag_89:\n        /* \"#utility.yul\":2226:2232   */\n      dup2\n        /* \"#utility.yul\":2222:2262   */\n      add\n        /* \"#utility.yul\":2364:2370   */\n      dup2\n        /* \"#utility.yul\":2352:2362   */\n      dup2\n        /* \"#utility.yul\":2349:2371   */\n      lt\n        /* \"#utility.yul\":2328:2346   */\n      0xffffffffffffffff\n        /* \"#utility.yul\":2316:2326   */\n      dup3\n        /* \"#utility.yul\":2313:2347   */\n      gt\n        /* \"#utility.yul\":2310:2372   */\n      or\n        /* \"#utility.yul\":2307:2395   */\n      iszero\n      tag_90\n      jumpi\n        /* \"#utility.yul\":2375:2393   */\n      tag_91\n      tag_44\n      jump\t// in\n    tag_91:\n        /* \"#utility.yul\":2307:2395   */\n    tag_90:\n        /* \"#utility.yul\":2415:2425   */\n      dup1\n        /* \"#utility.yul\":2411:2413   */\n      0x40\n        /* \"#utility.yul\":2404:2426   */\n      mstore\n        /* \"#utility.yul\":2194:2432   */\n      pop\n        /* \"#utility.yul\":2151:2432   */\n      pop\n      pop\n      jump\t// out\n        /* \"#utility.yul\":2438:2567   */\n    tag_46:\n        /* \"#utility.yul\":2472:2478   */\n      0x00\n        /* \"#utility.yul\":2499:2519   */\n      tag_93\n      tag_32\n      jump\t// in\n    tag_93:\n        /* \"#utility.yul\":2489:2519   */\n      swap1\n      pop\n        /* \"#utility.yul\":2528:2561   */\n      tag_94\n        /* \"#utility.yul\":2556:2560   */\n      dup3\n        /* \"#utility.yul\":2548:2554   */\n      dup3\n        /* \"#utility.yul\":2528:2561   */\n      tag_45\n      jump\t// in\n    tag_94:\n        /* \"#utility.yul\":2438:2567   */\n      swap2\n      swap1\n      pop\n      jump\t// out\n        /* \"#utility.yul\":2573:2881   */\n    tag_47:\n        /* \"#utility.yul\":2635:2639   */\n      0x00\n        /* \"#utility.yul\":2725:2743   */\n      0xffffffffffffffff\n        /* \"#utility.yul\":2717:2723   */\n      dup3\n        /* \"#utility.yul\":2714:2744   */\n      gt\n        /* \"#utility.yul\":2711:2767   */\n      iszero\n      tag_96\n      jumpi\n        /* \"#utility.yul\":2747:2765   */\n      tag_97\n      tag_44\n      jump\t// in\n    tag_97:\n        /* \"#utility.yul\":2711:2767   */\n    tag_96:\n        /* \"#utility.yul\":2785:2814   */\n      tag_98\n        /* \"#utility.yul\":2807:2813   */\n      dup3\n        /* \"#utility.yul\":2785:2814   */\n      tag_43\n      jump\t// in\n    tag_98:\n        /* \"#utility.yul\":2777:2814   */\n      swap1\n      pop\n        /* \"#utility.yul\":2869:2873   */\n      0x20\n        /* \"#utility.yul\":2863:2867   */\n      dup2\n        /* \"#utility.yul\":2859:2874   */\n      add\n        /* \"#utility.yul\":2851:2874   */\n      swap1\n      pop\n        /* \"#utility.yul\":2573:2881   */\n      swap2\n      swap1\n      pop\n      jump\t// out\n        /* \"#utility.yul\":2887:3041   */\n    tag_48:\n        /* \"#utility.yul\":2971:2977   */\n      dup3\n        /* \"#utility.yul\":2966:2969   */\n      dup2\n        /* \"#utility.yul\":2961:2964   */\n      dup4\n        /* \"#utility.yul\":2948:2978   */\n      calldatacopy\n        /* \"#utility.yul\":3033:3034   */\n      0x00\n        /* \"#utility.yul\":3024:3030   */\n      dup4\n        /* \"#utility.yul\":3019:3022   */\n      dup4\n        /* \"#utility.yul\":3015:3031   */\n      add\n        /* \"#utility.yul\":3008:3035   */\n      mstore\n        /* \"#utility.yul\":2887:3041   */\n      pop\n      pop\n      pop\n      jump\t// out\n        /* \"#utility.yul\":3047:3459   */\n    tag_49:\n        /* \"#utility.yul\":3125:3130   */\n      0x00\n        /* \"#utility.yul\":3150:3216   */\n      tag_101\n        /* \"#utility.yul\":3166:3215   */\n      tag_102\n        /* \"#utility.yul\":3208:3214   */\n      dup5\n        /* \"#utility.yul\":3166:3215   */\n      tag_47\n      jump\t// in\n    tag_102:\n        /* \"#utility.yul\":3150:3216   */\n      tag_46\n      jump\t// in\n    tag_101:\n        /* \"#utility.yul\":3141:3216   */\n      swap1\n      pop\n        /* \"#utility.yul\":3239:3245   */\n      dup3\n        /* \"#utility.yul\":3232:3237   */\n      dup2\n        /* \"#utility.yul\":3225:3246   */\n      mstore\n        /* \"#utility.yul\":3277:3281   */\n      0x20\n        /* \"#utility.yul\":3270:3275   */\n      dup2\n        /* \"#utility.yul\":3266:3282   */\n      add\n        /* \"#utility.yul\":3315:3318   */\n      dup5\n        /* \"#utility.yul\":3306:3312   */\n      dup5\n        /* \"#utility.yul\":3301:3304   */\n      dup5\n        /* \"#utility.yul\":3297:3313   */\n      add\n        /* \"#utility.yul\":3294:3319   */\n      gt\n        /* \"#utility.yul\":3291:3403   */\n      iszero\n      tag_103\n      jumpi\n        /* \"#utility.yul\":3322:3401   */\n      tag_104\n      tag_42\n      jump\t// in\n    tag_104:\n        /* \"#utility.yul\":3291:3403   */\n    tag_103:\n        /* \"#utility.yul\":3412:3453   */\n      tag_105\n        /* \"#utility.yul\":3446:3452   */\n      dup5\n        /* \"#utility.yul\":3441:3444   */\n      dup3\n        /* \"#utility.yul\":3436:3439   */\n      dup6\n        /* \"#utility.yul\":3412:3453   */\n      tag_48\n      jump\t// in\n    tag_105:\n        /* \"#utility.yul\":3131:3459   */\n      pop\n        /* \"#utility.yul\":3047:3459   */\n      swap4\n      swap3\n      pop\n      pop\n      pop\n      jump\t// out\n        /* \"#utility.yul\":3479:3819   */\n    tag_50:\n        /* \"#utility.yul\":3535:3540   */\n      0x00\n        /* \"#utility.yul\":3584:3587   */\n      dup3\n        /* \"#utility.yul\":3577:3581   */\n      0x1f\n        /* \"#utility.yul\":3569:3575   */\n      dup4\n        /* \"#utility.yul\":3565:3582   */\n      add\n        /* \"#utility.yul\":3561:3588   */\n      slt\n        /* \"#utility.yul\":3551:3673   */\n      tag_107\n      jumpi\n        /* \"#utility.yul\":3592:3671   */\n      tag_108\n      tag_41\n      jump\t// in\n    tag_108:\n        /* \"#utility.yul\":3551:3673   */\n    tag_107:\n        /* \"#utility.yul\":3709:3715   */\n      dup2\n        /* \"#utility.yul\":3696:3716   */\n      calldataload\n        /* \"#utility.yul\":3734:3813   */\n      tag_109\n        /* \"#utility.yul\":3809:3812   */\n      dup5\n        /* \"#utility.yul\":3801:3807   */\n      dup3\n        /* \"#utility.yul\":3794:3798   */\n      0x20\n        /* \"#utility.yul\":3786:3792   */\n      dup7\n        /* \"#utility.yul\":3782:3799   */\n      add\n        /* \"#utility.yul\":3734:3813   */\n      tag_49\n      jump\t// in\n    tag_109:\n        /* \"#utility.yul\":3725:3813   */\n      swap2\n      pop\n        /* \"#utility.yul\":3541:3819   */\n      pop\n        /* \"#utility.yul\":3479:3819   */\n      swap3\n      swap2\n      pop\n      pop\n      jump\t// out\n        /* \"#utility.yul\":3825:5130   */\n    tag_14:\n        /* \"#utility.yul\":3941:3947   */\n      0x00\n        /* \"#utility.yul\":3949:3955   */\n      dup1\n        /* \"#utility.yul\":3957:3963   */\n      0x00\n        /* \"#utility.yul\":3965:3971   */\n      dup1\n        /* \"#utility.yul\":4014:4017   */\n      0x80\n        /* \"#utility.yul\":4002:4011   */\n      dup6\n        /* \"#utility.yul\":3993:4000   */\n      dup8\n        /* \"#utility.yul\":3989:4012   */\n      sub\n        /* \"#utility.yul\":3985:4018   */\n      slt\n        /* \"#utility.yul\":3982:4102   */\n      iszero\n      tag_111\n      jumpi\n        /* \"#utility.yul\":4021:4100   */\n      tag_112\n      tag_33\n      jump\t// in\n    tag_112:\n        /* \"#utility.yul\":3982:4102   */\n    tag_111:\n        /* \"#utility.yul\":4169:4170   */\n      0x00\n        /* \"#utility.yul\":4158:4167   */\n      dup6\n        /* \"#utility.yul\":4154:4171   */\n      add\n        /* \"#utility.yul\":4141:4172   */\n      calldataload\n        /* \"#utility.yul\":4199:4217   */\n      0xffffffffffffffff\n        /* \"#utility.yul\":4191:4197   */\n      dup2\n        /* \"#utility.yul\":4188:4218   */\n      gt\n        /* \"#utility.yul\":4185:4302   */\n      iszero\n      tag_113\n      jumpi\n        /* \"#utility.yul\":4221:4300   */\n      tag_114\n      tag_34\n      jump\t// in\n    tag_114:\n        /* \"#utility.yul\":4185:4302   */\n    tag_113:\n        /* \"#utility.yul\":4326:4389   */\n      tag_115\n        /* \"#utility.yul\":4381:4388   */\n      dup8\n        /* \"#utility.yul\":4372:4378   */\n      dup3\n        /* \"#utility.yul\":4361:4370   */\n      dup9\n        /* \"#utility.yul\":4357:4379   */\n      add\n        /* \"#utility.yul\":4326:4389   */\n      tag_50\n      jump\t// in\n    tag_115:\n        /* \"#utility.yul\":4316:4389   */\n      swap5\n      pop\n        /* \"#utility.yul\":4112:4399   */\n      pop\n        /* \"#utility.yul\":4466:4468   */\n      0x20\n        /* \"#utility.yul\":4455:4464   */\n      dup6\n        /* \"#utility.yul\":4451:4469   */\n      add\n        /* \"#utility.yul\":4438:4470   */\n      calldataload\n        /* \"#utility.yul\":4497:4515   */\n      0xffffffffffffffff\n        /* \"#utility.yul\":4489:4495   */\n      dup2\n        /* \"#utility.yul\":4486:4516   */\n      gt\n        /* \"#utility.yul\":4483:4600   */\n      iszero\n      tag_116\n      jumpi\n        /* \"#utility.yul\":4519:4598   */\n      tag_117\n      tag_34\n      jump\t// in\n    tag_117:\n        /* \"#utility.yul\":4483:4600   */\n    tag_116:\n        /* \"#utility.yul\":4624:4687   */\n      tag_118\n        /* \"#utility.yul\":4679:4686   */\n      dup8\n        /* \"#utility.yul\":4670:4676   */\n      dup3\n        /* \"#utility.yul\":4659:4668   */\n      dup9\n        /* \"#utility.yul\":4655:4677   */\n      add\n        /* \"#utility.yul\":4624:4687   */\n      tag_50\n      jump\t// in\n    tag_118:\n        /* \"#utility.yul\":4614:4687   */\n      swap4\n      pop\n        /* \"#utility.yul\":4409:4697   */\n      pop\n        /* \"#utility.yul\":4764:4766   */\n      0x40\n        /* \"#utility.yul\":4753:4762   */\n      dup6\n        /* \"#utility.yul\":4749:4767   */\n      add\n        /* \"#utility.yul\":4736:4768   */\n      calldataload\n        /* \"#utility.yul\":4795:4813   */\n      0xffffffffffffffff\n        /* \"#utility.yul\":4787:4793   */\n      dup2\n        /* \"#utility.yul\":4784:4814   */\n      gt\n        /* \"#utility.yul\":4781:4898   */\n      iszero\n      tag_119\n      jumpi\n        /* \"#utility.yul\":4817:4896   */\n      tag_120\n      tag_34\n      jump\t// in\n    tag_120:\n        /* \"#utility.yul\":4781:4898   */\n    tag_119:\n        /* \"#utility.yul\":4922:4985   */\n      tag_121\n        /* \"#utility.yul\":4977:4984   */\n      dup8\n        /* \"#utility.yul\":4968:4974   */\n      dup3\n        /* \"#utility.yul\":4957:4966   */\n      dup9\n        /* \"#utility.yul\":4953:4975   */\n      add\n        /* \"#utility.yul\":4922:4985   */\n      tag_50\n      jump\t// in\n    tag_121:\n        /* \"#utility.yul\":4912:4985   */\n      swap3\n      pop\n        /* \"#utility.yul\":4707:4995   */\n      pop\n        /* \"#utility.yul\":5034:5036   */\n      0x60\n        /* \"#utility.yul\":5060:5113   */\n      tag_122\n        /* \"#utility.yul\":5105:5112   */\n      dup8\n        /* \"#utility.yul\":5096:5102   */\n      dup3\n        /* \"#utility.yul\":5085:5094   */\n      dup9\n        /* \"#utility.yul\":5081:5103   */\n      add\n        /* \"#utility.yul\":5060:5113   */\n      tag_37\n      jump\t// in\n    tag_122:\n        /* \"#utility.yul\":5050:5113   */\n      swap2\n      pop\n        /* \"#utility.yul\":5005:5123   */\n      pop\n        /* \"#utility.yul\":3825:5130   */\n      swap3\n      swap6\n      swap2\n      swap5\n      pop\n      swap3\n      pop\n      jump\t// out\n        /* \"#utility.yul\":5136:5250   */\n    tag_51:\n        /* \"#utility.yul\":5203:5209   */\n      0x00\n        /* \"#utility.yul\":5237:5242   */\n      dup2\n        /* \"#utility.yul\":5231:5243   */\n      mload\n        /* \"#utility.yul\":5221:5243   */\n      swap1\n      pop\n        /* \"#utility.yul\":5136:5250   */\n      swap2\n      swap1\n      pop\n      jump\t// out\n        /* \"#utility.yul\":5256:5440   */\n    tag_52:\n        /* \"#utility.yul\":5355:5366   */\n      0x00\n        /* \"#utility.yul\":5389:5395   */\n      dup3\n        /* \"#utility.yul\":5384:5387   */\n      dup3\n        /* \"#utility.yul\":5377:5396   */\n      mstore\n        /* \"#utility.yul\":5429:5433   */\n      0x20\n        /* \"#utility.yul\":5424:5427   */\n      dup3\n        /* \"#utility.yul\":5420:5434   */\n      add\n        /* \"#utility.yul\":5405:5434   */\n      swap1\n      pop\n        /* \"#utility.yul\":5256:5440   */\n      swap3\n      swap2\n      pop\n      pop\n      jump\t// out\n        /* \"#utility.yul\":5446:5578   */\n    tag_53:\n        /* \"#utility.yul\":5513:5517   */\n      0x00\n        /* \"#utility.yul\":5536:5539   */\n      dup2\n        /* \"#utility.yul\":5528:5539   */\n      swap1\n      pop\n        /* \"#utility.yul\":5566:5570   */\n      0x20\n        /* \"#utility.yul\":5561:5564   */\n      dup3\n        /* \"#utility.yul\":5557:5571   */\n      add\n        /* \"#utility.yul\":5549:5571   */\n      swap1\n      pop\n        /* \"#utility.yul\":5446:5578   */\n      swap2\n      swap1\n      pop\n      jump\t// out\n        /* \"#utility.yul\":5584:5692   */\n    tag_54:\n        /* \"#utility.yul\":5661:5685   */\n      tag_127\n        /* \"#utility.yul\":5679:5684   */\n      dup2\n        /* \"#utility.yul\":5661:5685   */\n      tag_39\n      jump\t// in\n    tag_127:\n        /* \"#utility.yul\":5656:5659   */\n      dup3\n        /* \"#utility.yul\":5649:5686   */\n      mstore\n        /* \"#utility.yul\":5584:5692   */\n      pop\n      pop\n      jump\t// out\n        /* \"#utility.yul\":5698:5877   */\n    tag_55:\n        /* \"#utility.yul\":5767:5777   */\n      0x00\n        /* \"#utility.yul\":5788:5834   */\n      tag_129\n        /* \"#utility.yul\":5830:5833   */\n      dup4\n        /* \"#utility.yul\":5822:5828   */\n      dup4\n        /* \"#utility.yul\":5788:5834   */\n      tag_54\n      jump\t// in\n    tag_129:\n        /* \"#utility.yul\":5866:5870   */\n      0x20\n        /* \"#utility.yul\":5861:5864   */\n      dup4\n        /* \"#utility.yul\":5857:5871   */\n      add\n        /* \"#utility.yul\":5843:5871   */\n      swap1\n      pop\n        /* \"#utility.yul\":5698:5877   */\n      swap3\n      swap2\n      pop\n      pop\n      jump\t// out\n        /* \"#utility.yul\":5883:5996   */\n    tag_56:\n        /* \"#utility.yul\":5953:5957   */\n      0x00\n        /* \"#utility.yul\":5985:5989   */\n      0x20\n        /* \"#utility.yul\":5980:5983   */\n      dup3\n        /* \"#utility.yul\":5976:5990   */\n      add\n        /* \"#utility.yul\":5968:5990   */\n      swap1\n      pop\n        /* \"#utility.yul\":5883:5996   */\n      swap2\n      swap1\n      pop\n      jump\t// out\n        /* \"#utility.yul\":6032:6764   */\n    tag_57:\n        /* \"#utility.yul\":6151:6154   */\n      0x00\n        /* \"#utility.yul\":6180:6234   */\n      tag_132\n        /* \"#utility.yul\":6228:6233   */\n      dup3\n        /* \"#utility.yul\":6180:6234   */\n      tag_51\n      jump\t// in\n    tag_132:\n        /* \"#utility.yul\":6250:6336   */\n      tag_133\n        /* \"#utility.yul\":6329:6335   */\n      dup2\n        /* \"#utility.yul\":6324:6327   */\n      dup6\n        /* \"#utility.yul\":6250:6336   */\n      tag_52\n      jump\t// in\n    tag_133:\n        /* \"#utility.yul\":6243:6336   */\n      swap4\n      pop\n        /* \"#utility.yul\":6360:6416   */\n      tag_134\n        /* \"#utility.yul\":6410:6415   */\n      dup4\n        /* \"#utility.yul\":6360:6416   */\n      tag_53\n      jump\t// in\n    tag_134:\n        /* \"#utility.yul\":6439:6446   */\n      dup1\n        /* \"#utility.yul\":6470:6471   */\n      0x00\n        /* \"#utility.yul\":6455:6739   */\n    tag_135:\n        /* \"#utility.yul\":6480:6486   */\n      dup4\n        /* \"#utility.yul\":6477:6478   */\n      dup2\n        /* \"#utility.yul\":6474:6487   */\n      lt\n        /* \"#utility.yul\":6455:6739   */\n      iszero\n      tag_137\n      jumpi\n        /* \"#utility.yul\":6556:6562   */\n      dup2\n        /* \"#utility.yul\":6550:6563   */\n      mload\n        /* \"#utility.yul\":6583:6646   */\n      tag_138\n        /* \"#utility.yul\":6642:6645   */\n      dup9\n        /* \"#utility.yul\":6627:6640   */\n      dup3\n        /* \"#utility.yul\":6583:6646   */\n      tag_55\n      jump\t// in\n    tag_138:\n        /* \"#utility.yul\":6576:6646   */\n      swap8\n      pop\n        /* \"#utility.yul\":6669:6729   */\n      tag_139\n        /* \"#utility.yul\":6722:6728   */\n      dup4\n        /* \"#utility.yul\":6669:6729   */\n      tag_56\n      jump\t// in\n    tag_139:\n        /* \"#utility.yul\":6659:6729   */\n      swap3\n      pop\n        /* \"#utility.yul\":6515:6739   */\n      pop\n        /* \"#utility.yul\":6502:6503   */\n      0x01\n        /* \"#utility.yul\":6499:6500   */\n      dup2\n        /* \"#utility.yul\":6495:6504   */\n      add\n        /* \"#utility.yul\":6490:6504   */\n      swap1\n      pop\n        /* \"#utility.yul\":6455:6739   */\n      jump(tag_135)\n    tag_137:\n        /* \"#utility.yul\":6459:6473   */\n      pop\n        /* \"#utility.yul\":6755:6758   */\n      dup6\n        /* \"#utility.yul\":6748:6758   */\n      swap4\n      pop\n        /* \"#utility.yul\":6156:6764   */\n      pop\n      pop\n      pop\n        /* \"#utility.yul\":6032:6764   */\n      swap3\n      swap2\n      pop\n      pop\n      jump\t// out\n        /* \"#utility.yul\":6770:7143   */\n    tag_19:\n        /* \"#utility.yul\":6913:6917   */\n      0x00\n        /* \"#utility.yul\":6951:6953   */\n      0x20\n        /* \"#utility.yul\":6940:6949   */\n      dup3\n        /* \"#utility.yul\":6936:6954   */\n      add\n        /* \"#utility.yul\":6928:6954   */\n      swap1\n      pop\n        /* \"#utility.yul\":7000:7009   */\n      dup2\n        /* \"#utility.yul\":6994:6998   */\n      dup2\n        /* \"#utility.yul\":6990:7010   */\n      sub\n        /* \"#utility.yul\":6986:6987   */\n      0x00\n        /* \"#utility.yul\":6975:6984   */\n      dup4\n        /* \"#utility.yul\":6971:6988   */\n      add\n        /* \"#utility.yul\":6964:7011   */\n      mstore\n        /* \"#utility.yul\":7028:7136   */\n      tag_141\n        /* \"#utility.yul\":7131:7135   */\n      dup2\n        /* \"#utility.yul\":7122:7128   */\n      dup5\n        /* \"#utility.yul\":7028:7136   */\n      tag_57\n      jump\t// in\n    tag_141:\n        /* \"#utility.yul\":7020:7136   */\n      swap1\n      pop\n        /* \"#utility.yul\":6770:7143   */\n      swap3\n      swap2\n      pop\n      pop\n      jump\t// out\n        /* \"#utility.yul\":7149:7248   */\n    tag_58:\n        /* \"#utility.yul\":7201:7207   */\n      0x00\n        /* \"#utility.yul\":7235:7240   */\n      dup2\n        /* \"#utility.yul\":7229:7241   */\n      mload\n        /* \"#utility.yul\":7219:7241   */\n      swap1\n      pop\n        /* \"#utility.yul\":7149:7248   */\n      swap2\n      swap1\n      pop\n      jump\t// out\n        /* \"#utility.yul\":7254:7423   */\n    tag_59:\n        /* \"#utility.yul\":7338:7349   */\n      0x00\n        /* \"#utility.yul\":7372:7378   */\n      dup3\n        /* \"#utility.yul\":7367:7370   */\n      dup3\n        /* \"#utility.yul\":7360:7379   */\n      mstore\n        /* \"#utility.yul\":7412:7416   */\n      0x20\n        /* \"#utility.yul\":7407:7410   */\n      dup3\n        /* \"#utility.yul\":7403:7417   */\n      add\n        /* \"#utility.yul\":7388:7417   */\n      swap1\n      pop\n        /* \"#utility.yul\":7254:7423   */\n      swap3\n      swap2\n      pop\n      pop\n      jump\t// out\n        /* \"#utility.yul\":7429:7736   */\n    tag_60:\n        /* \"#utility.yul\":7497:7498   */\n      0x00\n        /* \"#utility.yul\":7507:7620   */\n    tag_145:\n        /* \"#utility.yul\":7521:7527   */\n      dup4\n        /* \"#utility.yul\":7518:7519   */\n      dup2\n        /* \"#utility.yul\":7515:7528   */\n      lt\n        /* \"#utility.yul\":7507:7620   */\n      iszero\n      tag_147\n      jumpi\n        /* \"#utility.yul\":7606:7607   */\n      dup1\n        /* \"#utility.yul\":7601:7604   */\n      dup3\n        /* \"#utility.yul\":7597:7608   */\n      add\n        /* \"#utility.yul\":7591:7609   */\n      mload\n        /* \"#utility.yul\":7587:7588   */\n      dup2\n        /* \"#utility.yul\":7582:7585   */\n      dup5\n        /* \"#utility.yul\":7578:7589   */\n      add\n        /* \"#utility.yul\":7571:7610   */\n      mstore\n        /* \"#utility.yul\":7543:7545   */\n      0x20\n        /* \"#utility.yul\":7540:7541   */\n      dup2\n        /* \"#utility.yul\":7536:7546   */\n      add\n        /* \"#utility.yul\":7531:7546   */\n      swap1\n      pop\n        /* \"#utility.yul\":7507:7620   */\n      jump(tag_145)\n    tag_147:\n        /* \"#utility.yul\":7638:7644   */\n      dup4\n        /* \"#utility.yul\":7635:7636   */\n      dup2\n        /* \"#utility.yul\":7632:7645   */\n      gt\n        /* \"#utility.yul\":7629:7730   */\n      iszero\n      tag_148\n      jumpi\n        /* \"#utility.yul\":7718:7719   */\n      0x00\n        /* \"#utility.yul\":7709:7715   */\n      dup5\n        /* \"#utility.yul\":7704:7707   */\n      dup5\n        /* \"#utility.yul\":7700:7716   */\n      add\n        /* \"#utility.yul\":7693:7720   */\n      mstore\n        /* \"#utility.yul\":7629:7730   */\n    tag_148:\n        /* \"#utility.yul\":7478:7736   */\n      pop\n        /* \"#utility.yul\":7429:7736   */\n      pop\n      pop\n      pop\n      jump\t// out\n        /* \"#utility.yul\":7742:8106   */\n    tag_61:\n        /* \"#utility.yul\":7830:7833   */\n      0x00\n        /* \"#utility.yul\":7858:7897   */\n      tag_150\n        /* \"#utility.yul\":7891:7896   */\n      dup3\n        /* \"#utility.yul\":7858:7897   */\n      tag_58\n      jump\t// in\n    tag_150:\n        /* \"#utility.yul\":7913:7984   */\n      tag_151\n        /* \"#utility.yul\":7977:7983   */\n      dup2\n        /* \"#utility.yul\":7972:7975   */\n      dup6\n        /* \"#utility.yul\":7913:7984   */\n      tag_59\n      jump\t// in\n    tag_151:\n        /* \"#utility.yul\":7906:7984   */\n      swap4\n      pop\n        /* \"#utility.yul\":7993:8045   */\n      tag_152\n        /* \"#utility.yul\":8038:8044   */\n      dup2\n        /* \"#utility.yul\":8033:8036   */\n      dup6\n        /* \"#utility.yul\":8026:8030   */\n      0x20\n        /* \"#utility.yul\":8019:8024   */\n      dup7\n        /* \"#utility.yul\":8015:8031   */\n      add\n        /* \"#utility.yul\":7993:8045   */\n      tag_60\n      jump\t// in\n    tag_152:\n        /* \"#utility.yul\":8070:8099   */\n      tag_153\n        /* \"#utility.yul\":8092:8098   */\n      dup2\n        /* \"#utility.yul\":8070:8099   */\n      tag_43\n      jump\t// in\n    tag_153:\n        /* \"#utility.yul\":8065:8068   */\n      dup5\n        /* \"#utility.yul\":8061:8100   */\n      add\n        /* \"#utility.yul\":8054:8100   */\n      swap2\n      pop\n        /* \"#utility.yul\":7834:8106   */\n      pop\n        /* \"#utility.yul\":7742:8106   */\n      swap3\n      swap2\n      pop\n      pop\n      jump\t// out\n        /* \"#utility.yul\":8112:8230   */\n    tag_62:\n        /* \"#utility.yul\":8199:8223   */\n      tag_155\n        /* \"#utility.yul\":8217:8222   */\n      dup2\n        /* \"#utility.yul\":8199:8223   */\n      tag_35\n      jump\t// in\n    tag_155:\n        /* \"#utility.yul\":8194:8197   */\n      dup3\n        /* \"#utility.yul\":8187:8224   */\n      mstore\n        /* \"#utility.yul\":8112:8230   */\n      pop\n      pop\n      jump\t// out\n        /* \"#utility.yul\":8236:9173   */\n    tag_26:\n        /* \"#utility.yul\":8501:8505   */\n      0x00\n        /* \"#utility.yul\":8539:8542   */\n      0xa0\n        /* \"#utility.yul\":8528:8537   */\n      dup3\n        /* \"#utility.yul\":8524:8543   */\n      add\n        /* \"#utility.yul\":8516:8543   */\n      swap1\n      pop\n        /* \"#utility.yul\":8589:8598   */\n      dup2\n        /* \"#utility.yul\":8583:8587   */\n      dup2\n        /* \"#utility.yul\":8579:8599   */\n      sub\n        /* \"#utility.yul\":8575:8576   */\n      0x00\n        /* \"#utility.yul\":8564:8573   */\n      dup4\n        /* \"#utility.yul\":8560:8577   */\n      add\n        /* \"#utility.yul\":8553:8600   */\n      mstore\n        /* \"#utility.yul\":8617:8695   */\n      tag_157\n        /* \"#utility.yul\":8690:8694   */\n      dup2\n        /* \"#utility.yul\":8681:8687   */\n      dup9\n        /* \"#utility.yul\":8617:8695   */\n      tag_61\n      jump\t// in\n    tag_157:\n        /* \"#utility.yul\":8609:8695   */\n      swap1\n      pop\n        /* \"#utility.yul\":8742:8751   */\n      dup2\n        /* \"#utility.yul\":8736:8740   */\n      dup2\n        /* \"#utility.yul\":8732:8752   */\n      sub\n        /* \"#utility.yul\":8727:8729   */\n      0x20\n        /* \"#utility.yul\":8716:8725   */\n      dup4\n        /* \"#utility.yul\":8712:8730   */\n      add\n        /* \"#utility.yul\":8705:8753   */\n      mstore\n        /* \"#utility.yul\":8770:8848   */\n      tag_158\n        /* \"#utility.yul\":8843:8847   */\n      dup2\n        /* \"#utility.yul\":8834:8840   */\n      dup8\n        /* \"#utility.yul\":8770:8848   */\n      tag_61\n      jump\t// in\n    tag_158:\n        /* \"#utility.yul\":8762:8848   */\n      swap1\n      pop\n        /* \"#utility.yul\":8895:8904   */\n      dup2\n        /* \"#utility.yul\":8889:8893   */\n      dup2\n        /* \"#utility.yul\":8885:8905   */\n      sub\n        /* \"#utility.yul\":8880:8882   */\n      0x40\n        /* \"#utility.yul\":8869:8878   */\n      dup4\n        /* \"#utility.yul\":8865:8883   */\n      add\n        /* \"#utility.yul\":8858:8906   */\n      mstore\n        /* \"#utility.yul\":8923:9001   */\n      tag_159\n        /* \"#utility.yul\":8996:9000   */\n      dup2\n        /* \"#utility.yul\":8987:8993   */\n      dup7\n        /* \"#utility.yul\":8923:9001   */\n      tag_61\n      jump\t// in\n    tag_159:\n        /* \"#utility.yul\":8915:9001   */\n      swap1\n      pop\n        /* \"#utility.yul\":9011:9083   */\n      tag_160\n        /* \"#utility.yul\":9079:9081   */\n      0x60\n        /* \"#utility.yul\":9068:9077   */\n      dup4\n        /* \"#utility.yul\":9064:9082   */\n      add\n        /* \"#utility.yul\":9055:9061   */\n      dup6\n        /* \"#utility.yul\":9011:9083   */\n      tag_62\n      jump\t// in\n    tag_160:\n        /* \"#utility.yul\":9093:9166   */\n      tag_161\n        /* \"#utility.yul\":9161:9164   */\n      0x80\n        /* \"#utility.yul\":9150:9159   */\n      dup4\n        /* \"#utility.yul\":9146:9165   */\n      add\n        /* \"#utility.yul\":9137:9143   */\n      dup5\n        /* \"#utility.yul\":9093:9166   */\n      tag_40\n      jump\t// in\n    tag_161:\n        /* \"#utility.yul\":8236:9173   */\n      swap7\n      swap6\n      pop\n      pop\n      pop\n      pop\n      pop\n      pop\n      jump\t// out\n    stop\n\n    sub_0: assembly {\n            /* \"AEIOU.sol\":455:4048  contract AEIOUCampaign {... */\n          mstore(0x40, 0x80)\n            /* \"AEIOU.sol\":1006:1254  constructor(string memory titl, string memory desc, string memory image, uint minAmount, address manag) {... */\n          callvalue\n          dup1\n          iszero\n          tag_1\n          jumpi\n          0x00\n          dup1\n          revert\n        tag_1:\n          pop\n          mload(0x40)\n          sub(codesize, bytecodeSize)\n          dup1\n          bytecodeSize\n          dup4\n          codecopy\n          dup2\n          dup2\n          add\n          0x40\n          mstore\n          dup2\n          add\n          swap1\n          tag_2\n          swap2\n          swap1\n          tag_3\n          jump\t// in\n        tag_2:\n            /* \"AEIOU.sol\":1128:1132  titl */\n          dup5\n            /* \"AEIOU.sol\":1120:1125  title */\n          0x00\n            /* \"AEIOU.sol\":1120:1132  title = titl */\n          swap1\n          dup1\n          mload\n          swap1\n          0x20\n          add\n          swap1\n          tag_6\n          swap3\n          swap2\n          swap1\n          tag_7\n          jump\t// in\n        tag_6:\n          pop\n            /* \"AEIOU.sol\":1156:1160  desc */\n          dup4\n            /* \"AEIOU.sol\":1142:1153  description */\n          0x01\n            /* \"AEIOU.sol\":1142:1160  description = desc */\n          swap1\n          dup1\n          mload\n          swap1\n          0x20\n          add\n          swap1\n          tag_8\n          swap3\n          swap2\n          swap1\n          tag_7\n          jump\t// in\n        tag_8:\n          pop\n            /* \"AEIOU.sol\":1186:1195  minAmount */\n          dup2\n            /* \"AEIOU.sol\":1170:1183  minimumAmount */\n          0x04\n            /* \"AEIOU.sol\":1170:1195  minimumAmount = minAmount */\n          dup2\n          swap1\n          sstore\n          pop\n            /* \"AEIOU.sol\":1217:1222  image */\n          dup3\n            /* \"AEIOU.sol\":1205:1214  imgSource */\n          0x02\n            /* \"AEIOU.sol\":1205:1222  imgSource = image */\n          swap1\n          dup1\n          mload\n          swap1\n          0x20\n          add\n          swap1\n          tag_9\n          swap3\n          swap2\n          swap1\n          tag_7\n          jump\t// in\n        tag_9:\n          pop\n            /* \"AEIOU.sol\":1242:1247  manag */\n          dup1\n            /* \"AEIOU.sol\":1232:1239  manager */\n          0x03\n          0x00\n            /* \"AEIOU.sol\":1232:1247  manager = manag */\n          0x0100\n          exp\n          dup2\n          sload\n          dup2\n          0xffffffffffffffffffffffffffffffffffffffff\n          mul\n          not\n          and\n          swap1\n          dup4\n          0xffffffffffffffffffffffffffffffffffffffff\n          and\n          mul\n          or\n          swap1\n          sstore\n          pop\n            /* \"AEIOU.sol\":1006:1254  constructor(string memory titl, string memory desc, string memory image, uint minAmount, address manag) {... */\n          pop\n          pop\n          pop\n          pop\n          pop\n            /* \"AEIOU.sol\":455:4048  contract AEIOUCampaign {... */\n          jump(tag_10)\n        tag_7:\n          dup3\n          dup1\n          sload\n          tag_11\n          swap1\n          tag_12\n          jump\t// in\n        tag_11:\n          swap1\n          0x00\n          mstore\n          keccak256(0x00, 0x20)\n          swap1\n          0x1f\n          add\n          0x20\n          swap1\n          div\n          dup2\n          add\n          swap3\n          dup3\n          tag_14\n          jumpi\n          0x00\n          dup6\n          sstore\n          jump(tag_13)\n        tag_14:\n          dup3\n          0x1f\n          lt\n          tag_15\n          jumpi\n          dup1\n          mload\n          not(0xff)\n          and\n          dup4\n          dup1\n          add\n          or\n          dup6\n          sstore\n          jump(tag_13)\n        tag_15:\n          dup3\n          dup1\n          add\n          0x01\n          add\n          dup6\n          sstore\n          dup3\n          iszero\n          tag_13\n          jumpi\n          swap2\n          dup3\n          add\n        tag_16:\n          dup3\n          dup2\n          gt\n          iszero\n          tag_17\n          jumpi\n          dup3\n          mload\n          dup3\n          sstore\n          swap2\n          0x20\n          add\n          swap2\n          swap1\n          0x01\n          add\n          swap1\n          jump(tag_16)\n        tag_17:\n        tag_13:\n          pop\n          swap1\n          pop\n          tag_18\n          swap2\n          swap1\n          tag_19\n          jump\t// in\n        tag_18:\n          pop\n          swap1\n          jump\t// out\n        tag_19:\n        tag_20:\n          dup1\n          dup3\n          gt\n          iszero\n          tag_21\n          jumpi\n          0x00\n          dup2\n          0x00\n          swap1\n          sstore\n          pop\n          0x01\n          add\n          jump(tag_20)\n        tag_21:\n          pop\n          swap1\n          jump\t// out\n            /* \"#utility.yul\":7:82   */\n        tag_22:\n            /* \"#utility.yul\":40:46   */\n          0x00\n            /* \"#utility.yul\":73:75   */\n          0x40\n            /* \"#utility.yul\":67:76   */\n          mload\n            /* \"#utility.yul\":57:76   */\n          swap1\n          pop\n            /* \"#utility.yul\":7:82   */\n          swap1\n          jump\t// out\n            /* \"#utility.yul\":88:205   */\n        tag_23:\n            /* \"#utility.yul\":197:198   */\n          0x00\n            /* \"#utility.yul\":194:195   */\n          dup1\n            /* \"#utility.yul\":187:199   */\n          revert\n            /* \"#utility.yul\":211:328   */\n        tag_24:\n            /* \"#utility.yul\":320:321   */\n          0x00\n            /* \"#utility.yul\":317:318   */\n          dup1\n            /* \"#utility.yul\":310:322   */\n          revert\n            /* \"#utility.yul\":334:451   */\n        tag_25:\n            /* \"#utility.yul\":443:444   */\n          0x00\n            /* \"#utility.yul\":440:441   */\n          dup1\n            /* \"#utility.yul\":433:445   */\n          revert\n            /* \"#utility.yul\":457:574   */\n        tag_26:\n            /* \"#utility.yul\":566:567   */\n          0x00\n            /* \"#utility.yul\":563:564   */\n          dup1\n            /* \"#utility.yul\":556:568   */\n          revert\n            /* \"#utility.yul\":580:682   */\n        tag_27:\n            /* \"#utility.yul\":621:627   */\n          0x00\n            /* \"#utility.yul\":672:674   */\n          0x1f\n            /* \"#utility.yul\":668:675   */\n          not\n            /* \"#utility.yul\":663:665   */\n          0x1f\n            /* \"#utility.yul\":656:661   */\n          dup4\n            /* \"#utility.yul\":652:666   */\n          add\n            /* \"#utility.yul\":648:676   */\n          and\n            /* \"#utility.yul\":638:676   */\n          swap1\n          pop\n            /* \"#utility.yul\":580:682   */\n          swap2\n          swap1\n          pop\n          jump\t// out\n            /* \"#utility.yul\":688:868   */\n        tag_28:\n            /* \"#utility.yul\":736:813   */\n          0x4e487b7100000000000000000000000000000000000000000000000000000000\n            /* \"#utility.yul\":733:734   */\n          0x00\n            /* \"#utility.yul\":726:814   */\n          mstore\n            /* \"#utility.yul\":833:837   */\n          0x41\n            /* \"#utility.yul\":830:831   */\n          0x04\n            /* \"#utility.yul\":823:838   */\n          mstore\n            /* \"#utility.yul\":857:861   */\n          0x24\n            /* \"#utility.yul\":854:855   */\n          0x00\n            /* \"#utility.yul\":847:862   */\n          revert\n            /* \"#utility.yul\":874:1155   */\n        tag_29:\n            /* \"#utility.yul\":957:984   */\n          tag_52\n            /* \"#utility.yul\":979:983   */\n          dup3\n            /* \"#utility.yul\":957:984   */\n          tag_27\n          jump\t// in\n        tag_52:\n            /* \"#utility.yul\":949:955   */\n          dup2\n            /* \"#utility.yul\":945:985   */\n          add\n            /* \"#utility.yul\":1087:1093   */\n          dup2\n            /* \"#utility.yul\":1075:1085   */\n          dup2\n            /* \"#utility.yul\":1072:1094   */\n          lt\n            /* \"#utility.yul\":1051:1069   */\n          0xffffffffffffffff\n            /* \"#utility.yul\":1039:1049   */\n          dup3\n            /* \"#utility.yul\":1036:1070   */\n          gt\n            /* \"#utility.yul\":1033:1095   */\n          or\n            /* \"#utility.yul\":1030:1118   */\n          iszero\n          tag_53\n          jumpi\n            /* \"#utility.yul\":1098:1116   */\n          tag_54\n          tag_28\n          jump\t// in\n        tag_54:\n            /* \"#utility.yul\":1030:1118   */\n        tag_53:\n            /* \"#utility.yul\":1138:1148   */\n          dup1\n            /* \"#utility.yul\":1134:1136   */\n          0x40\n            /* \"#utility.yul\":1127:1149   */\n          mstore\n            /* \"#utility.yul\":917:1155   */\n          pop\n            /* \"#utility.yul\":874:1155   */\n          pop\n          pop\n          jump\t// out\n            /* \"#utility.yul\":1161:1290   */\n        tag_30:\n            /* \"#utility.yul\":1195:1201   */\n          0x00\n            /* \"#utility.yul\":1222:1242   */\n          tag_56\n          tag_22\n          jump\t// in\n        tag_56:\n            /* \"#utility.yul\":1212:1242   */\n          swap1\n          pop\n            /* \"#utility.yul\":1251:1284   */\n          tag_57\n            /* \"#utility.yul\":1279:1283   */\n          dup3\n            /* \"#utility.yul\":1271:1277   */\n          dup3\n            /* \"#utility.yul\":1251:1284   */\n          tag_29\n          jump\t// in\n        tag_57:\n            /* \"#utility.yul\":1161:1290   */\n          swap2\n          swap1\n          pop\n          jump\t// out\n            /* \"#utility.yul\":1296:1604   */\n        tag_31:\n            /* \"#utility.yul\":1358:1362   */\n          0x00\n            /* \"#utility.yul\":1448:1466   */\n          0xffffffffffffffff\n            /* \"#utility.yul\":1440:1446   */\n          dup3\n            /* \"#utility.yul\":1437:1467   */\n          gt\n            /* \"#utility.yul\":1434:1490   */\n          iszero\n          tag_59\n          jumpi\n            /* \"#utility.yul\":1470:1488   */\n          tag_60\n          tag_28\n          jump\t// in\n        tag_60:\n            /* \"#utility.yul\":1434:1490   */\n        tag_59:\n            /* \"#utility.yul\":1508:1537   */\n          tag_61\n            /* \"#utility.yul\":1530:1536   */\n          dup3\n            /* \"#utility.yul\":1508:1537   */\n          tag_27\n          jump\t// in\n        tag_61:\n            /* \"#utility.yul\":1500:1537   */\n          swap1\n          pop\n            /* \"#utility.yul\":1592:1596   */\n          0x20\n            /* \"#utility.yul\":1586:1590   */\n          dup2\n            /* \"#utility.yul\":1582:1597   */\n          add\n            /* \"#utility.yul\":1574:1597   */\n          swap1\n          pop\n            /* \"#utility.yul\":1296:1604   */\n          swap2\n          swap1\n          pop\n          jump\t// out\n            /* \"#utility.yul\":1610:1917   */\n        tag_32:\n            /* \"#utility.yul\":1678:1679   */\n          0x00\n            /* \"#utility.yul\":1688:1801   */\n        tag_63:\n            /* \"#utility.yul\":1702:1708   */\n          dup4\n            /* \"#utility.yul\":1699:1700   */\n          dup2\n            /* \"#utility.yul\":1696:1709   */\n          lt\n            /* \"#utility.yul\":1688:1801   */\n          iszero\n          tag_65\n          jumpi\n            /* \"#utility.yul\":1787:1788   */\n          dup1\n            /* \"#utility.yul\":1782:1785   */\n          dup3\n            /* \"#utility.yul\":1778:1789   */\n          add\n            /* \"#utility.yul\":1772:1790   */\n          mload\n            /* \"#utility.yul\":1768:1769   */\n          dup2\n            /* \"#utility.yul\":1763:1766   */\n          dup5\n            /* \"#utility.yul\":1759:1770   */\n          add\n            /* \"#utility.yul\":1752:1791   */\n          mstore\n            /* \"#utility.yul\":1724:1726   */\n          0x20\n            /* \"#utility.yul\":1721:1722   */\n          dup2\n            /* \"#utility.yul\":1717:1727   */\n          add\n            /* \"#utility.yul\":1712:1727   */\n          swap1\n          pop\n            /* \"#utility.yul\":1688:1801   */\n          jump(tag_63)\n        tag_65:\n            /* \"#utility.yul\":1819:1825   */\n          dup4\n            /* \"#utility.yul\":1816:1817   */\n          dup2\n            /* \"#utility.yul\":1813:1826   */\n          gt\n            /* \"#utility.yul\":1810:1911   */\n          iszero\n          tag_66\n          jumpi\n            /* \"#utility.yul\":1899:1900   */\n          0x00\n            /* \"#utility.yul\":1890:1896   */\n          dup5\n            /* \"#utility.yul\":1885:1888   */\n          dup5\n            /* \"#utility.yul\":1881:1897   */\n          add\n            /* \"#utility.yul\":1874:1901   */\n          mstore\n            /* \"#utility.yul\":1810:1911   */\n        tag_66:\n            /* \"#utility.yul\":1659:1917   */\n          pop\n            /* \"#utility.yul\":1610:1917   */\n          pop\n          pop\n          pop\n          jump\t// out\n            /* \"#utility.yul\":1923:2344   */\n        tag_33:\n            /* \"#utility.yul\":2012:2017   */\n          0x00\n            /* \"#utility.yul\":2037:2103   */\n          tag_68\n            /* \"#utility.yul\":2053:2102   */\n          tag_69\n            /* \"#utility.yul\":2095:2101   */\n          dup5\n            /* \"#utility.yul\":2053:2102   */\n          tag_31\n          jump\t// in\n        tag_69:\n            /* \"#utility.yul\":2037:2103   */\n          tag_30\n          jump\t// in\n        tag_68:\n            /* \"#utility.yul\":2028:2103   */\n          swap1\n          pop\n            /* \"#utility.yul\":2126:2132   */\n          dup3\n            /* \"#utility.yul\":2119:2124   */\n          dup2\n            /* \"#utility.yul\":2112:2133   */\n          mstore\n            /* \"#utility.yul\":2164:2168   */\n          0x20\n            /* \"#utility.yul\":2157:2162   */\n          dup2\n            /* \"#utility.yul\":2153:2169   */\n          add\n            /* \"#utility.yul\":2202:2205   */\n          dup5\n            /* \"#utility.yul\":2193:2199   */\n          dup5\n            /* \"#utility.yul\":2188:2191   */\n          dup5\n            /* \"#utility.yul\":2184:2200   */\n          add\n            /* \"#utility.yul\":2181:2206   */\n          gt\n            /* \"#utility.yul\":2178:2290   */\n          iszero\n          tag_70\n          jumpi\n            /* \"#utility.yul\":2209:2288   */\n          tag_71\n          tag_26\n          jump\t// in\n        tag_71:\n            /* \"#utility.yul\":2178:2290   */\n        tag_70:\n            /* \"#utility.yul\":2299:2338   */\n          tag_72\n            /* \"#utility.yul\":2331:2337   */\n          dup5\n            /* \"#utility.yul\":2326:2329   */\n          dup3\n            /* \"#utility.yul\":2321:2324   */\n          dup6\n            /* \"#utility.yul\":2299:2338   */\n          tag_32\n          jump\t// in\n        tag_72:\n            /* \"#utility.yul\":2018:2344   */\n          pop\n            /* \"#utility.yul\":1923:2344   */\n          swap4\n          swap3\n          pop\n          pop\n          pop\n          jump\t// out\n            /* \"#utility.yul\":2364:2719   */\n        tag_34:\n            /* \"#utility.yul\":2431:2436   */\n          0x00\n            /* \"#utility.yul\":2480:2483   */\n          dup3\n            /* \"#utility.yul\":2473:2477   */\n          0x1f\n            /* \"#utility.yul\":2465:2471   */\n          dup4\n            /* \"#utility.yul\":2461:2478   */\n          add\n            /* \"#utility.yul\":2457:2484   */\n          slt\n            /* \"#utility.yul\":2447:2569   */\n          tag_74\n          jumpi\n            /* \"#utility.yul\":2488:2567   */\n          tag_75\n          tag_25\n          jump\t// in\n        tag_75:\n            /* \"#utility.yul\":2447:2569   */\n        tag_74:\n            /* \"#utility.yul\":2598:2604   */\n          dup2\n            /* \"#utility.yul\":2592:2605   */\n          mload\n            /* \"#utility.yul\":2623:2713   */\n          tag_76\n            /* \"#utility.yul\":2709:2712   */\n          dup5\n            /* \"#utility.yul\":2701:2707   */\n          dup3\n            /* \"#utility.yul\":2694:2698   */\n          0x20\n            /* \"#utility.yul\":2686:2692   */\n          dup7\n            /* \"#utility.yul\":2682:2699   */\n          add\n            /* \"#utility.yul\":2623:2713   */\n          tag_33\n          jump\t// in\n        tag_76:\n            /* \"#utility.yul\":2614:2713   */\n          swap2\n          pop\n            /* \"#utility.yul\":2437:2719   */\n          pop\n            /* \"#utility.yul\":2364:2719   */\n          swap3\n          swap2\n          pop\n          pop\n          jump\t// out\n            /* \"#utility.yul\":2725:2802   */\n        tag_35:\n            /* \"#utility.yul\":2762:2769   */\n          0x00\n            /* \"#utility.yul\":2791:2796   */\n          dup2\n            /* \"#utility.yul\":2780:2796   */\n          swap1\n          pop\n            /* \"#utility.yul\":2725:2802   */\n          swap2\n          swap1\n          pop\n          jump\t// out\n            /* \"#utility.yul\":2808:2930   */\n        tag_36:\n            /* \"#utility.yul\":2881:2905   */\n          tag_79\n            /* \"#utility.yul\":2899:2904   */\n          dup2\n            /* \"#utility.yul\":2881:2905   */\n          tag_35\n          jump\t// in\n        tag_79:\n            /* \"#utility.yul\":2874:2879   */\n          dup2\n            /* \"#utility.yul\":2871:2906   */\n          eq\n            /* \"#utility.yul\":2861:2924   */\n          tag_80\n          jumpi\n            /* \"#utility.yul\":2920:2921   */\n          0x00\n            /* \"#utility.yul\":2917:2918   */\n          dup1\n            /* \"#utility.yul\":2910:2922   */\n          revert\n            /* \"#utility.yul\":2861:2924   */\n        tag_80:\n            /* \"#utility.yul\":2808:2930   */\n          pop\n          jump\t// out\n            /* \"#utility.yul\":2936:3079   */\n        tag_37:\n            /* \"#utility.yul\":2993:2998   */\n          0x00\n            /* \"#utility.yul\":3024:3030   */\n          dup2\n            /* \"#utility.yul\":3018:3031   */\n          mload\n            /* \"#utility.yul\":3009:3031   */\n          swap1\n          pop\n            /* \"#utility.yul\":3040:3073   */\n          tag_82\n            /* \"#utility.yul\":3067:3072   */\n          dup2\n            /* \"#utility.yul\":3040:3073   */\n          tag_36\n          jump\t// in\n        tag_82:\n            /* \"#utility.yul\":2936:3079   */\n          swap3\n          swap2\n          pop\n          pop\n          jump\t// out\n            /* \"#utility.yul\":3085:3211   */\n        tag_38:\n            /* \"#utility.yul\":3122:3129   */\n          0x00\n            /* \"#utility.yul\":3162:3204   */\n          0xffffffffffffffffffffffffffffffffffffffff\n            /* \"#utility.yul\":3155:3160   */\n          dup3\n            /* \"#utility.yul\":3151:3205   */\n          and\n            /* \"#utility.yul\":3140:3205   */\n          swap1\n          pop\n            /* \"#utility.yul\":3085:3211   */\n          swap2\n          swap1\n          pop\n          jump\t// out\n            /* \"#utility.yul\":3217:3313   */\n        tag_39:\n            /* \"#utility.yul\":3254:3261   */\n          0x00\n            /* \"#utility.yul\":3283:3307   */\n          tag_85\n            /* \"#utility.yul\":3301:3306   */\n          dup3\n            /* \"#utility.yul\":3283:3307   */\n          tag_38\n          jump\t// in\n        tag_85:\n            /* \"#utility.yul\":3272:3307   */\n          swap1\n          pop\n            /* \"#utility.yul\":3217:3313   */\n          swap2\n          swap1\n          pop\n          jump\t// out\n            /* \"#utility.yul\":3319:3441   */\n        tag_40:\n            /* \"#utility.yul\":3392:3416   */\n          tag_87\n            /* \"#utility.yul\":3410:3415   */\n          dup2\n            /* \"#utility.yul\":3392:3416   */\n          tag_39\n          jump\t// in\n        tag_87:\n            /* \"#utility.yul\":3385:3390   */\n          dup2\n            /* \"#utility.yul\":3382:3417   */\n          eq\n            /* \"#utility.yul\":3372:3435   */\n          tag_88\n          jumpi\n            /* \"#utility.yul\":3431:3432   */\n          0x00\n            /* \"#utility.yul\":3428:3429   */\n          dup1\n            /* \"#utility.yul\":3421:3433   */\n          revert\n            /* \"#utility.yul\":3372:3435   */\n        tag_88:\n            /* \"#utility.yul\":3319:3441   */\n          pop\n          jump\t// out\n            /* \"#utility.yul\":3447:3590   */\n        tag_41:\n            /* \"#utility.yul\":3504:3509   */\n          0x00\n            /* \"#utility.yul\":3535:3541   */\n          dup2\n            /* \"#utility.yul\":3529:3542   */\n          mload\n            /* \"#utility.yul\":3520:3542   */\n          swap1\n          pop\n            /* \"#utility.yul\":3551:3584   */\n          tag_90\n            /* \"#utility.yul\":3578:3583   */\n          dup2\n            /* \"#utility.yul\":3551:3584   */\n          tag_40\n          jump\t// in\n        tag_90:\n            /* \"#utility.yul\":3447:3590   */\n          swap3\n          swap2\n          pop\n          pop\n          jump\t// out\n            /* \"#utility.yul\":3596:5092   */\n        tag_3:\n            /* \"#utility.yul\":3732:3738   */\n          0x00\n            /* \"#utility.yul\":3740:3746   */\n          dup1\n            /* \"#utility.yul\":3748:3754   */\n          0x00\n            /* \"#utility.yul\":3756:3762   */\n          dup1\n            /* \"#utility.yul\":3764:3770   */\n          0x00\n            /* \"#utility.yul\":3813:3816   */\n          0xa0\n            /* \"#utility.yul\":3801:3810   */\n          dup7\n            /* \"#utility.yul\":3792:3799   */\n          dup9\n            /* \"#utility.yul\":3788:3811   */\n          sub\n            /* \"#utility.yul\":3784:3817   */\n          slt\n            /* \"#utility.yul\":3781:3901   */\n          iszero\n          tag_92\n          jumpi\n            /* \"#utility.yul\":3820:3899   */\n          tag_93\n          tag_23\n          jump\t// in\n        tag_93:\n            /* \"#utility.yul\":3781:3901   */\n        tag_92:\n            /* \"#utility.yul\":3961:3962   */\n          0x00\n            /* \"#utility.yul\":3950:3959   */\n          dup7\n            /* \"#utility.yul\":3946:3963   */\n          add\n            /* \"#utility.yul\":3940:3964   */\n          mload\n            /* \"#utility.yul\":3991:4009   */\n          0xffffffffffffffff\n            /* \"#utility.yul\":3983:3989   */\n          dup2\n            /* \"#utility.yul\":3980:4010   */\n          gt\n            /* \"#utility.yul\":3977:4094   */\n          iszero\n          tag_94\n          jumpi\n            /* \"#utility.yul\":4013:4092   */\n          tag_95\n          tag_24\n          jump\t// in\n        tag_95:\n            /* \"#utility.yul\":3977:4094   */\n        tag_94:\n            /* \"#utility.yul\":4118:4192   */\n          tag_96\n            /* \"#utility.yul\":4184:4191   */\n          dup9\n            /* \"#utility.yul\":4175:4181   */\n          dup3\n            /* \"#utility.yul\":4164:4173   */\n          dup10\n            /* \"#utility.yul\":4160:4182   */\n          add\n            /* \"#utility.yul\":4118:4192   */\n          tag_34\n          jump\t// in\n        tag_96:\n            /* \"#utility.yul\":4108:4192   */\n          swap6\n          pop\n            /* \"#utility.yul\":3911:4202   */\n          pop\n            /* \"#utility.yul\":4262:4264   */\n          0x20\n            /* \"#utility.yul\":4251:4260   */\n          dup7\n            /* \"#utility.yul\":4247:4265   */\n          add\n            /* \"#utility.yul\":4241:4266   */\n          mload\n            /* \"#utility.yul\":4293:4311   */\n          0xffffffffffffffff\n            /* \"#utility.yul\":4285:4291   */\n          dup2\n            /* \"#utility.yul\":4282:4312   */\n          gt\n            /* \"#utility.yul\":4279:4396   */\n          iszero\n          tag_97\n          jumpi\n            /* \"#utility.yul\":4315:4394   */\n          tag_98\n          tag_24\n          jump\t// in\n        tag_98:\n            /* \"#utility.yul\":4279:4396   */\n        tag_97:\n            /* \"#utility.yul\":4420:4494   */\n          tag_99\n            /* \"#utility.yul\":4486:4493   */\n          dup9\n            /* \"#utility.yul\":4477:4483   */\n          dup3\n            /* \"#utility.yul\":4466:4475   */\n          dup10\n            /* \"#utility.yul\":4462:4484   */\n          add\n            /* \"#utility.yul\":4420:4494   */\n          tag_34\n          jump\t// in\n        tag_99:\n            /* \"#utility.yul\":4410:4494   */\n          swap5\n          pop\n            /* \"#utility.yul\":4212:4504   */\n          pop\n            /* \"#utility.yul\":4564:4566   */\n          0x40\n            /* \"#utility.yul\":4553:4562   */\n          dup7\n            /* \"#utility.yul\":4549:4567   */\n          add\n            /* \"#utility.yul\":4543:4568   */\n          mload\n            /* \"#utility.yul\":4595:4613   */\n          0xffffffffffffffff\n            /* \"#utility.yul\":4587:4593   */\n          dup2\n            /* \"#utility.yul\":4584:4614   */\n          gt\n            /* \"#utility.yul\":4581:4698   */\n          iszero\n          tag_100\n          jumpi\n            /* \"#utility.yul\":4617:4696   */\n          tag_101\n          tag_24\n          jump\t// in\n        tag_101:\n            /* \"#utility.yul\":4581:4698   */\n        tag_100:\n            /* \"#utility.yul\":4722:4796   */\n          tag_102\n            /* \"#utility.yul\":4788:4795   */\n          dup9\n            /* \"#utility.yul\":4779:4785   */\n          dup3\n            /* \"#utility.yul\":4768:4777   */\n          dup10\n            /* \"#utility.yul\":4764:4786   */\n          add\n            /* \"#utility.yul\":4722:4796   */\n          tag_34\n          jump\t// in\n        tag_102:\n            /* \"#utility.yul\":4712:4796   */\n          swap4\n          pop\n            /* \"#utility.yul\":4514:4806   */\n          pop\n            /* \"#utility.yul\":4845:4847   */\n          0x60\n            /* \"#utility.yul\":4871:4935   */\n          tag_103\n            /* \"#utility.yul\":4927:4934   */\n          dup9\n            /* \"#utility.yul\":4918:4924   */\n          dup3\n            /* \"#utility.yul\":4907:4916   */\n          dup10\n            /* \"#utility.yul\":4903:4925   */\n          add\n            /* \"#utility.yul\":4871:4935   */\n          tag_37\n          jump\t// in\n        tag_103:\n            /* \"#utility.yul\":4861:4935   */\n          swap3\n          pop\n            /* \"#utility.yul\":4816:4945   */\n          pop\n            /* \"#utility.yul\":4984:4987   */\n          0x80\n            /* \"#utility.yul\":5011:5075   */\n          tag_104\n            /* \"#utility.yul\":5067:5074   */\n          dup9\n            /* \"#utility.yul\":5058:5064   */\n          dup3\n            /* \"#utility.yul\":5047:5056   */\n          dup10\n            /* \"#utility.yul\":5043:5065   */\n          add\n            /* \"#utility.yul\":5011:5075   */\n          tag_41\n          jump\t// in\n        tag_104:\n            /* \"#utility.yul\":5001:5075   */\n          swap2\n          pop\n            /* \"#utility.yul\":4955:5085   */\n          pop\n            /* \"#utility.yul\":3596:5092   */\n          swap3\n          swap6\n          pop\n          swap3\n          swap6\n          swap1\n          swap4\n          pop\n          jump\t// out\n            /* \"#utility.yul\":5098:5278   */\n        tag_42:\n            /* \"#utility.yul\":5146:5223   */\n          0x4e487b7100000000000000000000000000000000000000000000000000000000\n            /* \"#utility.yul\":5143:5144   */\n          0x00\n            /* \"#utility.yul\":5136:5224   */\n          mstore\n            /* \"#utility.yul\":5243:5247   */\n          0x22\n            /* \"#utility.yul\":5240:5241   */\n          0x04\n            /* \"#utility.yul\":5233:5248   */\n          mstore\n            /* \"#utility.yul\":5267:5271   */\n          0x24\n            /* \"#utility.yul\":5264:5265   */\n          0x00\n            /* \"#utility.yul\":5257:5272   */\n          revert\n            /* \"#utility.yul\":5284:5604   */\n        tag_12:\n            /* \"#utility.yul\":5328:5334   */\n          0x00\n            /* \"#utility.yul\":5365:5366   */\n          0x02\n            /* \"#utility.yul\":5359:5363   */\n          dup3\n            /* \"#utility.yul\":5355:5367   */\n          div\n            /* \"#utility.yul\":5345:5367   */\n          swap1\n          pop\n            /* \"#utility.yul\":5412:5413   */\n          0x01\n            /* \"#utility.yul\":5406:5410   */\n          dup3\n            /* \"#utility.yul\":5402:5414   */\n          and\n            /* \"#utility.yul\":5433:5451   */\n          dup1\n            /* \"#utility.yul\":5423:5504   */\n          tag_107\n          jumpi\n            /* \"#utility.yul\":5489:5493   */\n          0x7f\n            /* \"#utility.yul\":5481:5487   */\n          dup3\n            /* \"#utility.yul\":5477:5494   */\n          and\n            /* \"#utility.yul\":5467:5494   */\n          swap2\n          pop\n            /* \"#utility.yul\":5423:5504   */\n        tag_107:\n            /* \"#utility.yul\":5551:5553   */\n          0x20\n            /* \"#utility.yul\":5543:5549   */\n          dup3\n            /* \"#utility.yul\":5540:5554   */\n          lt\n            /* \"#utility.yul\":5520:5538   */\n          dup2\n            /* \"#utility.yul\":5517:5555   */\n          sub\n            /* \"#utility.yul\":5514:5598   */\n          tag_108\n          jumpi\n            /* \"#utility.yul\":5570:5588   */\n          tag_109\n          tag_42\n          jump\t// in\n        tag_109:\n            /* \"#utility.yul\":5514:5598   */\n        tag_108:\n            /* \"#utility.yul\":5335:5604   */\n          pop\n            /* \"#utility.yul\":5284:5604   */\n          swap2\n          swap1\n          pop\n          jump\t// out\n            /* \"AEIOU.sol\":455:4048  contract AEIOUCampaign {... */\n        tag_10:\n          dataSize(sub_0)\n          dup1\n          dataOffset(sub_0)\n          0x00\n          codecopy\n          0x00\n          return\n        stop\n\n        sub_0: assembly {\n                /* \"AEIOU.sol\":455:4048  contract AEIOUCampaign {... */\n              mstore(0x40, 0x80)\n              jumpi(tag_1, lt(calldatasize, 0x04))\n              shr(0xe0, calldataload(0x00))\n              dup1\n              0x481c6a75\n              gt\n              tag_19\n              jumpi\n              dup1\n              0x81d12c58\n              gt\n              tag_20\n              jumpi\n              dup1\n              0x81d12c58\n              eq\n              tag_14\n              jumpi\n              dup1\n              0xbb0c8298\n              eq\n              tag_15\n              jumpi\n              dup1\n              0xd7bb99ba\n              eq\n              tag_16\n              jumpi\n              dup1\n              0xd7d1bbdb\n              eq\n              tag_17\n              jumpi\n              dup1\n              0xf251fc8c\n              eq\n              tag_18\n              jumpi\n              jump(tag_1)\n            tag_20:\n              dup1\n              0x481c6a75\n              eq\n              tag_10\n              jumpi\n              dup1\n              0x4a79d50c\n              eq\n              tag_11\n              jumpi\n              dup1\n              0x51f890ea\n              eq\n              tag_12\n              jumpi\n              dup1\n              0x7284e416\n              eq\n              tag_13\n              jumpi\n              jump(tag_1)\n            tag_19:\n              dup1\n              0x2f814278\n              gt\n              tag_21\n              jumpi\n              dup1\n              0x2f814278\n              eq\n              tag_6\n              jumpi\n              dup1\n              0x3410452a\n              eq\n              tag_7\n              jumpi\n              dup1\n              0x37627839\n              eq\n              tag_8\n              jumpi\n              dup1\n              0x4051ddac\n              eq\n              tag_9\n              jumpi\n              jump(tag_1)\n            tag_21:\n              dup1\n              0x03441006\n              eq\n              tag_2\n              jumpi\n              dup1\n              0x0b9f2c4a\n              eq\n              tag_3\n              jumpi\n              dup1\n              0x12065fe0\n              eq\n              tag_4\n              jumpi\n              dup1\n              0x1f6d4942\n              eq\n              tag_5\n              jumpi\n            tag_1:\n              0x00\n              dup1\n              revert\n                /* \"AEIOU.sol\":3172:3506  function finalizeRequest(uint requestIndex) public restricted {... */\n            tag_2:\n              callvalue\n              dup1\n              iszero\n              tag_22\n              jumpi\n              0x00\n              dup1\n              revert\n            tag_22:\n              pop\n              tag_23\n              0x04\n              dup1\n              calldatasize\n              sub\n              dup2\n              add\n              swap1\n              tag_24\n              swap2\n              swap1\n              tag_25\n              jump\t// in\n            tag_24:\n              tag_26\n              jump\t// in\n            tag_23:\n              stop\n                /* \"AEIOU.sol\":900:933  address[] public contributorsList */\n            tag_3:\n              callvalue\n              dup1\n              iszero\n              tag_27\n              jumpi\n              0x00\n              dup1\n              revert\n            tag_27:\n              pop\n              tag_28\n              0x04\n              dup1\n              calldatasize\n              sub\n              dup2\n              add\n              swap1\n              tag_29\n              swap2\n              swap1\n              tag_25\n              jump\t// in\n            tag_29:\n              tag_30\n              jump\t// in\n            tag_28:\n              mload(0x40)\n              tag_31\n              swap2\n              swap1\n              tag_32\n              jump\t// in\n            tag_31:\n              mload(0x40)\n              dup1\n              swap2\n              sub\n              swap1\n              return\n                /* \"AEIOU.sol\":1933:2038  function getBalance() public view returns(uint256) {... */\n            tag_4:\n              callvalue\n              dup1\n              iszero\n              tag_33\n              jumpi\n              0x00\n              dup1\n              revert\n            tag_33:\n              pop\n              tag_34\n              tag_35\n              jump\t// in\n            tag_34:\n              mload(0x40)\n              tag_36\n              swap2\n              swap1\n              tag_37\n              jump\t// in\n            tag_36:\n              mload(0x40)\n              dup1\n              swap2\n              sub\n              swap1\n              return\n                /* \"AEIOU.sol\":850:894  mapping(address => bool) public contributors */\n            tag_5:\n              callvalue\n              dup1\n              iszero\n              tag_38\n              jumpi\n              0x00\n              dup1\n              revert\n            tag_38:\n              pop\n              tag_39\n              0x04\n              dup1\n              calldatasize\n              sub\n              dup2\n              add\n              swap1\n              tag_40\n              swap2\n              swap1\n              tag_41\n              jump\t// in\n            tag_40:\n              tag_42\n              jump\t// in\n            tag_39:\n              mload(0x40)\n              tag_43\n              swap2\n              swap1\n              tag_44\n              jump\t// in\n            tag_43:\n              mload(0x40)\n              dup1\n              swap2\n              sub\n              swap1\n              return\n                /* \"AEIOU.sol\":2345:2745  function createRequest(string memory title, string memory desc, address receiver, uint amount) public restricted {... */\n            tag_6:\n              callvalue\n              dup1\n              iszero\n              tag_45\n              jumpi\n              0x00\n              dup1\n              revert\n            tag_45:\n              pop\n              tag_46\n              0x04\n              dup1\n              calldatasize\n              sub\n              dup2\n              add\n              swap1\n              tag_47\n              swap2\n              swap1\n              tag_48\n              jump\t// in\n            tag_47:\n              tag_49\n              jump\t// in\n            tag_46:\n              stop\n                /* \"AEIOU.sol\":2105:2198  function getRequestsCount() public view returns (uint){... */\n            tag_7:\n              callvalue\n              dup1\n              iszero\n              tag_50\n              jumpi\n              0x00\n              dup1\n              revert\n            tag_50:\n              pop\n              tag_51\n              tag_52\n              jump\t// in\n            tag_51:\n              mload(0x40)\n              tag_53\n              swap2\n              swap1\n              tag_37\n              jump\t// in\n            tag_53:\n              mload(0x40)\n              dup1\n              swap2\n              sub\n              swap1\n              return\n                /* \"AEIOU.sol\":762:785  string public imgSource */\n            tag_8:\n              callvalue\n              dup1\n              iszero\n              tag_54\n              jumpi\n              0x00\n              dup1\n              revert\n            tag_54:\n              pop\n              tag_55\n              tag_56\n              jump\t// in\n            tag_55:\n              mload(0x40)\n              tag_57\n              swap2\n              swap1\n              tag_58\n              jump\t// in\n            tag_57:\n              mload(0x40)\n              dup1\n              swap2\n              sub\n              swap1\n              return\n                /* \"AEIOU.sol\":3564:3942  function getSummary() public view returns (uint, uint256, uint, uint, address, string memory, string memory, string memory) {... */\n            tag_9:\n              callvalue\n              dup1\n              iszero\n              tag_59\n              jumpi\n              0x00\n              dup1\n              revert\n            tag_59:\n              pop\n              tag_60\n              tag_61\n              jump\t// in\n            tag_60:\n              mload(0x40)\n              tag_62\n              swap9\n              swap8\n              swap7\n              swap6\n              swap5\n              swap4\n              swap3\n              swap2\n              swap1\n              tag_63\n              jump\t// in\n            tag_62:\n              mload(0x40)\n              dup1\n              swap2\n              sub\n              swap1\n              return\n                /* \"AEIOU.sol\":791:813  address public manager */\n            tag_10:\n              callvalue\n              dup1\n              iszero\n              tag_64\n              jumpi\n              0x00\n              dup1\n              revert\n            tag_64:\n              pop\n              tag_65\n              tag_66\n              jump\t// in\n            tag_65:\n              mload(0x40)\n              tag_67\n              swap2\n              swap1\n              tag_32\n              jump\t// in\n            tag_67:\n              mload(0x40)\n              dup1\n              swap2\n              sub\n              swap1\n              return\n                /* \"AEIOU.sol\":706:725  string public title */\n            tag_11:\n              callvalue\n              dup1\n              iszero\n              tag_68\n              jumpi\n              0x00\n              dup1\n              revert\n            tag_68:\n              pop\n              tag_69\n              tag_70\n              jump\t// in\n            tag_69:\n              mload(0x40)\n              tag_71\n              swap2\n              swap1\n              tag_58\n              jump\t// in\n            tag_71:\n              mload(0x40)\n              dup1\n              swap2\n              sub\n              swap1\n              return\n                /* \"AEIOU.sol\":1752:1861  function getAllContributors() public view returns (address[] memory) {... */\n            tag_12:\n              callvalue\n              dup1\n              iszero\n              tag_72\n              jumpi\n              0x00\n              dup1\n              revert\n            tag_72:\n              pop\n              tag_73\n              tag_74\n              jump\t// in\n            tag_73:\n              mload(0x40)\n              tag_75\n              swap2\n              swap1\n              tag_76\n              jump\t// in\n            tag_75:\n              mload(0x40)\n              dup1\n              swap2\n              sub\n              swap1\n              return\n                /* \"AEIOU.sol\":731:756  string public description */\n            tag_13:\n              callvalue\n              dup1\n              iszero\n              tag_77\n              jumpi\n              0x00\n              dup1\n              revert\n            tag_77:\n              pop\n              tag_78\n              tag_79\n              jump\t// in\n            tag_78:\n              mload(0x40)\n              tag_80\n              swap2\n              swap1\n              tag_58\n              jump\t// in\n            tag_80:\n              mload(0x40)\n              dup1\n              swap2\n              sub\n              swap1\n              return\n                /* \"AEIOU.sol\":974:999  Request[] public requests */\n            tag_14:\n              callvalue\n              dup1\n              iszero\n              tag_81\n              jumpi\n              0x00\n              dup1\n              revert\n            tag_81:\n              pop\n              tag_82\n              0x04\n              dup1\n              calldatasize\n              sub\n              dup2\n              add\n              swap1\n              tag_83\n              swap2\n              swap1\n              tag_25\n              jump\t// in\n            tag_83:\n              tag_84\n              jump\t// in\n            tag_82:\n              mload(0x40)\n              tag_85\n              swap7\n              swap6\n              swap5\n              swap4\n              swap3\n              swap2\n              swap1\n              tag_86\n              jump\t// in\n            tag_85:\n              mload(0x40)\n              dup1\n              swap2\n              sub\n              swap1\n              return\n                /* \"AEIOU.sol\":819:844  uint public minimumAmount */\n            tag_15:\n              callvalue\n              dup1\n              iszero\n              tag_87\n              jumpi\n              0x00\n              dup1\n              revert\n            tag_87:\n              pop\n              tag_88\n              tag_89\n              jump\t// in\n            tag_88:\n              mload(0x40)\n              tag_90\n              swap2\n              swap1\n              tag_37\n              jump\t// in\n            tag_90:\n              mload(0x40)\n              dup1\n              swap2\n              sub\n              swap1\n              return\n                /* \"AEIOU.sol\":1433:1679  function contribute() public payable {... */\n            tag_16:\n              tag_91\n              tag_92\n              jump\t// in\n            tag_91:\n              stop\n                /* \"AEIOU.sol\":2839:3113  function approveRequest(uint requestIndex) public {... */\n            tag_17:\n              callvalue\n              dup1\n              iszero\n              tag_93\n              jumpi\n              0x00\n              dup1\n              revert\n            tag_93:\n              pop\n              tag_94\n              0x04\n              dup1\n              calldatasize\n              sub\n              dup2\n              add\n              swap1\n              tag_95\n              swap2\n              swap1\n              tag_25\n              jump\t// in\n            tag_95:\n              tag_96\n              jump\t// in\n            tag_94:\n              stop\n                /* \"AEIOU.sol\":939:968  uint public totalContributors */\n            tag_18:\n              callvalue\n              dup1\n              iszero\n              tag_97\n              jumpi\n              0x00\n              dup1\n              revert\n            tag_97:\n              pop\n              tag_98\n              tag_99\n              jump\t// in\n            tag_98:\n              mload(0x40)\n              tag_100\n              swap2\n              swap1\n              tag_37\n              jump\t// in\n            tag_100:\n              mload(0x40)\n              dup1\n              swap2\n              sub\n              swap1\n              return\n                /* \"AEIOU.sol\":3172:3506  function finalizeRequest(uint requestIndex) public restricted {... */\n            tag_26:\n                /* \"AEIOU.sol\":4020:4027  manager */\n              0x03\n              0x00\n              swap1\n              sload\n              swap1\n              0x0100\n              exp\n              swap1\n              div\n              0xffffffffffffffffffffffffffffffffffffffff\n              and\n                /* \"AEIOU.sol\":4006:4027  msg.sender == manager */\n              0xffffffffffffffffffffffffffffffffffffffff\n              and\n                /* \"AEIOU.sol\":4006:4016  msg.sender */\n              caller\n                /* \"AEIOU.sol\":4006:4027  msg.sender == manager */\n              0xffffffffffffffffffffffffffffffffffffffff\n              and\n              eq\n                /* \"AEIOU.sol\":3998:4028  require(msg.sender == manager) */\n              tag_102\n              jumpi\n              0x00\n              dup1\n              revert\n            tag_102:\n                /* \"AEIOU.sol\":3311:3312  2 */\n              0x02\n                /* \"AEIOU.sol\":3291:3308  totalContributors */\n              sload(0x07)\n                /* \"AEIOU.sol\":3291:3312  totalContributors / 2 */\n              tag_104\n              swap2\n              swap1\n              tag_105\n              jump\t// in\n            tag_104:\n                /* \"AEIOU.sol\":3250:3258  requests */\n              0x08\n                /* \"AEIOU.sol\":3259:3271  requestIndex */\n              dup3\n                /* \"AEIOU.sol\":3250:3272  requests[requestIndex] */\n              dup2\n              sload\n              dup2\n              lt\n              tag_106\n              jumpi\n              tag_107\n              tag_108\n              jump\t// in\n            tag_107:\n            tag_106:\n              swap1\n              0x00\n              mstore\n              keccak256(0x00, 0x20)\n              swap1\n              0x07\n              mul\n              add\n                /* \"AEIOU.sol\":3250:3287  requests[requestIndex].approvalsCount */\n              0x04\n              add\n              sload\n                /* \"AEIOU.sol\":3250:3313  requests[requestIndex].approvalsCount > (totalContributors / 2) */\n              gt\n                /* \"AEIOU.sol\":3242:3314  require(requests[requestIndex].approvalsCount > (totalContributors / 2)) */\n              tag_110\n              jumpi\n              0x00\n              dup1\n              revert\n            tag_110:\n                /* \"AEIOU.sol\":3331:3339  requests */\n              0x08\n                /* \"AEIOU.sol\":3340:3352  requestIndex */\n              dup2\n                /* \"AEIOU.sol\":3331:3353  requests[requestIndex] */\n              dup2\n              sload\n              dup2\n              lt\n              tag_111\n              jumpi\n              tag_112\n              tag_108\n              jump\t// in\n            tag_112:\n            tag_111:\n              swap1\n              0x00\n              mstore\n              keccak256(0x00, 0x20)\n              swap1\n              0x07\n              mul\n              add\n                /* \"AEIOU.sol\":3331:3363  requests[requestIndex].completed */\n              0x05\n              add\n              0x00\n              swap1\n              sload\n              swap1\n              0x0100\n              exp\n              swap1\n              div\n              0xff\n              and\n                /* \"AEIOU.sol\":3330:3363  !requests[requestIndex].completed */\n              iszero\n                /* \"AEIOU.sol\":3322:3364  require(!requests[requestIndex].completed) */\n              tag_114\n              jumpi\n              0x00\n              dup1\n              revert\n            tag_114:\n                /* \"AEIOU.sol\":3380:3388  requests */\n              0x08\n                /* \"AEIOU.sol\":3389:3401  requestIndex */\n              dup2\n                /* \"AEIOU.sol\":3380:3402  requests[requestIndex] */\n              dup2\n              sload\n              dup2\n              lt\n              tag_115\n              jumpi\n              tag_116\n              tag_108\n              jump\t// in\n            tag_116:\n            tag_115:\n              swap1\n              0x00\n              mstore\n              keccak256(0x00, 0x20)\n              swap1\n              0x07\n              mul\n              add\n                /* \"AEIOU.sol\":3380:3411  requests[requestIndex].receiver */\n              0x02\n              add\n              0x00\n              swap1\n              sload\n              swap1\n              0x0100\n              exp\n              swap1\n              div\n              0xffffffffffffffffffffffffffffffffffffffff\n              and\n                /* \"AEIOU.sol\":3372:3421  payable(requests[requestIndex].receiver).transfer */\n              0xffffffffffffffffffffffffffffffffffffffff\n              and\n                /* \"AEIOU.sol\":3372:3452  payable(requests[requestIndex].receiver).transfer(requests[requestIndex].amount) */\n              0x08fc\n                /* \"AEIOU.sol\":3422:3430  requests */\n              0x08\n                /* \"AEIOU.sol\":3431:3443  requestIndex */\n              dup4\n                /* \"AEIOU.sol\":3422:3444  requests[requestIndex] */\n              dup2\n              sload\n              dup2\n              lt\n              tag_118\n              jumpi\n              tag_119\n              tag_108\n              jump\t// in\n            tag_119:\n            tag_118:\n              swap1\n              0x00\n              mstore\n              keccak256(0x00, 0x20)\n              swap1\n              0x07\n              mul\n              add\n                /* \"AEIOU.sol\":3422:3451  requests[requestIndex].amount */\n              0x03\n              add\n              sload\n                /* \"AEIOU.sol\":3372:3452  payable(requests[requestIndex].receiver).transfer(requests[requestIndex].amount) */\n              swap1\n              dup2\n              iszero\n              mul\n              swap1\n              mload(0x40)\n              0x00\n              mload(0x40)\n              dup1\n              dup4\n              sub\n              dup2\n              dup6\n              dup9\n              dup9\n              call\n              swap4\n              pop\n              pop\n              pop\n              pop\n              iszero\n              dup1\n              iszero\n              tag_122\n              jumpi\n              returndatasize\n              0x00\n              dup1\n              returndatacopy\n              revert(0x00, returndatasize)\n            tag_122:\n              pop\n                /* \"AEIOU.sol\":3495:3499  true */\n              0x01\n                /* \"AEIOU.sol\":3460:3468  requests */\n              0x08\n                /* \"AEIOU.sol\":3469:3481  requestIndex */\n              dup3\n                /* \"AEIOU.sol\":3460:3482  requests[requestIndex] */\n              dup2\n              sload\n              dup2\n              lt\n              tag_123\n              jumpi\n              tag_124\n              tag_108\n              jump\t// in\n            tag_124:\n            tag_123:\n              swap1\n              0x00\n              mstore\n              keccak256(0x00, 0x20)\n              swap1\n              0x07\n              mul\n              add\n                /* \"AEIOU.sol\":3460:3492  requests[requestIndex].completed */\n              0x05\n              add\n              0x00\n                /* \"AEIOU.sol\":3460:3499  requests[requestIndex].completed = true */\n              0x0100\n              exp\n              dup2\n              sload\n              dup2\n              0xff\n              mul\n              not\n              and\n              swap1\n              dup4\n              iszero\n              iszero\n              mul\n              or\n              swap1\n              sstore\n              pop\n                /* \"AEIOU.sol\":3172:3506  function finalizeRequest(uint requestIndex) public restricted {... */\n              pop\n              jump\t// out\n                /* \"AEIOU.sol\":900:933  address[] public contributorsList */\n            tag_30:\n              0x06\n              dup2\n              dup2\n              sload\n              dup2\n              lt\n              tag_126\n              jumpi\n              0x00\n              dup1\n              revert\n            tag_126:\n              swap1\n              0x00\n              mstore\n              keccak256(0x00, 0x20)\n              add\n              0x00\n              swap2\n              pop\n              sload\n              swap1\n              0x0100\n              exp\n              swap1\n              div\n              0xffffffffffffffffffffffffffffffffffffffff\n              and\n              dup2\n              jump\t// out\n                /* \"AEIOU.sol\":1933:2038  function getBalance() public view returns(uint256) {... */\n            tag_35:\n                /* \"AEIOU.sol\":1975:1982  uint256 */\n              0x00\n                /* \"AEIOU.sol\":2017:2021  this */\n              address\n                /* \"AEIOU.sol\":2001:2031  payable(address(this)).balance */\n              0xffffffffffffffffffffffffffffffffffffffff\n              and\n              balance\n                /* \"AEIOU.sol\":1994:2031  return payable(address(this)).balance */\n              swap1\n              pop\n                /* \"AEIOU.sol\":1933:2038  function getBalance() public view returns(uint256) {... */\n              swap1\n              jump\t// out\n                /* \"AEIOU.sol\":850:894  mapping(address => bool) public contributors */\n            tag_42:\n              mstore(0x20, 0x05)\n              dup1\n              0x00\n              mstore\n              keccak256(0x00, 0x40)\n              0x00\n              swap2\n              pop\n              sload\n              swap1\n              0x0100\n              exp\n              swap1\n              div\n              0xff\n              and\n              dup2\n              jump\t// out\n                /* \"AEIOU.sol\":2345:2745  function createRequest(string memory title, string memory desc, address receiver, uint amount) public restricted {... */\n            tag_49:\n                /* \"AEIOU.sol\":4020:4027  manager */\n              0x03\n              0x00\n              swap1\n              sload\n              swap1\n              0x0100\n              exp\n              swap1\n              div\n              0xffffffffffffffffffffffffffffffffffffffff\n              and\n                /* \"AEIOU.sol\":4006:4027  msg.sender == manager */\n              0xffffffffffffffffffffffffffffffffffffffff\n              and\n                /* \"AEIOU.sol\":4006:4016  msg.sender */\n              caller\n                /* \"AEIOU.sol\":4006:4027  msg.sender == manager */\n              0xffffffffffffffffffffffffffffffffffffffff\n              and\n              eq\n                /* \"AEIOU.sol\":3998:4028  require(msg.sender == manager) */\n              tag_130\n              jumpi\n              0x00\n              dup1\n              revert\n            tag_130:\n                /* \"AEIOU.sol\":2468:2494  Request storage newRequest */\n              0x00\n                /* \"AEIOU.sol\":2497:2505  requests */\n              0x08\n                /* \"AEIOU.sol\":2497:2512  requests.push() */\n              0x01\n              dup2\n              0x01\n              dup2\n              sload\n              add\n              dup1\n              dup3\n              sstore\n              dup1\n              swap2\n              pop\n              pop\n              sub\n              swap1\n              0x00\n              mstore\n              keccak256(0x00, 0x20)\n              swap1\n              0x07\n              mul\n              add\n                /* \"AEIOU.sol\":2468:2512  Request storage newRequest = requests.push() */\n              swap1\n              pop\n                /* \"AEIOU.sol\":2541:2546  title */\n              dup5\n                /* \"AEIOU.sol\":2522:2532  newRequest */\n              dup2\n                /* \"AEIOU.sol\":2522:2538  newRequest.title */\n              0x00\n              add\n                /* \"AEIOU.sol\":2522:2546  newRequest.title = title */\n              swap1\n              dup1\n              mload\n              swap1\n              0x20\n              add\n              swap1\n              tag_133\n              swap3\n              swap2\n              swap1\n              tag_134\n              jump\t// in\n            tag_133:\n              pop\n                /* \"AEIOU.sol\":2581:2585  desc */\n              dup4\n                /* \"AEIOU.sol\":2556:2566  newRequest */\n              dup2\n                /* \"AEIOU.sol\":2556:2578  newRequest.description */\n              0x01\n              add\n                /* \"AEIOU.sol\":2556:2585  newRequest.description = desc */\n              swap1\n              dup1\n              mload\n              swap1\n              0x20\n              add\n              swap1\n              tag_135\n              swap3\n              swap2\n              swap1\n              tag_134\n              jump\t// in\n            tag_135:\n              pop\n                /* \"AEIOU.sol\":2617:2625  receiver */\n              dup3\n                /* \"AEIOU.sol\":2595:2605  newRequest */\n              dup2\n                /* \"AEIOU.sol\":2595:2614  newRequest.receiver */\n              0x02\n              add\n              0x00\n                /* \"AEIOU.sol\":2595:2625  newRequest.receiver = receiver */\n              0x0100\n              exp\n              dup2\n              sload\n              dup2\n              0xffffffffffffffffffffffffffffffffffffffff\n              mul\n              not\n              and\n              swap1\n              dup4\n              0xffffffffffffffffffffffffffffffffffffffff\n              and\n              mul\n              or\n              swap1\n              sstore\n              pop\n                /* \"AEIOU.sol\":2655:2661  amount */\n              dup2\n                /* \"AEIOU.sol\":2635:2645  newRequest */\n              dup2\n                /* \"AEIOU.sol\":2635:2652  newRequest.amount */\n              0x03\n              add\n                /* \"AEIOU.sol\":2635:2661  newRequest.amount = amount */\n              dup2\n              swap1\n              sstore\n              pop\n                /* \"AEIOU.sol\":2694:2699  false */\n              0x00\n                /* \"AEIOU.sol\":2671:2681  newRequest */\n              dup2\n                /* \"AEIOU.sol\":2671:2691  newRequest.completed */\n              0x05\n              add\n              0x00\n                /* \"AEIOU.sol\":2671:2699  newRequest.completed = false */\n              0x0100\n              exp\n              dup2\n              sload\n              dup2\n              0xff\n              mul\n              not\n              and\n              swap1\n              dup4\n              iszero\n              iszero\n              mul\n              or\n              swap1\n              sstore\n              pop\n                /* \"AEIOU.sol\":2737:2738  0 */\n              0x00\n                /* \"AEIOU.sol\":2709:2719  newRequest */\n              dup2\n                /* \"AEIOU.sol\":2709:2734  newRequest.approvalsCount */\n              0x04\n              add\n                /* \"AEIOU.sol\":2709:2738  newRequest.approvalsCount = 0 */\n              dup2\n              swap1\n              sstore\n              pop\n                /* \"AEIOU.sol\":2458:2745  {... */\n              pop\n                /* \"AEIOU.sol\":2345:2745  function createRequest(string memory title, string memory desc, address receiver, uint amount) public restricted {... */\n              pop\n              pop\n              pop\n              pop\n              jump\t// out\n                /* \"AEIOU.sol\":2105:2198  function getRequestsCount() public view returns (uint){... */\n            tag_52:\n                /* \"AEIOU.sol\":2154:2158  uint */\n              0x00\n                /* \"AEIOU.sol\":2176:2184  requests */\n              0x08\n                /* \"AEIOU.sol\":2176:2191  requests.length */\n              dup1\n              sload\n              swap1\n              pop\n                /* \"AEIOU.sol\":2169:2191  return requests.length */\n              swap1\n              pop\n                /* \"AEIOU.sol\":2105:2198  function getRequestsCount() public view returns (uint){... */\n              swap1\n              jump\t// out\n                /* \"AEIOU.sol\":762:785  string public imgSource */\n            tag_56:\n              0x02\n              dup1\n              sload\n              tag_137\n              swap1\n              tag_138\n              jump\t// in\n            tag_137:\n              dup1\n              0x1f\n              add\n              0x20\n              dup1\n              swap2\n              div\n              mul\n              0x20\n              add\n              mload(0x40)\n              swap1\n              dup2\n              add\n              0x40\n              mstore\n              dup1\n              swap3\n              swap2\n              swap1\n              dup2\n              dup2\n              mstore\n              0x20\n              add\n              dup3\n              dup1\n              sload\n              tag_139\n              swap1\n              tag_138\n              jump\t// in\n            tag_139:\n              dup1\n              iszero\n              tag_140\n              jumpi\n              dup1\n              0x1f\n              lt\n              tag_141\n              jumpi\n              0x0100\n              dup1\n              dup4\n              sload\n              div\n              mul\n              dup4\n              mstore\n              swap2\n              0x20\n              add\n              swap2\n              jump(tag_140)\n            tag_141:\n              dup3\n              add\n              swap2\n              swap1\n              0x00\n              mstore\n              keccak256(0x00, 0x20)\n              swap1\n            tag_142:\n              dup2\n              sload\n              dup2\n              mstore\n              swap1\n              0x01\n              add\n              swap1\n              0x20\n              add\n              dup1\n              dup4\n              gt\n              tag_142\n              jumpi\n              dup3\n              swap1\n              sub\n              0x1f\n              and\n              dup3\n              add\n              swap2\n            tag_140:\n              pop\n              pop\n              pop\n              pop\n              pop\n              dup2\n              jump\t// out\n                /* \"AEIOU.sol\":3564:3942  function getSummary() public view returns (uint, uint256, uint, uint, address, string memory, string memory, string memory) {... */\n            tag_61:\n                /* \"AEIOU.sol\":3607:3611  uint */\n              0x00\n                /* \"AEIOU.sol\":3613:3620  uint256 */\n              dup1\n                /* \"AEIOU.sol\":3622:3626  uint */\n              0x00\n                /* \"AEIOU.sol\":3628:3632  uint */\n              dup1\n                /* \"AEIOU.sol\":3634:3641  address */\n              0x00\n                /* \"AEIOU.sol\":3643:3656  string memory */\n              0x60\n                /* \"AEIOU.sol\":3658:3671  string memory */\n              dup1\n                /* \"AEIOU.sol\":3673:3686  string memory */\n              0x60\n                /* \"AEIOU.sol\":3718:3731  minimumAmount */\n              sload(0x04)\n                /* \"AEIOU.sol\":3761:3765  this */\n              address\n                /* \"AEIOU.sol\":3745:3775  payable(address(this)).balance */\n              0xffffffffffffffffffffffffffffffffffffffff\n              and\n              balance\n                /* \"AEIOU.sol\":3789:3797  requests */\n              0x08\n                /* \"AEIOU.sol\":3789:3804  requests.length */\n              dup1\n              sload\n              swap1\n              pop\n                /* \"AEIOU.sol\":3818:3835  totalContributors */\n              sload(0x07)\n                /* \"AEIOU.sol\":3849:3856  manager */\n              0x03\n              0x00\n              swap1\n              sload\n              swap1\n              0x0100\n              exp\n              swap1\n              div\n              0xffffffffffffffffffffffffffffffffffffffff\n              and\n                /* \"AEIOU.sol\":3870:3875  title */\n              0x00\n                /* \"AEIOU.sol\":3889:3900  description */\n              0x01\n                /* \"AEIOU.sol\":3914:3923  imgSource */\n              0x02\n                /* \"AEIOU.sol\":3698:3935  return(... */\n              dup3\n              dup1\n              sload\n              tag_144\n              swap1\n              tag_138\n              jump\t// in\n            tag_144:\n              dup1\n              0x1f\n              add\n              0x20\n              dup1\n              swap2\n              div\n              mul\n              0x20\n              add\n              mload(0x40)\n              swap1\n              dup2\n              add\n              0x40\n              mstore\n              dup1\n              swap3\n              swap2\n              swap1\n              dup2\n              dup2\n              mstore\n              0x20\n              add\n              dup3\n              dup1\n              sload\n              tag_145\n              swap1\n              tag_138\n              jump\t// in\n            tag_145:\n              dup1\n              iszero\n              tag_146\n              jumpi\n              dup1\n              0x1f\n              lt\n              tag_147\n              jumpi\n              0x0100\n              dup1\n              dup4\n              sload\n              div\n              mul\n              dup4\n              mstore\n              swap2\n              0x20\n              add\n              swap2\n              jump(tag_146)\n            tag_147:\n              dup3\n              add\n              swap2\n              swap1\n              0x00\n              mstore\n              keccak256(0x00, 0x20)\n              swap1\n            tag_148:\n              dup2\n              sload\n              dup2\n              mstore\n              swap1\n              0x01\n              add\n              swap1\n              0x20\n              add\n              dup1\n              dup4\n              gt\n              tag_148\n              jumpi\n              dup3\n              swap1\n              sub\n              0x1f\n              and\n              dup3\n              add\n              swap2\n            tag_146:\n              pop\n              pop\n              pop\n              pop\n              pop\n              swap3\n              pop\n              dup2\n              dup1\n              sload\n              tag_149\n              swap1\n              tag_138\n              jump\t// in\n            tag_149:\n              dup1\n              0x1f\n              add\n              0x20\n              dup1\n              swap2\n              div\n              mul\n              0x20\n              add\n              mload(0x40)\n              swap1\n              dup2\n              add\n              0x40\n              mstore\n              dup1\n              swap3\n              swap2\n              swap1\n              dup2\n              dup2\n              mstore\n              0x20\n              add\n              dup3\n              dup1\n              sload\n              tag_150\n              swap1\n              tag_138\n              jump\t// in\n            tag_150:\n              dup1\n              iszero\n              tag_151\n              jumpi\n              dup1\n              0x1f\n              lt\n              tag_152\n              jumpi\n              0x0100\n              dup1\n              dup4\n              sload\n              div\n              mul\n              dup4\n              mstore\n              swap2\n              0x20\n              add\n              swap2\n              jump(tag_151)\n            tag_152:\n              dup3\n              add\n              swap2\n              swap1\n              0x00\n              mstore\n              keccak256(0x00, 0x20)\n              swap1\n            tag_153:\n              dup2\n              sload\n              dup2\n              mstore\n              swap1\n              0x01\n              add\n              swap1\n              0x20\n              add\n              dup1\n              dup4\n              gt\n              tag_153\n              jumpi\n              dup3\n              swap1\n              sub\n              0x1f\n              and\n              dup3\n              add\n              swap2\n            tag_151:\n              pop\n              pop\n              pop\n              pop\n              pop\n              swap2\n              pop\n              dup1\n              dup1\n              sload\n              tag_154\n              swap1\n              tag_138\n              jump\t// in\n            tag_154:\n              dup1\n              0x1f\n              add\n              0x20\n              dup1\n              swap2\n              div\n              mul\n              0x20\n              add\n              mload(0x40)\n              swap1\n              dup2\n              add\n              0x40\n              mstore\n              dup1\n              swap3\n              swap2\n              swap1\n              dup2\n              dup2\n              mstore\n              0x20\n              add\n              dup3\n              dup1\n              sload\n              tag_155\n              swap1\n              tag_138\n              jump\t// in\n            tag_155:\n              dup1\n              iszero\n              tag_156\n              jumpi\n              dup1\n              0x1f\n              lt\n              tag_157\n              jumpi\n              0x0100\n              dup1\n              dup4\n              sload\n              div\n              mul\n              dup4\n              mstore\n              swap2\n              0x20\n              add\n              swap2\n              jump(tag_156)\n            tag_157:\n              dup3\n              add\n              swap2\n              swap1\n              0x00\n              mstore\n              keccak256(0x00, 0x20)\n              swap1\n            tag_158:\n              dup2\n              sload\n              dup2\n              mstore\n              swap1\n              0x01\n              add\n              swap1\n              0x20\n              add\n              dup1\n              dup4\n              gt\n              tag_158\n              jumpi\n              dup3\n              swap1\n              sub\n              0x1f\n              and\n              dup3\n              add\n              swap2\n            tag_156:\n              pop\n              pop\n              pop\n              pop\n              pop\n              swap1\n              pop\n              swap8\n              pop\n              swap8\n              pop\n              swap8\n              pop\n              swap8\n              pop\n              swap8\n              pop\n              swap8\n              pop\n              swap8\n              pop\n              swap8\n              pop\n                /* \"AEIOU.sol\":3564:3942  function getSummary() public view returns (uint, uint256, uint, uint, address, string memory, string memory, string memory) {... */\n              swap1\n              swap2\n              swap3\n              swap4\n              swap5\n              swap6\n              swap7\n              swap8\n              jump\t// out\n                /* \"AEIOU.sol\":791:813  address public manager */\n            tag_66:\n              0x03\n              0x00\n              swap1\n              sload\n              swap1\n              0x0100\n              exp\n              swap1\n              div\n              0xffffffffffffffffffffffffffffffffffffffff\n              and\n              dup2\n              jump\t// out\n                /* \"AEIOU.sol\":706:725  string public title */\n            tag_70:\n              0x00\n              dup1\n              sload\n              tag_159\n              swap1\n              tag_138\n              jump\t// in\n            tag_159:\n              dup1\n              0x1f\n              add\n              0x20\n              dup1\n              swap2\n              div\n              mul\n              0x20\n              add\n              mload(0x40)\n              swap1\n              dup2\n              add\n              0x40\n              mstore\n              dup1\n              swap3\n              swap2\n              swap1\n              dup2\n              dup2\n              mstore\n              0x20\n              add\n              dup3\n              dup1\n              sload\n              tag_160\n              swap1\n              tag_138\n              jump\t// in\n            tag_160:\n              dup1\n              iszero\n              tag_161\n              jumpi\n              dup1\n              0x1f\n              lt\n              tag_162\n              jumpi\n              0x0100\n              dup1\n              dup4\n              sload\n              div\n              mul\n              dup4\n              mstore\n              swap2\n              0x20\n              add\n              swap2\n              jump(tag_161)\n            tag_162:\n              dup3\n              add\n              swap2\n              swap1\n              0x00\n              mstore\n              keccak256(0x00, 0x20)\n              swap1\n            tag_163:\n              dup2\n              sload\n              dup2\n              mstore\n              swap1\n              0x01\n              add\n              swap1\n              0x20\n              add\n              dup1\n              dup4\n              gt\n              tag_163\n              jumpi\n              dup3\n              swap1\n              sub\n              0x1f\n              and\n              dup3\n              add\n              swap2\n            tag_161:\n              pop\n              pop\n              pop\n              pop\n              pop\n              dup2\n              jump\t// out\n                /* \"AEIOU.sol\":1752:1861  function getAllContributors() public view returns (address[] memory) {... */\n            tag_74:\n                /* \"AEIOU.sol\":1803:1819  address[] memory */\n              0x60\n                /* \"AEIOU.sol\":1838:1854  contributorsList */\n              0x06\n                /* \"AEIOU.sol\":1831:1854  return contributorsList */\n              dup1\n              sload\n              dup1\n              0x20\n              mul\n              0x20\n              add\n              mload(0x40)\n              swap1\n              dup2\n              add\n              0x40\n              mstore\n              dup1\n              swap3\n              swap2\n              swap1\n              dup2\n              dup2\n              mstore\n              0x20\n              add\n              dup3\n              dup1\n              sload\n              dup1\n              iszero\n              tag_165\n              jumpi\n              0x20\n              mul\n              dup3\n              add\n              swap2\n              swap1\n              0x00\n              mstore\n              keccak256(0x00, 0x20)\n              swap1\n            tag_166:\n              dup2\n              0x00\n              swap1\n              sload\n              swap1\n              0x0100\n              exp\n              swap1\n              div\n              0xffffffffffffffffffffffffffffffffffffffff\n              and\n              0xffffffffffffffffffffffffffffffffffffffff\n              and\n              dup2\n              mstore\n              0x20\n              add\n              swap1\n              0x01\n              add\n              swap1\n              dup1\n              dup4\n              gt\n              tag_166\n              jumpi\n            tag_165:\n              pop\n              pop\n              pop\n              pop\n              pop\n              swap1\n              pop\n                /* \"AEIOU.sol\":1752:1861  function getAllContributors() public view returns (address[] memory) {... */\n              swap1\n              jump\t// out\n                /* \"AEIOU.sol\":731:756  string public description */\n            tag_79:\n              0x01\n              dup1\n              sload\n              tag_167\n              swap1\n              tag_138\n              jump\t// in\n            tag_167:\n              dup1\n              0x1f\n              add\n              0x20\n              dup1\n              swap2\n              div\n              mul\n              0x20\n              add\n              mload(0x40)\n              swap1\n              dup2\n              add\n              0x40\n              mstore\n              dup1\n              swap3\n              swap2\n              swap1\n              dup2\n              dup2\n              mstore\n              0x20\n              add\n              dup3\n              dup1\n              sload\n              tag_168\n              swap1\n              tag_138\n              jump\t// in\n            tag_168:\n              dup1\n              iszero\n              tag_169\n              jumpi\n              dup1\n              0x1f\n              lt\n              tag_170\n              jumpi\n              0x0100\n              dup1\n              dup4\n              sload\n              div\n              mul\n              dup4\n              mstore\n              swap2\n              0x20\n              add\n              swap2\n              jump(tag_169)\n            tag_170:\n              dup3\n              add\n              swap2\n              swap1\n              0x00\n              mstore\n              keccak256(0x00, 0x20)\n              swap1\n            tag_171:\n              dup2\n              sload\n              dup2\n              mstore\n              swap1\n              0x01\n              add\n              swap1\n              0x20\n              add\n              dup1\n              dup4\n              gt\n              tag_171\n              jumpi\n              dup3\n              swap1\n              sub\n              0x1f\n              and\n              dup3\n              add\n              swap2\n            tag_169:\n              pop\n              pop\n              pop\n              pop\n              pop\n              dup2\n              jump\t// out\n                /* \"AEIOU.sol\":974:999  Request[] public requests */\n            tag_84:\n              0x08\n              dup2\n              dup2\n              sload\n              dup2\n              lt\n              tag_172\n              jumpi\n              0x00\n              dup1\n              revert\n            tag_172:\n              swap1\n              0x00\n              mstore\n              keccak256(0x00, 0x20)\n              swap1\n              0x07\n              mul\n              add\n              0x00\n              swap2\n              pop\n              swap1\n              pop\n              dup1\n              0x00\n              add\n              dup1\n              sload\n              tag_174\n              swap1\n              tag_138\n              jump\t// in\n            tag_174:\n              dup1\n              0x1f\n              add\n              0x20\n              dup1\n              swap2\n              div\n              mul\n              0x20\n              add\n              mload(0x40)\n              swap1\n              dup2\n              add\n              0x40\n              mstore\n              dup1\n              swap3\n              swap2\n              swap1\n              dup2\n              dup2\n              mstore\n              0x20\n              add\n              dup3\n              dup1\n              sload\n              tag_175\n              swap1\n              tag_138\n              jump\t// in\n            tag_175:\n              dup1\n              iszero\n              tag_176\n              jumpi\n              dup1\n              0x1f\n              lt\n              tag_177\n              jumpi\n              0x0100\n              dup1\n              dup4\n              sload\n              div\n              mul\n              dup4\n              mstore\n              swap2\n              0x20\n              add\n              swap2\n              jump(tag_176)\n            tag_177:\n              dup3\n              add\n              swap2\n              swap1\n              0x00\n              mstore\n              keccak256(0x00, 0x20)\n              swap1\n            tag_178:\n              dup2\n              sload\n              dup2\n              mstore\n              swap1\n              0x01\n              add\n              swap1\n              0x20\n              add\n              dup1\n              dup4\n              gt\n              tag_178\n              jumpi\n              dup3\n              swap1\n              sub\n              0x1f\n              and\n              dup3\n              add\n              swap2\n            tag_176:\n              pop\n              pop\n              pop\n              pop\n              pop\n              swap1\n              dup1\n              0x01\n              add\n              dup1\n              sload\n              tag_179\n              swap1\n              tag_138\n              jump\t// in\n            tag_179:\n              dup1\n              0x1f\n              add\n              0x20\n              dup1\n              swap2\n              div\n              mul\n              0x20\n              add\n              mload(0x40)\n              swap1\n              dup2\n              add\n              0x40\n              mstore\n              dup1\n              swap3\n              swap2\n              swap1\n              dup2\n              dup2\n              mstore\n              0x20\n              add\n              dup3\n              dup1\n              sload\n              tag_180\n              swap1\n              tag_138\n              jump\t// in\n            tag_180:\n              dup1\n              iszero\n              tag_181\n              jumpi\n              dup1\n              0x1f\n              lt\n              tag_182\n              jumpi\n              0x0100\n              dup1\n              dup4\n              sload\n              div\n              mul\n              dup4\n              mstore\n              swap2\n              0x20\n              add\n              swap2\n              jump(tag_181)\n            tag_182:\n              dup3\n              add\n              swap2\n              swap1\n              0x00\n              mstore\n              keccak256(0x00, 0x20)\n              swap1\n            tag_183:\n              dup2\n              sload\n              dup2\n              mstore\n              swap1\n              0x01\n              add\n              swap1\n              0x20\n              add\n              dup1\n              dup4\n              gt\n              tag_183\n              jumpi\n              dup3\n              swap1\n              sub\n              0x1f\n              and\n              dup3\n              add\n              swap2\n            tag_181:\n              pop\n              pop\n              pop\n              pop\n              pop\n              swap1\n              dup1\n              0x02\n              add\n              0x00\n              swap1\n              sload\n              swap1\n              0x0100\n              exp\n              swap1\n              div\n              0xffffffffffffffffffffffffffffffffffffffff\n              and\n              swap1\n              dup1\n              0x03\n              add\n              sload\n              swap1\n              dup1\n              0x04\n              add\n              sload\n              swap1\n              dup1\n              0x05\n              add\n              0x00\n              swap1\n              sload\n              swap1\n              0x0100\n              exp\n              swap1\n              div\n              0xff\n              and\n              swap1\n              pop\n              dup7\n              jump\t// out\n                /* \"AEIOU.sol\":819:844  uint public minimumAmount */\n            tag_89:\n              sload(0x04)\n              dup2\n              jump\t// out\n                /* \"AEIOU.sol\":1433:1679  function contribute() public payable {... */\n            tag_92:\n                /* \"AEIOU.sol\":1501:1514  minimumAmount */\n              sload(0x04)\n                /* \"AEIOU.sol\":1488:1497  msg.value */\n              callvalue\n                /* \"AEIOU.sol\":1488:1514  msg.value >= minimumAmount */\n              lt\n              iszero\n                /* \"AEIOU.sol\":1480:1515  require(msg.value >= minimumAmount) */\n              tag_185\n              jumpi\n              0x00\n              dup1\n              revert\n            tag_185:\n                /* \"AEIOU.sol\":1534:1546  contributors */\n              0x05\n                /* \"AEIOU.sol\":1534:1558  contributors[msg.sender] */\n              0x00\n                /* \"AEIOU.sol\":1547:1557  msg.sender */\n              caller\n                /* \"AEIOU.sol\":1534:1558  contributors[msg.sender] */\n              0xffffffffffffffffffffffffffffffffffffffff\n              and\n              0xffffffffffffffffffffffffffffffffffffffff\n              and\n              dup2\n              mstore\n              0x20\n              add\n              swap1\n              dup2\n              mstore\n              0x20\n              add\n              0x00\n              keccak256\n              0x00\n              swap1\n              sload\n              swap1\n              0x0100\n              exp\n              swap1\n              div\n              0xff\n              and\n                /* \"AEIOU.sol\":1533:1558  !contributors[msg.sender] */\n              iszero\n                /* \"AEIOU.sol\":1525:1559  require(!contributors[msg.sender]) */\n              tag_186\n              jumpi\n              0x00\n              dup1\n              revert\n            tag_186:\n                /* \"AEIOU.sol\":1596:1600  true */\n              0x01\n                /* \"AEIOU.sol\":1569:1581  contributors */\n              0x05\n                /* \"AEIOU.sol\":1569:1593  contributors[msg.sender] */\n              0x00\n                /* \"AEIOU.sol\":1582:1592  msg.sender */\n              caller\n                /* \"AEIOU.sol\":1569:1593  contributors[msg.sender] */\n              0xffffffffffffffffffffffffffffffffffffffff\n              and\n              0xffffffffffffffffffffffffffffffffffffffff\n              and\n              dup2\n              mstore\n              0x20\n              add\n              swap1\n              dup2\n              mstore\n              0x20\n              add\n              0x00\n              keccak256\n              0x00\n                /* \"AEIOU.sol\":1569:1600  contributors[msg.sender] = true */\n              0x0100\n              exp\n              dup2\n              sload\n              dup2\n              0xff\n              mul\n              not\n              and\n              swap1\n              dup4\n              iszero\n              iszero\n              mul\n              or\n              swap1\n              sstore\n              pop\n                /* \"AEIOU.sol\":1610:1626  contributorsList */\n              0x06\n                /* \"AEIOU.sol\":1632:1642  msg.sender */\n              caller\n                /* \"AEIOU.sol\":1610:1643  contributorsList.push(msg.sender) */\n              swap1\n              dup1\n              0x01\n              dup2\n              sload\n              add\n              dup1\n              dup3\n              sstore\n              dup1\n              swap2\n              pop\n              pop\n              0x01\n              swap1\n              sub\n              swap1\n              0x00\n              mstore\n              keccak256(0x00, 0x20)\n              add\n              0x00\n              swap1\n              swap2\n              swap1\n              swap2\n              swap1\n              swap2\n              0x0100\n              exp\n              dup2\n              sload\n              dup2\n              0xffffffffffffffffffffffffffffffffffffffff\n              mul\n              not\n              and\n              swap1\n              dup4\n              0xffffffffffffffffffffffffffffffffffffffff\n              and\n              mul\n              or\n              swap1\n              sstore\n              pop\n                /* \"AEIOU.sol\":1653:1670  totalContributors */\n              0x07\n              0x00\n                /* \"AEIOU.sol\":1653:1672  totalContributors++ */\n              dup2\n              sload\n              dup1\n              swap3\n              swap2\n              swap1\n              tag_188\n              swap1\n              tag_189\n              jump\t// in\n            tag_188:\n              swap2\n              swap1\n              pop\n              sstore\n              pop\n                /* \"AEIOU.sol\":1433:1679  function contribute() public payable {... */\n              jump\t// out\n                /* \"AEIOU.sol\":2839:3113  function approveRequest(uint requestIndex) public {... */\n            tag_96:\n                /* \"AEIOU.sol\":2907:2919  contributors */\n              0x05\n                /* \"AEIOU.sol\":2907:2931  contributors[msg.sender] */\n              0x00\n                /* \"AEIOU.sol\":2920:2930  msg.sender */\n              caller\n                /* \"AEIOU.sol\":2907:2931  contributors[msg.sender] */\n              0xffffffffffffffffffffffffffffffffffffffff\n              and\n              0xffffffffffffffffffffffffffffffffffffffff\n              and\n              dup2\n              mstore\n              0x20\n              add\n              swap1\n              dup2\n              mstore\n              0x20\n              add\n              0x00\n              keccak256\n              0x00\n              swap1\n              sload\n              swap1\n              0x0100\n              exp\n              swap1\n              div\n              0xff\n              and\n                /* \"AEIOU.sol\":2899:2932  require(contributors[msg.sender]) */\n              tag_191\n              jumpi\n              0x00\n              dup1\n              revert\n            tag_191:\n                /* \"AEIOU.sol\":2951:2959  requests */\n              0x08\n                /* \"AEIOU.sol\":2960:2972  requestIndex */\n              dup2\n                /* \"AEIOU.sol\":2951:2973  requests[requestIndex] */\n              dup2\n              sload\n              dup2\n              lt\n              tag_192\n              jumpi\n              tag_193\n              tag_108\n              jump\t// in\n            tag_193:\n            tag_192:\n              swap1\n              0x00\n              mstore\n              keccak256(0x00, 0x20)\n              swap1\n              0x07\n              mul\n              add\n                /* \"AEIOU.sol\":2951:2983  requests[requestIndex].approvals */\n              0x06\n              add\n                /* \"AEIOU.sol\":2951:2995  requests[requestIndex].approvals[msg.sender] */\n              0x00\n                /* \"AEIOU.sol\":2984:2994  msg.sender */\n              caller\n                /* \"AEIOU.sol\":2951:2995  requests[requestIndex].approvals[msg.sender] */\n              0xffffffffffffffffffffffffffffffffffffffff\n              and\n              0xffffffffffffffffffffffffffffffffffffffff\n              and\n              dup2\n              mstore\n              0x20\n              add\n              swap1\n              dup2\n              mstore\n              0x20\n              add\n              0x00\n              keccak256\n              0x00\n              swap1\n              sload\n              swap1\n              0x0100\n              exp\n              swap1\n              div\n              0xff\n              and\n                /* \"AEIOU.sol\":2950:2995  !requests[requestIndex].approvals[msg.sender] */\n              iszero\n                /* \"AEIOU.sol\":2942:2996  require(!requests[requestIndex].approvals[msg.sender]) */\n              tag_195\n              jumpi\n              0x00\n              dup1\n              revert\n            tag_195:\n                /* \"AEIOU.sol\":3053:3057  true */\n              0x01\n                /* \"AEIOU.sol\":3006:3014  requests */\n              0x08\n                /* \"AEIOU.sol\":3015:3027  requestIndex */\n              dup3\n                /* \"AEIOU.sol\":3006:3028  requests[requestIndex] */\n              dup2\n              sload\n              dup2\n              lt\n              tag_196\n              jumpi\n              tag_197\n              tag_108\n              jump\t// in\n            tag_197:\n            tag_196:\n              swap1\n              0x00\n              mstore\n              keccak256(0x00, 0x20)\n              swap1\n              0x07\n              mul\n              add\n                /* \"AEIOU.sol\":3006:3038  requests[requestIndex].approvals */\n              0x06\n              add\n                /* \"AEIOU.sol\":3006:3050  requests[requestIndex].approvals[msg.sender] */\n              0x00\n                /* \"AEIOU.sol\":3039:3049  msg.sender */\n              caller\n                /* \"AEIOU.sol\":3006:3050  requests[requestIndex].approvals[msg.sender] */\n              0xffffffffffffffffffffffffffffffffffffffff\n              and\n              0xffffffffffffffffffffffffffffffffffffffff\n              and\n              dup2\n              mstore\n              0x20\n              add\n              swap1\n              dup2\n              mstore\n              0x20\n              add\n              0x00\n              keccak256\n              0x00\n                /* \"AEIOU.sol\":3006:3057  requests[requestIndex].approvals[msg.sender] = true */\n              0x0100\n              exp\n              dup2\n              sload\n              dup2\n              0xff\n              mul\n              not\n              and\n              swap1\n              dup4\n              iszero\n              iszero\n              mul\n              or\n              swap1\n              sstore\n              pop\n                /* \"AEIOU.sol\":3067:3075  requests */\n              0x08\n                /* \"AEIOU.sol\":3076:3088  requestIndex */\n              dup2\n                /* \"AEIOU.sol\":3067:3089  requests[requestIndex] */\n              dup2\n              sload\n              dup2\n              lt\n              tag_199\n              jumpi\n              tag_200\n              tag_108\n              jump\t// in\n            tag_200:\n            tag_199:\n              swap1\n              0x00\n              mstore\n              keccak256(0x00, 0x20)\n              swap1\n              0x07\n              mul\n              add\n                /* \"AEIOU.sol\":3067:3104  requests[requestIndex].approvalsCount */\n              0x04\n              add\n              0x00\n                /* \"AEIOU.sol\":3067:3106  requests[requestIndex].approvalsCount++ */\n              dup2\n              sload\n              dup1\n              swap3\n              swap2\n              swap1\n              tag_202\n              swap1\n              tag_189\n              jump\t// in\n            tag_202:\n              swap2\n              swap1\n              pop\n              sstore\n              pop\n                /* \"AEIOU.sol\":2839:3113  function approveRequest(uint requestIndex) public {... */\n              pop\n              jump\t// out\n                /* \"AEIOU.sol\":939:968  uint public totalContributors */\n            tag_99:\n              sload(0x07)\n              dup2\n              jump\t// out\n            tag_134:\n              dup3\n              dup1\n              sload\n              tag_203\n              swap1\n              tag_138\n              jump\t// in\n            tag_203:\n              swap1\n              0x00\n              mstore\n              keccak256(0x00, 0x20)\n              swap1\n              0x1f\n              add\n              0x20\n              swap1\n              div\n              dup2\n              add\n              swap3\n              dup3\n              tag_205\n              jumpi\n              0x00\n              dup6\n              sstore\n              jump(tag_204)\n            tag_205:\n              dup3\n              0x1f\n              lt\n              tag_206\n              jumpi\n              dup1\n              mload\n              not(0xff)\n              and\n              dup4\n              dup1\n              add\n              or\n              dup6\n              sstore\n              jump(tag_204)\n            tag_206:\n              dup3\n              dup1\n              add\n              0x01\n              add\n              dup6\n              sstore\n              dup3\n              iszero\n              tag_204\n              jumpi\n              swap2\n              dup3\n              add\n            tag_207:\n              dup3\n              dup2\n              gt\n              iszero\n              tag_208\n              jumpi\n              dup3\n              mload\n              dup3\n              sstore\n              swap2\n              0x20\n              add\n              swap2\n              swap1\n              0x01\n              add\n              swap1\n              jump(tag_207)\n            tag_208:\n            tag_204:\n              pop\n              swap1\n              pop\n              tag_209\n              swap2\n              swap1\n              tag_210\n              jump\t// in\n            tag_209:\n              pop\n              swap1\n              jump\t// out\n            tag_210:\n            tag_211:\n              dup1\n              dup3\n              gt\n              iszero\n              tag_212\n              jumpi\n              0x00\n              dup2\n              0x00\n              swap1\n              sstore\n              pop\n              0x01\n              add\n              jump(tag_211)\n            tag_212:\n              pop\n              swap1\n              jump\t// out\n                /* \"#utility.yul\":7:82   */\n            tag_213:\n                /* \"#utility.yul\":40:46   */\n              0x00\n                /* \"#utility.yul\":73:75   */\n              0x40\n                /* \"#utility.yul\":67:76   */\n              mload\n                /* \"#utility.yul\":57:76   */\n              swap1\n              pop\n                /* \"#utility.yul\":7:82   */\n              swap1\n              jump\t// out\n                /* \"#utility.yul\":88:205   */\n            tag_214:\n                /* \"#utility.yul\":197:198   */\n              0x00\n                /* \"#utility.yul\":194:195   */\n              dup1\n                /* \"#utility.yul\":187:199   */\n              revert\n                /* \"#utility.yul\":211:328   */\n            tag_215:\n                /* \"#utility.yul\":320:321   */\n              0x00\n                /* \"#utility.yul\":317:318   */\n              dup1\n                /* \"#utility.yul\":310:322   */\n              revert\n                /* \"#utility.yul\":334:411   */\n            tag_216:\n                /* \"#utility.yul\":371:378   */\n              0x00\n                /* \"#utility.yul\":400:405   */\n              dup2\n                /* \"#utility.yul\":389:405   */\n              swap1\n              pop\n                /* \"#utility.yul\":334:411   */\n              swap2\n              swap1\n              pop\n              jump\t// out\n                /* \"#utility.yul\":417:539   */\n            tag_217:\n                /* \"#utility.yul\":490:514   */\n              tag_257\n                /* \"#utility.yul\":508:513   */\n              dup2\n                /* \"#utility.yul\":490:514   */\n              tag_216\n              jump\t// in\n            tag_257:\n                /* \"#utility.yul\":483:488   */\n              dup2\n                /* \"#utility.yul\":480:515   */\n              eq\n                /* \"#utility.yul\":470:533   */\n              tag_258\n              jumpi\n                /* \"#utility.yul\":529:530   */\n              0x00\n                /* \"#utility.yul\":526:527   */\n              dup1\n                /* \"#utility.yul\":519:531   */\n              revert\n                /* \"#utility.yul\":470:533   */\n            tag_258:\n                /* \"#utility.yul\":417:539   */\n              pop\n              jump\t// out\n                /* \"#utility.yul\":545:684   */\n            tag_218:\n                /* \"#utility.yul\":591:596   */\n              0x00\n                /* \"#utility.yul\":629:635   */\n              dup2\n                /* \"#utility.yul\":616:636   */\n              calldataload\n                /* \"#utility.yul\":607:636   */\n              swap1\n              pop\n                /* \"#utility.yul\":645:678   */\n              tag_260\n                /* \"#utility.yul\":672:677   */\n              dup2\n                /* \"#utility.yul\":645:678   */\n              tag_217\n              jump\t// in\n            tag_260:\n                /* \"#utility.yul\":545:684   */\n              swap3\n              swap2\n              pop\n              pop\n              jump\t// out\n                /* \"#utility.yul\":690:1019   */\n            tag_25:\n                /* \"#utility.yul\":749:755   */\n              0x00\n                /* \"#utility.yul\":798:800   */\n              0x20\n                /* \"#utility.yul\":786:795   */\n              dup3\n                /* \"#utility.yul\":777:784   */\n              dup5\n                /* \"#utility.yul\":773:796   */\n              sub\n                /* \"#utility.yul\":769:801   */\n              slt\n                /* \"#utility.yul\":766:885   */\n              iszero\n              tag_262\n              jumpi\n                /* \"#utility.yul\":804:883   */\n              tag_263\n              tag_214\n              jump\t// in\n            tag_263:\n                /* \"#utility.yul\":766:885   */\n            tag_262:\n                /* \"#utility.yul\":924:925   */\n              0x00\n                /* \"#utility.yul\":949:1002   */\n              tag_264\n                /* \"#utility.yul\":994:1001   */\n              dup5\n                /* \"#utility.yul\":985:991   */\n              dup3\n                /* \"#utility.yul\":974:983   */\n              dup6\n                /* \"#utility.yul\":970:992   */\n              add\n                /* \"#utility.yul\":949:1002   */\n              tag_218\n              jump\t// in\n            tag_264:\n                /* \"#utility.yul\":939:1002   */\n              swap2\n              pop\n                /* \"#utility.yul\":895:1012   */\n              pop\n                /* \"#utility.yul\":690:1019   */\n              swap3\n              swap2\n              pop\n              pop\n              jump\t// out\n                /* \"#utility.yul\":1025:1151   */\n            tag_219:\n                /* \"#utility.yul\":1062:1069   */\n              0x00\n                /* \"#utility.yul\":1102:1144   */\n              0xffffffffffffffffffffffffffffffffffffffff\n                /* \"#utility.yul\":1095:1100   */\n              dup3\n                /* \"#utility.yul\":1091:1145   */\n              and\n                /* \"#utility.yul\":1080:1145   */\n              swap1\n              pop\n                /* \"#utility.yul\":1025:1151   */\n              swap2\n              swap1\n              pop\n              jump\t// out\n                /* \"#utility.yul\":1157:1253   */\n            tag_220:\n                /* \"#utility.yul\":1194:1201   */\n              0x00\n                /* \"#utility.yul\":1223:1247   */\n              tag_267\n                /* \"#utility.yul\":1241:1246   */\n              dup3\n                /* \"#utility.yul\":1223:1247   */\n              tag_219\n              jump\t// in\n            tag_267:\n                /* \"#utility.yul\":1212:1247   */\n              swap1\n              pop\n                /* \"#utility.yul\":1157:1253   */\n              swap2\n              swap1\n              pop\n              jump\t// out\n                /* \"#utility.yul\":1259:1377   */\n            tag_221:\n                /* \"#utility.yul\":1346:1370   */\n              tag_269\n                /* \"#utility.yul\":1364:1369   */\n              dup2\n                /* \"#utility.yul\":1346:1370   */\n              tag_220\n              jump\t// in\n            tag_269:\n                /* \"#utility.yul\":1341:1344   */\n              dup3\n                /* \"#utility.yul\":1334:1371   */\n              mstore\n                /* \"#utility.yul\":1259:1377   */\n              pop\n              pop\n              jump\t// out\n                /* \"#utility.yul\":1383:1605   */\n            tag_32:\n                /* \"#utility.yul\":1476:1480   */\n              0x00\n                /* \"#utility.yul\":1514:1516   */\n              0x20\n                /* \"#utility.yul\":1503:1512   */\n              dup3\n                /* \"#utility.yul\":1499:1517   */\n              add\n                /* \"#utility.yul\":1491:1517   */\n              swap1\n              pop\n                /* \"#utility.yul\":1527:1598   */\n              tag_271\n                /* \"#utility.yul\":1595:1596   */\n              0x00\n                /* \"#utility.yul\":1584:1593   */\n              dup4\n                /* \"#utility.yul\":1580:1597   */\n              add\n                /* \"#utility.yul\":1571:1577   */\n              dup5\n                /* \"#utility.yul\":1527:1598   */\n              tag_221\n              jump\t// in\n            tag_271:\n                /* \"#utility.yul\":1383:1605   */\n              swap3\n              swap2\n              pop\n              pop\n              jump\t// out\n                /* \"#utility.yul\":1611:1729   */\n            tag_222:\n                /* \"#utility.yul\":1698:1722   */\n              tag_273\n                /* \"#utility.yul\":1716:1721   */\n              dup2\n                /* \"#utility.yul\":1698:1722   */\n              tag_216\n              jump\t// in\n            tag_273:\n                /* \"#utility.yul\":1693:1696   */\n              dup3\n                /* \"#utility.yul\":1686:1723   */\n              mstore\n                /* \"#utility.yul\":1611:1729   */\n              pop\n              pop\n              jump\t// out\n                /* \"#utility.yul\":1735:1957   */\n            tag_37:\n                /* \"#utility.yul\":1828:1832   */\n              0x00\n                /* \"#utility.yul\":1866:1868   */\n              0x20\n                /* \"#utility.yul\":1855:1864   */\n              dup3\n                /* \"#utility.yul\":1851:1869   */\n              add\n                /* \"#utility.yul\":1843:1869   */\n              swap1\n              pop\n                /* \"#utility.yul\":1879:1950   */\n              tag_275\n                /* \"#utility.yul\":1947:1948   */\n              0x00\n                /* \"#utility.yul\":1936:1945   */\n              dup4\n                /* \"#utility.yul\":1932:1949   */\n              add\n                /* \"#utility.yul\":1923:1929   */\n              dup5\n                /* \"#utility.yul\":1879:1950   */\n              tag_222\n              jump\t// in\n            tag_275:\n                /* \"#utility.yul\":1735:1957   */\n              swap3\n              swap2\n              pop\n              pop\n              jump\t// out\n                /* \"#utility.yul\":1963:2085   */\n            tag_223:\n                /* \"#utility.yul\":2036:2060   */\n              tag_277\n                /* \"#utility.yul\":2054:2059   */\n              dup2\n                /* \"#utility.yul\":2036:2060   */\n              tag_220\n              jump\t// in\n            tag_277:\n                /* \"#utility.yul\":2029:2034   */\n              dup2\n                /* \"#utility.yul\":2026:2061   */\n              eq\n                /* \"#utility.yul\":2016:2079   */\n              tag_278\n              jumpi\n                /* \"#utility.yul\":2075:2076   */\n              0x00\n                /* \"#utility.yul\":2072:2073   */\n              dup1\n                /* \"#utility.yul\":2065:2077   */\n              revert\n                /* \"#utility.yul\":2016:2079   */\n            tag_278:\n                /* \"#utility.yul\":1963:2085   */\n              pop\n              jump\t// out\n                /* \"#utility.yul\":2091:2230   */\n            tag_224:\n                /* \"#utility.yul\":2137:2142   */\n              0x00\n                /* \"#utility.yul\":2175:2181   */\n              dup2\n                /* \"#utility.yul\":2162:2182   */\n              calldataload\n                /* \"#utility.yul\":2153:2182   */\n              swap1\n              pop\n                /* \"#utility.yul\":2191:2224   */\n              tag_280\n                /* \"#utility.yul\":2218:2223   */\n              dup2\n                /* \"#utility.yul\":2191:2224   */\n              tag_223\n              jump\t// in\n            tag_280:\n                /* \"#utility.yul\":2091:2230   */\n              swap3\n              swap2\n              pop\n              pop\n              jump\t// out\n                /* \"#utility.yul\":2236:2565   */\n            tag_41:\n                /* \"#utility.yul\":2295:2301   */\n              0x00\n                /* \"#utility.yul\":2344:2346   */\n              0x20\n                /* \"#utility.yul\":2332:2341   */\n              dup3\n                /* \"#utility.yul\":2323:2330   */\n              dup5\n                /* \"#utility.yul\":2319:2342   */\n              sub\n                /* \"#utility.yul\":2315:2347   */\n              slt\n                /* \"#utility.yul\":2312:2431   */\n              iszero\n              tag_282\n              jumpi\n                /* \"#utility.yul\":2350:2429   */\n              tag_283\n              tag_214\n              jump\t// in\n            tag_283:\n                /* \"#utility.yul\":2312:2431   */\n            tag_282:\n                /* \"#utility.yul\":2470:2471   */\n              0x00\n                /* \"#utility.yul\":2495:2548   */\n              tag_284\n                /* \"#utility.yul\":2540:2547   */\n              dup5\n                /* \"#utility.yul\":2531:2537   */\n              dup3\n                /* \"#utility.yul\":2520:2529   */\n              dup6\n                /* \"#utility.yul\":2516:2538   */\n              add\n                /* \"#utility.yul\":2495:2548   */\n              tag_224\n              jump\t// in\n            tag_284:\n                /* \"#utility.yul\":2485:2548   */\n              swap2\n              pop\n                /* \"#utility.yul\":2441:2558   */\n              pop\n                /* \"#utility.yul\":2236:2565   */\n              swap3\n              swap2\n              pop\n              pop\n              jump\t// out\n                /* \"#utility.yul\":2571:2661   */\n            tag_225:\n                /* \"#utility.yul\":2605:2612   */\n              0x00\n                /* \"#utility.yul\":2648:2653   */\n              dup2\n                /* \"#utility.yul\":2641:2654   */\n              iszero\n                /* \"#utility.yul\":2634:2655   */\n              iszero\n                /* \"#utility.yul\":2623:2655   */\n              swap1\n              pop\n                /* \"#utility.yul\":2571:2661   */\n              swap2\n              swap1\n              pop\n              jump\t// out\n                /* \"#utility.yul\":2667:2776   */\n            tag_226:\n                /* \"#utility.yul\":2748:2769   */\n              tag_287\n                /* \"#utility.yul\":2763:2768   */\n              dup2\n                /* \"#utility.yul\":2748:2769   */\n              tag_225\n              jump\t// in\n            tag_287:\n                /* \"#utility.yul\":2743:2746   */\n              dup3\n                /* \"#utility.yul\":2736:2770   */\n              mstore\n                /* \"#utility.yul\":2667:2776   */\n              pop\n              pop\n              jump\t// out\n                /* \"#utility.yul\":2782:2992   */\n            tag_44:\n                /* \"#utility.yul\":2869:2873   */\n              0x00\n                /* \"#utility.yul\":2907:2909   */\n              0x20\n                /* \"#utility.yul\":2896:2905   */\n              dup3\n                /* \"#utility.yul\":2892:2910   */\n              add\n                /* \"#utility.yul\":2884:2910   */\n              swap1\n              pop\n                /* \"#utility.yul\":2920:2985   */\n              tag_289\n                /* \"#utility.yul\":2982:2983   */\n              0x00\n                /* \"#utility.yul\":2971:2980   */\n              dup4\n                /* \"#utility.yul\":2967:2984   */\n              add\n                /* \"#utility.yul\":2958:2964   */\n              dup5\n                /* \"#utility.yul\":2920:2985   */\n              tag_226\n              jump\t// in\n            tag_289:\n                /* \"#utility.yul\":2782:2992   */\n              swap3\n              swap2\n              pop\n              pop\n              jump\t// out\n                /* \"#utility.yul\":2998:3115   */\n            tag_227:\n                /* \"#utility.yul\":3107:3108   */\n              0x00\n                /* \"#utility.yul\":3104:3105   */\n              dup1\n                /* \"#utility.yul\":3097:3109   */\n              revert\n                /* \"#utility.yul\":3121:3238   */\n            tag_228:\n                /* \"#utility.yul\":3230:3231   */\n              0x00\n                /* \"#utility.yul\":3227:3228   */\n              dup1\n                /* \"#utility.yul\":3220:3232   */\n              revert\n                /* \"#utility.yul\":3244:3346   */\n            tag_229:\n                /* \"#utility.yul\":3285:3291   */\n              0x00\n                /* \"#utility.yul\":3336:3338   */\n              0x1f\n                /* \"#utility.yul\":3332:3339   */\n              not\n                /* \"#utility.yul\":3327:3329   */\n              0x1f\n                /* \"#utility.yul\":3320:3325   */\n              dup4\n                /* \"#utility.yul\":3316:3330   */\n              add\n                /* \"#utility.yul\":3312:3340   */\n              and\n                /* \"#utility.yul\":3302:3340   */\n              swap1\n              pop\n                /* \"#utility.yul\":3244:3346   */\n              swap2\n              swap1\n              pop\n              jump\t// out\n                /* \"#utility.yul\":3352:3532   */\n            tag_230:\n                /* \"#utility.yul\":3400:3477   */\n              0x4e487b7100000000000000000000000000000000000000000000000000000000\n                /* \"#utility.yul\":3397:3398   */\n              0x00\n                /* \"#utility.yul\":3390:3478   */\n              mstore\n                /* \"#utility.yul\":3497:3501   */\n              0x41\n                /* \"#utility.yul\":3494:3495   */\n              0x04\n                /* \"#utility.yul\":3487:3502   */\n              mstore\n                /* \"#utility.yul\":3521:3525   */\n              0x24\n                /* \"#utility.yul\":3518:3519   */\n              0x00\n                /* \"#utility.yul\":3511:3526   */\n              revert\n                /* \"#utility.yul\":3538:3819   */\n            tag_231:\n                /* \"#utility.yul\":3621:3648   */\n              tag_295\n                /* \"#utility.yul\":3643:3647   */\n              dup3\n                /* \"#utility.yul\":3621:3648   */\n              tag_229\n              jump\t// in\n            tag_295:\n                /* \"#utility.yul\":3613:3619   */\n              dup2\n                /* \"#utility.yul\":3609:3649   */\n              add\n                /* \"#utility.yul\":3751:3757   */\n              dup2\n                /* \"#utility.yul\":3739:3749   */\n              dup2\n                /* \"#utility.yul\":3736:3758   */\n              lt\n                /* \"#utility.yul\":3715:3733   */\n              0xffffffffffffffff\n                /* \"#utility.yul\":3703:3713   */\n              dup3\n                /* \"#utility.yul\":3700:3734   */\n              gt\n                /* \"#utility.yul\":3697:3759   */\n              or\n                /* \"#utility.yul\":3694:3782   */\n              iszero\n              tag_296\n              jumpi\n                /* \"#utility.yul\":3762:3780   */\n              tag_297\n              tag_230\n              jump\t// in\n            tag_297:\n                /* \"#utility.yul\":3694:3782   */\n            tag_296:\n                /* \"#utility.yul\":3802:3812   */\n              dup1\n                /* \"#utility.yul\":3798:3800   */\n              0x40\n                /* \"#utility.yul\":3791:3813   */\n              mstore\n                /* \"#utility.yul\":3581:3819   */\n              pop\n                /* \"#utility.yul\":3538:3819   */\n              pop\n              pop\n              jump\t// out\n                /* \"#utility.yul\":3825:3954   */\n            tag_232:\n                /* \"#utility.yul\":3859:3865   */\n              0x00\n                /* \"#utility.yul\":3886:3906   */\n              tag_299\n              tag_213\n              jump\t// in\n            tag_299:\n                /* \"#utility.yul\":3876:3906   */\n              swap1\n              pop\n                /* \"#utility.yul\":3915:3948   */\n              tag_300\n                /* \"#utility.yul\":3943:3947   */\n              dup3\n                /* \"#utility.yul\":3935:3941   */\n              dup3\n                /* \"#utility.yul\":3915:3948   */\n              tag_231\n              jump\t// in\n            tag_300:\n                /* \"#utility.yul\":3825:3954   */\n              swap2\n              swap1\n              pop\n              jump\t// out\n                /* \"#utility.yul\":3960:4268   */\n            tag_233:\n                /* \"#utility.yul\":4022:4026   */\n              0x00\n                /* \"#utility.yul\":4112:4130   */\n              0xffffffffffffffff\n                /* \"#utility.yul\":4104:4110   */\n              dup3\n                /* \"#utility.yul\":4101:4131   */\n              gt\n                /* \"#utility.yul\":4098:4154   */\n              iszero\n              tag_302\n              jumpi\n                /* \"#utility.yul\":4134:4152   */\n              tag_303\n              tag_230\n              jump\t// in\n            tag_303:\n                /* \"#utility.yul\":4098:4154   */\n            tag_302:\n                /* \"#utility.yul\":4172:4201   */\n              tag_304\n                /* \"#utility.yul\":4194:4200   */\n              dup3\n                /* \"#utility.yul\":4172:4201   */\n              tag_229\n              jump\t// in\n            tag_304:\n                /* \"#utility.yul\":4164:4201   */\n              swap1\n              pop\n                /* \"#utility.yul\":4256:4260   */\n              0x20\n                /* \"#utility.yul\":4250:4254   */\n              dup2\n                /* \"#utility.yul\":4246:4261   */\n              add\n                /* \"#utility.yul\":4238:4261   */\n              swap1\n              pop\n                /* \"#utility.yul\":3960:4268   */\n              swap2\n              swap1\n              pop\n              jump\t// out\n                /* \"#utility.yul\":4274:4428   */\n            tag_234:\n                /* \"#utility.yul\":4358:4364   */\n              dup3\n                /* \"#utility.yul\":4353:4356   */\n              dup2\n                /* \"#utility.yul\":4348:4351   */\n              dup4\n                /* \"#utility.yul\":4335:4365   */\n              calldatacopy\n                /* \"#utility.yul\":4420:4421   */\n              0x00\n                /* \"#utility.yul\":4411:4417   */\n              dup4\n                /* \"#utility.yul\":4406:4409   */\n              dup4\n                /* \"#utility.yul\":4402:4418   */\n              add\n                /* \"#utility.yul\":4395:4422   */\n              mstore\n                /* \"#utility.yul\":4274:4428   */\n              pop\n              pop\n              pop\n              jump\t// out\n                /* \"#utility.yul\":4434:4846   */\n            tag_235:\n                /* \"#utility.yul\":4512:4517   */\n              0x00\n                /* \"#utility.yul\":4537:4603   */\n              tag_307\n                /* \"#utility.yul\":4553:4602   */\n              tag_308\n                /* \"#utility.yul\":4595:4601   */\n              dup5\n                /* \"#utility.yul\":4553:4602   */\n              tag_233\n              jump\t// in\n            tag_308:\n                /* \"#utility.yul\":4537:4603   */\n              tag_232\n              jump\t// in\n            tag_307:\n                /* \"#utility.yul\":4528:4603   */\n              swap1\n              pop\n                /* \"#utility.yul\":4626:4632   */\n              dup3\n                /* \"#utility.yul\":4619:4624   */\n              dup2\n                /* \"#utility.yul\":4612:4633   */\n              mstore\n                /* \"#utility.yul\":4664:4668   */\n              0x20\n                /* \"#utility.yul\":4657:4662   */\n              dup2\n                /* \"#utility.yul\":4653:4669   */\n              add\n                /* \"#utility.yul\":4702:4705   */\n              dup5\n                /* \"#utility.yul\":4693:4699   */\n              dup5\n                /* \"#utility.yul\":4688:4691   */\n              dup5\n                /* \"#utility.yul\":4684:4700   */\n              add\n                /* \"#utility.yul\":4681:4706   */\n              gt\n                /* \"#utility.yul\":4678:4790   */\n              iszero\n              tag_309\n              jumpi\n                /* \"#utility.yul\":4709:4788   */\n              tag_310\n              tag_228\n              jump\t// in\n            tag_310:\n                /* \"#utility.yul\":4678:4790   */\n            tag_309:\n                /* \"#utility.yul\":4799:4840   */\n              tag_311\n                /* \"#utility.yul\":4833:4839   */\n              dup5\n                /* \"#utility.yul\":4828:4831   */\n              dup3\n                /* \"#utility.yul\":4823:4826   */\n              dup6\n                /* \"#utility.yul\":4799:4840   */\n              tag_234\n              jump\t// in\n            tag_311:\n                /* \"#utility.yul\":4518:4846   */\n              pop\n                /* \"#utility.yul\":4434:4846   */\n              swap4\n              swap3\n              pop\n              pop\n              pop\n              jump\t// out\n                /* \"#utility.yul\":4866:5206   */\n            tag_236:\n                /* \"#utility.yul\":4922:4927   */\n              0x00\n                /* \"#utility.yul\":4971:4974   */\n              dup3\n                /* \"#utility.yul\":4964:4968   */\n              0x1f\n                /* \"#utility.yul\":4956:4962   */\n              dup4\n                /* \"#utility.yul\":4952:4969   */\n              add\n                /* \"#utility.yul\":4948:4975   */\n              slt\n                /* \"#utility.yul\":4938:5060   */\n              tag_313\n              jumpi\n                /* \"#utility.yul\":4979:5058   */\n              tag_314\n              tag_227\n              jump\t// in\n            tag_314:\n                /* \"#utility.yul\":4938:5060   */\n            tag_313:\n                /* \"#utility.yul\":5096:5102   */\n              dup2\n                /* \"#utility.yul\":5083:5103   */\n              calldataload\n                /* \"#utility.yul\":5121:5200   */\n              tag_315\n                /* \"#utility.yul\":5196:5199   */\n              dup5\n                /* \"#utility.yul\":5188:5194   */\n              dup3\n                /* \"#utility.yul\":5181:5185   */\n              0x20\n                /* \"#utility.yul\":5173:5179   */\n              dup7\n                /* \"#utility.yul\":5169:5186   */\n              add\n                /* \"#utility.yul\":5121:5200   */\n              tag_235\n              jump\t// in\n            tag_315:\n                /* \"#utility.yul\":5112:5200   */\n              swap2\n              pop\n                /* \"#utility.yul\":4928:5206   */\n              pop\n                /* \"#utility.yul\":4866:5206   */\n              swap3\n              swap2\n              pop\n              pop\n              jump\t// out\n                /* \"#utility.yul\":5212:6337   */\n            tag_48:\n                /* \"#utility.yul\":5318:5324   */\n              0x00\n                /* \"#utility.yul\":5326:5332   */\n              dup1\n                /* \"#utility.yul\":5334:5340   */\n              0x00\n                /* \"#utility.yul\":5342:5348   */\n              dup1\n                /* \"#utility.yul\":5391:5394   */\n              0x80\n                /* \"#utility.yul\":5379:5388   */\n              dup6\n                /* \"#utility.yul\":5370:5377   */\n              dup8\n                /* \"#utility.yul\":5366:5389   */\n              sub\n                /* \"#utility.yul\":5362:5395   */\n              slt\n                /* \"#utility.yul\":5359:5479   */\n              iszero\n              tag_317\n              jumpi\n                /* \"#utility.yul\":5398:5477   */\n              tag_318\n              tag_214\n              jump\t// in\n            tag_318:\n                /* \"#utility.yul\":5359:5479   */\n            tag_317:\n                /* \"#utility.yul\":5546:5547   */\n              0x00\n                /* \"#utility.yul\":5535:5544   */\n              dup6\n                /* \"#utility.yul\":5531:5548   */\n              add\n                /* \"#utility.yul\":5518:5549   */\n              calldataload\n                /* \"#utility.yul\":5576:5594   */\n              0xffffffffffffffff\n                /* \"#utility.yul\":5568:5574   */\n              dup2\n                /* \"#utility.yul\":5565:5595   */\n              gt\n                /* \"#utility.yul\":5562:5679   */\n              iszero\n              tag_319\n              jumpi\n                /* \"#utility.yul\":5598:5677   */\n              tag_320\n              tag_215\n              jump\t// in\n            tag_320:\n                /* \"#utility.yul\":5562:5679   */\n            tag_319:\n                /* \"#utility.yul\":5703:5766   */\n              tag_321\n                /* \"#utility.yul\":5758:5765   */\n              dup8\n                /* \"#utility.yul\":5749:5755   */\n              dup3\n                /* \"#utility.yul\":5738:5747   */\n              dup9\n                /* \"#utility.yul\":5734:5756   */\n              add\n                /* \"#utility.yul\":5703:5766   */\n              tag_236\n              jump\t// in\n            tag_321:\n                /* \"#utility.yul\":5693:5766   */\n              swap5\n              pop\n                /* \"#utility.yul\":5489:5776   */\n              pop\n                /* \"#utility.yul\":5843:5845   */\n              0x20\n                /* \"#utility.yul\":5832:5841   */\n              dup6\n                /* \"#utility.yul\":5828:5846   */\n              add\n                /* \"#utility.yul\":5815:5847   */\n              calldataload\n                /* \"#utility.yul\":5874:5892   */\n              0xffffffffffffffff\n                /* \"#utility.yul\":5866:5872   */\n              dup2\n                /* \"#utility.yul\":5863:5893   */\n              gt\n                /* \"#utility.yul\":5860:5977   */\n              iszero\n              tag_322\n              jumpi\n                /* \"#utility.yul\":5896:5975   */\n              tag_323\n              tag_215\n              jump\t// in\n            tag_323:\n                /* \"#utility.yul\":5860:5977   */\n            tag_322:\n                /* \"#utility.yul\":6001:6064   */\n              tag_324\n                /* \"#utility.yul\":6056:6063   */\n              dup8\n                /* \"#utility.yul\":6047:6053   */\n              dup3\n                /* \"#utility.yul\":6036:6045   */\n              dup9\n                /* \"#utility.yul\":6032:6054   */\n              add\n                /* \"#utility.yul\":6001:6064   */\n              tag_236\n              jump\t// in\n            tag_324:\n                /* \"#utility.yul\":5991:6064   */\n              swap4\n              pop\n                /* \"#utility.yul\":5786:6074   */\n              pop\n                /* \"#utility.yul\":6113:6115   */\n              0x40\n                /* \"#utility.yul\":6139:6192   */\n              tag_325\n                /* \"#utility.yul\":6184:6191   */\n              dup8\n                /* \"#utility.yul\":6175:6181   */\n              dup3\n                /* \"#utility.yul\":6164:6173   */\n              dup9\n                /* \"#utility.yul\":6160:6182   */\n              add\n                /* \"#utility.yul\":6139:6192   */\n              tag_224\n              jump\t// in\n            tag_325:\n                /* \"#utility.yul\":6129:6192   */\n              swap3\n              pop\n                /* \"#utility.yul\":6084:6202   */\n              pop\n                /* \"#utility.yul\":6241:6243   */\n              0x60\n                /* \"#utility.yul\":6267:6320   */\n              tag_326\n                /* \"#utility.yul\":6312:6319   */\n              dup8\n                /* \"#utility.yul\":6303:6309   */\n              dup3\n                /* \"#utility.yul\":6292:6301   */\n              dup9\n                /* \"#utility.yul\":6288:6310   */\n              add\n                /* \"#utility.yul\":6267:6320   */\n              tag_218\n              jump\t// in\n            tag_326:\n                /* \"#utility.yul\":6257:6320   */\n              swap2\n              pop\n                /* \"#utility.yul\":6212:6330   */\n              pop\n                /* \"#utility.yul\":5212:6337   */\n              swap3\n              swap6\n              swap2\n              swap5\n              pop\n              swap3\n              pop\n              jump\t// out\n                /* \"#utility.yul\":6343:6442   */\n            tag_237:\n                /* \"#utility.yul\":6395:6401   */\n              0x00\n                /* \"#utility.yul\":6429:6434   */\n              dup2\n                /* \"#utility.yul\":6423:6435   */\n              mload\n                /* \"#utility.yul\":6413:6435   */\n              swap1\n              pop\n                /* \"#utility.yul\":6343:6442   */\n              swap2\n              swap1\n              pop\n              jump\t// out\n                /* \"#utility.yul\":6448:6617   */\n            tag_238:\n                /* \"#utility.yul\":6532:6543   */\n              0x00\n                /* \"#utility.yul\":6566:6572   */\n              dup3\n                /* \"#utility.yul\":6561:6564   */\n              dup3\n                /* \"#utility.yul\":6554:6573   */\n              mstore\n                /* \"#utility.yul\":6606:6610   */\n              0x20\n                /* \"#utility.yul\":6601:6604   */\n              dup3\n                /* \"#utility.yul\":6597:6611   */\n              add\n                /* \"#utility.yul\":6582:6611   */\n              swap1\n              pop\n                /* \"#utility.yul\":6448:6617   */\n              swap3\n              swap2\n              pop\n              pop\n              jump\t// out\n                /* \"#utility.yul\":6623:6930   */\n            tag_239:\n                /* \"#utility.yul\":6691:6692   */\n              0x00\n                /* \"#utility.yul\":6701:6814   */\n            tag_330:\n                /* \"#utility.yul\":6715:6721   */\n              dup4\n                /* \"#utility.yul\":6712:6713   */\n              dup2\n                /* \"#utility.yul\":6709:6722   */\n              lt\n                /* \"#utility.yul\":6701:6814   */\n              iszero\n              tag_332\n              jumpi\n                /* \"#utility.yul\":6800:6801   */\n              dup1\n                /* \"#utility.yul\":6795:6798   */\n              dup3\n                /* \"#utility.yul\":6791:6802   */\n              add\n                /* \"#utility.yul\":6785:6803   */\n              mload\n                /* \"#utility.yul\":6781:6782   */\n              dup2\n                /* \"#utility.yul\":6776:6779   */\n              dup5\n                /* \"#utility.yul\":6772:6783   */\n              add\n                /* \"#utility.yul\":6765:6804   */\n              mstore\n                /* \"#utility.yul\":6737:6739   */\n              0x20\n                /* \"#utility.yul\":6734:6735   */\n              dup2\n                /* \"#utility.yul\":6730:6740   */\n              add\n                /* \"#utility.yul\":6725:6740   */\n              swap1\n              pop\n                /* \"#utility.yul\":6701:6814   */\n              jump(tag_330)\n            tag_332:\n                /* \"#utility.yul\":6832:6838   */\n              dup4\n                /* \"#utility.yul\":6829:6830   */\n              dup2\n                /* \"#utility.yul\":6826:6839   */\n              gt\n                /* \"#utility.yul\":6823:6924   */\n              iszero\n              tag_333\n              jumpi\n                /* \"#utility.yul\":6912:6913   */\n              0x00\n                /* \"#utility.yul\":6903:6909   */\n              dup5\n                /* \"#utility.yul\":6898:6901   */\n              dup5\n                /* \"#utility.yul\":6894:6910   */\n              add\n                /* \"#utility.yul\":6887:6914   */\n              mstore\n                /* \"#utility.yul\":6823:6924   */\n            tag_333:\n                /* \"#utility.yul\":6672:6930   */\n              pop\n                /* \"#utility.yul\":6623:6930   */\n              pop\n              pop\n              pop\n              jump\t// out\n                /* \"#utility.yul\":6936:7300   */\n            tag_240:\n                /* \"#utility.yul\":7024:7027   */\n              0x00\n                /* \"#utility.yul\":7052:7091   */\n              tag_335\n                /* \"#utility.yul\":7085:7090   */\n              dup3\n                /* \"#utility.yul\":7052:7091   */\n              tag_237\n              jump\t// in\n            tag_335:\n                /* \"#utility.yul\":7107:7178   */\n              tag_336\n                /* \"#utility.yul\":7171:7177   */\n              dup2\n                /* \"#utility.yul\":7166:7169   */\n              dup6\n                /* \"#utility.yul\":7107:7178   */\n              tag_238\n              jump\t// in\n            tag_336:\n                /* \"#utility.yul\":7100:7178   */\n              swap4\n              pop\n                /* \"#utility.yul\":7187:7239   */\n              tag_337\n                /* \"#utility.yul\":7232:7238   */\n              dup2\n                /* \"#utility.yul\":7227:7230   */\n              dup6\n                /* \"#utility.yul\":7220:7224   */\n              0x20\n                /* \"#utility.yul\":7213:7218   */\n              dup7\n                /* \"#utility.yul\":7209:7225   */\n              add\n                /* \"#utility.yul\":7187:7239   */\n              tag_239\n              jump\t// in\n            tag_337:\n                /* \"#utility.yul\":7264:7293   */\n              tag_338\n                /* \"#utility.yul\":7286:7292   */\n              dup2\n                /* \"#utility.yul\":7264:7293   */\n              tag_229\n              jump\t// in\n            tag_338:\n                /* \"#utility.yul\":7259:7262   */\n              dup5\n                /* \"#utility.yul\":7255:7294   */\n              add\n                /* \"#utility.yul\":7248:7294   */\n              swap2\n              pop\n                /* \"#utility.yul\":7028:7300   */\n              pop\n                /* \"#utility.yul\":6936:7300   */\n              swap3\n              swap2\n              pop\n              pop\n              jump\t// out\n                /* \"#utility.yul\":7306:7619   */\n            tag_58:\n                /* \"#utility.yul\":7419:7423   */\n              0x00\n                /* \"#utility.yul\":7457:7459   */\n              0x20\n                /* \"#utility.yul\":7446:7455   */\n              dup3\n                /* \"#utility.yul\":7442:7460   */\n              add\n                /* \"#utility.yul\":7434:7460   */\n              swap1\n              pop\n                /* \"#utility.yul\":7506:7515   */\n              dup2\n                /* \"#utility.yul\":7500:7504   */\n              dup2\n                /* \"#utility.yul\":7496:7516   */\n              sub\n                /* \"#utility.yul\":7492:7493   */\n              0x00\n                /* \"#utility.yul\":7481:7490   */\n              dup4\n                /* \"#utility.yul\":7477:7494   */\n              add\n                /* \"#utility.yul\":7470:7517   */\n              mstore\n                /* \"#utility.yul\":7534:7612   */\n              tag_340\n                /* \"#utility.yul\":7607:7611   */\n              dup2\n                /* \"#utility.yul\":7598:7604   */\n              dup5\n                /* \"#utility.yul\":7534:7612   */\n              tag_240\n              jump\t// in\n            tag_340:\n                /* \"#utility.yul\":7526:7612   */\n              swap1\n              pop\n                /* \"#utility.yul\":7306:7619   */\n              swap3\n              swap2\n              pop\n              pop\n              jump\t// out\n                /* \"#utility.yul\":7625:8895   */\n            tag_63:\n                /* \"#utility.yul\":7974:7978   */\n              0x00\n                /* \"#utility.yul\":8012:8015   */\n              0x0100\n                /* \"#utility.yul\":8001:8010   */\n              dup3\n                /* \"#utility.yul\":7997:8016   */\n              add\n                /* \"#utility.yul\":7989:8016   */\n              swap1\n              pop\n                /* \"#utility.yul\":8026:8097   */\n              tag_342\n                /* \"#utility.yul\":8094:8095   */\n              0x00\n                /* \"#utility.yul\":8083:8092   */\n              dup4\n                /* \"#utility.yul\":8079:8096   */\n              add\n                /* \"#utility.yul\":8070:8076   */\n              dup12\n                /* \"#utility.yul\":8026:8097   */\n              tag_222\n              jump\t// in\n            tag_342:\n                /* \"#utility.yul\":8107:8179   */\n              tag_343\n                /* \"#utility.yul\":8175:8177   */\n              0x20\n                /* \"#utility.yul\":8164:8173   */\n              dup4\n                /* \"#utility.yul\":8160:8178   */\n              add\n                /* \"#utility.yul\":8151:8157   */\n              dup11\n                /* \"#utility.yul\":8107:8179   */\n              tag_222\n              jump\t// in\n            tag_343:\n                /* \"#utility.yul\":8189:8261   */\n              tag_344\n                /* \"#utility.yul\":8257:8259   */\n              0x40\n                /* \"#utility.yul\":8246:8255   */\n              dup4\n                /* \"#utility.yul\":8242:8260   */\n              add\n                /* \"#utility.yul\":8233:8239   */\n              dup10\n                /* \"#utility.yul\":8189:8261   */\n              tag_222\n              jump\t// in\n            tag_344:\n                /* \"#utility.yul\":8271:8343   */\n              tag_345\n                /* \"#utility.yul\":8339:8341   */\n              0x60\n                /* \"#utility.yul\":8328:8337   */\n              dup4\n                /* \"#utility.yul\":8324:8342   */\n              add\n                /* \"#utility.yul\":8315:8321   */\n              dup9\n                /* \"#utility.yul\":8271:8343   */\n              tag_222\n              jump\t// in\n            tag_345:\n                /* \"#utility.yul\":8353:8426   */\n              tag_346\n                /* \"#utility.yul\":8421:8424   */\n              0x80\n                /* \"#utility.yul\":8410:8419   */\n              dup4\n                /* \"#utility.yul\":8406:8425   */\n              add\n                /* \"#utility.yul\":8397:8403   */\n              dup8\n                /* \"#utility.yul\":8353:8426   */\n              tag_221\n              jump\t// in\n            tag_346:\n                /* \"#utility.yul\":8474:8483   */\n              dup2\n                /* \"#utility.yul\":8468:8472   */\n              dup2\n                /* \"#utility.yul\":8464:8484   */\n              sub\n                /* \"#utility.yul\":8458:8461   */\n              0xa0\n                /* \"#utility.yul\":8447:8456   */\n              dup4\n                /* \"#utility.yul\":8443:8462   */\n              add\n                /* \"#utility.yul\":8436:8485   */\n              mstore\n                /* \"#utility.yul\":8502:8580   */\n              tag_347\n                /* \"#utility.yul\":8575:8579   */\n              dup2\n                /* \"#utility.yul\":8566:8572   */\n              dup7\n                /* \"#utility.yul\":8502:8580   */\n              tag_240\n              jump\t// in\n            tag_347:\n                /* \"#utility.yul\":8494:8580   */\n              swap1\n              pop\n                /* \"#utility.yul\":8628:8637   */\n              dup2\n                /* \"#utility.yul\":8622:8626   */\n              dup2\n                /* \"#utility.yul\":8618:8638   */\n              sub\n                /* \"#utility.yul\":8612:8615   */\n              0xc0\n                /* \"#utility.yul\":8601:8610   */\n              dup4\n                /* \"#utility.yul\":8597:8616   */\n              add\n                /* \"#utility.yul\":8590:8639   */\n              mstore\n                /* \"#utility.yul\":8656:8734   */\n              tag_348\n                /* \"#utility.yul\":8729:8733   */\n              dup2\n                /* \"#utility.yul\":8720:8726   */\n              dup6\n                /* \"#utility.yul\":8656:8734   */\n              tag_240\n              jump\t// in\n            tag_348:\n                /* \"#utility.yul\":8648:8734   */\n              swap1\n              pop\n                /* \"#utility.yul\":8782:8791   */\n              dup2\n                /* \"#utility.yul\":8776:8780   */\n              dup2\n                /* \"#utility.yul\":8772:8792   */\n              sub\n                /* \"#utility.yul\":8766:8769   */\n              0xe0\n                /* \"#utility.yul\":8755:8764   */\n              dup4\n                /* \"#utility.yul\":8751:8770   */\n              add\n                /* \"#utility.yul\":8744:8793   */\n              mstore\n                /* \"#utility.yul\":8810:8888   */\n              tag_349\n                /* \"#utility.yul\":8883:8887   */\n              dup2\n                /* \"#utility.yul\":8874:8880   */\n              dup5\n                /* \"#utility.yul\":8810:8888   */\n              tag_240\n              jump\t// in\n            tag_349:\n                /* \"#utility.yul\":8802:8888   */\n              swap1\n              pop\n                /* \"#utility.yul\":7625:8895   */\n              swap10\n              swap9\n              pop\n              pop\n              pop\n              pop\n              pop\n              pop\n              pop\n              pop\n              pop\n              jump\t// out\n                /* \"#utility.yul\":8901:9015   */\n            tag_241:\n                /* \"#utility.yul\":8968:8974   */\n              0x00\n                /* \"#utility.yul\":9002:9007   */\n              dup2\n                /* \"#utility.yul\":8996:9008   */\n              mload\n                /* \"#utility.yul\":8986:9008   */\n              swap1\n              pop\n                /* \"#utility.yul\":8901:9015   */\n              swap2\n              swap1\n              pop\n              jump\t// out\n                /* \"#utility.yul\":9021:9205   */\n            tag_242:\n                /* \"#utility.yul\":9120:9131   */\n              0x00\n                /* \"#utility.yul\":9154:9160   */\n              dup3\n                /* \"#utility.yul\":9149:9152   */\n              dup3\n                /* \"#utility.yul\":9142:9161   */\n              mstore\n                /* \"#utility.yul\":9194:9198   */\n              0x20\n                /* \"#utility.yul\":9189:9192   */\n              dup3\n                /* \"#utility.yul\":9185:9199   */\n              add\n                /* \"#utility.yul\":9170:9199   */\n              swap1\n              pop\n                /* \"#utility.yul\":9021:9205   */\n              swap3\n              swap2\n              pop\n              pop\n              jump\t// out\n                /* \"#utility.yul\":9211:9343   */\n            tag_243:\n                /* \"#utility.yul\":9278:9282   */\n              0x00\n                /* \"#utility.yul\":9301:9304   */\n              dup2\n                /* \"#utility.yul\":9293:9304   */\n              swap1\n              pop\n                /* \"#utility.yul\":9331:9335   */\n              0x20\n                /* \"#utility.yul\":9326:9329   */\n              dup3\n                /* \"#utility.yul\":9322:9336   */\n              add\n                /* \"#utility.yul\":9314:9336   */\n              swap1\n              pop\n                /* \"#utility.yul\":9211:9343   */\n              swap2\n              swap1\n              pop\n              jump\t// out\n                /* \"#utility.yul\":9349:9457   */\n            tag_244:\n                /* \"#utility.yul\":9426:9450   */\n              tag_354\n                /* \"#utility.yul\":9444:9449   */\n              dup2\n                /* \"#utility.yul\":9426:9450   */\n              tag_220\n              jump\t// in\n            tag_354:\n                /* \"#utility.yul\":9421:9424   */\n              dup3\n                /* \"#utility.yul\":9414:9451   */\n              mstore\n                /* \"#utility.yul\":9349:9457   */\n              pop\n              pop\n              jump\t// out\n                /* \"#utility.yul\":9463:9642   */\n            tag_245:\n                /* \"#utility.yul\":9532:9542   */\n              0x00\n                /* \"#utility.yul\":9553:9599   */\n              tag_356\n                /* \"#utility.yul\":9595:9598   */\n              dup4\n                /* \"#utility.yul\":9587:9593   */\n              dup4\n                /* \"#utility.yul\":9553:9599   */\n              tag_244\n              jump\t// in\n            tag_356:\n                /* \"#utility.yul\":9631:9635   */\n              0x20\n                /* \"#utility.yul\":9626:9629   */\n              dup4\n                /* \"#utility.yul\":9622:9636   */\n              add\n                /* \"#utility.yul\":9608:9636   */\n              swap1\n              pop\n                /* \"#utility.yul\":9463:9642   */\n              swap3\n              swap2\n              pop\n              pop\n              jump\t// out\n                /* \"#utility.yul\":9648:9761   */\n            tag_246:\n                /* \"#utility.yul\":9718:9722   */\n              0x00\n                /* \"#utility.yul\":9750:9754   */\n              0x20\n                /* \"#utility.yul\":9745:9748   */\n              dup3\n                /* \"#utility.yul\":9741:9755   */\n              add\n                /* \"#utility.yul\":9733:9755   */\n              swap1\n              pop\n                /* \"#utility.yul\":9648:9761   */\n              swap2\n              swap1\n              pop\n              jump\t// out\n                /* \"#utility.yul\":9797:10529   */\n            tag_247:\n                /* \"#utility.yul\":9916:9919   */\n              0x00\n                /* \"#utility.yul\":9945:9999   */\n              tag_359\n                /* \"#utility.yul\":9993:9998   */\n              dup3\n                /* \"#utility.yul\":9945:9999   */\n              tag_241\n              jump\t// in\n            tag_359:\n                /* \"#utility.yul\":10015:10101   */\n              tag_360\n                /* \"#utility.yul\":10094:10100   */\n              dup2\n                /* \"#utility.yul\":10089:10092   */\n              dup6\n                /* \"#utility.yul\":10015:10101   */\n              tag_242\n              jump\t// in\n            tag_360:\n                /* \"#utility.yul\":10008:10101   */\n              swap4\n              pop\n                /* \"#utility.yul\":10125:10181   */\n              tag_361\n                /* \"#utility.yul\":10175:10180   */\n              dup4\n                /* \"#utility.yul\":10125:10181   */\n              tag_243\n              jump\t// in\n            tag_361:\n                /* \"#utility.yul\":10204:10211   */\n              dup1\n                /* \"#utility.yul\":10235:10236   */\n              0x00\n                /* \"#utility.yul\":10220:10504   */\n            tag_362:\n                /* \"#utility.yul\":10245:10251   */\n              dup4\n                /* \"#utility.yul\":10242:10243   */\n              dup2\n                /* \"#utility.yul\":10239:10252   */\n              lt\n                /* \"#utility.yul\":10220:10504   */\n              iszero\n              tag_364\n              jumpi\n                /* \"#utility.yul\":10321:10327   */\n              dup2\n                /* \"#utility.yul\":10315:10328   */\n              mload\n                /* \"#utility.yul\":10348:10411   */\n              tag_365\n                /* \"#utility.yul\":10407:10410   */\n              dup9\n                /* \"#utility.yul\":10392:10405   */\n              dup3\n                /* \"#utility.yul\":10348:10411   */\n              tag_245\n              jump\t// in\n            tag_365:\n                /* \"#utility.yul\":10341:10411   */\n              swap8\n              pop\n                /* \"#utility.yul\":10434:10494   */\n              tag_366\n                /* \"#utility.yul\":10487:10493   */\n              dup4\n                /* \"#utility.yul\":10434:10494   */\n              tag_246\n              jump\t// in\n            tag_366:\n                /* \"#utility.yul\":10424:10494   */\n              swap3\n              pop\n                /* \"#utility.yul\":10280:10504   */\n              pop\n                /* \"#utility.yul\":10267:10268   */\n              0x01\n                /* \"#utility.yul\":10264:10265   */\n              dup2\n                /* \"#utility.yul\":10260:10269   */\n              add\n                /* \"#utility.yul\":10255:10269   */\n              swap1\n              pop\n                /* \"#utility.yul\":10220:10504   */\n              jump(tag_362)\n            tag_364:\n                /* \"#utility.yul\":10224:10238   */\n              pop\n                /* \"#utility.yul\":10520:10523   */\n              dup6\n                /* \"#utility.yul\":10513:10523   */\n              swap4\n              pop\n                /* \"#utility.yul\":9921:10529   */\n              pop\n              pop\n              pop\n                /* \"#utility.yul\":9797:10529   */\n              swap3\n              swap2\n              pop\n              pop\n              jump\t// out\n                /* \"#utility.yul\":10535:10908   */\n            tag_76:\n                /* \"#utility.yul\":10678:10682   */\n              0x00\n                /* \"#utility.yul\":10716:10718   */\n              0x20\n                /* \"#utility.yul\":10705:10714   */\n              dup3\n                /* \"#utility.yul\":10701:10719   */\n              add\n                /* \"#utility.yul\":10693:10719   */\n              swap1\n              pop\n                /* \"#utility.yul\":10765:10774   */\n              dup2\n                /* \"#utility.yul\":10759:10763   */\n              dup2\n                /* \"#utility.yul\":10755:10775   */\n              sub\n                /* \"#utility.yul\":10751:10752   */\n              0x00\n                /* \"#utility.yul\":10740:10749   */\n              dup4\n                /* \"#utility.yul\":10736:10753   */\n              add\n                /* \"#utility.yul\":10729:10776   */\n              mstore\n                /* \"#utility.yul\":10793:10901   */\n              tag_368\n                /* \"#utility.yul\":10896:10900   */\n              dup2\n                /* \"#utility.yul\":10887:10893   */\n              dup5\n                /* \"#utility.yul\":10793:10901   */\n              tag_247\n              jump\t// in\n            tag_368:\n                /* \"#utility.yul\":10785:10901   */\n              swap1\n              pop\n                /* \"#utility.yul\":10535:10908   */\n              swap3\n              swap2\n              pop\n              pop\n              jump\t// out\n                /* \"#utility.yul\":10914:11859   */\n            tag_86:\n                /* \"#utility.yul\":11181:11185   */\n              0x00\n                /* \"#utility.yul\":11219:11222   */\n              0xc0\n                /* \"#utility.yul\":11208:11217   */\n              dup3\n                /* \"#utility.yul\":11204:11223   */\n              add\n                /* \"#utility.yul\":11196:11223   */\n              swap1\n              pop\n                /* \"#utility.yul\":11269:11278   */\n              dup2\n                /* \"#utility.yul\":11263:11267   */\n              dup2\n                /* \"#utility.yul\":11259:11279   */\n              sub\n                /* \"#utility.yul\":11255:11256   */\n              0x00\n                /* \"#utility.yul\":11244:11253   */\n              dup4\n                /* \"#utility.yul\":11240:11257   */\n              add\n                /* \"#utility.yul\":11233:11280   */\n              mstore\n                /* \"#utility.yul\":11297:11375   */\n              tag_370\n                /* \"#utility.yul\":11370:11374   */\n              dup2\n                /* \"#utility.yul\":11361:11367   */\n              dup10\n                /* \"#utility.yul\":11297:11375   */\n              tag_240\n              jump\t// in\n            tag_370:\n                /* \"#utility.yul\":11289:11375   */\n              swap1\n              pop\n                /* \"#utility.yul\":11422:11431   */\n              dup2\n                /* \"#utility.yul\":11416:11420   */\n              dup2\n                /* \"#utility.yul\":11412:11432   */\n              sub\n                /* \"#utility.yul\":11407:11409   */\n              0x20\n                /* \"#utility.yul\":11396:11405   */\n              dup4\n                /* \"#utility.yul\":11392:11410   */\n              add\n                /* \"#utility.yul\":11385:11433   */\n              mstore\n                /* \"#utility.yul\":11450:11528   */\n              tag_371\n                /* \"#utility.yul\":11523:11527   */\n              dup2\n                /* \"#utility.yul\":11514:11520   */\n              dup9\n                /* \"#utility.yul\":11450:11528   */\n              tag_240\n              jump\t// in\n            tag_371:\n                /* \"#utility.yul\":11442:11528   */\n              swap1\n              pop\n                /* \"#utility.yul\":11538:11610   */\n              tag_372\n                /* \"#utility.yul\":11606:11608   */\n              0x40\n                /* \"#utility.yul\":11595:11604   */\n              dup4\n                /* \"#utility.yul\":11591:11609   */\n              add\n                /* \"#utility.yul\":11582:11588   */\n              dup8\n                /* \"#utility.yul\":11538:11610   */\n              tag_221\n              jump\t// in\n            tag_372:\n                /* \"#utility.yul\":11620:11692   */\n              tag_373\n                /* \"#utility.yul\":11688:11690   */\n              0x60\n                /* \"#utility.yul\":11677:11686   */\n              dup4\n                /* \"#utility.yul\":11673:11691   */\n              add\n                /* \"#utility.yul\":11664:11670   */\n              dup7\n                /* \"#utility.yul\":11620:11692   */\n              tag_222\n              jump\t// in\n            tag_373:\n                /* \"#utility.yul\":11702:11775   */\n              tag_374\n                /* \"#utility.yul\":11770:11773   */\n              0x80\n                /* \"#utility.yul\":11759:11768   */\n              dup4\n                /* \"#utility.yul\":11755:11774   */\n              add\n                /* \"#utility.yul\":11746:11752   */\n              dup6\n                /* \"#utility.yul\":11702:11775   */\n              tag_222\n              jump\t// in\n            tag_374:\n                /* \"#utility.yul\":11785:11852   */\n              tag_375\n                /* \"#utility.yul\":11847:11850   */\n              0xa0\n                /* \"#utility.yul\":11836:11845   */\n              dup4\n                /* \"#utility.yul\":11832:11851   */\n              add\n                /* \"#utility.yul\":11823:11829   */\n              dup5\n                /* \"#utility.yul\":11785:11852   */\n              tag_226\n              jump\t// in\n            tag_375:\n                /* \"#utility.yul\":10914:11859   */\n              swap8\n              swap7\n              pop\n              pop\n              pop\n              pop\n              pop\n              pop\n              pop\n              jump\t// out\n                /* \"#utility.yul\":11865:12045   */\n            tag_248:\n                /* \"#utility.yul\":11913:11990   */\n              0x4e487b7100000000000000000000000000000000000000000000000000000000\n                /* \"#utility.yul\":11910:11911   */\n              0x00\n                /* \"#utility.yul\":11903:11991   */\n              mstore\n                /* \"#utility.yul\":12010:12014   */\n              0x12\n                /* \"#utility.yul\":12007:12008   */\n              0x04\n                /* \"#utility.yul\":12000:12015   */\n              mstore\n                /* \"#utility.yul\":12034:12038   */\n              0x24\n                /* \"#utility.yul\":12031:12032   */\n              0x00\n                /* \"#utility.yul\":12024:12039   */\n              revert\n                /* \"#utility.yul\":12051:12231   */\n            tag_249:\n                /* \"#utility.yul\":12099:12176   */\n              0x4e487b7100000000000000000000000000000000000000000000000000000000\n                /* \"#utility.yul\":12096:12097   */\n              0x00\n                /* \"#utility.yul\":12089:12177   */\n              mstore\n                /* \"#utility.yul\":12196:12200   */\n              0x11\n                /* \"#utility.yul\":12193:12194   */\n              0x04\n                /* \"#utility.yul\":12186:12201   */\n              mstore\n                /* \"#utility.yul\":12220:12224   */\n              0x24\n                /* \"#utility.yul\":12217:12218   */\n              0x00\n                /* \"#utility.yul\":12210:12225   */\n              revert\n                /* \"#utility.yul\":12237:12422   */\n            tag_105:\n                /* \"#utility.yul\":12277:12278   */\n              0x00\n                /* \"#utility.yul\":12294:12314   */\n              tag_379\n                /* \"#utility.yul\":12312:12313   */\n              dup3\n                /* \"#utility.yul\":12294:12314   */\n              tag_216\n              jump\t// in\n            tag_379:\n                /* \"#utility.yul\":12289:12314   */\n              swap2\n              pop\n                /* \"#utility.yul\":12328:12348   */\n              tag_380\n                /* \"#utility.yul\":12346:12347   */\n              dup4\n                /* \"#utility.yul\":12328:12348   */\n              tag_216\n              jump\t// in\n            tag_380:\n                /* \"#utility.yul\":12323:12348   */\n              swap3\n              pop\n                /* \"#utility.yul\":12367:12368   */\n              dup3\n                /* \"#utility.yul\":12357:12392   */\n              tag_381\n              jumpi\n                /* \"#utility.yul\":12372:12390   */\n              tag_382\n              tag_248\n              jump\t// in\n            tag_382:\n                /* \"#utility.yul\":12357:12392   */\n            tag_381:\n                /* \"#utility.yul\":12414:12415   */\n              dup3\n                /* \"#utility.yul\":12411:12412   */\n              dup3\n                /* \"#utility.yul\":12407:12416   */\n              div\n                /* \"#utility.yul\":12402:12416   */\n              swap1\n              pop\n                /* \"#utility.yul\":12237:12422   */\n              swap3\n              swap2\n              pop\n              pop\n              jump\t// out\n                /* \"#utility.yul\":12428:12608   */\n            tag_108:\n                /* \"#utility.yul\":12476:12553   */\n              0x4e487b7100000000000000000000000000000000000000000000000000000000\n                /* \"#utility.yul\":12473:12474   */\n              0x00\n                /* \"#utility.yul\":12466:12554   */\n              mstore\n                /* \"#utility.yul\":12573:12577   */\n              0x32\n                /* \"#utility.yul\":12570:12571   */\n              0x04\n                /* \"#utility.yul\":12563:12578   */\n              mstore\n                /* \"#utility.yul\":12597:12601   */\n              0x24\n                /* \"#utility.yul\":12594:12595   */\n              0x00\n                /* \"#utility.yul\":12587:12602   */\n              revert\n                /* \"#utility.yul\":12614:12794   */\n            tag_250:\n                /* \"#utility.yul\":12662:12739   */\n              0x4e487b7100000000000000000000000000000000000000000000000000000000\n                /* \"#utility.yul\":12659:12660   */\n              0x00\n                /* \"#utility.yul\":12652:12740   */\n              mstore\n                /* \"#utility.yul\":12759:12763   */\n              0x22\n                /* \"#utility.yul\":12756:12757   */\n              0x04\n                /* \"#utility.yul\":12749:12764   */\n              mstore\n                /* \"#utility.yul\":12783:12787   */\n              0x24\n                /* \"#utility.yul\":12780:12781   */\n              0x00\n                /* \"#utility.yul\":12773:12788   */\n              revert\n                /* \"#utility.yul\":12800:13120   */\n            tag_138:\n                /* \"#utility.yul\":12844:12850   */\n              0x00\n                /* \"#utility.yul\":12881:12882   */\n              0x02\n                /* \"#utility.yul\":12875:12879   */\n              dup3\n                /* \"#utility.yul\":12871:12883   */\n              div\n                /* \"#utility.yul\":12861:12883   */\n              swap1\n              pop\n                /* \"#utility.yul\":12928:12929   */\n              0x01\n                /* \"#utility.yul\":12922:12926   */\n              dup3\n                /* \"#utility.yul\":12918:12930   */\n              and\n                /* \"#utility.yul\":12949:12967   */\n              dup1\n                /* \"#utility.yul\":12939:13020   */\n              tag_386\n              jumpi\n                /* \"#utility.yul\":13005:13009   */\n              0x7f\n                /* \"#utility.yul\":12997:13003   */\n              dup3\n                /* \"#utility.yul\":12993:13010   */\n              and\n                /* \"#utility.yul\":12983:13010   */\n              swap2\n              pop\n                /* \"#utility.yul\":12939:13020   */\n            tag_386:\n                /* \"#utility.yul\":13067:13069   */\n              0x20\n                /* \"#utility.yul\":13059:13065   */\n              dup3\n                /* \"#utility.yul\":13056:13070   */\n              lt\n                /* \"#utility.yul\":13036:13054   */\n              dup2\n                /* \"#utility.yul\":13033:13071   */\n              sub\n                /* \"#utility.yul\":13030:13114   */\n              tag_387\n              jumpi\n                /* \"#utility.yul\":13086:13104   */\n              tag_388\n              tag_250\n              jump\t// in\n            tag_388:\n                /* \"#utility.yul\":13030:13114   */\n            tag_387:\n                /* \"#utility.yul\":12851:13120   */\n              pop\n                /* \"#utility.yul\":12800:13120   */\n              swap2\n              swap1\n              pop\n              jump\t// out\n                /* \"#utility.yul\":13126:13359   */\n            tag_189:\n                /* \"#utility.yul\":13165:13168   */\n              0x00\n                /* \"#utility.yul\":13188:13212   */\n              tag_390\n                /* \"#utility.yul\":13206:13211   */\n              dup3\n                /* \"#utility.yul\":13188:13212   */\n              tag_216\n              jump\t// in\n            tag_390:\n                /* \"#utility.yul\":13179:13212   */\n              swap2\n              pop\n                /* \"#utility.yul\":13234:13300   */\n              0xffffffffffffffffffffffffffffffffffffffffffffffffffffffffffffffff\n                /* \"#utility.yul\":13227:13232   */\n              dup3\n                /* \"#utility.yul\":13224:13301   */\n              sub\n                /* \"#utility.yul\":13221:13324   */\n              tag_391\n              jumpi\n                /* \"#utility.yul\":13304:13322   */\n              tag_392\n              tag_249\n              jump\t// in\n            tag_392:\n                /* \"#utility.yul\":13221:13324   */\n            tag_391:\n                /* \"#utility.yul\":13351:13352   */\n              0x01\n                /* \"#utility.yul\":13344:13349   */\n              dup3\n                /* \"#utility.yul\":13340:13353   */\n              add\n                /* \"#utility.yul\":13333:13353   */\n              swap1\n              pop\n                /* \"#utility.yul\":13126:13359   */\n              swap2\n              swap1\n              pop\n              jump\t// out\n\n            auxdata: 0xa2646970667358221220d39c5e3e374fdd470b2e170af10121f8662097bb7300ae84afdac5f06495b06564736f6c634300080d0033\n        }\n    }\n\n    auxdata: 0xa264697066735822122082007d2aebbbad491ba8876e787e52fc9be955d3511de71846b3912d4304e58364736f6c634300080d0033\n}\n","bytecode":{"linkReferences":{},"object":"608060405234801561001057600080fd5b5061253e806100206000396000f3fe60806040523480156200001157600080fd5b5060043610620000465760003560e01c8063141961bc146200004b5780634a15ef92146200008157806386cdf60414620000a1575b600080fd5b6200006960048036038101906200006391906200029f565b620000c3565b60405162000078919062000316565b60405180910390f35b6200009f600480360381019062000099919062000495565b62000103565b005b620000ab620001b2565b604051620000ba919062000632565b60405180910390f35b60008181548110620000d457600080fd5b906000526020600020016000915054906101000a900473ffffffffffffffffffffffffffffffffffffffff1681565b60008484848433604051620001189062000242565b62000128959493929190620006fa565b604051809103906000f08015801562000145573d6000803e3d6000fd5b5090506000819080600181540180825580915050600190039060005260206000200160009091909190916101000a81548173ffffffffffffffffffffffffffffffffffffffff021916908373ffffffffffffffffffffffffffffffffffffffff1602179055505050505050565b606060008054806020026020016040519081016040528092919081815260200182805480156200023857602002820191906000526020600020905b8160009054906101000a900473ffffffffffffffffffffffffffffffffffffffff1673ffffffffffffffffffffffffffffffffffffffff1681526020019060010190808311620001ed575b5050505050905090565b611d9c806200076d83390190565b6000604051905090565b600080fd5b600080fd5b6000819050919050565b620002798162000264565b81146200028557600080fd5b50565b60008135905062000299816200026e565b92915050565b600060208284031215620002b857620002b76200025a565b5b6000620002c88482850162000288565b91505092915050565b600073ffffffffffffffffffffffffffffffffffffffff82169050919050565b6000620002fe82620002d1565b9050919050565b6200031081620002f1565b82525050565b60006020820190506200032d600083018462000305565b92915050565b600080fd5b600080fd5b6000601f19601f8301169050919050565b7f4e487b7100000000000000000000000000000000000000000000000000000000600052604160045260246000fd5b62000388826200033d565b810181811067ffffffffffffffff82111715620003aa57620003a96200034e565b5b80604052505050565b6000620003bf62000250565b9050620003cd82826200037d565b919050565b600067ffffffffffffffff821115620003f057620003ef6200034e565b5b620003fb826200033d565b9050602081019050919050565b82818337600083830152505050565b60006200042e6200042884620003d2565b620003b3565b9050828152602081018484840111156200044d576200044c62000338565b5b6200045a84828562000408565b509392505050565b600082601f8301126200047a576200047962000333565b5b81356200048c84826020860162000417565b91505092915050565b60008060008060808587031215620004b257620004b16200025a565b5b600085013567ffffffffffffffff811115620004d357620004d26200025f565b5b620004e18782880162000462565b945050602085013567ffffffffffffffff8111156200050557620005046200025f565b5b620005138782880162000462565b935050604085013567ffffffffffffffff8111156200053757620005366200025f565b5b620005458782880162000462565b9250506060620005588782880162000288565b91505092959194509250565b600081519050919050565b600082825260208201905092915050565b6000819050602082019050919050565b6200059b81620002f1565b82525050565b6000620005af838362000590565b60208301905092915050565b6000602082019050919050565b6000620005d58262000564565b620005e181856200056f565b9350620005ee8362000580565b8060005b8381101562000625578151620006098882620005a1565b97506200061683620005bb565b925050600181019050620005f2565b5085935050505092915050565b600060208201905081810360008301526200064e8184620005c8565b905092915050565b600081519050919050565b600082825260208201905092915050565b60005b838110156200069257808201518184015260208101905062000675565b83811115620006a2576000848401525b50505050565b6000620006b58262000656565b620006c1818562000661565b9350620006d381856020860162000672565b620006de816200033d565b840191505092915050565b620006f48162000264565b82525050565b600060a0820190508181036000830152620007168188620006a8565b905081810360208301526200072c8187620006a8565b90508181036040830152620007428186620006a8565b9050620007536060830185620006e9565b62000762608083018462000305565b969550505050505056fe60806040523480156200001157600080fd5b5060405162001d9c38038062001d9c8339818101604052810190620000379190620003c2565b84600090805190602001906200004f929190620000d5565b50836001908051906020019062000068929190620000d5565b5081600481905550826002908051906020019062000088929190620000d5565b5080600360006101000a81548173ffffffffffffffffffffffffffffffffffffffff021916908373ffffffffffffffffffffffffffffffffffffffff16021790555050505050506200050b565b828054620000e390620004d6565b90600052602060002090601f01602090048101928262000107576000855562000153565b82601f106200012257805160ff191683800117855562000153565b8280016001018555821562000153579182015b828111156200015257825182559160200191906001019062000135565b5b50905062000162919062000166565b5090565b5b808211156200018157600081600090555060010162000167565b5090565b6000604051905090565b600080fd5b600080fd5b600080fd5b600080fd5b6000601f19601f8301169050919050565b7f4e487b7100000000000000000000000000000000000000000000000000000000600052604160045260246000fd5b620001ee82620001a3565b810181811067ffffffffffffffff8211171562000210576200020f620001b4565b5b80604052505050565b60006200022562000185565b9050620002338282620001e3565b919050565b600067ffffffffffffffff821115620002565762000255620001b4565b5b6200026182620001a3565b9050602081019050919050565b60005b838110156200028e57808201518184015260208101905062000271565b838111156200029e576000848401525b50505050565b6000620002bb620002b58462000238565b62000219565b905082815260208101848484011115620002da57620002d96200019e565b5b620002e78482856200026e565b509392505050565b600082601f83011262000307576200030662000199565b5b815162000319848260208601620002a4565b91505092915050565b6000819050919050565b620003378162000322565b81146200034357600080fd5b50565b60008151905062000357816200032c565b92915050565b600073ffffffffffffffffffffffffffffffffffffffff82169050919050565b60006200038a826200035d565b9050919050565b6200039c816200037d565b8114620003a857600080fd5b50565b600081519050620003bc8162000391565b92915050565b600080600080600060a08688031215620003e157620003e06200018f565b5b600086015167ffffffffffffffff81111562000402576200040162000194565b5b6200041088828901620002ef565b955050602086015167ffffffffffffffff81111562000434576200043362000194565b5b6200044288828901620002ef565b945050604086015167ffffffffffffffff81111562000466576200046562000194565b5b6200047488828901620002ef565b9350506060620004878882890162000346565b92505060806200049a88828901620003ab565b9150509295509295909350565b7f4e487b7100000000000000000000000000000000000000000000000000000000600052602260045260246000fd5b60006002820490506001821680620004ef57607f821691505b602082108103620005055762000504620004a7565b5b50919050565b611881806200051b6000396000f3fe6080604052600436106100fe5760003560e01c8063481c6a751161009557806381d12c581161006457806381d12c581461032e578063bb0c829814610370578063d7bb99ba1461039b578063d7d1bbdb146103a5578063f251fc8c146103ce576100fe565b8063481c6a75146102825780634a79d50c146102ad57806351f890ea146102d85780637284e41614610303576100fe565b80632f814278116100d15780632f814278146101d15780633410452a146101fa57806337627839146102255780634051ddac14610250576100fe565b806303441006146101035780630b9f2c4a1461012c57806312065fe0146101695780631f6d494214610194575b600080fd5b34801561010f57600080fd5b5061012a60048036038101906101259190611132565b6103f9565b005b34801561013857600080fd5b50610153600480360381019061014e9190611132565b6105c1565b60405161016091906111a0565b60405180910390f35b34801561017557600080fd5b5061017e610600565b60405161018b91906111ca565b60405180910390f35b3480156101a057600080fd5b506101bb60048036038101906101b69190611211565b61061f565b6040516101c89190611259565b60405180910390f35b3480156101dd57600080fd5b506101f860048036038101906101f391906113ba565b61063f565b005b34801561020657600080fd5b5061020f610769565b60405161021c91906111ca565b60405180910390f35b34801561023157600080fd5b5061023a610776565b60405161024791906114e1565b60405180910390f35b34801561025c57600080fd5b50610265610804565b604051610279989796959493929190611503565b60405180910390f35b34801561028e57600080fd5b50610297610a1c565b6040516102a491906111a0565b60405180910390f35b3480156102b957600080fd5b506102c2610a42565b6040516102cf91906114e1565b60405180910390f35b3480156102e457600080fd5b506102ed610ad0565b6040516102fa9190611654565b60405180910390f35b34801561030f57600080fd5b50610318610b5e565b60405161032591906114e1565b60405180910390f35b34801561033a57600080fd5b5061035560048036038101906103509190611132565b610bec565b60405161036796959493929190611676565b60405180910390f35b34801561037c57600080fd5b50610385610d75565b60405161039291906111ca565b60405180910390f35b6103a3610d7b565b005b3480156103b157600080fd5b506103cc60048036038101906103c79190611132565b610eb6565b005b3480156103da57600080fd5b506103e361103f565b6040516103f091906111ca565b60405180910390f35b600360009054906101000a900473ffffffffffffffffffffffffffffffffffffffff1673ffffffffffffffffffffffffffffffffffffffff163373ffffffffffffffffffffffffffffffffffffffff161461045357600080fd5b60026007546104629190611743565b6008828154811061047657610475611774565b5b9060005260206000209060070201600401541161049257600080fd5b600881815481106104a6576104a5611774565b5b906000526020600020906007020160050160009054906101000a900460ff16156104cf57600080fd5b600881815481106104e3576104e2611774565b5b906000526020600020906007020160020160009054906101000a900473ffffffffffffffffffffffffffffffffffffffff1673ffffffffffffffffffffffffffffffffffffffff166108fc6008838154811061054257610541611774565b5b9060005260206000209060070201600301549081150290604051600060405180830381858888f1935050505015801561057f573d6000803e3d6000fd5b5060016008828154811061059657610595611774565b5b906000526020600020906007020160050160006101000a81548160ff02191690831515021790555050565b600681815481106105d157600080fd5b906000526020600020016000915054906101000a900473ffffffffffffffffffffffffffffffffffffffff1681565b60003073ffffffffffffffffffffffffffffffffffffffff1631905090565b60056020528060005260406000206000915054906101000a900460ff1681565b600360009054906101000a900473ffffffffffffffffffffffffffffffffffffffff1673ffffffffffffffffffffffffffffffffffffffff163373ffffffffffffffffffffffffffffffffffffffff161461069957600080fd5b600060086001816001815401808255809150500390600052602060002090600702019050848160000190805190602001906106d5929190611045565b50838160010190805190602001906106ee929190611045565b50828160020160006101000a81548173ffffffffffffffffffffffffffffffffffffffff021916908373ffffffffffffffffffffffffffffffffffffffff16021790555081816003018190555060008160050160006101000a81548160ff021916908315150217905550600081600401819055505050505050565b6000600880549050905090565b60028054610783906117d2565b80601f01602080910402602001604051908101604052809291908181526020018280546107af906117d2565b80156107fc5780601f106107d1576101008083540402835291602001916107fc565b820191906000526020600020905b8154815290600101906020018083116107df57829003601f168201915b505050505081565b600080600080600060608060606004543073ffffffffffffffffffffffffffffffffffffffff1631600880549050600754600360009054906101000a900473ffffffffffffffffffffffffffffffffffffffff1660006001600282805461086a906117d2565b80601f0160208091040260200160405190810160405280929190818152602001828054610896906117d2565b80156108e35780601f106108b8576101008083540402835291602001916108e3565b820191906000526020600020905b8154815290600101906020018083116108c657829003601f168201915b505050505092508180546108f6906117d2565b80601f0160208091040260200160405190810160405280929190818152602001828054610922906117d2565b801561096f5780601f106109445761010080835404028352916020019161096f565b820191906000526020600020905b81548152906001019060200180831161095257829003601f168201915b50505050509150808054610982906117d2565b80601f01602080910402602001604051908101604052809291908181526020018280546109ae906117d2565b80156109fb5780601f106109d0576101008083540402835291602001916109fb565b820191906000526020600020905b8154815290600101906020018083116109de57829003601f168201915b50505050509050975097509750975097509750975097509091929394959697565b600360009054906101000a900473ffffffffffffffffffffffffffffffffffffffff1681565b60008054610a4f906117d2565b80601f0160208091040260200160405190810160405280929190818152602001828054610a7b906117d2565b8015610ac85780601f10610a9d57610100808354040283529160200191610ac8565b820191906000526020600020905b815481529060010190602001808311610aab57829003601f168201915b505050505081565b60606006805480602002602001604051908101604052809291908181526020018280548015610b5457602002820191906000526020600020905b8160009054906101000a900473ffffffffffffffffffffffffffffffffffffffff1673ffffffffffffffffffffffffffffffffffffffff1681526020019060010190808311610b0a575b5050505050905090565b60018054610b6b906117d2565b80601f0160208091040260200160405190810160405280929190818152602001828054610b97906117d2565b8015610be45780601f10610bb957610100808354040283529160200191610be4565b820191906000526020600020905b815481529060010190602001808311610bc757829003601f168201915b505050505081565b60088181548110610bfc57600080fd5b9060005260206000209060070201600091509050806000018054610c1f906117d2565b80601f0160208091040260200160405190810160405280929190818152602001828054610c4b906117d2565b8015610c985780601f10610c6d57610100808354040283529160200191610c98565b820191906000526020600020905b815481529060010190602001808311610c7b57829003601f168201915b505050505090806001018054610cad906117d2565b80601f0160208091040260200160405190810160405280929190818152602001828054610cd9906117d2565b8015610d265780601f10610cfb57610100808354040283529160200191610d26565b820191906000526020600020905b815481529060010190602001808311610d0957829003601f168201915b5050505050908060020160009054906101000a900473ffffffffffffffffffffffffffffffffffffffff16908060030154908060040154908060050160009054906101000a900460ff16905086565b60045481565b600454341015610d8a57600080fd5b600560003373ffffffffffffffffffffffffffffffffffffffff1673ffffffffffffffffffffffffffffffffffffffff16815260200190815260200160002060009054906101000a900460ff1615610de157600080fd5b6001600560003373ffffffffffffffffffffffffffffffffffffffff1673ffffffffffffffffffffffffffffffffffffffff16815260200190815260200160002060006101000a81548160ff0219169083151502179055506006339080600181540180825580915050600190039060005260206000200160009091909190916101000a81548173ffffffffffffffffffffffffffffffffffffffff021916908373ffffffffffffffffffffffffffffffffffffffff16021790555060076000815480929190610eaf90611803565b9190505550565b600560003373ffffffffffffffffffffffffffffffffffffffff1673ffffffffffffffffffffffffffffffffffffffff16815260200190815260200160002060009054906101000a900460ff16610f0c57600080fd5b60088181548110610f2057610f1f611774565b5b906000526020600020906007020160060160003373ffffffffffffffffffffffffffffffffffffffff1673ffffffffffffffffffffffffffffffffffffffff16815260200190815260200160002060009054906101000a900460ff1615610f8657600080fd5b600160088281548110610f9c57610f9b611774565b5b906000526020600020906007020160060160003373ffffffffffffffffffffffffffffffffffffffff1673ffffffffffffffffffffffffffffffffffffffff16815260200190815260200160002060006101000a81548160ff0219169083151502179055506008818154811061101557611014611774565b5b9060005260206000209060070201600401600081548092919061103790611803565b919050555050565b60075481565b828054611051906117d2565b90600052602060002090601f01602090048101928261107357600085556110ba565b82601f1061108c57805160ff19168380011785556110ba565b828001600101855582156110ba579182015b828111156110b957825182559160200191906001019061109e565b5b5090506110c791906110cb565b5090565b5b808211156110e45760008160009055506001016110cc565b5090565b6000604051905090565b600080fd5b600080fd5b6000819050919050565b61110f816110fc565b811461111a57600080fd5b50565b60008135905061112c81611106565b92915050565b600060208284031215611148576111476110f2565b5b60006111568482850161111d565b91505092915050565b600073ffffffffffffffffffffffffffffffffffffffff82169050919050565b600061118a8261115f565b9050919050565b61119a8161117f565b82525050565b60006020820190506111b56000830184611191565b92915050565b6111c4816110fc565b82525050565b60006020820190506111df60008301846111bb565b92915050565b6111ee8161117f565b81146111f957600080fd5b50565b60008135905061120b816111e5565b92915050565b600060208284031215611227576112266110f2565b5b6000611235848285016111fc565b91505092915050565b60008115159050919050565b6112538161123e565b82525050565b600060208201905061126e600083018461124a565b92915050565b600080fd5b600080fd5b6000601f19601f8301169050919050565b7f4e487b7100000000000000000000000000000000000000000000000000000000600052604160045260246000fd5b6112c78261127e565b810181811067ffffffffffffffff821117156112e6576112e561128f565b5b80604052505050565b60006112f96110e8565b905061130582826112be565b919050565b600067ffffffffffffffff8211156113255761132461128f565b5b61132e8261127e565b9050602081019050919050565b82818337600083830152505050565b600061135d6113588461130a565b6112ef565b90508281526020810184848401111561137957611378611279565b5b61138484828561133b565b509392505050565b600082601f8301126113a1576113a0611274565b5b81356113b184826020860161134a565b91505092915050565b600080600080608085870312156113d4576113d36110f2565b5b600085013567ffffffffffffffff8111156113f2576113f16110f7565b5b6113fe8782880161138c565b945050602085013567ffffffffffffffff81111561141f5761141e6110f7565b5b61142b8782880161138c565b935050604061143c878288016111fc565b925050606061144d8782880161111d565b91505092959194509250565b600081519050919050565b600082825260208201905092915050565b60005b83811015611493578082015181840152602081019050611478565b838111156114a2576000848401525b50505050565b60006114b382611459565b6114bd8185611464565b93506114cd818560208601611475565b6114d68161127e565b840191505092915050565b600060208201905081810360008301526114fb81846114a8565b905092915050565b600061010082019050611519600083018b6111bb565b611526602083018a6111bb565b61153360408301896111bb565b61154060608301886111bb565b61154d6080830187611191565b81810360a083015261155f81866114a8565b905081810360c083015261157381856114a8565b905081810360e083015261158781846114a8565b90509998505050505050505050565b600081519050919050565b600082825260208201905092915050565b6000819050602082019050919050565b6115cb8161117f565b82525050565b60006115dd83836115c2565b60208301905092915050565b6000602082019050919050565b600061160182611596565b61160b81856115a1565b9350611616836115b2565b8060005b8381101561164757815161162e88826115d1565b9750611639836115e9565b92505060018101905061161a565b5085935050505092915050565b6000602082019050818103600083015261166e81846115f6565b905092915050565b600060c082019050818103600083015261169081896114a8565b905081810360208301526116a481886114a8565b90506116b36040830187611191565b6116c060608301866111bb565b6116cd60808301856111bb565b6116da60a083018461124a565b979650505050505050565b7f4e487b7100000000000000000000000000000000000000000000000000000000600052601260045260246000fd5b7f4e487b7100000000000000000000000000000000000000000000000000000000600052601160045260246000fd5b600061174e826110fc565b9150611759836110fc565b925082611769576117686116e5565b5b828204905092915050565b7f4e487b7100000000000000000000000000000000000000000000000000000000600052603260045260246000fd5b7f4e487b7100000000000000000000000000000000000000000000000000000000600052602260045260246000fd5b600060028204905060018216806117ea57607f821691505b6020821081036117fd576117fc6117a3565b5b50919050565b600061180e826110fc565b91507fffffffffffffffffffffffffffffffffffffffffffffffffffffffffffffffff82036118405761183f611714565b5b60018201905091905056fea2646970667358221220d39c5e3e374fdd470b2e170af10121f8662097bb7300ae84afdac5f06495b06564736f6c634300080d0033a264697066735822122082007d2aebbbad491ba8876e787e52fc9be955d3511de71846b3912d4304e58364736f6c634300080d0033","opcodes":"PUSH1 0x80 PUSH1 0x40 MSTORE CALLVALUE DUP1 ISZERO PUSH2 0x10 JUMPI PUSH1 0x0 DUP1 REVERT JUMPDEST POP PUSH2 0x253E DUP1 PUSH2 0x20 PUSH1 0x0 CODECOPY PUSH1 0x0 RETURN INVALID PUSH1 0x80 PUSH1 0x40 MSTORE CALLVALUE DUP1 ISZERO PUSH3 0x11 JUMPI PUSH1 0x0 DUP1 REVERT JUMPDEST POP PUSH1 0x4 CALLDATASIZE LT PUSH3 0x46 JUMPI PUSH1 0x0 CALLDATALOAD PUSH1 0xE0 SHR DUP1 PUSH4 0x141961BC EQ PUSH3 0x4B JUMPI DUP1 PUSH4 0x4A15EF92 EQ PUSH3 0x81 JUMPI DUP1 PUSH4 0x86CDF604 EQ PUSH3 0xA1 JUMPI JUMPDEST PUSH1 0x0 DUP1 REVERT JUMPDEST PUSH3 0x69 PUSH1 0x4 DUP1 CALLDATASIZE SUB DUP2 ADD SWAP1 PUSH3 0x63 SWAP2 SWAP1 PUSH3 0x29F JUMP JUMPDEST PUSH3 0xC3 JUMP JUMPDEST PUSH1 0x40 MLOAD PUSH3 0x78 SWAP2 SWAP1 PUSH3 0x316 JUMP JUMPDEST PUSH1 0x40 MLOAD DUP1 SWAP2 SUB SWAP1 RETURN JUMPDEST PUSH3 0x9F PUSH1 0x4 DUP1 CALLDATASIZE SUB DUP2 ADD SWAP1 PUSH3 0x99 SWAP2 SWAP1 PUSH3 0x495 JUMP JUMPDEST PUSH3 0x103 JUMP JUMPDEST STOP JUMPDEST PUSH3 0xAB PUSH3 0x1B2 JUMP JUMPDEST PUSH1 0x40 MLOAD PUSH3 0xBA SWAP2 SWAP1 PUSH3 0x632 JUMP JUMPDEST PUSH1 0x40 MLOAD DUP1 SWAP2 SUB SWAP1 RETURN JUMPDEST PUSH1 0x0 DUP2 DUP2 SLOAD DUP2 LT PUSH3 0xD4 JUMPI PUSH1 0x0 DUP1 REVERT JUMPDEST SWAP1 PUSH1 0x0 MSTORE PUSH1 0x20 PUSH1 0x0 KECCAK256 ADD PUSH1 0x0 SWAP2 POP SLOAD SWAP1 PUSH2 0x100 EXP SWAP1 DIV PUSH20 0xFFFFFFFFFFFFFFFFFFFFFFFFFFFFFFFFFFFFFFFF AND DUP2 JUMP JUMPDEST PUSH1 0x0 DUP5 DUP5 DUP5 DUP5 CALLER PUSH1 0x40 MLOAD PUSH3 0x118 SWAP1 PUSH3 0x242 JUMP JUMPDEST PUSH3 0x128 SWAP6 SWAP5 SWAP4 SWAP3 SWAP2 SWAP1 PUSH3 0x6FA JUMP JUMPDEST PUSH1 0x40 MLOAD DUP1 SWAP2 SUB SWAP1 PUSH1 0x0 CREATE DUP1 ISZERO DUP1 ISZERO PUSH3 0x145 JUMPI RETURNDATASIZE PUSH1 0x0 DUP1 RETURNDATACOPY RETURNDATASIZE PUSH1 0x0 REVERT JUMPDEST POP SWAP1 POP PUSH1 0x0 DUP2 SWAP1 DUP1 PUSH1 0x1 DUP2 SLOAD ADD DUP1 DUP3 SSTORE DUP1 SWAP2 POP POP PUSH1 0x1 SWAP1 SUB SWAP1 PUSH1 0x0 MSTORE PUSH1 0x20 PUSH1 0x0 KECCAK256 ADD PUSH1 0x0 SWAP1 SWAP2 SWAP1 SWAP2 SWAP1 SWAP2 PUSH2 0x100 EXP DUP2 SLOAD DUP2 PUSH20 0xFFFFFFFFFFFFFFFFFFFFFFFFFFFFFFFFFFFFFFFF MUL NOT AND SWAP1 DUP4 PUSH20 0xFFFFFFFFFFFFFFFFFFFFFFFFFFFFFFFFFFFFFFFF AND MUL OR SWAP1 SSTORE POP POP POP POP POP POP JUMP JUMPDEST PUSH1 0x60 PUSH1 0x0 DUP1 SLOAD DUP1 PUSH1 0x20 MUL PUSH1 0x20 ADD PUSH1 0x40 MLOAD SWAP1 DUP2 ADD PUSH1 0x40 MSTORE DUP1 SWAP3 SWAP2 SWAP1 DUP2 DUP2 MSTORE PUSH1 0x20 ADD DUP3 DUP1 SLOAD DUP1 ISZERO PUSH3 0x238 JUMPI PUSH1 0x20 MUL DUP3 ADD SWAP2 SWAP1 PUSH1 0x0 MSTORE PUSH1 0x20 PUSH1 0x0 KECCAK256 SWAP1 JUMPDEST DUP2 PUSH1 0x0 SWAP1 SLOAD SWAP1 PUSH2 0x100 EXP SWAP1 DIV PUSH20 0xFFFFFFFFFFFFFFFFFFFFFFFFFFFFFFFFFFFFFFFF AND PUSH20 0xFFFFFFFFFFFFFFFFFFFFFFFFFFFFFFFFFFFFFFFF AND DUP2 MSTORE PUSH1 0x20 ADD SWAP1 PUSH1 0x1 ADD SWAP1 DUP1 DUP4 GT PUSH3 0x1ED JUMPI JUMPDEST POP POP POP POP POP SWAP1 POP SWAP1 JUMP JUMPDEST PUSH2 0x1D9C DUP1 PUSH3 0x76D DUP4 CODECOPY ADD SWAP1 JUMP JUMPDEST PUSH1 0x0 PUSH1 0x40 MLOAD SWAP1 POP SWAP1 JUMP JUMPDEST PUSH1 0x0 DUP1 REVERT JUMPDEST PUSH1 0x0 DUP1 REVERT JUMPDEST PUSH1 0x0 DUP2 SWAP1 POP SWAP2 SWAP1 POP JUMP JUMPDEST PUSH3 0x279 DUP2 PUSH3 0x264 JUMP JUMPDEST DUP2 EQ PUSH3 0x285 JUMPI PUSH1 0x0 DUP1 REVERT JUMPDEST POP JUMP JUMPDEST PUSH1 0x0 DUP2 CALLDATALOAD SWAP1 POP PUSH3 0x299 DUP2 PUSH3 0x26E JUMP JUMPDEST SWAP3 SWAP2 POP POP JUMP JUMPDEST PUSH1 0x0 PUSH1 0x20 DUP3 DUP5 SUB SLT ISZERO PUSH3 0x2B8 JUMPI PUSH3 0x2B7 PUSH3 0x25A JUMP JUMPDEST JUMPDEST PUSH1 0x0 PUSH3 0x2C8 DUP5 DUP3 DUP6 ADD PUSH3 0x288 JUMP JUMPDEST SWAP2 POP POP SWAP3 SWAP2 POP POP JUMP JUMPDEST PUSH1 0x0 PUSH20 0xFFFFFFFFFFFFFFFFFFFFFFFFFFFFFFFFFFFFFFFF DUP3 AND SWAP1 POP SWAP2 SWAP1 POP JUMP JUMPDEST PUSH1 0x0 PUSH3 0x2FE DUP3 PUSH3 0x2D1 JUMP JUMPDEST SWAP1 POP SWAP2 SWAP1 POP JUMP JUMPDEST PUSH3 0x310 DUP2 PUSH3 0x2F1 JUMP JUMPDEST DUP3 MSTORE POP POP JUMP JUMPDEST PUSH1 0x0 PUSH1 0x20 DUP3 ADD SWAP1 POP PUSH3 0x32D PUSH1 0x0 DUP4 ADD DUP5 PUSH3 0x305 JUMP JUMPDEST SWAP3 SWAP2 POP POP JUMP JUMPDEST PUSH1 0x0 DUP1 REVERT JUMPDEST PUSH1 0x0 DUP1 REVERT JUMPDEST PUSH1 0x0 PUSH1 0x1F NOT PUSH1 0x1F DUP4 ADD AND SWAP1 POP SWAP2 SWAP1 POP JUMP JUMPDEST PUSH32 0x4E487B7100000000000000000000000000000000000000000000000000000000 PUSH1 0x0 MSTORE PUSH1 0x41 PUSH1 0x4 MSTORE PUSH1 0x24 PUSH1 0x0 REVERT JUMPDEST PUSH3 0x388 DUP3 PUSH3 0x33D JUMP JUMPDEST DUP2 ADD DUP2 DUP2 LT PUSH8 0xFFFFFFFFFFFFFFFF DUP3 GT OR ISZERO PUSH3 0x3AA JUMPI PUSH3 0x3A9 PUSH3 0x34E JUMP JUMPDEST JUMPDEST DUP1 PUSH1 0x40 MSTORE POP POP POP JUMP JUMPDEST PUSH1 0x0 PUSH3 0x3BF PUSH3 0x250 JUMP JUMPDEST SWAP1 POP PUSH3 0x3CD DUP3 DUP3 PUSH3 0x37D JUMP JUMPDEST SWAP2 SWAP1 POP JUMP JUMPDEST PUSH1 0x0 PUSH8 0xFFFFFFFFFFFFFFFF DUP3 GT ISZERO PUSH3 0x3F0 JUMPI PUSH3 0x3EF PUSH3 0x34E JUMP JUMPDEST JUMPDEST PUSH3 0x3FB DUP3 PUSH3 0x33D JUMP JUMPDEST SWAP1 POP PUSH1 0x20 DUP2 ADD SWAP1 POP SWAP2 SWAP1 POP JUMP JUMPDEST DUP3 DUP2 DUP4 CALLDATACOPY PUSH1 0x0 DUP4 DUP4 ADD MSTORE POP POP POP JUMP JUMPDEST PUSH1 0x0 PUSH3 0x42E PUSH3 0x428 DUP5 PUSH3 0x3D2 JUMP JUMPDEST PUSH3 0x3B3 JUMP JUMPDEST SWAP1 POP DUP3 DUP2 MSTORE PUSH1 0x20 DUP2 ADD DUP5 DUP5 DUP5 ADD GT ISZERO PUSH3 0x44D JUMPI PUSH3 0x44C PUSH3 0x338 JUMP JUMPDEST JUMPDEST PUSH3 0x45A DUP5 DUP3 DUP6 PUSH3 0x408 JUMP JUMPDEST POP SWAP4 SWAP3 POP POP POP JUMP JUMPDEST PUSH1 0x0 DUP3 PUSH1 0x1F DUP4 ADD SLT PUSH3 0x47A JUMPI PUSH3 0x479 PUSH3 0x333 JUMP JUMPDEST JUMPDEST DUP2 CALLDATALOAD PUSH3 0x48C DUP5 DUP3 PUSH1 0x20 DUP7 ADD PUSH3 0x417 JUMP JUMPDEST SWAP2 POP POP SWAP3 SWAP2 POP POP JUMP JUMPDEST PUSH1 0x0 DUP1 PUSH1 0x0 DUP1 PUSH1 0x80 DUP6 DUP8 SUB SLT ISZERO PUSH3 0x4B2 JUMPI PUSH3 0x4B1 PUSH3 0x25A JUMP JUMPDEST JUMPDEST PUSH1 0x0 DUP6 ADD CALLDATALOAD PUSH8 0xFFFFFFFFFFFFFFFF DUP2 GT ISZERO PUSH3 0x4D3 JUMPI PUSH3 0x4D2 PUSH3 0x25F JUMP JUMPDEST JUMPDEST PUSH3 0x4E1 DUP8 DUP3 DUP9 ADD PUSH3 0x462 JUMP JUMPDEST SWAP5 POP POP PUSH1 0x20 DUP6 ADD CALLDATALOAD PUSH8 0xFFFFFFFFFFFFFFFF DUP2 GT ISZERO PUSH3 0x505 JUMPI PUSH3 0x504 PUSH3 0x25F JUMP JUMPDEST JUMPDEST PUSH3 0x513 DUP8 DUP3 DUP9 ADD PUSH3 0x462 JUMP JUMPDEST SWAP4 POP POP PUSH1 0x40 DUP6 ADD CALLDATALOAD PUSH8 0xFFFFFFFFFFFFFFFF DUP2 GT ISZERO PUSH3 0x537 JUMPI PUSH3 0x536 PUSH3 0x25F JUMP JUMPDEST JUMPDEST PUSH3 0x545 DUP8 DUP3 DUP9 ADD PUSH3 0x462 JUMP JUMPDEST SWAP3 POP POP PUSH1 0x60 PUSH3 0x558 DUP8 DUP3 DUP9 ADD PUSH3 0x288 JUMP JUMPDEST SWAP2 POP POP SWAP3 SWAP6 SWAP2 SWAP5 POP SWAP3 POP JUMP JUMPDEST PUSH1 0x0 DUP2 MLOAD SWAP1 POP SWAP2 SWAP1 POP JUMP JUMPDEST PUSH1 0x0 DUP3 DUP3 MSTORE PUSH1 0x20 DUP3 ADD SWAP1 POP SWAP3 SWAP2 POP POP JUMP JUMPDEST PUSH1 0x0 DUP2 SWAP1 POP PUSH1 0x20 DUP3 ADD SWAP1 POP SWAP2 SWAP1 POP JUMP JUMPDEST PUSH3 0x59B DUP2 PUSH3 0x2F1 JUMP JUMPDEST DUP3 MSTORE POP POP JUMP JUMPDEST PUSH1 0x0 PUSH3 0x5AF DUP4 DUP4 PUSH3 0x590 JUMP JUMPDEST PUSH1 0x20 DUP4 ADD SWAP1 POP SWAP3 SWAP2 POP POP JUMP JUMPDEST PUSH1 0x0 PUSH1 0x20 DUP3 ADD SWAP1 POP SWAP2 SWAP1 POP JUMP JUMPDEST PUSH1 0x0 PUSH3 0x5D5 DUP3 PUSH3 0x564 JUMP JUMPDEST PUSH3 0x5E1 DUP2 DUP6 PUSH3 0x56F JUMP JUMPDEST SWAP4 POP PUSH3 0x5EE DUP4 PUSH3 0x580 JUMP JUMPDEST DUP1 PUSH1 0x0 JUMPDEST DUP4 DUP2 LT ISZERO PUSH3 0x625 JUMPI DUP2 MLOAD PUSH3 0x609 DUP9 DUP3 PUSH3 0x5A1 JUMP JUMPDEST SWAP8 POP PUSH3 0x616 DUP4 PUSH3 0x5BB JUMP JUMPDEST SWAP3 POP POP PUSH1 0x1 DUP2 ADD SWAP1 POP PUSH3 0x5F2 JUMP JUMPDEST POP DUP6 SWAP4 POP POP POP POP SWAP3 SWAP2 POP POP JUMP JUMPDEST PUSH1 0x0 PUSH1 0x20 DUP3 ADD SWAP1 POP DUP2 DUP2 SUB PUSH1 0x0 DUP4 ADD MSTORE PUSH3 0x64E DUP2 DUP5 PUSH3 0x5C8 JUMP JUMPDEST SWAP1 POP SWAP3 SWAP2 POP POP JUMP JUMPDEST PUSH1 0x0 DUP2 MLOAD SWAP1 POP SWAP2 SWAP1 POP JUMP JUMPDEST PUSH1 0x0 DUP3 DUP3 MSTORE PUSH1 0x20 DUP3 ADD SWAP1 POP SWAP3 SWAP2 POP POP JUMP JUMPDEST PUSH1 0x0 JUMPDEST DUP4 DUP2 LT ISZERO PUSH3 0x692 JUMPI DUP1 DUP3 ADD MLOAD DUP2 DUP5 ADD MSTORE PUSH1 0x20 DUP2 ADD SWAP1 POP PUSH3 0x675 JUMP JUMPDEST DUP4 DUP2 GT ISZERO PUSH3 0x6A2 JUMPI PUSH1 0x0 DUP5 DUP5 ADD MSTORE JUMPDEST POP POP POP POP JUMP JUMPDEST PUSH1 0x0 PUSH3 0x6B5 DUP3 PUSH3 0x656 JUMP JUMPDEST PUSH3 0x6C1 DUP2 DUP6 PUSH3 0x661 JUMP JUMPDEST SWAP4 POP PUSH3 0x6D3 DUP2 DUP6 PUSH1 0x20 DUP7 ADD PUSH3 0x672 JUMP JUMPDEST PUSH3 0x6DE DUP2 PUSH3 0x33D JUMP JUMPDEST DUP5 ADD SWAP2 POP POP SWAP3 SWAP2 POP POP JUMP JUMPDEST PUSH3 0x6F4 DUP2 PUSH3 0x264 JUMP JUMPDEST DUP3 MSTORE POP POP JUMP JUMPDEST PUSH1 0x0 PUSH1 0xA0 DUP3 ADD SWAP1 POP DUP2 DUP2 SUB PUSH1 0x0 DUP4 ADD MSTORE PUSH3 0x716 DUP2 DUP9 PUSH3 0x6A8 JUMP JUMPDEST SWAP1 POP DUP2 DUP2 SUB PUSH1 0x20 DUP4 ADD MSTORE PUSH3 0x72C DUP2 DUP8 PUSH3 0x6A8 JUMP JUMPDEST SWAP1 POP DUP2 DUP2 SUB PUSH1 0x40 DUP4 ADD MSTORE PUSH3 0x742 DUP2 DUP7 PUSH3 0x6A8 JUMP JUMPDEST SWAP1 POP PUSH3 0x753 PUSH1 0x60 DUP4 ADD DUP6 PUSH3 0x6E9 JUMP JUMPDEST PUSH3 0x762 PUSH1 0x80 DUP4 ADD DUP5 PUSH3 0x305 JUMP JUMPDEST SWAP7 SWAP6 POP POP POP POP POP POP JUMP INVALID PUSH1 0x80 PUSH1 0x40 MSTORE CALLVALUE DUP1 ISZERO PUSH3 0x11 JUMPI PUSH1 0x0 DUP1 REVERT JUMPDEST POP PUSH1 0x40 MLOAD PUSH3 0x1D9C CODESIZE SUB DUP1 PUSH3 0x1D9C DUP4 CODECOPY DUP2 DUP2 ADD PUSH1 0x40 MSTORE DUP2 ADD SWAP1 PUSH3 0x37 SWAP2 SWAP1 PUSH3 0x3C2 JUMP JUMPDEST DUP5 PUSH1 0x0 SWAP1 DUP1 MLOAD SWAP1 PUSH1 0x20 ADD SWAP1 PUSH3 0x4F SWAP3 SWAP2 SWAP1 PUSH3 0xD5 JUMP JUMPDEST POP DUP4 PUSH1 0x1 SWAP1 DUP1 MLOAD SWAP1 PUSH1 0x20 ADD SWAP1 PUSH3 0x68 SWAP3 SWAP2 SWAP1 PUSH3 0xD5 JUMP JUMPDEST POP DUP2 PUSH1 0x4 DUP2 SWAP1 SSTORE POP DUP3 PUSH1 0x2 SWAP1 DUP1 MLOAD SWAP1 PUSH1 0x20 ADD SWAP1 PUSH3 0x88 SWAP3 SWAP2 SWAP1 PUSH3 0xD5 JUMP JUMPDEST POP DUP1 PUSH1 0x3 PUSH1 0x0 PUSH2 0x100 EXP DUP2 SLOAD DUP2 PUSH20 0xFFFFFFFFFFFFFFFFFFFFFFFFFFFFFFFFFFFFFFFF MUL NOT AND SWAP1 DUP4 PUSH20 0xFFFFFFFFFFFFFFFFFFFFFFFFFFFFFFFFFFFFFFFF AND MUL OR SWAP1 SSTORE POP POP POP POP POP POP PUSH3 0x50B JUMP JUMPDEST DUP3 DUP1 SLOAD PUSH3 0xE3 SWAP1 PUSH3 0x4D6 JUMP JUMPDEST SWAP1 PUSH1 0x0 MSTORE PUSH1 0x20 PUSH1 0x0 KECCAK256 SWAP1 PUSH1 0x1F ADD PUSH1 0x20 SWAP1 DIV DUP2 ADD SWAP3 DUP3 PUSH3 0x107 JUMPI PUSH1 0x0 DUP6 SSTORE PUSH3 0x153 JUMP JUMPDEST DUP3 PUSH1 0x1F LT PUSH3 0x122 JUMPI DUP1 MLOAD PUSH1 0xFF NOT AND DUP4 DUP1 ADD OR DUP6 SSTORE PUSH3 0x153 JUMP JUMPDEST DUP3 DUP1 ADD PUSH1 0x1 ADD DUP6 SSTORE DUP3 ISZERO PUSH3 0x153 JUMPI SWAP2 DUP3 ADD JUMPDEST DUP3 DUP2 GT ISZERO PUSH3 0x152 JUMPI DUP3 MLOAD DUP3 SSTORE SWAP2 PUSH1 0x20 ADD SWAP2 SWAP1 PUSH1 0x1 ADD SWAP1 PUSH3 0x135 JUMP JUMPDEST JUMPDEST POP SWAP1 POP PUSH3 0x162 SWAP2 SWAP1 PUSH3 0x166 JUMP JUMPDEST POP SWAP1 JUMP JUMPDEST JUMPDEST DUP1 DUP3 GT ISZERO PUSH3 0x181 JUMPI PUSH1 0x0 DUP2 PUSH1 0x0 SWAP1 SSTORE POP PUSH1 0x1 ADD PUSH3 0x167 JUMP JUMPDEST POP SWAP1 JUMP JUMPDEST PUSH1 0x0 PUSH1 0x40 MLOAD SWAP1 POP SWAP1 JUMP JUMPDEST PUSH1 0x0 DUP1 REVERT JUMPDEST PUSH1 0x0 DUP1 REVERT JUMPDEST PUSH1 0x0 DUP1 REVERT JUMPDEST PUSH1 0x0 DUP1 REVERT JUMPDEST PUSH1 0x0 PUSH1 0x1F NOT PUSH1 0x1F DUP4 ADD AND SWAP1 POP SWAP2 SWAP1 POP JUMP JUMPDEST PUSH32 0x4E487B7100000000000000000000000000000000000000000000000000000000 PUSH1 0x0 MSTORE PUSH1 0x41 PUSH1 0x4 MSTORE PUSH1 0x24 PUSH1 0x0 REVERT JUMPDEST PUSH3 0x1EE DUP3 PUSH3 0x1A3 JUMP JUMPDEST DUP2 ADD DUP2 DUP2 LT PUSH8 0xFFFFFFFFFFFFFFFF DUP3 GT OR ISZERO PUSH3 0x210 JUMPI PUSH3 0x20F PUSH3 0x1B4 JUMP JUMPDEST JUMPDEST DUP1 PUSH1 0x40 MSTORE POP POP POP JUMP JUMPDEST PUSH1 0x0 PUSH3 0x225 PUSH3 0x185 JUMP JUMPDEST SWAP1 POP PUSH3 0x233 DUP3 DUP3 PUSH3 0x1E3 JUMP JUMPDEST SWAP2 SWAP1 POP JUMP JUMPDEST PUSH1 0x0 PUSH8 0xFFFFFFFFFFFFFFFF DUP3 GT ISZERO PUSH3 0x256 JUMPI PUSH3 0x255 PUSH3 0x1B4 JUMP JUMPDEST JUMPDEST PUSH3 0x261 DUP3 PUSH3 0x1A3 JUMP JUMPDEST SWAP1 POP PUSH1 0x20 DUP2 ADD SWAP1 POP SWAP2 SWAP1 POP JUMP JUMPDEST PUSH1 0x0 JUMPDEST DUP4 DUP2 LT ISZERO PUSH3 0x28E JUMPI DUP1 DUP3 ADD MLOAD DUP2 DUP5 ADD MSTORE PUSH1 0x20 DUP2 ADD SWAP1 POP PUSH3 0x271 JUMP JUMPDEST DUP4 DUP2 GT ISZERO PUSH3 0x29E JUMPI PUSH1 0x0 DUP5 DUP5 ADD MSTORE JUMPDEST POP POP POP POP JUMP JUMPDEST PUSH1 0x0 PUSH3 0x2BB PUSH3 0x2B5 DUP5 PUSH3 0x238 JUMP JUMPDEST PUSH3 0x219 JUMP JUMPDEST SWAP1 POP DUP3 DUP2 MSTORE PUSH1 0x20 DUP2 ADD DUP5 DUP5 DUP5 ADD GT ISZERO PUSH3 0x2DA JUMPI PUSH3 0x2D9 PUSH3 0x19E JUMP JUMPDEST JUMPDEST PUSH3 0x2E7 DUP5 DUP3 DUP6 PUSH3 0x26E JUMP JUMPDEST POP SWAP4 SWAP3 POP POP POP JUMP JUMPDEST PUSH1 0x0 DUP3 PUSH1 0x1F DUP4 ADD SLT PUSH3 0x307 JUMPI PUSH3 0x306 PUSH3 0x199 JUMP JUMPDEST JUMPDEST DUP2 MLOAD PUSH3 0x319 DUP5 DUP3 PUSH1 0x20 DUP7 ADD PUSH3 0x2A4 JUMP JUMPDEST SWAP2 POP POP SWAP3 SWAP2 POP POP JUMP JUMPDEST PUSH1 0x0 DUP2 SWAP1 POP SWAP2 SWAP1 POP JUMP JUMPDEST PUSH3 0x337 DUP2 PUSH3 0x322 JUMP JUMPDEST DUP2 EQ PUSH3 0x343 JUMPI PUSH1 0x0 DUP1 REVERT JUMPDEST POP JUMP JUMPDEST PUSH1 0x0 DUP2 MLOAD SWAP1 POP PUSH3 0x357 DUP2 PUSH3 0x32C JUMP JUMPDEST SWAP3 SWAP2 POP POP JUMP JUMPDEST PUSH1 0x0 PUSH20 0xFFFFFFFFFFFFFFFFFFFFFFFFFFFFFFFFFFFFFFFF DUP3 AND SWAP1 POP SWAP2 SWAP1 POP JUMP JUMPDEST PUSH1 0x0 PUSH3 0x38A DUP3 PUSH3 0x35D JUMP JUMPDEST SWAP1 POP SWAP2 SWAP1 POP JUMP JUMPDEST PUSH3 0x39C DUP2 PUSH3 0x37D JUMP JUMPDEST DUP2 EQ PUSH3 0x3A8 JUMPI PUSH1 0x0 DUP1 REVERT JUMPDEST POP JUMP JUMPDEST PUSH1 0x0 DUP2 MLOAD SWAP1 POP PUSH3 0x3BC DUP2 PUSH3 0x391 JUMP JUMPDEST SWAP3 SWAP2 POP POP JUMP JUMPDEST PUSH1 0x0 DUP1 PUSH1 0x0 DUP1 PUSH1 0x0 PUSH1 0xA0 DUP7 DUP9 SUB SLT ISZERO PUSH3 0x3E1 JUMPI PUSH3 0x3E0 PUSH3 0x18F JUMP JUMPDEST JUMPDEST PUSH1 0x0 DUP7 ADD MLOAD PUSH8 0xFFFFFFFFFFFFFFFF DUP2 GT ISZERO PUSH3 0x402 JUMPI PUSH3 0x401 PUSH3 0x194 JUMP JUMPDEST JUMPDEST PUSH3 0x410 DUP9 DUP3 DUP10 ADD PUSH3 0x2EF JUMP JUMPDEST SWAP6 POP POP PUSH1 0x20 DUP7 ADD MLOAD PUSH8 0xFFFFFFFFFFFFFFFF DUP2 GT ISZERO PUSH3 0x434 JUMPI PUSH3 0x433 PUSH3 0x194 JUMP JUMPDEST JUMPDEST PUSH3 0x442 DUP9 DUP3 DUP10 ADD PUSH3 0x2EF JUMP JUMPDEST SWAP5 POP POP PUSH1 0x40 DUP7 ADD MLOAD PUSH8 0xFFFFFFFFFFFFFFFF DUP2 GT ISZERO PUSH3 0x466 JUMPI PUSH3 0x465 PUSH3 0x194 JUMP JUMPDEST JUMPDEST PUSH3 0x474 DUP9 DUP3 DUP10 ADD PUSH3 0x2EF JUMP JUMPDEST SWAP4 POP POP PUSH1 0x60 PUSH3 0x487 DUP9 DUP3 DUP10 ADD PUSH3 0x346 JUMP JUMPDEST SWAP3 POP POP PUSH1 0x80 PUSH3 0x49A DUP9 DUP3 DUP10 ADD PUSH3 0x3AB JUMP JUMPDEST SWAP2 POP POP SWAP3 SWAP6 POP SWAP3 SWAP6 SWAP1 SWAP4 POP JUMP JUMPDEST PUSH32 0x4E487B7100000000000000000000000000000000000000000000000000000000 PUSH1 0x0 MSTORE PUSH1 0x22 PUSH1 0x4 MSTORE PUSH1 0x24 PUSH1 0x0 REVERT JUMPDEST PUSH1 0x0 PUSH1 0x2 DUP3 DIV SWAP1 POP PUSH1 0x1 DUP3 AND DUP1 PUSH3 0x4EF JUMPI PUSH1 0x7F DUP3 AND SWAP2 POP JUMPDEST PUSH1 0x20 DUP3 LT DUP2 SUB PUSH3 0x505 JUMPI PUSH3 0x504 PUSH3 0x4A7 JUMP JUMPDEST JUMPDEST POP SWAP2 SWAP1 POP JUMP JUMPDEST PUSH2 0x1881 DUP1 PUSH3 0x51B PUSH1 0x0 CODECOPY PUSH1 0x0 RETURN INVALID PUSH1 0x80 PUSH1 0x40 MSTORE PUSH1 0x4 CALLDATASIZE LT PUSH2 0xFE JUMPI PUSH1 0x0 CALLDATALOAD PUSH1 0xE0 SHR DUP1 PUSH4 0x481C6A75 GT PUSH2 0x95 JUMPI DUP1 PUSH4 0x81D12C58 GT PUSH2 0x64 JUMPI DUP1 PUSH4 0x81D12C58 EQ PUSH2 0x32E JUMPI DUP1 PUSH4 0xBB0C8298 EQ PUSH2 0x370 JUMPI DUP1 PUSH4 0xD7BB99BA EQ PUSH2 0x39B JUMPI DUP1 PUSH4 0xD7D1BBDB EQ PUSH2 0x3A5 JUMPI DUP1 PUSH4 0xF251FC8C EQ PUSH2 0x3CE JUMPI PUSH2 0xFE JUMP JUMPDEST DUP1 PUSH4 0x481C6A75 EQ PUSH2 0x282 JUMPI DUP1 PUSH4 0x4A79D50C EQ PUSH2 0x2AD JUMPI DUP1 PUSH4 0x51F890EA EQ PUSH2 0x2D8 JUMPI DUP1 PUSH4 0x7284E416 EQ PUSH2 0x303 JUMPI PUSH2 0xFE JUMP JUMPDEST DUP1 PUSH4 0x2F814278 GT PUSH2 0xD1 JUMPI DUP1 PUSH4 0x2F814278 EQ PUSH2 0x1D1 JUMPI DUP1 PUSH4 0x3410452A EQ PUSH2 0x1FA JUMPI DUP1 PUSH4 0x37627839 EQ PUSH2 0x225 JUMPI DUP1 PUSH4 0x4051DDAC EQ PUSH2 0x250 JUMPI PUSH2 0xFE JUMP JUMPDEST DUP1 PUSH4 0x3441006 EQ PUSH2 0x103 JUMPI DUP1 PUSH4 0xB9F2C4A EQ PUSH2 0x12C JUMPI DUP1 PUSH4 0x12065FE0 EQ PUSH2 0x169 JUMPI DUP1 PUSH4 0x1F6D4942 EQ PUSH2 0x194 JUMPI JUMPDEST PUSH1 0x0 DUP1 REVERT JUMPDEST CALLVALUE DUP1 ISZERO PUSH2 0x10F JUMPI PUSH1 0x0 DUP1 REVERT JUMPDEST POP PUSH2 0x12A PUSH1 0x4 DUP1 CALLDATASIZE SUB DUP2 ADD SWAP1 PUSH2 0x125 SWAP2 SWAP1 PUSH2 0x1132 JUMP JUMPDEST PUSH2 0x3F9 JUMP JUMPDEST STOP JUMPDEST CALLVALUE DUP1 ISZERO PUSH2 0x138 JUMPI PUSH1 0x0 DUP1 REVERT JUMPDEST POP PUSH2 0x153 PUSH1 0x4 DUP1 CALLDATASIZE SUB DUP2 ADD SWAP1 PUSH2 0x14E SWAP2 SWAP1 PUSH2 0x1132 JUMP JUMPDEST PUSH2 0x5C1 JUMP JUMPDEST PUSH1 0x40 MLOAD PUSH2 0x160 SWAP2 SWAP1 PUSH2 0x11A0 JUMP JUMPDEST PUSH1 0x40 MLOAD DUP1 SWAP2 SUB SWAP1 RETURN JUMPDEST CALLVALUE DUP1 ISZERO PUSH2 0x175 JUMPI PUSH1 0x0 DUP1 REVERT JUMPDEST POP PUSH2 0x17E PUSH2 0x600 JUMP JUMPDEST PUSH1 0x40 MLOAD PUSH2 0x18B SWAP2 SWAP1 PUSH2 0x11CA JUMP JUMPDEST PUSH1 0x40 MLOAD DUP1 SWAP2 SUB SWAP1 RETURN JUMPDEST CALLVALUE DUP1 ISZERO PUSH2 0x1A0 JUMPI PUSH1 0x0 DUP1 REVERT JUMPDEST POP PUSH2 0x1BB PUSH1 0x4 DUP1 CALLDATASIZE SUB DUP2 ADD SWAP1 PUSH2 0x1B6 SWAP2 SWAP1 PUSH2 0x1211 JUMP JUMPDEST PUSH2 0x61F JUMP JUMPDEST PUSH1 0x40 MLOAD PUSH2 0x1C8 SWAP2 SWAP1 PUSH2 0x1259 JUMP JUMPDEST PUSH1 0x40 MLOAD DUP1 SWAP2 SUB SWAP1 RETURN JUMPDEST CALLVALUE DUP1 ISZERO PUSH2 0x1DD JUMPI PUSH1 0x0 DUP1 REVERT JUMPDEST POP PUSH2 0x1F8 PUSH1 0x4 DUP1 CALLDATASIZE SUB DUP2 ADD SWAP1 PUSH2 0x1F3 SWAP2 SWAP1 PUSH2 0x13BA JUMP JUMPDEST PUSH2 0x63F JUMP JUMPDEST STOP JUMPDEST CALLVALUE DUP1 ISZERO PUSH2 0x206 JUMPI PUSH1 0x0 DUP1 REVERT JUMPDEST POP PUSH2 0x20F PUSH2 0x769 JUMP JUMPDEST PUSH1 0x40 MLOAD PUSH2 0x21C SWAP2 SWAP1 PUSH2 0x11CA JUMP JUMPDEST PUSH1 0x40 MLOAD DUP1 SWAP2 SUB SWAP1 RETURN JUMPDEST CALLVALUE DUP1 ISZERO PUSH2 0x231 JUMPI PUSH1 0x0 DUP1 REVERT JUMPDEST POP PUSH2 0x23A PUSH2 0x776 JUMP JUMPDEST PUSH1 0x40 MLOAD PUSH2 0x247 SWAP2 SWAP1 PUSH2 0x14E1 JUMP JUMPDEST PUSH1 0x40 MLOAD DUP1 SWAP2 SUB SWAP1 RETURN JUMPDEST CALLVALUE DUP1 ISZERO PUSH2 0x25C JUMPI PUSH1 0x0 DUP1 REVERT JUMPDEST POP PUSH2 0x265 PUSH2 0x804 JUMP JUMPDEST PUSH1 0x40 MLOAD PUSH2 0x279 SWAP9 SWAP8 SWAP7 SWAP6 SWAP5 SWAP4 SWAP3 SWAP2 SWAP1 PUSH2 0x1503 JUMP JUMPDEST PUSH1 0x40 MLOAD DUP1 SWAP2 SUB SWAP1 RETURN JUMPDEST CALLVALUE DUP1 ISZERO PUSH2 0x28E JUMPI PUSH1 0x0 DUP1 REVERT JUMPDEST POP PUSH2 0x297 PUSH2 0xA1C JUMP JUMPDEST PUSH1 0x40 MLOAD PUSH2 0x2A4 SWAP2 SWAP1 PUSH2 0x11A0 JUMP JUMPDEST PUSH1 0x40 MLOAD DUP1 SWAP2 SUB SWAP1 RETURN JUMPDEST CALLVALUE DUP1 ISZERO PUSH2 0x2B9 JUMPI PUSH1 0x0 DUP1 REVERT JUMPDEST POP PUSH2 0x2C2 PUSH2 0xA42 JUMP JUMPDEST PUSH1 0x40 MLOAD PUSH2 0x2CF SWAP2 SWAP1 PUSH2 0x14E1 JUMP JUMPDEST PUSH1 0x40 MLOAD DUP1 SWAP2 SUB SWAP1 RETURN JUMPDEST CALLVALUE DUP1 ISZERO PUSH2 0x2E4 JUMPI PUSH1 0x0 DUP1 REVERT JUMPDEST POP PUSH2 0x2ED PUSH2 0xAD0 JUMP JUMPDEST PUSH1 0x40 MLOAD PUSH2 0x2FA SWAP2 SWAP1 PUSH2 0x1654 JUMP JUMPDEST PUSH1 0x40 MLOAD DUP1 SWAP2 SUB SWAP1 RETURN JUMPDEST CALLVALUE DUP1 ISZERO PUSH2 0x30F JUMPI PUSH1 0x0 DUP1 REVERT JUMPDEST POP PUSH2 0x318 PUSH2 0xB5E JUMP JUMPDEST PUSH1 0x40 MLOAD PUSH2 0x325 SWAP2 SWAP1 PUSH2 0x14E1 JUMP JUMPDEST PUSH1 0x40 MLOAD DUP1 SWAP2 SUB SWAP1 RETURN JUMPDEST CALLVALUE DUP1 ISZERO PUSH2 0x33A JUMPI PUSH1 0x0 DUP1 REVERT JUMPDEST POP PUSH2 0x355 PUSH1 0x4 DUP1 CALLDATASIZE SUB DUP2 ADD SWAP1 PUSH2 0x350 SWAP2 SWAP1 PUSH2 0x1132 JUMP JUMPDEST PUSH2 0xBEC JUMP JUMPDEST PUSH1 0x40 MLOAD PUSH2 0x367 SWAP7 SWAP6 SWAP5 SWAP4 SWAP3 SWAP2 SWAP1 PUSH2 0x1676 JUMP JUMPDEST PUSH1 0x40 MLOAD DUP1 SWAP2 SUB SWAP1 RETURN JUMPDEST CALLVALUE DUP1 ISZERO PUSH2 0x37C JUMPI PUSH1 0x0 DUP1 REVERT JUMPDEST POP PUSH2 0x385 PUSH2 0xD75 JUMP JUMPDEST PUSH1 0x40 MLOAD PUSH2 0x392 SWAP2 SWAP1 PUSH2 0x11CA JUMP JUMPDEST PUSH1 0x40 MLOAD DUP1 SWAP2 SUB SWAP1 RETURN JUMPDEST PUSH2 0x3A3 PUSH2 0xD7B JUMP JUMPDEST STOP JUMPDEST CALLVALUE DUP1 ISZERO PUSH2 0x3B1 JUMPI PUSH1 0x0 DUP1 REVERT JUMPDEST POP PUSH2 0x3CC PUSH1 0x4 DUP1 CALLDATASIZE SUB DUP2 ADD SWAP1 PUSH2 0x3C7 SWAP2 SWAP1 PUSH2 0x1132 JUMP JUMPDEST PUSH2 0xEB6 JUMP JUMPDEST STOP JUMPDEST CALLVALUE DUP1 ISZERO PUSH2 0x3DA JUMPI PUSH1 0x0 DUP1 REVERT JUMPDEST POP PUSH2 0x3E3 PUSH2 0x103F JUMP JUMPDEST PUSH1 0x40 MLOAD PUSH2 0x3F0 SWAP2 SWAP1 PUSH2 0x11CA JUMP JUMPDEST PUSH1 0x40 MLOAD DUP1 SWAP2 SUB SWAP1 RETURN JUMPDEST PUSH1 0x3 PUSH1 0x0 SWAP1 SLOAD SWAP1 PUSH2 0x100 EXP SWAP1 DIV PUSH20 0xFFFFFFFFFFFFFFFFFFFFFFFFFFFFFFFFFFFFFFFF AND PUSH20 0xFFFFFFFFFFFFFFFFFFFFFFFFFFFFFFFFFFFFFFFF AND CALLER PUSH20 0xFFFFFFFFFFFFFFFFFFFFFFFFFFFFFFFFFFFFFFFF AND EQ PUSH2 0x453 JUMPI PUSH1 0x0 DUP1 REVERT JUMPDEST PUSH1 0x2 PUSH1 0x7 SLOAD PUSH2 0x462 SWAP2 SWAP1 PUSH2 0x1743 JUMP JUMPDEST PUSH1 0x8 DUP3 DUP2 SLOAD DUP2 LT PUSH2 0x476 JUMPI PUSH2 0x475 PUSH2 0x1774 JUMP JUMPDEST JUMPDEST SWAP1 PUSH1 0x0 MSTORE PUSH1 0x20 PUSH1 0x0 KECCAK256 SWAP1 PUSH1 0x7 MUL ADD PUSH1 0x4 ADD SLOAD GT PUSH2 0x492 JUMPI PUSH1 0x0 DUP1 REVERT JUMPDEST PUSH1 0x8 DUP2 DUP2 SLOAD DUP2 LT PUSH2 0x4A6 JUMPI PUSH2 0x4A5 PUSH2 0x1774 JUMP JUMPDEST JUMPDEST SWAP1 PUSH1 0x0 MSTORE PUSH1 0x20 PUSH1 0x0 KECCAK256 SWAP1 PUSH1 0x7 MUL ADD PUSH1 0x5 ADD PUSH1 0x0 SWAP1 SLOAD SWAP1 PUSH2 0x100 EXP SWAP1 DIV PUSH1 0xFF AND ISZERO PUSH2 0x4CF JUMPI PUSH1 0x0 DUP1 REVERT JUMPDEST PUSH1 0x8 DUP2 DUP2 SLOAD DUP2 LT PUSH2 0x4E3 JUMPI PUSH2 0x4E2 PUSH2 0x1774 JUMP JUMPDEST JUMPDEST SWAP1 PUSH1 0x0 MSTORE PUSH1 0x20 PUSH1 0x0 KECCAK256 SWAP1 PUSH1 0x7 MUL ADD PUSH1 0x2 ADD PUSH1 0x0 SWAP1 SLOAD SWAP1 PUSH2 0x100 EXP SWAP1 DIV PUSH20 0xFFFFFFFFFFFFFFFFFFFFFFFFFFFFFFFFFFFFFFFF AND PUSH20 0xFFFFFFFFFFFFFFFFFFFFFFFFFFFFFFFFFFFFFFFF AND PUSH2 0x8FC PUSH1 0x8 DUP4 DUP2 SLOAD DUP2 LT PUSH2 0x542 JUMPI PUSH2 0x541 PUSH2 0x1774 JUMP JUMPDEST JUMPDEST SWAP1 PUSH1 0x0 MSTORE PUSH1 0x20 PUSH1 0x0 KECCAK256 SWAP1 PUSH1 0x7 MUL ADD PUSH1 0x3 ADD SLOAD SWAP1 DUP2 ISZERO MUL SWAP1 PUSH1 0x40 MLOAD PUSH1 0x0 PUSH1 0x40 MLOAD DUP1 DUP4 SUB DUP2 DUP6 DUP9 DUP9 CALL SWAP4 POP POP POP POP ISZERO DUP1 ISZERO PUSH2 0x57F JUMPI RETURNDATASIZE PUSH1 0x0 DUP1 RETURNDATACOPY RETURNDATASIZE PUSH1 0x0 REVERT JUMPDEST POP PUSH1 0x1 PUSH1 0x8 DUP3 DUP2 SLOAD DUP2 LT PUSH2 0x596 JUMPI PUSH2 0x595 PUSH2 0x1774 JUMP JUMPDEST JUMPDEST SWAP1 PUSH1 0x0 MSTORE PUSH1 0x20 PUSH1 0x0 KECCAK256 SWAP1 PUSH1 0x7 MUL ADD PUSH1 0x5 ADD PUSH1 0x0 PUSH2 0x100 EXP DUP2 SLOAD DUP2 PUSH1 0xFF MUL NOT AND SWAP1 DUP4 ISZERO ISZERO MUL OR SWAP1 SSTORE POP POP JUMP JUMPDEST PUSH1 0x6 DUP2 DUP2 SLOAD DUP2 LT PUSH2 0x5D1 JUMPI PUSH1 0x0 DUP1 REVERT JUMPDEST SWAP1 PUSH1 0x0 MSTORE PUSH1 0x20 PUSH1 0x0 KECCAK256 ADD PUSH1 0x0 SWAP2 POP SLOAD SWAP1 PUSH2 0x100 EXP SWAP1 DIV PUSH20 0xFFFFFFFFFFFFFFFFFFFFFFFFFFFFFFFFFFFFFFFF AND DUP2 JUMP JUMPDEST PUSH1 0x0 ADDRESS PUSH20 0xFFFFFFFFFFFFFFFFFFFFFFFFFFFFFFFFFFFFFFFF AND BALANCE SWAP1 POP SWAP1 JUMP JUMPDEST PUSH1 0x5 PUSH1 0x20 MSTORE DUP1 PUSH1 0x0 MSTORE PUSH1 0x40 PUSH1 0x0 KECCAK256 PUSH1 0x0 SWAP2 POP SLOAD SWAP1 PUSH2 0x100 EXP SWAP1 DIV PUSH1 0xFF AND DUP2 JUMP JUMPDEST PUSH1 0x3 PUSH1 0x0 SWAP1 SLOAD SWAP1 PUSH2 0x100 EXP SWAP1 DIV PUSH20 0xFFFFFFFFFFFFFFFFFFFFFFFFFFFFFFFFFFFFFFFF AND PUSH20 0xFFFFFFFFFFFFFFFFFFFFFFFFFFFFFFFFFFFFFFFF AND CALLER PUSH20 0xFFFFFFFFFFFFFFFFFFFFFFFFFFFFFFFFFFFFFFFF AND EQ PUSH2 0x699 JUMPI PUSH1 0x0 DUP1 REVERT JUMPDEST PUSH1 0x0 PUSH1 0x8 PUSH1 0x1 DUP2 PUSH1 0x1 DUP2 SLOAD ADD DUP1 DUP3 SSTORE DUP1 SWAP2 POP POP SUB SWAP1 PUSH1 0x0 MSTORE PUSH1 0x20 PUSH1 0x0 KECCAK256 SWAP1 PUSH1 0x7 MUL ADD SWAP1 POP DUP5 DUP2 PUSH1 0x0 ADD SWAP1 DUP1 MLOAD SWAP1 PUSH1 0x20 ADD SWAP1 PUSH2 0x6D5 SWAP3 SWAP2 SWAP1 PUSH2 0x1045 JUMP JUMPDEST POP DUP4 DUP2 PUSH1 0x1 ADD SWAP1 DUP1 MLOAD SWAP1 PUSH1 0x20 ADD SWAP1 PUSH2 0x6EE SWAP3 SWAP2 SWAP1 PUSH2 0x1045 JUMP JUMPDEST POP DUP3 DUP2 PUSH1 0x2 ADD PUSH1 0x0 PUSH2 0x100 EXP DUP2 SLOAD DUP2 PUSH20 0xFFFFFFFFFFFFFFFFFFFFFFFFFFFFFFFFFFFFFFFF MUL NOT AND SWAP1 DUP4 PUSH20 0xFFFFFFFFFFFFFFFFFFFFFFFFFFFFFFFFFFFFFFFF AND MUL OR SWAP1 SSTORE POP DUP2 DUP2 PUSH1 0x3 ADD DUP2 SWAP1 SSTORE POP PUSH1 0x0 DUP2 PUSH1 0x5 ADD PUSH1 0x0 PUSH2 0x100 EXP DUP2 SLOAD DUP2 PUSH1 0xFF MUL NOT AND SWAP1 DUP4 ISZERO ISZERO MUL OR SWAP1 SSTORE POP PUSH1 0x0 DUP2 PUSH1 0x4 ADD DUP2 SWAP1 SSTORE POP POP POP POP POP POP JUMP JUMPDEST PUSH1 0x0 PUSH1 0x8 DUP1 SLOAD SWAP1 POP SWAP1 POP SWAP1 JUMP JUMPDEST PUSH1 0x2 DUP1 SLOAD PUSH2 0x783 SWAP1 PUSH2 0x17D2 JUMP JUMPDEST DUP1 PUSH1 0x1F ADD PUSH1 0x20 DUP1 SWAP2 DIV MUL PUSH1 0x20 ADD PUSH1 0x40 MLOAD SWAP1 DUP2 ADD PUSH1 0x40 MSTORE DUP1 SWAP3 SWAP2 SWAP1 DUP2 DUP2 MSTORE PUSH1 0x20 ADD DUP3 DUP1 SLOAD PUSH2 0x7AF SWAP1 PUSH2 0x17D2 JUMP JUMPDEST DUP1 ISZERO PUSH2 0x7FC JUMPI DUP1 PUSH1 0x1F LT PUSH2 0x7D1 JUMPI PUSH2 0x100 DUP1 DUP4 SLOAD DIV MUL DUP4 MSTORE SWAP2 PUSH1 0x20 ADD SWAP2 PUSH2 0x7FC JUMP JUMPDEST DUP3 ADD SWAP2 SWAP1 PUSH1 0x0 MSTORE PUSH1 0x20 PUSH1 0x0 KECCAK256 SWAP1 JUMPDEST DUP2 SLOAD DUP2 MSTORE SWAP1 PUSH1 0x1 ADD SWAP1 PUSH1 0x20 ADD DUP1 DUP4 GT PUSH2 0x7DF JUMPI DUP3 SWAP1 SUB PUSH1 0x1F AND DUP3 ADD SWAP2 JUMPDEST POP POP POP POP POP DUP2 JUMP JUMPDEST PUSH1 0x0 DUP1 PUSH1 0x0 DUP1 PUSH1 0x0 PUSH1 0x60 DUP1 PUSH1 0x60 PUSH1 0x4 SLOAD ADDRESS PUSH20 0xFFFFFFFFFFFFFFFFFFFFFFFFFFFFFFFFFFFFFFFF AND BALANCE PUSH1 0x8 DUP1 SLOAD SWAP1 POP PUSH1 0x7 SLOAD PUSH1 0x3 PUSH1 0x0 SWAP1 SLOAD SWAP1 PUSH2 0x100 EXP SWAP1 DIV PUSH20 0xFFFFFFFFFFFFFFFFFFFFFFFFFFFFFFFFFFFFFFFF AND PUSH1 0x0 PUSH1 0x1 PUSH1 0x2 DUP3 DUP1 SLOAD PUSH2 0x86A SWAP1 PUSH2 0x17D2 JUMP JUMPDEST DUP1 PUSH1 0x1F ADD PUSH1 0x20 DUP1 SWAP2 DIV MUL PUSH1 0x20 ADD PUSH1 0x40 MLOAD SWAP1 DUP2 ADD PUSH1 0x40 MSTORE DUP1 SWAP3 SWAP2 SWAP1 DUP2 DUP2 MSTORE PUSH1 0x20 ADD DUP3 DUP1 SLOAD PUSH2 0x896 SWAP1 PUSH2 0x17D2 JUMP JUMPDEST DUP1 ISZERO PUSH2 0x8E3 JUMPI DUP1 PUSH1 0x1F LT PUSH2 0x8B8 JUMPI PUSH2 0x100 DUP1 DUP4 SLOAD DIV MUL DUP4 MSTORE SWAP2 PUSH1 0x20 ADD SWAP2 PUSH2 0x8E3 JUMP JUMPDEST DUP3 ADD SWAP2 SWAP1 PUSH1 0x0 MSTORE PUSH1 0x20 PUSH1 0x0 KECCAK256 SWAP1 JUMPDEST DUP2 SLOAD DUP2 MSTORE SWAP1 PUSH1 0x1 ADD SWAP1 PUSH1 0x20 ADD DUP1 DUP4 GT PUSH2 0x8C6 JUMPI DUP3 SWAP1 SUB PUSH1 0x1F AND DUP3 ADD SWAP2 JUMPDEST POP POP POP POP POP SWAP3 POP DUP2 DUP1 SLOAD PUSH2 0x8F6 SWAP1 PUSH2 0x17D2 JUMP JUMPDEST DUP1 PUSH1 0x1F ADD PUSH1 0x20 DUP1 SWAP2 DIV MUL PUSH1 0x20 ADD PUSH1 0x40 MLOAD SWAP1 DUP2 ADD PUSH1 0x40 MSTORE DUP1 SWAP3 SWAP2 SWAP1 DUP2 DUP2 MSTORE PUSH1 0x20 ADD DUP3 DUP1 SLOAD PUSH2 0x922 SWAP1 PUSH2 0x17D2 JUMP JUMPDEST DUP1 ISZERO PUSH2 0x96F JUMPI DUP1 PUSH1 0x1F LT PUSH2 0x944 JUMPI PUSH2 0x100 DUP1 DUP4 SLOAD DIV MUL DUP4 MSTORE SWAP2 PUSH1 0x20 ADD SWAP2 PUSH2 0x96F JUMP JUMPDEST DUP3 ADD SWAP2 SWAP1 PUSH1 0x0 MSTORE PUSH1 0x20 PUSH1 0x0 KECCAK256 SWAP1 JUMPDEST DUP2 SLOAD DUP2 MSTORE SWAP1 PUSH1 0x1 ADD SWAP1 PUSH1 0x20 ADD DUP1 DUP4 GT PUSH2 0x952 JUMPI DUP3 SWAP1 SUB PUSH1 0x1F AND DUP3 ADD SWAP2 JUMPDEST POP POP POP POP POP SWAP2 POP DUP1 DUP1 SLOAD PUSH2 0x982 SWAP1 PUSH2 0x17D2 JUMP JUMPDEST DUP1 PUSH1 0x1F ADD PUSH1 0x20 DUP1 SWAP2 DIV MUL PUSH1 0x20 ADD PUSH1 0x40 MLOAD SWAP1 DUP2 ADD PUSH1 0x40 MSTORE DUP1 SWAP3 SWAP2 SWAP1 DUP2 DUP2 MSTORE PUSH1 0x20 ADD DUP3 DUP1 SLOAD PUSH2 0x9AE SWAP1 PUSH2 0x17D2 JUMP JUMPDEST DUP1 ISZERO PUSH2 0x9FB JUMPI DUP1 PUSH1 0x1F LT PUSH2 0x9D0 JUMPI PUSH2 0x100 DUP1 DUP4 SLOAD DIV MUL DUP4 MSTORE SWAP2 PUSH1 0x20 ADD SWAP2 PUSH2 0x9FB JUMP JUMPDEST DUP3 ADD SWAP2 SWAP1 PUSH1 0x0 MSTORE PUSH1 0x20 PUSH1 0x0 KECCAK256 SWAP1 JUMPDEST DUP2 SLOAD DUP2 MSTORE SWAP1 PUSH1 0x1 ADD SWAP1 PUSH1 0x20 ADD DUP1 DUP4 GT PUSH2 0x9DE JUMPI DUP3 SWAP1 SUB PUSH1 0x1F AND DUP3 ADD SWAP2 JUMPDEST POP POP POP POP POP SWAP1 POP SWAP8 POP SWAP8 POP SWAP8 POP SWAP8 POP SWAP8 POP SWAP8 POP SWAP8 POP SWAP8 POP SWAP1 SWAP2 SWAP3 SWAP4 SWAP5 SWAP6 SWAP7 SWAP8 JUMP JUMPDEST PUSH1 0x3 PUSH1 0x0 SWAP1 SLOAD SWAP1 PUSH2 0x100 EXP SWAP1 DIV PUSH20 0xFFFFFFFFFFFFFFFFFFFFFFFFFFFFFFFFFFFFFFFF AND DUP2 JUMP JUMPDEST PUSH1 0x0 DUP1 SLOAD PUSH2 0xA4F SWAP1 PUSH2 0x17D2 JUMP JUMPDEST DUP1 PUSH1 0x1F ADD PUSH1 0x20 DUP1 SWAP2 DIV MUL PUSH1 0x20 ADD PUSH1 0x40 MLOAD SWAP1 DUP2 ADD PUSH1 0x40 MSTORE DUP1 SWAP3 SWAP2 SWAP1 DUP2 DUP2 MSTORE PUSH1 0x20 ADD DUP3 DUP1 SLOAD PUSH2 0xA7B SWAP1 PUSH2 0x17D2 JUMP JUMPDEST DUP1 ISZERO PUSH2 0xAC8 JUMPI DUP1 PUSH1 0x1F LT PUSH2 0xA9D JUMPI PUSH2 0x100 DUP1 DUP4 SLOAD DIV MUL DUP4 MSTORE SWAP2 PUSH1 0x20 ADD SWAP2 PUSH2 0xAC8 JUMP JUMPDEST DUP3 ADD SWAP2 SWAP1 PUSH1 0x0 MSTORE PUSH1 0x20 PUSH1 0x0 KECCAK256 SWAP1 JUMPDEST DUP2 SLOAD DUP2 MSTORE SWAP1 PUSH1 0x1 ADD SWAP1 PUSH1 0x20 ADD DUP1 DUP4 GT PUSH2 0xAAB JUMPI DUP3 SWAP1 SUB PUSH1 0x1F AND DUP3 ADD SWAP2 JUMPDEST POP POP POP POP POP DUP2 JUMP JUMPDEST PUSH1 0x60 PUSH1 0x6 DUP1 SLOAD DUP1 PUSH1 0x20 MUL PUSH1 0x20 ADD PUSH1 0x40 MLOAD SWAP1 DUP2 ADD PUSH1 0x40 MSTORE DUP1 SWAP3 SWAP2 SWAP1 DUP2 DUP2 MSTORE PUSH1 0x20 ADD DUP3 DUP1 SLOAD DUP1 ISZERO PUSH2 0xB54 JUMPI PUSH1 0x20 MUL DUP3 ADD SWAP2 SWAP1 PUSH1 0x0 MSTORE PUSH1 0x20 PUSH1 0x0 KECCAK256 SWAP1 JUMPDEST DUP2 PUSH1 0x0 SWAP1 SLOAD SWAP1 PUSH2 0x100 EXP SWAP1 DIV PUSH20 0xFFFFFFFFFFFFFFFFFFFFFFFFFFFFFFFFFFFFFFFF AND PUSH20 0xFFFFFFFFFFFFFFFFFFFFFFFFFFFFFFFFFFFFFFFF AND DUP2 MSTORE PUSH1 0x20 ADD SWAP1 PUSH1 0x1 ADD SWAP1 DUP1 DUP4 GT PUSH2 0xB0A JUMPI JUMPDEST POP POP POP POP POP SWAP1 POP SWAP1 JUMP JUMPDEST PUSH1 0x1 DUP1 SLOAD PUSH2 0xB6B SWAP1 PUSH2 0x17D2 JUMP JUMPDEST DUP1 PUSH1 0x1F ADD PUSH1 0x20 DUP1 SWAP2 DIV MUL PUSH1 0x20 ADD PUSH1 0x40 MLOAD SWAP1 DUP2 ADD PUSH1 0x40 MSTORE DUP1 SWAP3 SWAP2 SWAP1 DUP2 DUP2 MSTORE PUSH1 0x20 ADD DUP3 DUP1 SLOAD PUSH2 0xB97 SWAP1 PUSH2 0x17D2 JUMP JUMPDEST DUP1 ISZERO PUSH2 0xBE4 JUMPI DUP1 PUSH1 0x1F LT PUSH2 0xBB9 JUMPI PUSH2 0x100 DUP1 DUP4 SLOAD DIV MUL DUP4 MSTORE SWAP2 PUSH1 0x20 ADD SWAP2 PUSH2 0xBE4 JUMP JUMPDEST DUP3 ADD SWAP2 SWAP1 PUSH1 0x0 MSTORE PUSH1 0x20 PUSH1 0x0 KECCAK256 SWAP1 JUMPDEST DUP2 SLOAD DUP2 MSTORE SWAP1 PUSH1 0x1 ADD SWAP1 PUSH1 0x20 ADD DUP1 DUP4 GT PUSH2 0xBC7 JUMPI DUP3 SWAP1 SUB PUSH1 0x1F AND DUP3 ADD SWAP2 JUMPDEST POP POP POP POP POP DUP2 JUMP JUMPDEST PUSH1 0x8 DUP2 DUP2 SLOAD DUP2 LT PUSH2 0xBFC JUMPI PUSH1 0x0 DUP1 REVERT JUMPDEST SWAP1 PUSH1 0x0 MSTORE PUSH1 0x20 PUSH1 0x0 KECCAK256 SWAP1 PUSH1 0x7 MUL ADD PUSH1 0x0 SWAP2 POP SWAP1 POP DUP1 PUSH1 0x0 ADD DUP1 SLOAD PUSH2 0xC1F SWAP1 PUSH2 0x17D2 JUMP JUMPDEST DUP1 PUSH1 0x1F ADD PUSH1 0x20 DUP1 SWAP2 DIV MUL PUSH1 0x20 ADD PUSH1 0x40 MLOAD SWAP1 DUP2 ADD PUSH1 0x40 MSTORE DUP1 SWAP3 SWAP2 SWAP1 DUP2 DUP2 MSTORE PUSH1 0x20 ADD DUP3 DUP1 SLOAD PUSH2 0xC4B SWAP1 PUSH2 0x17D2 JUMP JUMPDEST DUP1 ISZERO PUSH2 0xC98 JUMPI DUP1 PUSH1 0x1F LT PUSH2 0xC6D JUMPI PUSH2 0x100 DUP1 DUP4 SLOAD DIV MUL DUP4 MSTORE SWAP2 PUSH1 0x20 ADD SWAP2 PUSH2 0xC98 JUMP JUMPDEST DUP3 ADD SWAP2 SWAP1 PUSH1 0x0 MSTORE PUSH1 0x20 PUSH1 0x0 KECCAK256 SWAP1 JUMPDEST DUP2 SLOAD DUP2 MSTORE SWAP1 PUSH1 0x1 ADD SWAP1 PUSH1 0x20 ADD DUP1 DUP4 GT PUSH2 0xC7B JUMPI DUP3 SWAP1 SUB PUSH1 0x1F AND DUP3 ADD SWAP2 JUMPDEST POP POP POP POP POP SWAP1 DUP1 PUSH1 0x1 ADD DUP1 SLOAD PUSH2 0xCAD SWAP1 PUSH2 0x17D2 JUMP JUMPDEST DUP1 PUSH1 0x1F ADD PUSH1 0x20 DUP1 SWAP2 DIV MUL PUSH1 0x20 ADD PUSH1 0x40 MLOAD SWAP1 DUP2 ADD PUSH1 0x40 MSTORE DUP1 SWAP3 SWAP2 SWAP1 DUP2 DUP2 MSTORE PUSH1 0x20 ADD DUP3 DUP1 SLOAD PUSH2 0xCD9 SWAP1 PUSH2 0x17D2 JUMP JUMPDEST DUP1 ISZERO PUSH2 0xD26 JUMPI DUP1 PUSH1 0x1F LT PUSH2 0xCFB JUMPI PUSH2 0x100 DUP1 DUP4 SLOAD DIV MUL DUP4 MSTORE SWAP2 PUSH1 0x20 ADD SWAP2 PUSH2 0xD26 JUMP JUMPDEST DUP3 ADD SWAP2 SWAP1 PUSH1 0x0 MSTORE PUSH1 0x20 PUSH1 0x0 KECCAK256 SWAP1 JUMPDEST DUP2 SLOAD DUP2 MSTORE SWAP1 PUSH1 0x1 ADD SWAP1 PUSH1 0x20 ADD DUP1 DUP4 GT PUSH2 0xD09 JUMPI DUP3 SWAP1 SUB PUSH1 0x1F AND DUP3 ADD SWAP2 JUMPDEST POP POP POP POP POP SWAP1 DUP1 PUSH1 0x2 ADD PUSH1 0x0 SWAP1 SLOAD SWAP1 PUSH2 0x100 EXP SWAP1 DIV PUSH20 0xFFFFFFFFFFFFFFFFFFFFFFFFFFFFFFFFFFFFFFFF AND SWAP1 DUP1 PUSH1 0x3 ADD SLOAD SWAP1 DUP1 PUSH1 0x4 ADD SLOAD SWAP1 DUP1 PUSH1 0x5 ADD PUSH1 0x0 SWAP1 SLOAD SWAP1 PUSH2 0x100 EXP SWAP1 DIV PUSH1 0xFF AND SWAP1 POP DUP7 JUMP JUMPDEST PUSH1 0x4 SLOAD DUP2 JUMP JUMPDEST PUSH1 0x4 SLOAD CALLVALUE LT ISZERO PUSH2 0xD8A JUMPI PUSH1 0x0 DUP1 REVERT JUMPDEST PUSH1 0x5 PUSH1 0x0 CALLER PUSH20 0xFFFFFFFFFFFFFFFFFFFFFFFFFFFFFFFFFFFFFFFF AND PUSH20 0xFFFFFFFFFFFFFFFFFFFFFFFFFFFFFFFFFFFFFFFF AND DUP2 MSTORE PUSH1 0x20 ADD SWAP1 DUP2 MSTORE PUSH1 0x20 ADD PUSH1 0x0 KECCAK256 PUSH1 0x0 SWAP1 SLOAD SWAP1 PUSH2 0x100 EXP SWAP1 DIV PUSH1 0xFF AND ISZERO PUSH2 0xDE1 JUMPI PUSH1 0x0 DUP1 REVERT JUMPDEST PUSH1 0x1 PUSH1 0x5 PUSH1 0x0 CALLER PUSH20 0xFFFFFFFFFFFFFFFFFFFFFFFFFFFFFFFFFFFFFFFF AND PUSH20 0xFFFFFFFFFFFFFFFFFFFFFFFFFFFFFFFFFFFFFFFF AND DUP2 MSTORE PUSH1 0x20 ADD SWAP1 DUP2 MSTORE PUSH1 0x20 ADD PUSH1 0x0 KECCAK256 PUSH1 0x0 PUSH2 0x100 EXP DUP2 SLOAD DUP2 PUSH1 0xFF MUL NOT AND SWAP1 DUP4 ISZERO ISZERO MUL OR SWAP1 SSTORE POP PUSH1 0x6 CALLER SWAP1 DUP1 PUSH1 0x1 DUP2 SLOAD ADD DUP1 DUP3 SSTORE DUP1 SWAP2 POP POP PUSH1 0x1 SWAP1 SUB SWAP1 PUSH1 0x0 MSTORE PUSH1 0x20 PUSH1 0x0 KECCAK256 ADD PUSH1 0x0 SWAP1 SWAP2 SWAP1 SWAP2 SWAP1 SWAP2 PUSH2 0x100 EXP DUP2 SLOAD DUP2 PUSH20 0xFFFFFFFFFFFFFFFFFFFFFFFFFFFFFFFFFFFFFFFF MUL NOT AND SWAP1 DUP4 PUSH20 0xFFFFFFFFFFFFFFFFFFFFFFFFFFFFFFFFFFFFFFFF AND MUL OR SWAP1 SSTORE POP PUSH1 0x7 PUSH1 0x0 DUP2 SLOAD DUP1 SWAP3 SWAP2 SWAP1 PUSH2 0xEAF SWAP1 PUSH2 0x1803 JUMP JUMPDEST SWAP2 SWAP1 POP SSTORE POP JUMP JUMPDEST PUSH1 0x5 PUSH1 0x0 CALLER PUSH20 0xFFFFFFFFFFFFFFFFFFFFFFFFFFFFFFFFFFFFFFFF AND PUSH20 0xFFFFFFFFFFFFFFFFFFFFFFFFFFFFFFFFFFFFFFFF AND DUP2 MSTORE PUSH1 0x20 ADD SWAP1 DUP2 MSTORE PUSH1 0x20 ADD PUSH1 0x0 KECCAK256 PUSH1 0x0 SWAP1 SLOAD SWAP1 PUSH2 0x100 EXP SWAP1 DIV PUSH1 0xFF AND PUSH2 0xF0C JUMPI PUSH1 0x0 DUP1 REVERT JUMPDEST PUSH1 0x8 DUP2 DUP2 SLOAD DUP2 LT PUSH2 0xF20 JUMPI PUSH2 0xF1F PUSH2 0x1774 JUMP JUMPDEST JUMPDEST SWAP1 PUSH1 0x0 MSTORE PUSH1 0x20 PUSH1 0x0 KECCAK256 SWAP1 PUSH1 0x7 MUL ADD PUSH1 0x6 ADD PUSH1 0x0 CALLER PUSH20 0xFFFFFFFFFFFFFFFFFFFFFFFFFFFFFFFFFFFFFFFF AND PUSH20 0xFFFFFFFFFFFFFFFFFFFFFFFFFFFFFFFFFFFFFFFF AND DUP2 MSTORE PUSH1 0x20 ADD SWAP1 DUP2 MSTORE PUSH1 0x20 ADD PUSH1 0x0 KECCAK256 PUSH1 0x0 SWAP1 SLOAD SWAP1 PUSH2 0x100 EXP SWAP1 DIV PUSH1 0xFF AND ISZERO PUSH2 0xF86 JUMPI PUSH1 0x0 DUP1 REVERT JUMPDEST PUSH1 0x1 PUSH1 0x8 DUP3 DUP2 SLOAD DUP2 LT PUSH2 0xF9C JUMPI PUSH2 0xF9B PUSH2 0x1774 JUMP JUMPDEST JUMPDEST SWAP1 PUSH1 0x0 MSTORE PUSH1 0x20 PUSH1 0x0 KECCAK256 SWAP1 PUSH1 0x7 MUL ADD PUSH1 0x6 ADD PUSH1 0x0 CALLER PUSH20 0xFFFFFFFFFFFFFFFFFFFFFFFFFFFFFFFFFFFFFFFF AND PUSH20 0xFFFFFFFFFFFFFFFFFFFFFFFFFFFFFFFFFFFFFFFF AND DUP2 MSTORE PUSH1 0x20 ADD SWAP1 DUP2 MSTORE PUSH1 0x20 ADD PUSH1 0x0 KECCAK256 PUSH1 0x0 PUSH2 0x100 EXP DUP2 SLOAD DUP2 PUSH1 0xFF MUL NOT AND SWAP1 DUP4 ISZERO ISZERO MUL OR SWAP1 SSTORE POP PUSH1 0x8 DUP2 DUP2 SLOAD DUP2 LT PUSH2 0x1015 JUMPI PUSH2 0x1014 PUSH2 0x1774 JUMP JUMPDEST JUMPDEST SWAP1 PUSH1 0x0 MSTORE PUSH1 0x20 PUSH1 0x0 KECCAK256 SWAP1 PUSH1 0x7 MUL ADD PUSH1 0x4 ADD PUSH1 0x0 DUP2 SLOAD DUP1 SWAP3 SWAP2 SWAP1 PUSH2 0x1037 SWAP1 PUSH2 0x1803 JUMP JUMPDEST SWAP2 SWAP1 POP SSTORE POP POP JUMP JUMPDEST PUSH1 0x7 SLOAD DUP2 JUMP JUMPDEST DUP3 DUP1 SLOAD PUSH2 0x1051 SWAP1 PUSH2 0x17D2 JUMP JUMPDEST SWAP1 PUSH1 0x0 MSTORE PUSH1 0x20 PUSH1 0x0 KECCAK256 SWAP1 PUSH1 0x1F ADD PUSH1 0x20 SWAP1 DIV DUP2 ADD SWAP3 DUP3 PUSH2 0x1073 JUMPI PUSH1 0x0 DUP6 SSTORE PUSH2 0x10BA JUMP JUMPDEST DUP3 PUSH1 0x1F LT PUSH2 0x108C JUMPI DUP1 MLOAD PUSH1 0xFF NOT AND DUP4 DUP1 ADD OR DUP6 SSTORE PUSH2 0x10BA JUMP JUMPDEST DUP3 DUP1 ADD PUSH1 0x1 ADD DUP6 SSTORE DUP3 ISZERO PUSH2 0x10BA JUMPI SWAP2 DUP3 ADD JUMPDEST DUP3 DUP2 GT ISZERO PUSH2 0x10B9 JUMPI DUP3 MLOAD DUP3 SSTORE SWAP2 PUSH1 0x20 ADD SWAP2 SWAP1 PUSH1 0x1 ADD SWAP1 PUSH2 0x109E JUMP JUMPDEST JUMPDEST POP SWAP1 POP PUSH2 0x10C7 SWAP2 SWAP1 PUSH2 0x10CB JUMP JUMPDEST POP SWAP1 JUMP JUMPDEST JUMPDEST DUP1 DUP3 GT ISZERO PUSH2 0x10E4 JUMPI PUSH1 0x0 DUP2 PUSH1 0x0 SWAP1 SSTORE POP PUSH1 0x1 ADD PUSH2 0x10CC JUMP JUMPDEST POP SWAP1 JUMP JUMPDEST PUSH1 0x0 PUSH1 0x40 MLOAD SWAP1 POP SWAP1 JUMP JUMPDEST PUSH1 0x0 DUP1 REVERT JUMPDEST PUSH1 0x0 DUP1 REVERT JUMPDEST PUSH1 0x0 DUP2 SWAP1 POP SWAP2 SWAP1 POP JUMP JUMPDEST PUSH2 0x110F DUP2 PUSH2 0x10FC JUMP JUMPDEST DUP2 EQ PUSH2 0x111A JUMPI PUSH1 0x0 DUP1 REVERT JUMPDEST POP JUMP JUMPDEST PUSH1 0x0 DUP2 CALLDATALOAD SWAP1 POP PUSH2 0x112C DUP2 PUSH2 0x1106 JUMP JUMPDEST SWAP3 SWAP2 POP POP JUMP JUMPDEST PUSH1 0x0 PUSH1 0x20 DUP3 DUP5 SUB SLT ISZERO PUSH2 0x1148 JUMPI PUSH2 0x1147 PUSH2 0x10F2 JUMP JUMPDEST JUMPDEST PUSH1 0x0 PUSH2 0x1156 DUP5 DUP3 DUP6 ADD PUSH2 0x111D JUMP JUMPDEST SWAP2 POP POP SWAP3 SWAP2 POP POP JUMP JUMPDEST PUSH1 0x0 PUSH20 0xFFFFFFFFFFFFFFFFFFFFFFFFFFFFFFFFFFFFFFFF DUP3 AND SWAP1 POP SWAP2 SWAP1 POP JUMP JUMPDEST PUSH1 0x0 PUSH2 0x118A DUP3 PUSH2 0x115F JUMP JUMPDEST SWAP1 POP SWAP2 SWAP1 POP JUMP JUMPDEST PUSH2 0x119A DUP2 PUSH2 0x117F JUMP JUMPDEST DUP3 MSTORE POP POP JUMP JUMPDEST PUSH1 0x0 PUSH1 0x20 DUP3 ADD SWAP1 POP PUSH2 0x11B5 PUSH1 0x0 DUP4 ADD DUP5 PUSH2 0x1191 JUMP JUMPDEST SWAP3 SWAP2 POP POP JUMP JUMPDEST PUSH2 0x11C4 DUP2 PUSH2 0x10FC JUMP JUMPDEST DUP3 MSTORE POP POP JUMP JUMPDEST PUSH1 0x0 PUSH1 0x20 DUP3 ADD SWAP1 POP PUSH2 0x11DF PUSH1 0x0 DUP4 ADD DUP5 PUSH2 0x11BB JUMP JUMPDEST SWAP3 SWAP2 POP POP JUMP JUMPDEST PUSH2 0x11EE DUP2 PUSH2 0x117F JUMP JUMPDEST DUP2 EQ PUSH2 0x11F9 JUMPI PUSH1 0x0 DUP1 REVERT JUMPDEST POP JUMP JUMPDEST PUSH1 0x0 DUP2 CALLDATALOAD SWAP1 POP PUSH2 0x120B DUP2 PUSH2 0x11E5 JUMP JUMPDEST SWAP3 SWAP2 POP POP JUMP JUMPDEST PUSH1 0x0 PUSH1 0x20 DUP3 DUP5 SUB SLT ISZERO PUSH2 0x1227 JUMPI PUSH2 0x1226 PUSH2 0x10F2 JUMP JUMPDEST JUMPDEST PUSH1 0x0 PUSH2 0x1235 DUP5 DUP3 DUP6 ADD PUSH2 0x11FC JUMP JUMPDEST SWAP2 POP POP SWAP3 SWAP2 POP POP JUMP JUMPDEST PUSH1 0x0 DUP2 ISZERO ISZERO SWAP1 POP SWAP2 SWAP1 POP JUMP JUMPDEST PUSH2 0x1253 DUP2 PUSH2 0x123E JUMP JUMPDEST DUP3 MSTORE POP POP JUMP JUMPDEST PUSH1 0x0 PUSH1 0x20 DUP3 ADD SWAP1 POP PUSH2 0x126E PUSH1 0x0 DUP4 ADD DUP5 PUSH2 0x124A JUMP JUMPDEST SWAP3 SWAP2 POP POP JUMP JUMPDEST PUSH1 0x0 DUP1 REVERT JUMPDEST PUSH1 0x0 DUP1 REVERT JUMPDEST PUSH1 0x0 PUSH1 0x1F NOT PUSH1 0x1F DUP4 ADD AND SWAP1 POP SWAP2 SWAP1 POP JUMP JUMPDEST PUSH32 0x4E487B7100000000000000000000000000000000000000000000000000000000 PUSH1 0x0 MSTORE PUSH1 0x41 PUSH1 0x4 MSTORE PUSH1 0x24 PUSH1 0x0 REVERT JUMPDEST PUSH2 0x12C7 DUP3 PUSH2 0x127E JUMP JUMPDEST DUP2 ADD DUP2 DUP2 LT PUSH8 0xFFFFFFFFFFFFFFFF DUP3 GT OR ISZERO PUSH2 0x12E6 JUMPI PUSH2 0x12E5 PUSH2 0x128F JUMP JUMPDEST JUMPDEST DUP1 PUSH1 0x40 MSTORE POP POP POP JUMP JUMPDEST PUSH1 0x0 PUSH2 0x12F9 PUSH2 0x10E8 JUMP JUMPDEST SWAP1 POP PUSH2 0x1305 DUP3 DUP3 PUSH2 0x12BE JUMP JUMPDEST SWAP2 SWAP1 POP JUMP JUMPDEST PUSH1 0x0 PUSH8 0xFFFFFFFFFFFFFFFF DUP3 GT ISZERO PUSH2 0x1325 JUMPI PUSH2 0x1324 PUSH2 0x128F JUMP JUMPDEST JUMPDEST PUSH2 0x132E DUP3 PUSH2 0x127E JUMP JUMPDEST SWAP1 POP PUSH1 0x20 DUP2 ADD SWAP1 POP SWAP2 SWAP1 POP JUMP JUMPDEST DUP3 DUP2 DUP4 CALLDATACOPY PUSH1 0x0 DUP4 DUP4 ADD MSTORE POP POP POP JUMP JUMPDEST PUSH1 0x0 PUSH2 0x135D PUSH2 0x1358 DUP5 PUSH2 0x130A JUMP JUMPDEST PUSH2 0x12EF JUMP JUMPDEST SWAP1 POP DUP3 DUP2 MSTORE PUSH1 0x20 DUP2 ADD DUP5 DUP5 DUP5 ADD GT ISZERO PUSH2 0x1379 JUMPI PUSH2 0x1378 PUSH2 0x1279 JUMP JUMPDEST JUMPDEST PUSH2 0x1384 DUP5 DUP3 DUP6 PUSH2 0x133B JUMP JUMPDEST POP SWAP4 SWAP3 POP POP POP JUMP JUMPDEST PUSH1 0x0 DUP3 PUSH1 0x1F DUP4 ADD SLT PUSH2 0x13A1 JUMPI PUSH2 0x13A0 PUSH2 0x1274 JUMP JUMPDEST JUMPDEST DUP2 CALLDATALOAD PUSH2 0x13B1 DUP5 DUP3 PUSH1 0x20 DUP7 ADD PUSH2 0x134A JUMP JUMPDEST SWAP2 POP POP SWAP3 SWAP2 POP POP JUMP JUMPDEST PUSH1 0x0 DUP1 PUSH1 0x0 DUP1 PUSH1 0x80 DUP6 DUP8 SUB SLT ISZERO PUSH2 0x13D4 JUMPI PUSH2 0x13D3 PUSH2 0x10F2 JUMP JUMPDEST JUMPDEST PUSH1 0x0 DUP6 ADD CALLDATALOAD PUSH8 0xFFFFFFFFFFFFFFFF DUP2 GT ISZERO PUSH2 0x13F2 JUMPI PUSH2 0x13F1 PUSH2 0x10F7 JUMP JUMPDEST JUMPDEST PUSH2 0x13FE DUP8 DUP3 DUP9 ADD PUSH2 0x138C JUMP JUMPDEST SWAP5 POP POP PUSH1 0x20 DUP6 ADD CALLDATALOAD PUSH8 0xFFFFFFFFFFFFFFFF DUP2 GT ISZERO PUSH2 0x141F JUMPI PUSH2 0x141E PUSH2 0x10F7 JUMP JUMPDEST JUMPDEST PUSH2 0x142B DUP8 DUP3 DUP9 ADD PUSH2 0x138C JUMP JUMPDEST SWAP4 POP POP PUSH1 0x40 PUSH2 0x143C DUP8 DUP3 DUP9 ADD PUSH2 0x11FC JUMP JUMPDEST SWAP3 POP POP PUSH1 0x60 PUSH2 0x144D DUP8 DUP3 DUP9 ADD PUSH2 0x111D JUMP JUMPDEST SWAP2 POP POP SWAP3 SWAP6 SWAP2 SWAP5 POP SWAP3 POP JUMP JUMPDEST PUSH1 0x0 DUP2 MLOAD SWAP1 POP SWAP2 SWAP1 POP JUMP JUMPDEST PUSH1 0x0 DUP3 DUP3 MSTORE PUSH1 0x20 DUP3 ADD SWAP1 POP SWAP3 SWAP2 POP POP JUMP JUMPDEST PUSH1 0x0 JUMPDEST DUP4 DUP2 LT ISZERO PUSH2 0x1493 JUMPI DUP1 DUP3 ADD MLOAD DUP2 DUP5 ADD MSTORE PUSH1 0x20 DUP2 ADD SWAP1 POP PUSH2 0x1478 JUMP JUMPDEST DUP4 DUP2 GT ISZERO PUSH2 0x14A2 JUMPI PUSH1 0x0 DUP5 DUP5 ADD MSTORE JUMPDEST POP POP POP POP JUMP JUMPDEST PUSH1 0x0 PUSH2 0x14B3 DUP3 PUSH2 0x1459 JUMP JUMPDEST PUSH2 0x14BD DUP2 DUP6 PUSH2 0x1464 JUMP JUMPDEST SWAP4 POP PUSH2 0x14CD DUP2 DUP6 PUSH1 0x20 DUP7 ADD PUSH2 0x1475 JUMP JUMPDEST PUSH2 0x14D6 DUP2 PUSH2 0x127E JUMP JUMPDEST DUP5 ADD SWAP2 POP POP SWAP3 SWAP2 POP POP JUMP JUMPDEST PUSH1 0x0 PUSH1 0x20 DUP3 ADD SWAP1 POP DUP2 DUP2 SUB PUSH1 0x0 DUP4 ADD MSTORE PUSH2 0x14FB DUP2 DUP5 PUSH2 0x14A8 JUMP JUMPDEST SWAP1 POP SWAP3 SWAP2 POP POP JUMP JUMPDEST PUSH1 0x0 PUSH2 0x100 DUP3 ADD SWAP1 POP PUSH2 0x1519 PUSH1 0x0 DUP4 ADD DUP12 PUSH2 0x11BB JUMP JUMPDEST PUSH2 0x1526 PUSH1 0x20 DUP4 ADD DUP11 PUSH2 0x11BB JUMP JUMPDEST PUSH2 0x1533 PUSH1 0x40 DUP4 ADD DUP10 PUSH2 0x11BB JUMP JUMPDEST PUSH2 0x1540 PUSH1 0x60 DUP4 ADD DUP9 PUSH2 0x11BB JUMP JUMPDEST PUSH2 0x154D PUSH1 0x80 DUP4 ADD DUP8 PUSH2 0x1191 JUMP JUMPDEST DUP2 DUP2 SUB PUSH1 0xA0 DUP4 ADD MSTORE PUSH2 0x155F DUP2 DUP7 PUSH2 0x14A8 JUMP JUMPDEST SWAP1 POP DUP2 DUP2 SUB PUSH1 0xC0 DUP4 ADD MSTORE PUSH2 0x1573 DUP2 DUP6 PUSH2 0x14A8 JUMP JUMPDEST SWAP1 POP DUP2 DUP2 SUB PUSH1 0xE0 DUP4 ADD MSTORE PUSH2 0x1587 DUP2 DUP5 PUSH2 0x14A8 JUMP JUMPDEST SWAP1 POP SWAP10 SWAP9 POP POP POP POP POP POP POP POP POP JUMP JUMPDEST PUSH1 0x0 DUP2 MLOAD SWAP1 POP SWAP2 SWAP1 POP JUMP JUMPDEST PUSH1 0x0 DUP3 DUP3 MSTORE PUSH1 0x20 DUP3 ADD SWAP1 POP SWAP3 SWAP2 POP POP JUMP JUMPDEST PUSH1 0x0 DUP2 SWAP1 POP PUSH1 0x20 DUP3 ADD SWAP1 POP SWAP2 SWAP1 POP JUMP JUMPDEST PUSH2 0x15CB DUP2 PUSH2 0x117F JUMP JUMPDEST DUP3 MSTORE POP POP JUMP JUMPDEST PUSH1 0x0 PUSH2 0x15DD DUP4 DUP4 PUSH2 0x15C2 JUMP JUMPDEST PUSH1 0x20 DUP4 ADD SWAP1 POP SWAP3 SWAP2 POP POP JUMP JUMPDEST PUSH1 0x0 PUSH1 0x20 DUP3 ADD SWAP1 POP SWAP2 SWAP1 POP JUMP JUMPDEST PUSH1 0x0 PUSH2 0x1601 DUP3 PUSH2 0x1596 JUMP JUMPDEST PUSH2 0x160B DUP2 DUP6 PUSH2 0x15A1 JUMP JUMPDEST SWAP4 POP PUSH2 0x1616 DUP4 PUSH2 0x15B2 JUMP JUMPDEST DUP1 PUSH1 0x0 JUMPDEST DUP4 DUP2 LT ISZERO PUSH2 0x1647 JUMPI DUP2 MLOAD PUSH2 0x162E DUP9 DUP3 PUSH2 0x15D1 JUMP JUMPDEST SWAP8 POP PUSH2 0x1639 DUP4 PUSH2 0x15E9 JUMP JUMPDEST SWAP3 POP POP PUSH1 0x1 DUP2 ADD SWAP1 POP PUSH2 0x161A JUMP JUMPDEST POP DUP6 SWAP4 POP POP POP POP SWAP3 SWAP2 POP POP JUMP JUMPDEST PUSH1 0x0 PUSH1 0x20 DUP3 ADD SWAP1 POP DUP2 DUP2 SUB PUSH1 0x0 DUP4 ADD MSTORE PUSH2 0x166E DUP2 DUP5 PUSH2 0x15F6 JUMP JUMPDEST SWAP1 POP SWAP3 SWAP2 POP POP JUMP JUMPDEST PUSH1 0x0 PUSH1 0xC0 DUP3 ADD SWAP1 POP DUP2 DUP2 SUB PUSH1 0x0 DUP4 ADD MSTORE PUSH2 0x1690 DUP2 DUP10 PUSH2 0x14A8 JUMP JUMPDEST SWAP1 POP DUP2 DUP2 SUB PUSH1 0x20 DUP4 ADD MSTORE PUSH2 0x16A4 DUP2 DUP9 PUSH2 0x14A8 JUMP JUMPDEST SWAP1 POP PUSH2 0x16B3 PUSH1 0x40 DUP4 ADD DUP8 PUSH2 0x1191 JUMP JUMPDEST PUSH2 0x16C0 PUSH1 0x60 DUP4 ADD DUP7 PUSH2 0x11BB JUMP JUMPDEST PUSH2 0x16CD PUSH1 0x80 DUP4 ADD DUP6 PUSH2 0x11BB JUMP JUMPDEST PUSH2 0x16DA PUSH1 0xA0 DUP4 ADD DUP5 PUSH2 0x124A JUMP JUMPDEST SWAP8 SWAP7 POP POP POP POP POP POP POP JUMP JUMPDEST PUSH32 0x4E487B7100000000000000000000000000000000000000000000000000000000 PUSH1 0x0 MSTORE PUSH1 0x12 PUSH1 0x4 MSTORE PUSH1 0x24 PUSH1 0x0 REVERT JUMPDEST PUSH32 0x4E487B7100000000000000000000000000000000000000000000000000000000 PUSH1 0x0 MSTORE PUSH1 0x11 PUSH1 0x4 MSTORE PUSH1 0x24 PUSH1 0x0 REVERT JUMPDEST PUSH1 0x0 PUSH2 0x174E DUP3 PUSH2 0x10FC JUMP JUMPDEST SWAP2 POP PUSH2 0x1759 DUP4 PUSH2 0x10FC JUMP JUMPDEST SWAP3 POP DUP3 PUSH2 0x1769 JUMPI PUSH2 0x1768 PUSH2 0x16E5 JUMP JUMPDEST JUMPDEST DUP3 DUP3 DIV SWAP1 POP SWAP3 SWAP2 POP POP JUMP JUMPDEST PUSH32 0x4E487B7100000000000000000000000000000000000000000000000000000000 PUSH1 0x0 MSTORE PUSH1 0x32 PUSH1 0x4 MSTORE PUSH1 0x24 PUSH1 0x0 REVERT JUMPDEST PUSH32 0x4E487B7100000000000000000000000000000000000000000000000000000000 PUSH1 0x0 MSTORE PUSH1 0x22 PUSH1 0x4 MSTORE PUSH1 0x24 PUSH1 0x0 REVERT JUMPDEST PUSH1 0x0 PUSH1 0x2 DUP3 DIV SWAP1 POP PUSH1 0x1 DUP3 AND DUP1 PUSH2 0x17EA JUMPI PUSH1 0x7F DUP3 AND SWAP2 POP JUMPDEST PUSH1 0x20 DUP3 LT DUP2 SUB PUSH2 0x17FD JUMPI PUSH2 0x17FC PUSH2 0x17A3 JUMP JUMPDEST JUMPDEST POP SWAP2 SWAP1 POP JUMP JUMPDEST PUSH1 0x0 PUSH2 0x180E DUP3 PUSH2 0x10FC JUMP JUMPDEST SWAP2 POP PUSH32 0xFFFFFFFFFFFFFFFFFFFFFFFFFFFFFFFFFFFFFFFFFFFFFFFFFFFFFFFFFFFFFFFF DUP3 SUB PUSH2 0x1840 JUMPI PUSH2 0x183F PUSH2 0x1714 JUMP JUMPDEST JUMPDEST PUSH1 0x1 DUP3 ADD SWAP1 POP SWAP2 SWAP1 POP JUMP INVALID LOG2 PUSH5 0x6970667358 0x22 SLT KECCAK256 0xD3 SWAP13 0x5E RETURNDATACOPY CALLDATACOPY 0x4F 0xDD SELFBALANCE SIGNEXTEND 0x2E OR EXP CALL ADD 0x21 0xF8 PUSH7 0x2097BB7300AE84 0xAF 0xDA 0xC5 CREATE PUSH5 0x95B0656473 PUSH16 0x6C634300080D0033A264697066735822 SLT KECCAK256 DUP3 STOP PUSH30 0x2AEBBBAD491BA8876E787E52FC9BE955D3511DE71846B3912D4304E58364 PUSH20 0x6F6C634300080D00330000000000000000000000 "},"gasEstimates":{"creation":{"codeDepositCost":"1906800","executionCost":"2012","totalCost":"1908812"},"external":{"campaigns(uint256)":"4934","createCampaign(string,string,string,uint256)":"infinite","getAllCampaigns()":"infinite"}},"methodIdentifiers":{"campaigns(uint256)":"141961bc","createCampaign(string,string,string,uint256)":"4a15ef92","getAllCampaigns()":"86cdf604"}},"storageLayout":{"storage":[{"astId":4,"contract":"AEIOU.sol:AEIOUCampaignFactory","label":"campaigns","offset":0,"slot":"0","type":"t_array(t_address)dyn_storage"}],"types":{"t_address":{"encoding":"inplace","label":"address","numberOfBytes":"20"},"t_array(t_address)dyn_storage":{"base":"t_address","encoding":"dynamic_array","label":"address[]","numberOfBytes":"32"}}},"userdoc":{"kind":"user","methods":{},"version":1}}