{"abi":[{"inputs":[{"internalType":"string","name":"titl","type":"string"},{"internalType":"string","name":"desc","type":"string"},{"internalType":"string","name":"image","type":"string"},{"internalType":"uint256","name":"minAmount","type":"uint256"},{"internalType":"uint256","name":"targetAmt","type":"uint256"},{"internalType":"address","name":"manag","type":"address"}],"stateMutability":"nonpayable","type":"constructor"},{"inputs":[{"internalType":"uint256","name":"requestIndex","type":"uint256"}],"name":"approveRequest","outputs":[],"stateMutability":"nonpayable","type":"function"},{"inputs":[],"name":"contribute","outputs":[],"stateMutability":"payable","type":"function"},{"inputs":[{"internalType":"address","name":"","type":"address"}],"name":"contributors","outputs":[{"internalType":"bool","name":"","type":"bool"}],"stateMutability":"view","type":"function"},{"inputs":[{"internalType":"uint256","name":"","type":"uint256"}],"name":"contributorsList","outputs":[{"internalType":"address","name":"","type":"address"}],"stateMutability":"view","type":"function"},{"inputs":[{"internalType":"string","name":"title","type":"string"},{"internalType":"string","name":"desc","type":"string"},{"internalType":"address","name":"receiver","type":"address"},{"internalType":"uint256","name":"amount","type":"uint256"}],"name":"createRequest","outputs":[],"stateMutability":"nonpayable","type":"function"},{"inputs":[],"name":"description","outputs":[{"internalType":"string","name":"","type":"string"}],"stateMutability":"view","type":"function"},{"inputs":[{"internalType":"uint256","name":"requestIndex","type":"uint256"}],"name":"finalizeRequest","outputs":[],"stateMutability":"nonpayable","type":"function"},{"inputs":[],"name":"getAllContributors","outputs":[{"internalType":"address[]","name":"","type":"address[]"}],"stateMutability":"view","type":"function"},{"inputs":[],"name":"getBalance","outputs":[{"internalType":"uint256","name":"","type":"uint256"}],"stateMutability":"view","type":"function"},{"inputs":[],"name":"getRequestsCount","outputs":[{"internalType":"uint256","name":"","type":"uint256"}],"stateMutability":"view","type":"function"},{"inputs":[],"name":"getSummary","outputs":[{"internalType":"uint256","name":"","type":"uint256"},{"internalType":"uint256","name":"","type":"uint256"},{"internalType":"uint256","name":"","type":"uint256"},{"internalType":"uint256","name":"","type":"uint256"},{"internalType":"uint256","name":"","type":"uint256"},{"internalType":"address","name":"","type":"address"},{"internalType":"string","name":"","type":"string"},{"internalType":"string","name":"","type":"string"},{"internalType":"string","name":"","type":"string"}],"stateMutability":"view","type":"function"},{"inputs":[],"name":"imgSource","outputs":[{"internalType":"string","name":"","type":"string"}],"stateMutability":"view","type":"function"},{"inputs":[],"name":"manager","outputs":[{"internalType":"address","name":"","type":"address"}],"stateMutability":"view","type":"function"},{"inputs":[],"name":"minimumAmount","outputs":[{"internalType":"uint256","name":"","type":"uint256"}],"stateMutability":"view","type":"function"},{"inputs":[{"internalType":"uint256","name":"","type":"uint256"}],"name":"requests","outputs":[{"internalType":"string","name":"title","type":"string"},{"internalType":"string","name":"description","type":"string"},{"internalType":"address","name":"receiver","type":"address"},{"internalType":"uint256","name":"amount","type":"uint256"},{"internalType":"uint256","name":"approvalsCount","type":"uint256"},{"internalType":"bool","name":"completed","type":"bool"}],"stateMutability":"view","type":"function"},{"inputs":[],"name":"targetAmount","outputs":[{"internalType":"uint256","name":"","type":"uint256"}],"stateMutability":"view","type":"function"},{"inputs":[],"name":"title","outputs":[{"internalType":"string","name":"","type":"string"}],"stateMutability":"view","type":"function"},{"inputs":[],"name":"totalContributors","outputs":[{"internalType":"uint256","name":"","type":"uint256"}],"stateMutability":"view","type":"function"}],"devdoc":{"kind":"dev","methods":{},"version":1},"evm":{"assembly":"    /* \"AEIOU.sol\":476:4180  contract AEIOUCampaign {... */\n  mstore(0x40, 0x80)\n    /* \"AEIOU.sol\":1057:1355  constructor(string memory titl, string memory desc, string memory image, uint minAmount, uint targetAmt, address manag) {... */\n  callvalue\n  dup1\n  iszero\n  tag_1\n  jumpi\n  0x00\n  dup1\n  revert\ntag_1:\n  pop\n  mload(0x40)\n  sub(codesize, bytecodeSize)\n  dup1\n  bytecodeSize\n  dup4\n  codecopy\n  dup2\n  dup2\n  add\n  0x40\n  mstore\n  dup2\n  add\n  swap1\n  tag_2\n  swap2\n  swap1\n  tag_3\n  jump\t// in\ntag_2:\n    /* \"AEIOU.sol\":1195:1199  titl */\n  dup6\n    /* \"AEIOU.sol\":1187:1192  title */\n  0x00\n    /* \"AEIOU.sol\":1187:1199  title = titl */\n  swap1\n  dup1\n  mload\n  swap1\n  0x20\n  add\n  swap1\n  tag_6\n  swap3\n  swap2\n  swap1\n  tag_7\n  jump\t// in\ntag_6:\n  pop\n    /* \"AEIOU.sol\":1223:1227  desc */\n  dup5\n    /* \"AEIOU.sol\":1209:1220  description */\n  0x01\n    /* \"AEIOU.sol\":1209:1227  description = desc */\n  swap1\n  dup1\n  mload\n  swap1\n  0x20\n  add\n  swap1\n  tag_8\n  swap3\n  swap2\n  swap1\n  tag_7\n  jump\t// in\ntag_8:\n  pop\n    /* \"AEIOU.sol\":1253:1262  minAmount */\n  dup3\n    /* \"AEIOU.sol\":1237:1250  minimumAmount */\n  0x04\n    /* \"AEIOU.sol\":1237:1262  minimumAmount = minAmount */\n  dup2\n  swap1\n  sstore\n  pop\n    /* \"AEIOU.sol\":1287:1296  targetAmt */\n  dup2\n    /* \"AEIOU.sol\":1272:1284  targetAmount */\n  0x05\n    /* \"AEIOU.sol\":1272:1296  targetAmount = targetAmt */\n  dup2\n  swap1\n  sstore\n  pop\n    /* \"AEIOU.sol\":1318:1323  image */\n  dup4\n    /* \"AEIOU.sol\":1306:1315  imgSource */\n  0x02\n    /* \"AEIOU.sol\":1306:1323  imgSource = image */\n  swap1\n  dup1\n  mload\n  swap1\n  0x20\n  add\n  swap1\n  tag_9\n  swap3\n  swap2\n  swap1\n  tag_7\n  jump\t// in\ntag_9:\n  pop\n    /* \"AEIOU.sol\":1343:1348  manag */\n  dup1\n    /* \"AEIOU.sol\":1333:1340  manager */\n  0x03\n  0x00\n    /* \"AEIOU.sol\":1333:1348  manager = manag */\n  0x0100\n  exp\n  dup2\n  sload\n  dup2\n  0xffffffffffffffffffffffffffffffffffffffff\n  mul\n  not\n  and\n  swap1\n  dup4\n  0xffffffffffffffffffffffffffffffffffffffff\n  and\n  mul\n  or\n  swap1\n  sstore\n  pop\n    /* \"AEIOU.sol\":1057:1355  constructor(string memory titl, string memory desc, string memory image, uint minAmount, uint targetAmt, address manag) {... */\n  pop\n  pop\n  pop\n  pop\n  pop\n  pop\n    /* \"AEIOU.sol\":476:4180  contract AEIOUCampaign {... */\n  jump(tag_10)\ntag_7:\n  dup3\n  dup1\n  sload\n  tag_11\n  swap1\n  tag_12\n  jump\t// in\ntag_11:\n  swap1\n  0x00\n  mstore\n  keccak256(0x00, 0x20)\n  swap1\n  0x1f\n  add\n  0x20\n  swap1\n  div\n  dup2\n  add\n  swap3\n  dup3\n  tag_14\n  jumpi\n  0x00\n  dup6\n  sstore\n  jump(tag_13)\ntag_14:\n  dup3\n  0x1f\n  lt\n  tag_15\n  jumpi\n  dup1\n  mload\n  not(0xff)\n  and\n  dup4\n  dup1\n  add\n  or\n  dup6\n  sstore\n  jump(tag_13)\ntag_15:\n  dup3\n  dup1\n  add\n  0x01\n  add\n  dup6\n  sstore\n  dup3\n  iszero\n  tag_13\n  jumpi\n  swap2\n  dup3\n  add\ntag_16:\n  dup3\n  dup2\n  gt\n  iszero\n  tag_17\n  jumpi\n  dup3\n  mload\n  dup3\n  sstore\n  swap2\n  0x20\n  add\n  swap2\n  swap1\n  0x01\n  add\n  swap1\n  jump(tag_16)\ntag_17:\ntag_13:\n  pop\n  swap1\n  pop\n  tag_18\n  swap2\n  swap1\n  tag_19\n  jump\t// in\ntag_18:\n  pop\n  swap1\n  jump\t// out\ntag_19:\ntag_20:\n  dup1\n  dup3\n  gt\n  iszero\n  tag_21\n  jumpi\n  0x00\n  dup2\n  0x00\n  swap1\n  sstore\n  pop\n  0x01\n  add\n  jump(tag_20)\ntag_21:\n  pop\n  swap1\n  jump\t// out\n    /* \"#utility.yul\":7:82   */\ntag_22:\n    /* \"#utility.yul\":40:46   */\n  0x00\n    /* \"#utility.yul\":73:75   */\n  0x40\n    /* \"#utility.yul\":67:76   */\n  mload\n    /* \"#utility.yul\":57:76   */\n  swap1\n  pop\n    /* \"#utility.yul\":7:82   */\n  swap1\n  jump\t// out\n    /* \"#utility.yul\":88:205   */\ntag_23:\n    /* \"#utility.yul\":197:198   */\n  0x00\n    /* \"#utility.yul\":194:195   */\n  dup1\n    /* \"#utility.yul\":187:199   */\n  revert\n    /* \"#utility.yul\":211:328   */\ntag_24:\n    /* \"#utility.yul\":320:321   */\n  0x00\n    /* \"#utility.yul\":317:318   */\n  dup1\n    /* \"#utility.yul\":310:322   */\n  revert\n    /* \"#utility.yul\":334:451   */\ntag_25:\n    /* \"#utility.yul\":443:444   */\n  0x00\n    /* \"#utility.yul\":440:441   */\n  dup1\n    /* \"#utility.yul\":433:445   */\n  revert\n    /* \"#utility.yul\":457:574   */\ntag_26:\n    /* \"#utility.yul\":566:567   */\n  0x00\n    /* \"#utility.yul\":563:564   */\n  dup1\n    /* \"#utility.yul\":556:568   */\n  revert\n    /* \"#utility.yul\":580:682   */\ntag_27:\n    /* \"#utility.yul\":621:627   */\n  0x00\n    /* \"#utility.yul\":672:674   */\n  0x1f\n    /* \"#utility.yul\":668:675   */\n  not\n    /* \"#utility.yul\":663:665   */\n  0x1f\n    /* \"#utility.yul\":656:661   */\n  dup4\n    /* \"#utility.yul\":652:666   */\n  add\n    /* \"#utility.yul\":648:676   */\n  and\n    /* \"#utility.yul\":638:676   */\n  swap1\n  pop\n    /* \"#utility.yul\":580:682   */\n  swap2\n  swap1\n  pop\n  jump\t// out\n    /* \"#utility.yul\":688:868   */\ntag_28:\n    /* \"#utility.yul\":736:813   */\n  0x4e487b7100000000000000000000000000000000000000000000000000000000\n    /* \"#utility.yul\":733:734   */\n  0x00\n    /* \"#utility.yul\":726:814   */\n  mstore\n    /* \"#utility.yul\":833:837   */\n  0x41\n    /* \"#utility.yul\":830:831   */\n  0x04\n    /* \"#utility.yul\":823:838   */\n  mstore\n    /* \"#utility.yul\":857:861   */\n  0x24\n    /* \"#utility.yul\":854:855   */\n  0x00\n    /* \"#utility.yul\":847:862   */\n  revert\n    /* \"#utility.yul\":874:1155   */\ntag_29:\n    /* \"#utility.yul\":957:984   */\n  tag_52\n    /* \"#utility.yul\":979:983   */\n  dup3\n    /* \"#utility.yul\":957:984   */\n  tag_27\n  jump\t// in\ntag_52:\n    /* \"#utility.yul\":949:955   */\n  dup2\n    /* \"#utility.yul\":945:985   */\n  add\n    /* \"#utility.yul\":1087:1093   */\n  dup2\n    /* \"#utility.yul\":1075:1085   */\n  dup2\n    /* \"#utility.yul\":1072:1094   */\n  lt\n    /* \"#utility.yul\":1051:1069   */\n  0xffffffffffffffff\n    /* \"#utility.yul\":1039:1049   */\n  dup3\n    /* \"#utility.yul\":1036:1070   */\n  gt\n    /* \"#utility.yul\":1033:1095   */\n  or\n    /* \"#utility.yul\":1030:1118   */\n  iszero\n  tag_53\n  jumpi\n    /* \"#utility.yul\":1098:1116   */\n  tag_54\n  tag_28\n  jump\t// in\ntag_54:\n    /* \"#utility.yul\":1030:1118   */\ntag_53:\n    /* \"#utility.yul\":1138:1148   */\n  dup1\n    /* \"#utility.yul\":1134:1136   */\n  0x40\n    /* \"#utility.yul\":1127:1149   */\n  mstore\n    /* \"#utility.yul\":917:1155   */\n  pop\n    /* \"#utility.yul\":874:1155   */\n  pop\n  pop\n  jump\t// out\n    /* \"#utility.yul\":1161:1290   */\ntag_30:\n    /* \"#utility.yul\":1195:1201   */\n  0x00\n    /* \"#utility.yul\":1222:1242   */\n  tag_56\n  tag_22\n  jump\t// in\ntag_56:\n    /* \"#utility.yul\":1212:1242   */\n  swap1\n  pop\n    /* \"#utility.yul\":1251:1284   */\n  tag_57\n    /* \"#utility.yul\":1279:1283   */\n  dup3\n    /* \"#utility.yul\":1271:1277   */\n  dup3\n    /* \"#utility.yul\":1251:1284   */\n  tag_29\n  jump\t// in\ntag_57:\n    /* \"#utility.yul\":1161:1290   */\n  swap2\n  swap1\n  pop\n  jump\t// out\n    /* \"#utility.yul\":1296:1604   */\ntag_31:\n    /* \"#utility.yul\":1358:1362   */\n  0x00\n    /* \"#utility.yul\":1448:1466   */\n  0xffffffffffffffff\n    /* \"#utility.yul\":1440:1446   */\n  dup3\n    /* \"#utility.yul\":1437:1467   */\n  gt\n    /* \"#utility.yul\":1434:1490   */\n  iszero\n  tag_59\n  jumpi\n    /* \"#utility.yul\":1470:1488   */\n  tag_60\n  tag_28\n  jump\t// in\ntag_60:\n    /* \"#utility.yul\":1434:1490   */\ntag_59:\n    /* \"#utility.yul\":1508:1537   */\n  tag_61\n    /* \"#utility.yul\":1530:1536   */\n  dup3\n    /* \"#utility.yul\":1508:1537   */\n  tag_27\n  jump\t// in\ntag_61:\n    /* \"#utility.yul\":1500:1537   */\n  swap1\n  pop\n    /* \"#utility.yul\":1592:1596   */\n  0x20\n    /* \"#utility.yul\":1586:1590   */\n  dup2\n    /* \"#utility.yul\":1582:1597   */\n  add\n    /* \"#utility.yul\":1574:1597   */\n  swap1\n  pop\n    /* \"#utility.yul\":1296:1604   */\n  swap2\n  swap1\n  pop\n  jump\t// out\n    /* \"#utility.yul\":1610:1917   */\ntag_32:\n    /* \"#utility.yul\":1678:1679   */\n  0x00\n    /* \"#utility.yul\":1688:1801   */\ntag_63:\n    /* \"#utility.yul\":1702:1708   */\n  dup4\n    /* \"#utility.yul\":1699:1700   */\n  dup2\n    /* \"#utility.yul\":1696:1709   */\n  lt\n    /* \"#utility.yul\":1688:1801   */\n  iszero\n  tag_65\n  jumpi\n    /* \"#utility.yul\":1787:1788   */\n  dup1\n    /* \"#utility.yul\":1782:1785   */\n  dup3\n    /* \"#utility.yul\":1778:1789   */\n  add\n    /* \"#utility.yul\":1772:1790   */\n  mload\n    /* \"#utility.yul\":1768:1769   */\n  dup2\n    /* \"#utility.yul\":1763:1766   */\n  dup5\n    /* \"#utility.yul\":1759:1770   */\n  add\n    /* \"#utility.yul\":1752:1791   */\n  mstore\n    /* \"#utility.yul\":1724:1726   */\n  0x20\n    /* \"#utility.yul\":1721:1722   */\n  dup2\n    /* \"#utility.yul\":1717:1727   */\n  add\n    /* \"#utility.yul\":1712:1727   */\n  swap1\n  pop\n    /* \"#utility.yul\":1688:1801   */\n  jump(tag_63)\ntag_65:\n    /* \"#utility.yul\":1819:1825   */\n  dup4\n    /* \"#utility.yul\":1816:1817   */\n  dup2\n    /* \"#utility.yul\":1813:1826   */\n  gt\n    /* \"#utility.yul\":1810:1911   */\n  iszero\n  tag_66\n  jumpi\n    /* \"#utility.yul\":1899:1900   */\n  0x00\n    /* \"#utility.yul\":1890:1896   */\n  dup5\n    /* \"#utility.yul\":1885:1888   */\n  dup5\n    /* \"#utility.yul\":1881:1897   */\n  add\n    /* \"#utility.yul\":1874:1901   */\n  mstore\n    /* \"#utility.yul\":1810:1911   */\ntag_66:\n    /* \"#utility.yul\":1659:1917   */\n  pop\n    /* \"#utility.yul\":1610:1917   */\n  pop\n  pop\n  pop\n  jump\t// out\n    /* \"#utility.yul\":1923:2344   */\ntag_33:\n    /* \"#utility.yul\":2012:2017   */\n  0x00\n    /* \"#utility.yul\":2037:2103   */\n  tag_68\n    /* \"#utility.yul\":2053:2102   */\n  tag_69\n    /* \"#utility.yul\":2095:2101   */\n  dup5\n    /* \"#utility.yul\":2053:2102   */\n  tag_31\n  jump\t// in\ntag_69:\n    /* \"#utility.yul\":2037:2103   */\n  tag_30\n  jump\t// in\ntag_68:\n    /* \"#utility.yul\":2028:2103   */\n  swap1\n  pop\n    /* \"#utility.yul\":2126:2132   */\n  dup3\n    /* \"#utility.yul\":2119:2124   */\n  dup2\n    /* \"#utility.yul\":2112:2133   */\n  mstore\n    /* \"#utility.yul\":2164:2168   */\n  0x20\n    /* \"#utility.yul\":2157:2162   */\n  dup2\n    /* \"#utility.yul\":2153:2169   */\n  add\n    /* \"#utility.yul\":2202:2205   */\n  dup5\n    /* \"#utility.yul\":2193:2199   */\n  dup5\n    /* \"#utility.yul\":2188:2191   */\n  dup5\n    /* \"#utility.yul\":2184:2200   */\n  add\n    /* \"#utility.yul\":2181:2206   */\n  gt\n    /* \"#utility.yul\":2178:2290   */\n  iszero\n  tag_70\n  jumpi\n    /* \"#utility.yul\":2209:2288   */\n  tag_71\n  tag_26\n  jump\t// in\ntag_71:\n    /* \"#utility.yul\":2178:2290   */\ntag_70:\n    /* \"#utility.yul\":2299:2338   */\n  tag_72\n    /* \"#utility.yul\":2331:2337   */\n  dup5\n    /* \"#utility.yul\":2326:2329   */\n  dup3\n    /* \"#utility.yul\":2321:2324   */\n  dup6\n    /* \"#utility.yul\":2299:2338   */\n  tag_32\n  jump\t// in\ntag_72:\n    /* \"#utility.yul\":2018:2344   */\n  pop\n    /* \"#utility.yul\":1923:2344   */\n  swap4\n  swap3\n  pop\n  pop\n  pop\n  jump\t// out\n    /* \"#utility.yul\":2364:2719   */\ntag_34:\n    /* \"#utility.yul\":2431:2436   */\n  0x00\n    /* \"#utility.yul\":2480:2483   */\n  dup3\n    /* \"#utility.yul\":2473:2477   */\n  0x1f\n    /* \"#utility.yul\":2465:2471   */\n  dup4\n    /* \"#utility.yul\":2461:2478   */\n  add\n    /* \"#utility.yul\":2457:2484   */\n  slt\n    /* \"#utility.yul\":2447:2569   */\n  tag_74\n  jumpi\n    /* \"#utility.yul\":2488:2567   */\n  tag_75\n  tag_25\n  jump\t// in\ntag_75:\n    /* \"#utility.yul\":2447:2569   */\ntag_74:\n    /* \"#utility.yul\":2598:2604   */\n  dup2\n    /* \"#utility.yul\":2592:2605   */\n  mload\n    /* \"#utility.yul\":2623:2713   */\n  tag_76\n    /* \"#utility.yul\":2709:2712   */\n  dup5\n    /* \"#utility.yul\":2701:2707   */\n  dup3\n    /* \"#utility.yul\":2694:2698   */\n  0x20\n    /* \"#utility.yul\":2686:2692   */\n  dup7\n    /* \"#utility.yul\":2682:2699   */\n  add\n    /* \"#utility.yul\":2623:2713   */\n  tag_33\n  jump\t// in\ntag_76:\n    /* \"#utility.yul\":2614:2713   */\n  swap2\n  pop\n    /* \"#utility.yul\":2437:2719   */\n  pop\n    /* \"#utility.yul\":2364:2719   */\n  swap3\n  swap2\n  pop\n  pop\n  jump\t// out\n    /* \"#utility.yul\":2725:2802   */\ntag_35:\n    /* \"#utility.yul\":2762:2769   */\n  0x00\n    /* \"#utility.yul\":2791:2796   */\n  dup2\n    /* \"#utility.yul\":2780:2796   */\n  swap1\n  pop\n    /* \"#utility.yul\":2725:2802   */\n  swap2\n  swap1\n  pop\n  jump\t// out\n    /* \"#utility.yul\":2808:2930   */\ntag_36:\n    /* \"#utility.yul\":2881:2905   */\n  tag_79\n    /* \"#utility.yul\":2899:2904   */\n  dup2\n    /* \"#utility.yul\":2881:2905   */\n  tag_35\n  jump\t// in\ntag_79:\n    /* \"#utility.yul\":2874:2879   */\n  dup2\n    /* \"#utility.yul\":2871:2906   */\n  eq\n    /* \"#utility.yul\":2861:2924   */\n  tag_80\n  jumpi\n    /* \"#utility.yul\":2920:2921   */\n  0x00\n    /* \"#utility.yul\":2917:2918   */\n  dup1\n    /* \"#utility.yul\":2910:2922   */\n  revert\n    /* \"#utility.yul\":2861:2924   */\ntag_80:\n    /* \"#utility.yul\":2808:2930   */\n  pop\n  jump\t// out\n    /* \"#utility.yul\":2936:3079   */\ntag_37:\n    /* \"#utility.yul\":2993:2998   */\n  0x00\n    /* \"#utility.yul\":3024:3030   */\n  dup2\n    /* \"#utility.yul\":3018:3031   */\n  mload\n    /* \"#utility.yul\":3009:3031   */\n  swap1\n  pop\n    /* \"#utility.yul\":3040:3073   */\n  tag_82\n    /* \"#utility.yul\":3067:3072   */\n  dup2\n    /* \"#utility.yul\":3040:3073   */\n  tag_36\n  jump\t// in\ntag_82:\n    /* \"#utility.yul\":2936:3079   */\n  swap3\n  swap2\n  pop\n  pop\n  jump\t// out\n    /* \"#utility.yul\":3085:3211   */\ntag_38:\n    /* \"#utility.yul\":3122:3129   */\n  0x00\n    /* \"#utility.yul\":3162:3204   */\n  0xffffffffffffffffffffffffffffffffffffffff\n    /* \"#utility.yul\":3155:3160   */\n  dup3\n    /* \"#utility.yul\":3151:3205   */\n  and\n    /* \"#utility.yul\":3140:3205   */\n  swap1\n  pop\n    /* \"#utility.yul\":3085:3211   */\n  swap2\n  swap1\n  pop\n  jump\t// out\n    /* \"#utility.yul\":3217:3313   */\ntag_39:\n    /* \"#utility.yul\":3254:3261   */\n  0x00\n    /* \"#utility.yul\":3283:3307   */\n  tag_85\n    /* \"#utility.yul\":3301:3306   */\n  dup3\n    /* \"#utility.yul\":3283:3307   */\n  tag_38\n  jump\t// in\ntag_85:\n    /* \"#utility.yul\":3272:3307   */\n  swap1\n  pop\n    /* \"#utility.yul\":3217:3313   */\n  swap2\n  swap1\n  pop\n  jump\t// out\n    /* \"#utility.yul\":3319:3441   */\ntag_40:\n    /* \"#utility.yul\":3392:3416   */\n  tag_87\n    /* \"#utility.yul\":3410:3415   */\n  dup2\n    /* \"#utility.yul\":3392:3416   */\n  tag_39\n  jump\t// in\ntag_87:\n    /* \"#utility.yul\":3385:3390   */\n  dup2\n    /* \"#utility.yul\":3382:3417   */\n  eq\n    /* \"#utility.yul\":3372:3435   */\n  tag_88\n  jumpi\n    /* \"#utility.yul\":3431:3432   */\n  0x00\n    /* \"#utility.yul\":3428:3429   */\n  dup1\n    /* \"#utility.yul\":3421:3433   */\n  revert\n    /* \"#utility.yul\":3372:3435   */\ntag_88:\n    /* \"#utility.yul\":3319:3441   */\n  pop\n  jump\t// out\n    /* \"#utility.yul\":3447:3590   */\ntag_41:\n    /* \"#utility.yul\":3504:3509   */\n  0x00\n    /* \"#utility.yul\":3535:3541   */\n  dup2\n    /* \"#utility.yul\":3529:3542   */\n  mload\n    /* \"#utility.yul\":3520:3542   */\n  swap1\n  pop\n    /* \"#utility.yul\":3551:3584   */\n  tag_90\n    /* \"#utility.yul\":3578:3583   */\n  dup2\n    /* \"#utility.yul\":3551:3584   */\n  tag_40\n  jump\t// in\ntag_90:\n    /* \"#utility.yul\":3447:3590   */\n  swap3\n  swap2\n  pop\n  pop\n  jump\t// out\n    /* \"#utility.yul\":3596:5249   */\ntag_3:\n    /* \"#utility.yul\":3741:3747   */\n  0x00\n    /* \"#utility.yul\":3749:3755   */\n  dup1\n    /* \"#utility.yul\":3757:3763   */\n  0x00\n    /* \"#utility.yul\":3765:3771   */\n  dup1\n    /* \"#utility.yul\":3773:3779   */\n  0x00\n    /* \"#utility.yul\":3781:3787   */\n  dup1\n    /* \"#utility.yul\":3830:3833   */\n  0xc0\n    /* \"#utility.yul\":3818:3827   */\n  dup8\n    /* \"#utility.yul\":3809:3816   */\n  dup10\n    /* \"#utility.yul\":3805:3828   */\n  sub\n    /* \"#utility.yul\":3801:3834   */\n  slt\n    /* \"#utility.yul\":3798:3918   */\n  iszero\n  tag_92\n  jumpi\n    /* \"#utility.yul\":3837:3916   */\n  tag_93\n  tag_23\n  jump\t// in\ntag_93:\n    /* \"#utility.yul\":3798:3918   */\ntag_92:\n    /* \"#utility.yul\":3978:3979   */\n  0x00\n    /* \"#utility.yul\":3967:3976   */\n  dup8\n    /* \"#utility.yul\":3963:3980   */\n  add\n    /* \"#utility.yul\":3957:3981   */\n  mload\n    /* \"#utility.yul\":4008:4026   */\n  0xffffffffffffffff\n    /* \"#utility.yul\":4000:4006   */\n  dup2\n    /* \"#utility.yul\":3997:4027   */\n  gt\n    /* \"#utility.yul\":3994:4111   */\n  iszero\n  tag_94\n  jumpi\n    /* \"#utility.yul\":4030:4109   */\n  tag_95\n  tag_24\n  jump\t// in\ntag_95:\n    /* \"#utility.yul\":3994:4111   */\ntag_94:\n    /* \"#utility.yul\":4135:4209   */\n  tag_96\n    /* \"#utility.yul\":4201:4208   */\n  dup10\n    /* \"#utility.yul\":4192:4198   */\n  dup3\n    /* \"#utility.yul\":4181:4190   */\n  dup11\n    /* \"#utility.yul\":4177:4199   */\n  add\n    /* \"#utility.yul\":4135:4209   */\n  tag_34\n  jump\t// in\ntag_96:\n    /* \"#utility.yul\":4125:4209   */\n  swap7\n  pop\n    /* \"#utility.yul\":3928:4219   */\n  pop\n    /* \"#utility.yul\":4279:4281   */\n  0x20\n    /* \"#utility.yul\":4268:4277   */\n  dup8\n    /* \"#utility.yul\":4264:4282   */\n  add\n    /* \"#utility.yul\":4258:4283   */\n  mload\n    /* \"#utility.yul\":4310:4328   */\n  0xffffffffffffffff\n    /* \"#utility.yul\":4302:4308   */\n  dup2\n    /* \"#utility.yul\":4299:4329   */\n  gt\n    /* \"#utility.yul\":4296:4413   */\n  iszero\n  tag_97\n  jumpi\n    /* \"#utility.yul\":4332:4411   */\n  tag_98\n  tag_24\n  jump\t// in\ntag_98:\n    /* \"#utility.yul\":4296:4413   */\ntag_97:\n    /* \"#utility.yul\":4437:4511   */\n  tag_99\n    /* \"#utility.yul\":4503:4510   */\n  dup10\n    /* \"#utility.yul\":4494:4500   */\n  dup3\n    /* \"#utility.yul\":4483:4492   */\n  dup11\n    /* \"#utility.yul\":4479:4501   */\n  add\n    /* \"#utility.yul\":4437:4511   */\n  tag_34\n  jump\t// in\ntag_99:\n    /* \"#utility.yul\":4427:4511   */\n  swap6\n  pop\n    /* \"#utility.yul\":4229:4521   */\n  pop\n    /* \"#utility.yul\":4581:4583   */\n  0x40\n    /* \"#utility.yul\":4570:4579   */\n  dup8\n    /* \"#utility.yul\":4566:4584   */\n  add\n    /* \"#utility.yul\":4560:4585   */\n  mload\n    /* \"#utility.yul\":4612:4630   */\n  0xffffffffffffffff\n    /* \"#utility.yul\":4604:4610   */\n  dup2\n    /* \"#utility.yul\":4601:4631   */\n  gt\n    /* \"#utility.yul\":4598:4715   */\n  iszero\n  tag_100\n  jumpi\n    /* \"#utility.yul\":4634:4713   */\n  tag_101\n  tag_24\n  jump\t// in\ntag_101:\n    /* \"#utility.yul\":4598:4715   */\ntag_100:\n    /* \"#utility.yul\":4739:4813   */\n  tag_102\n    /* \"#utility.yul\":4805:4812   */\n  dup10\n    /* \"#utility.yul\":4796:4802   */\n  dup3\n    /* \"#utility.yul\":4785:4794   */\n  dup11\n    /* \"#utility.yul\":4781:4803   */\n  add\n    /* \"#utility.yul\":4739:4813   */\n  tag_34\n  jump\t// in\ntag_102:\n    /* \"#utility.yul\":4729:4813   */\n  swap5\n  pop\n    /* \"#utility.yul\":4531:4823   */\n  pop\n    /* \"#utility.yul\":4862:4864   */\n  0x60\n    /* \"#utility.yul\":4888:4952   */\n  tag_103\n    /* \"#utility.yul\":4944:4951   */\n  dup10\n    /* \"#utility.yul\":4935:4941   */\n  dup3\n    /* \"#utility.yul\":4924:4933   */\n  dup11\n    /* \"#utility.yul\":4920:4942   */\n  add\n    /* \"#utility.yul\":4888:4952   */\n  tag_37\n  jump\t// in\ntag_103:\n    /* \"#utility.yul\":4878:4952   */\n  swap4\n  pop\n    /* \"#utility.yul\":4833:4962   */\n  pop\n    /* \"#utility.yul\":5001:5004   */\n  0x80\n    /* \"#utility.yul\":5028:5092   */\n  tag_104\n    /* \"#utility.yul\":5084:5091   */\n  dup10\n    /* \"#utility.yul\":5075:5081   */\n  dup3\n    /* \"#utility.yul\":5064:5073   */\n  dup11\n    /* \"#utility.yul\":5060:5082   */\n  add\n    /* \"#utility.yul\":5028:5092   */\n  tag_37\n  jump\t// in\ntag_104:\n    /* \"#utility.yul\":5018:5092   */\n  swap3\n  pop\n    /* \"#utility.yul\":4972:5102   */\n  pop\n    /* \"#utility.yul\":5141:5144   */\n  0xa0\n    /* \"#utility.yul\":5168:5232   */\n  tag_105\n    /* \"#utility.yul\":5224:5231   */\n  dup10\n    /* \"#utility.yul\":5215:5221   */\n  dup3\n    /* \"#utility.yul\":5204:5213   */\n  dup11\n    /* \"#utility.yul\":5200:5222   */\n  add\n    /* \"#utility.yul\":5168:5232   */\n  tag_41\n  jump\t// in\ntag_105:\n    /* \"#utility.yul\":5158:5232   */\n  swap2\n  pop\n    /* \"#utility.yul\":5112:5242   */\n  pop\n    /* \"#utility.yul\":3596:5249   */\n  swap3\n  swap6\n  pop\n  swap3\n  swap6\n  pop\n  swap3\n  swap6\n  jump\t// out\n    /* \"#utility.yul\":5255:5435   */\ntag_42:\n    /* \"#utility.yul\":5303:5380   */\n  0x4e487b7100000000000000000000000000000000000000000000000000000000\n    /* \"#utility.yul\":5300:5301   */\n  0x00\n    /* \"#utility.yul\":5293:5381   */\n  mstore\n    /* \"#utility.yul\":5400:5404   */\n  0x22\n    /* \"#utility.yul\":5397:5398   */\n  0x04\n    /* \"#utility.yul\":5390:5405   */\n  mstore\n    /* \"#utility.yul\":5424:5428   */\n  0x24\n    /* \"#utility.yul\":5421:5422   */\n  0x00\n    /* \"#utility.yul\":5414:5429   */\n  revert\n    /* \"#utility.yul\":5441:5761   */\ntag_12:\n    /* \"#utility.yul\":5485:5491   */\n  0x00\n    /* \"#utility.yul\":5522:5523   */\n  0x02\n    /* \"#utility.yul\":5516:5520   */\n  dup3\n    /* \"#utility.yul\":5512:5524   */\n  div\n    /* \"#utility.yul\":5502:5524   */\n  swap1\n  pop\n    /* \"#utility.yul\":5569:5570   */\n  0x01\n    /* \"#utility.yul\":5563:5567   */\n  dup3\n    /* \"#utility.yul\":5559:5571   */\n  and\n    /* \"#utility.yul\":5590:5608   */\n  dup1\n    /* \"#utility.yul\":5580:5661   */\n  tag_108\n  jumpi\n    /* \"#utility.yul\":5646:5650   */\n  0x7f\n    /* \"#utility.yul\":5638:5644   */\n  dup3\n    /* \"#utility.yul\":5634:5651   */\n  and\n    /* \"#utility.yul\":5624:5651   */\n  swap2\n  pop\n    /* \"#utility.yul\":5580:5661   */\ntag_108:\n    /* \"#utility.yul\":5708:5710   */\n  0x20\n    /* \"#utility.yul\":5700:5706   */\n  dup3\n    /* \"#utility.yul\":5697:5711   */\n  lt\n    /* \"#utility.yul\":5677:5695   */\n  dup2\n    /* \"#utility.yul\":5674:5712   */\n  sub\n    /* \"#utility.yul\":5671:5755   */\n  tag_109\n  jumpi\n    /* \"#utility.yul\":5727:5745   */\n  tag_110\n  tag_42\n  jump\t// in\ntag_110:\n    /* \"#utility.yul\":5671:5755   */\ntag_109:\n    /* \"#utility.yul\":5492:5761   */\n  pop\n    /* \"#utility.yul\":5441:5761   */\n  swap2\n  swap1\n  pop\n  jump\t// out\n    /* \"AEIOU.sol\":476:4180  contract AEIOUCampaign {... */\ntag_10:\n  dataSize(sub_0)\n  dup1\n  dataOffset(sub_0)\n  0x00\n  codecopy\n  0x00\n  return\nstop\n\nsub_0: assembly {\n        /* \"AEIOU.sol\":476:4180  contract AEIOUCampaign {... */\n      mstore(0x40, 0x80)\n      jumpi(tag_1, lt(calldatasize, 0x04))\n      shr(0xe0, calldataload(0x00))\n      dup1\n      0x4a79d50c\n      gt\n      tag_20\n      jumpi\n      dup1\n      0x953b8fb8\n      gt\n      tag_21\n      jumpi\n      dup1\n      0x953b8fb8\n      eq\n      tag_15\n      jumpi\n      dup1\n      0xbb0c8298\n      eq\n      tag_16\n      jumpi\n      dup1\n      0xd7bb99ba\n      eq\n      tag_17\n      jumpi\n      dup1\n      0xd7d1bbdb\n      eq\n      tag_18\n      jumpi\n      dup1\n      0xf251fc8c\n      eq\n      tag_19\n      jumpi\n      jump(tag_1)\n    tag_21:\n      dup1\n      0x4a79d50c\n      eq\n      tag_11\n      jumpi\n      dup1\n      0x51f890ea\n      eq\n      tag_12\n      jumpi\n      dup1\n      0x7284e416\n      eq\n      tag_13\n      jumpi\n      dup1\n      0x81d12c58\n      eq\n      tag_14\n      jumpi\n      jump(tag_1)\n    tag_20:\n      dup1\n      0x2f814278\n      gt\n      tag_22\n      jumpi\n      dup1\n      0x2f814278\n      eq\n      tag_6\n      jumpi\n      dup1\n      0x3410452a\n      eq\n      tag_7\n      jumpi\n      dup1\n      0x37627839\n      eq\n      tag_8\n      jumpi\n      dup1\n      0x4051ddac\n      eq\n      tag_9\n      jumpi\n      dup1\n      0x481c6a75\n      eq\n      tag_10\n      jumpi\n      jump(tag_1)\n    tag_22:\n      dup1\n      0x03441006\n      eq\n      tag_2\n      jumpi\n      dup1\n      0x0b9f2c4a\n      eq\n      tag_3\n      jumpi\n      dup1\n      0x12065fe0\n      eq\n      tag_4\n      jumpi\n      dup1\n      0x1f6d4942\n      eq\n      tag_5\n      jumpi\n    tag_1:\n      0x00\n      dup1\n      revert\n        /* \"AEIOU.sol\":3273:3607  function finalizeRequest(uint requestIndex) public restricted {... */\n    tag_2:\n      callvalue\n      dup1\n      iszero\n      tag_23\n      jumpi\n      0x00\n      dup1\n      revert\n    tag_23:\n      pop\n      tag_24\n      0x04\n      dup1\n      calldatasize\n      sub\n      dup2\n      add\n      swap1\n      tag_25\n      swap2\n      swap1\n      tag_26\n      jump\t// in\n    tag_25:\n      tag_27\n      jump\t// in\n    tag_24:\n      stop\n        /* \"AEIOU.sol\":951:984  address[] public contributorsList */\n    tag_3:\n      callvalue\n      dup1\n      iszero\n      tag_28\n      jumpi\n      0x00\n      dup1\n      revert\n    tag_28:\n      pop\n      tag_29\n      0x04\n      dup1\n      calldatasize\n      sub\n      dup2\n      add\n      swap1\n      tag_30\n      swap2\n      swap1\n      tag_26\n      jump\t// in\n    tag_30:\n      tag_31\n      jump\t// in\n    tag_29:\n      mload(0x40)\n      tag_32\n      swap2\n      swap1\n      tag_33\n      jump\t// in\n    tag_32:\n      mload(0x40)\n      dup1\n      swap2\n      sub\n      swap1\n      return\n        /* \"AEIOU.sol\":2034:2139  function getBalance() public view returns(uint256) {... */\n    tag_4:\n      callvalue\n      dup1\n      iszero\n      tag_34\n      jumpi\n      0x00\n      dup1\n      revert\n    tag_34:\n      pop\n      tag_35\n      tag_36\n      jump\t// in\n    tag_35:\n      mload(0x40)\n      tag_37\n      swap2\n      swap1\n      tag_38\n      jump\t// in\n    tag_37:\n      mload(0x40)\n      dup1\n      swap2\n      sub\n      swap1\n      return\n        /* \"AEIOU.sol\":901:945  mapping(address => bool) public contributors */\n    tag_5:\n      callvalue\n      dup1\n      iszero\n      tag_39\n      jumpi\n      0x00\n      dup1\n      revert\n    tag_39:\n      pop\n      tag_40\n      0x04\n      dup1\n      calldatasize\n      sub\n      dup2\n      add\n      swap1\n      tag_41\n      swap2\n      swap1\n      tag_42\n      jump\t// in\n    tag_41:\n      tag_43\n      jump\t// in\n    tag_40:\n      mload(0x40)\n      tag_44\n      swap2\n      swap1\n      tag_45\n      jump\t// in\n    tag_44:\n      mload(0x40)\n      dup1\n      swap2\n      sub\n      swap1\n      return\n        /* \"AEIOU.sol\":2446:2846  function createRequest(string memory title, string memory desc, address receiver, uint amount) public restricted {... */\n    tag_6:\n      callvalue\n      dup1\n      iszero\n      tag_46\n      jumpi\n      0x00\n      dup1\n      revert\n    tag_46:\n      pop\n      tag_47\n      0x04\n      dup1\n      calldatasize\n      sub\n      dup2\n      add\n      swap1\n      tag_48\n      swap2\n      swap1\n      tag_49\n      jump\t// in\n    tag_48:\n      tag_50\n      jump\t// in\n    tag_47:\n      stop\n        /* \"AEIOU.sol\":2206:2299  function getRequestsCount() public view returns (uint){... */\n    tag_7:\n      callvalue\n      dup1\n      iszero\n      tag_51\n      jumpi\n      0x00\n      dup1\n      revert\n    tag_51:\n      pop\n      tag_52\n      tag_53\n      jump\t// in\n    tag_52:\n      mload(0x40)\n      tag_54\n      swap2\n      swap1\n      tag_38\n      jump\t// in\n    tag_54:\n      mload(0x40)\n      dup1\n      swap2\n      sub\n      swap1\n      return\n        /* \"AEIOU.sol\":783:806  string public imgSource */\n    tag_8:\n      callvalue\n      dup1\n      iszero\n      tag_55\n      jumpi\n      0x00\n      dup1\n      revert\n    tag_55:\n      pop\n      tag_56\n      tag_57\n      jump\t// in\n    tag_56:\n      mload(0x40)\n      tag_58\n      swap2\n      swap1\n      tag_59\n      jump\t// in\n    tag_58:\n      mload(0x40)\n      dup1\n      swap2\n      sub\n      swap1\n      return\n        /* \"AEIOU.sol\":3665:4074  function getSummary() public view returns (uint, uint, uint256, uint, uint, address, string memory, string memory, string memory) {... */\n    tag_9:\n      callvalue\n      dup1\n      iszero\n      tag_60\n      jumpi\n      0x00\n      dup1\n      revert\n    tag_60:\n      pop\n      tag_61\n      tag_62\n      jump\t// in\n    tag_61:\n      mload(0x40)\n      tag_63\n      swap10\n      swap9\n      swap8\n      swap7\n      swap6\n      swap5\n      swap4\n      swap3\n      swap2\n      swap1\n      tag_64\n      jump\t// in\n    tag_63:\n      mload(0x40)\n      dup1\n      swap2\n      sub\n      swap1\n      return\n        /* \"AEIOU.sol\":812:834  address public manager */\n    tag_10:\n      callvalue\n      dup1\n      iszero\n      tag_65\n      jumpi\n      0x00\n      dup1\n      revert\n    tag_65:\n      pop\n      tag_66\n      tag_67\n      jump\t// in\n    tag_66:\n      mload(0x40)\n      tag_68\n      swap2\n      swap1\n      tag_33\n      jump\t// in\n    tag_68:\n      mload(0x40)\n      dup1\n      swap2\n      sub\n      swap1\n      return\n        /* \"AEIOU.sol\":727:746  string public title */\n    tag_11:\n      callvalue\n      dup1\n      iszero\n      tag_69\n      jumpi\n      0x00\n      dup1\n      revert\n    tag_69:\n      pop\n      tag_70\n      tag_71\n      jump\t// in\n    tag_70:\n      mload(0x40)\n      tag_72\n      swap2\n      swap1\n      tag_59\n      jump\t// in\n    tag_72:\n      mload(0x40)\n      dup1\n      swap2\n      sub\n      swap1\n      return\n        /* \"AEIOU.sol\":1853:1962  function getAllContributors() public view returns (address[] memory) {... */\n    tag_12:\n      callvalue\n      dup1\n      iszero\n      tag_73\n      jumpi\n      0x00\n      dup1\n      revert\n    tag_73:\n      pop\n      tag_74\n      tag_75\n      jump\t// in\n    tag_74:\n      mload(0x40)\n      tag_76\n      swap2\n      swap1\n      tag_77\n      jump\t// in\n    tag_76:\n      mload(0x40)\n      dup1\n      swap2\n      sub\n      swap1\n      return\n        /* \"AEIOU.sol\":752:777  string public description */\n    tag_13:\n      callvalue\n      dup1\n      iszero\n      tag_78\n      jumpi\n      0x00\n      dup1\n      revert\n    tag_78:\n      pop\n      tag_79\n      tag_80\n      jump\t// in\n    tag_79:\n      mload(0x40)\n      tag_81\n      swap2\n      swap1\n      tag_59\n      jump\t// in\n    tag_81:\n      mload(0x40)\n      dup1\n      swap2\n      sub\n      swap1\n      return\n        /* \"AEIOU.sol\":1025:1050  Request[] public requests */\n    tag_14:\n      callvalue\n      dup1\n      iszero\n      tag_82\n      jumpi\n      0x00\n      dup1\n      revert\n    tag_82:\n      pop\n      tag_83\n      0x04\n      dup1\n      calldatasize\n      sub\n      dup2\n      add\n      swap1\n      tag_84\n      swap2\n      swap1\n      tag_26\n      jump\t// in\n    tag_84:\n      tag_85\n      jump\t// in\n    tag_83:\n      mload(0x40)\n      tag_86\n      swap7\n      swap6\n      swap5\n      swap4\n      swap3\n      swap2\n      swap1\n      tag_87\n      jump\t// in\n    tag_86:\n      mload(0x40)\n      dup1\n      swap2\n      sub\n      swap1\n      return\n        /* \"AEIOU.sol\":871:895  uint public targetAmount */\n    tag_15:\n      callvalue\n      dup1\n      iszero\n      tag_88\n      jumpi\n      0x00\n      dup1\n      revert\n    tag_88:\n      pop\n      tag_89\n      tag_90\n      jump\t// in\n    tag_89:\n      mload(0x40)\n      tag_91\n      swap2\n      swap1\n      tag_38\n      jump\t// in\n    tag_91:\n      mload(0x40)\n      dup1\n      swap2\n      sub\n      swap1\n      return\n        /* \"AEIOU.sol\":840:865  uint public minimumAmount */\n    tag_16:\n      callvalue\n      dup1\n      iszero\n      tag_92\n      jumpi\n      0x00\n      dup1\n      revert\n    tag_92:\n      pop\n      tag_93\n      tag_94\n      jump\t// in\n    tag_93:\n      mload(0x40)\n      tag_95\n      swap2\n      swap1\n      tag_38\n      jump\t// in\n    tag_95:\n      mload(0x40)\n      dup1\n      swap2\n      sub\n      swap1\n      return\n        /* \"AEIOU.sol\":1534:1780  function contribute() public payable {... */\n    tag_17:\n      tag_96\n      tag_97\n      jump\t// in\n    tag_96:\n      stop\n        /* \"AEIOU.sol\":2940:3214  function approveRequest(uint requestIndex) public {... */\n    tag_18:\n      callvalue\n      dup1\n      iszero\n      tag_98\n      jumpi\n      0x00\n      dup1\n      revert\n    tag_98:\n      pop\n      tag_99\n      0x04\n      dup1\n      calldatasize\n      sub\n      dup2\n      add\n      swap1\n      tag_100\n      swap2\n      swap1\n      tag_26\n      jump\t// in\n    tag_100:\n      tag_101\n      jump\t// in\n    tag_99:\n      stop\n        /* \"AEIOU.sol\":990:1019  uint public totalContributors */\n    tag_19:\n      callvalue\n      dup1\n      iszero\n      tag_102\n      jumpi\n      0x00\n      dup1\n      revert\n    tag_102:\n      pop\n      tag_103\n      tag_104\n      jump\t// in\n    tag_103:\n      mload(0x40)\n      tag_105\n      swap2\n      swap1\n      tag_38\n      jump\t// in\n    tag_105:\n      mload(0x40)\n      dup1\n      swap2\n      sub\n      swap1\n      return\n        /* \"AEIOU.sol\":3273:3607  function finalizeRequest(uint requestIndex) public restricted {... */\n    tag_27:\n        /* \"AEIOU.sol\":4152:4159  manager */\n      0x03\n      0x00\n      swap1\n      sload\n      swap1\n      0x0100\n      exp\n      swap1\n      div\n      0xffffffffffffffffffffffffffffffffffffffff\n      and\n        /* \"AEIOU.sol\":4138:4159  msg.sender == manager */\n      0xffffffffffffffffffffffffffffffffffffffff\n      and\n        /* \"AEIOU.sol\":4138:4148  msg.sender */\n      caller\n        /* \"AEIOU.sol\":4138:4159  msg.sender == manager */\n      0xffffffffffffffffffffffffffffffffffffffff\n      and\n      eq\n        /* \"AEIOU.sol\":4130:4160  require(msg.sender == manager) */\n      tag_107\n      jumpi\n      0x00\n      dup1\n      revert\n    tag_107:\n        /* \"AEIOU.sol\":3412:3413  2 */\n      0x02\n        /* \"AEIOU.sol\":3392:3409  totalContributors */\n      sload(0x08)\n        /* \"AEIOU.sol\":3392:3413  totalContributors / 2 */\n      tag_109\n      swap2\n      swap1\n      tag_110\n      jump\t// in\n    tag_109:\n        /* \"AEIOU.sol\":3351:3359  requests */\n      0x09\n        /* \"AEIOU.sol\":3360:3372  requestIndex */\n      dup3\n        /* \"AEIOU.sol\":3351:3373  requests[requestIndex] */\n      dup2\n      sload\n      dup2\n      lt\n      tag_111\n      jumpi\n      tag_112\n      tag_113\n      jump\t// in\n    tag_112:\n    tag_111:\n      swap1\n      0x00\n      mstore\n      keccak256(0x00, 0x20)\n      swap1\n      0x07\n      mul\n      add\n        /* \"AEIOU.sol\":3351:3388  requests[requestIndex].approvalsCount */\n      0x04\n      add\n      sload\n        /* \"AEIOU.sol\":3351:3414  requests[requestIndex].approvalsCount > (totalContributors / 2) */\n      gt\n        /* \"AEIOU.sol\":3343:3415  require(requests[requestIndex].approvalsCount > (totalContributors / 2)) */\n      tag_115\n      jumpi\n      0x00\n      dup1\n      revert\n    tag_115:\n        /* \"AEIOU.sol\":3432:3440  requests */\n      0x09\n        /* \"AEIOU.sol\":3441:3453  requestIndex */\n      dup2\n        /* \"AEIOU.sol\":3432:3454  requests[requestIndex] */\n      dup2\n      sload\n      dup2\n      lt\n      tag_116\n      jumpi\n      tag_117\n      tag_113\n      jump\t// in\n    tag_117:\n    tag_116:\n      swap1\n      0x00\n      mstore\n      keccak256(0x00, 0x20)\n      swap1\n      0x07\n      mul\n      add\n        /* \"AEIOU.sol\":3432:3464  requests[requestIndex].completed */\n      0x05\n      add\n      0x00\n      swap1\n      sload\n      swap1\n      0x0100\n      exp\n      swap1\n      div\n      0xff\n      and\n        /* \"AEIOU.sol\":3431:3464  !requests[requestIndex].completed */\n      iszero\n        /* \"AEIOU.sol\":3423:3465  require(!requests[requestIndex].completed) */\n      tag_119\n      jumpi\n      0x00\n      dup1\n      revert\n    tag_119:\n        /* \"AEIOU.sol\":3481:3489  requests */\n      0x09\n        /* \"AEIOU.sol\":3490:3502  requestIndex */\n      dup2\n        /* \"AEIOU.sol\":3481:3503  requests[requestIndex] */\n      dup2\n      sload\n      dup2\n      lt\n      tag_120\n      jumpi\n      tag_121\n      tag_113\n      jump\t// in\n    tag_121:\n    tag_120:\n      swap1\n      0x00\n      mstore\n      keccak256(0x00, 0x20)\n      swap1\n      0x07\n      mul\n      add\n        /* \"AEIOU.sol\":3481:3512  requests[requestIndex].receiver */\n      0x02\n      add\n      0x00\n      swap1\n      sload\n      swap1\n      0x0100\n      exp\n      swap1\n      div\n      0xffffffffffffffffffffffffffffffffffffffff\n      and\n        /* \"AEIOU.sol\":3473:3522  payable(requests[requestIndex].receiver).transfer */\n      0xffffffffffffffffffffffffffffffffffffffff\n      and\n        /* \"AEIOU.sol\":3473:3553  payable(requests[requestIndex].receiver).transfer(requests[requestIndex].amount) */\n      0x08fc\n        /* \"AEIOU.sol\":3523:3531  requests */\n      0x09\n        /* \"AEIOU.sol\":3532:3544  requestIndex */\n      dup4\n        /* \"AEIOU.sol\":3523:3545  requests[requestIndex] */\n      dup2\n      sload\n      dup2\n      lt\n      tag_123\n      jumpi\n      tag_124\n      tag_113\n      jump\t// in\n    tag_124:\n    tag_123:\n      swap1\n      0x00\n      mstore\n      keccak256(0x00, 0x20)\n      swap1\n      0x07\n      mul\n      add\n        /* \"AEIOU.sol\":3523:3552  requests[requestIndex].amount */\n      0x03\n      add\n      sload\n        /* \"AEIOU.sol\":3473:3553  payable(requests[requestIndex].receiver).transfer(requests[requestIndex].amount) */\n      swap1\n      dup2\n      iszero\n      mul\n      swap1\n      mload(0x40)\n      0x00\n      mload(0x40)\n      dup1\n      dup4\n      sub\n      dup2\n      dup6\n      dup9\n      dup9\n      call\n      swap4\n      pop\n      pop\n      pop\n      pop\n      iszero\n      dup1\n      iszero\n      tag_127\n      jumpi\n      returndatasize\n      0x00\n      dup1\n      returndatacopy\n      revert(0x00, returndatasize)\n    tag_127:\n      pop\n        /* \"AEIOU.sol\":3596:3600  true */\n      0x01\n        /* \"AEIOU.sol\":3561:3569  requests */\n      0x09\n        /* \"AEIOU.sol\":3570:3582  requestIndex */\n      dup3\n        /* \"AEIOU.sol\":3561:3583  requests[requestIndex] */\n      dup2\n      sload\n      dup2\n      lt\n      tag_128\n      jumpi\n      tag_129\n      tag_113\n      jump\t// in\n    tag_129:\n    tag_128:\n      swap1\n      0x00\n      mstore\n      keccak256(0x00, 0x20)\n      swap1\n      0x07\n      mul\n      add\n        /* \"AEIOU.sol\":3561:3593  requests[requestIndex].completed */\n      0x05\n      add\n      0x00\n        /* \"AEIOU.sol\":3561:3600  requests[requestIndex].completed = true */\n      0x0100\n      exp\n      dup2\n      sload\n      dup2\n      0xff\n      mul\n      not\n      and\n      swap1\n      dup4\n      iszero\n      iszero\n      mul\n      or\n      swap1\n      sstore\n      pop\n        /* \"AEIOU.sol\":3273:3607  function finalizeRequest(uint requestIndex) public restricted {... */\n      pop\n      jump\t// out\n        /* \"AEIOU.sol\":951:984  address[] public contributorsList */\n    tag_31:\n      0x07\n      dup2\n      dup2\n      sload\n      dup2\n      lt\n      tag_131\n      jumpi\n      0x00\n      dup1\n      revert\n    tag_131:\n      swap1\n      0x00\n      mstore\n      keccak256(0x00, 0x20)\n      add\n      0x00\n      swap2\n      pop\n      sload\n      swap1\n      0x0100\n      exp\n      swap1\n      div\n      0xffffffffffffffffffffffffffffffffffffffff\n      and\n      dup2\n      jump\t// out\n        /* \"AEIOU.sol\":2034:2139  function getBalance() public view returns(uint256) {... */\n    tag_36:\n        /* \"AEIOU.sol\":2076:2083  uint256 */\n      0x00\n        /* \"AEIOU.sol\":2118:2122  this */\n      address\n        /* \"AEIOU.sol\":2102:2132  payable(address(this)).balance */\n      0xffffffffffffffffffffffffffffffffffffffff\n      and\n      balance\n        /* \"AEIOU.sol\":2095:2132  return payable(address(this)).balance */\n      swap1\n      pop\n        /* \"AEIOU.sol\":2034:2139  function getBalance() public view returns(uint256) {... */\n      swap1\n      jump\t// out\n        /* \"AEIOU.sol\":901:945  mapping(address => bool) public contributors */\n    tag_43:\n      mstore(0x20, 0x06)\n      dup1\n      0x00\n      mstore\n      keccak256(0x00, 0x40)\n      0x00\n      swap2\n      pop\n      sload\n      swap1\n      0x0100\n      exp\n      swap1\n      div\n      0xff\n      and\n      dup2\n      jump\t// out\n        /* \"AEIOU.sol\":2446:2846  function createRequest(string memory title, string memory desc, address receiver, uint amount) public restricted {... */\n    tag_50:\n        /* \"AEIOU.sol\":4152:4159  manager */\n      0x03\n      0x00\n      swap1\n      sload\n      swap1\n      0x0100\n      exp\n      swap1\n      div\n      0xffffffffffffffffffffffffffffffffffffffff\n      and\n        /* \"AEIOU.sol\":4138:4159  msg.sender == manager */\n      0xffffffffffffffffffffffffffffffffffffffff\n      and\n        /* \"AEIOU.sol\":4138:4148  msg.sender */\n      caller\n        /* \"AEIOU.sol\":4138:4159  msg.sender == manager */\n      0xffffffffffffffffffffffffffffffffffffffff\n      and\n      eq\n        /* \"AEIOU.sol\":4130:4160  require(msg.sender == manager) */\n      tag_135\n      jumpi\n      0x00\n      dup1\n      revert\n    tag_135:\n        /* \"AEIOU.sol\":2569:2595  Request storage newRequest */\n      0x00\n        /* \"AEIOU.sol\":2598:2606  requests */\n      0x09\n        /* \"AEIOU.sol\":2598:2613  requests.push() */\n      0x01\n      dup2\n      0x01\n      dup2\n      sload\n      add\n      dup1\n      dup3\n      sstore\n      dup1\n      swap2\n      pop\n      pop\n      sub\n      swap1\n      0x00\n      mstore\n      keccak256(0x00, 0x20)\n      swap1\n      0x07\n      mul\n      add\n        /* \"AEIOU.sol\":2569:2613  Request storage newRequest = requests.push() */\n      swap1\n      pop\n        /* \"AEIOU.sol\":2642:2647  title */\n      dup5\n        /* \"AEIOU.sol\":2623:2633  newRequest */\n      dup2\n        /* \"AEIOU.sol\":2623:2639  newRequest.title */\n      0x00\n      add\n        /* \"AEIOU.sol\":2623:2647  newRequest.title = title */\n      swap1\n      dup1\n      mload\n      swap1\n      0x20\n      add\n      swap1\n      tag_138\n      swap3\n      swap2\n      swap1\n      tag_139\n      jump\t// in\n    tag_138:\n      pop\n        /* \"AEIOU.sol\":2682:2686  desc */\n      dup4\n        /* \"AEIOU.sol\":2657:2667  newRequest */\n      dup2\n        /* \"AEIOU.sol\":2657:2679  newRequest.description */\n      0x01\n      add\n        /* \"AEIOU.sol\":2657:2686  newRequest.description = desc */\n      swap1\n      dup1\n      mload\n      swap1\n      0x20\n      add\n      swap1\n      tag_140\n      swap3\n      swap2\n      swap1\n      tag_139\n      jump\t// in\n    tag_140:\n      pop\n        /* \"AEIOU.sol\":2718:2726  receiver */\n      dup3\n        /* \"AEIOU.sol\":2696:2706  newRequest */\n      dup2\n        /* \"AEIOU.sol\":2696:2715  newRequest.receiver */\n      0x02\n      add\n      0x00\n        /* \"AEIOU.sol\":2696:2726  newRequest.receiver = receiver */\n      0x0100\n      exp\n      dup2\n      sload\n      dup2\n      0xffffffffffffffffffffffffffffffffffffffff\n      mul\n      not\n      and\n      swap1\n      dup4\n      0xffffffffffffffffffffffffffffffffffffffff\n      and\n      mul\n      or\n      swap1\n      sstore\n      pop\n        /* \"AEIOU.sol\":2756:2762  amount */\n      dup2\n        /* \"AEIOU.sol\":2736:2746  newRequest */\n      dup2\n        /* \"AEIOU.sol\":2736:2753  newRequest.amount */\n      0x03\n      add\n        /* \"AEIOU.sol\":2736:2762  newRequest.amount = amount */\n      dup2\n      swap1\n      sstore\n      pop\n        /* \"AEIOU.sol\":2795:2800  false */\n      0x00\n        /* \"AEIOU.sol\":2772:2782  newRequest */\n      dup2\n        /* \"AEIOU.sol\":2772:2792  newRequest.completed */\n      0x05\n      add\n      0x00\n        /* \"AEIOU.sol\":2772:2800  newRequest.completed = false */\n      0x0100\n      exp\n      dup2\n      sload\n      dup2\n      0xff\n      mul\n      not\n      and\n      swap1\n      dup4\n      iszero\n      iszero\n      mul\n      or\n      swap1\n      sstore\n      pop\n        /* \"AEIOU.sol\":2838:2839  0 */\n      0x00\n        /* \"AEIOU.sol\":2810:2820  newRequest */\n      dup2\n        /* \"AEIOU.sol\":2810:2835  newRequest.approvalsCount */\n      0x04\n      add\n        /* \"AEIOU.sol\":2810:2839  newRequest.approvalsCount = 0 */\n      dup2\n      swap1\n      sstore\n      pop\n        /* \"AEIOU.sol\":2559:2846  {... */\n      pop\n        /* \"AEIOU.sol\":2446:2846  function createRequest(string memory title, string memory desc, address receiver, uint amount) public restricted {... */\n      pop\n      pop\n      pop\n      pop\n      jump\t// out\n        /* \"AEIOU.sol\":2206:2299  function getRequestsCount() public view returns (uint){... */\n    tag_53:\n        /* \"AEIOU.sol\":2255:2259  uint */\n      0x00\n        /* \"AEIOU.sol\":2277:2285  requests */\n      0x09\n        /* \"AEIOU.sol\":2277:2292  requests.length */\n      dup1\n      sload\n      swap1\n      pop\n        /* \"AEIOU.sol\":2270:2292  return requests.length */\n      swap1\n      pop\n        /* \"AEIOU.sol\":2206:2299  function getRequestsCount() public view returns (uint){... */\n      swap1\n      jump\t// out\n        /* \"AEIOU.sol\":783:806  string public imgSource */\n    tag_57:\n      0x02\n      dup1\n      sload\n      tag_142\n      swap1\n      tag_143\n      jump\t// in\n    tag_142:\n      dup1\n      0x1f\n      add\n      0x20\n      dup1\n      swap2\n      div\n      mul\n      0x20\n      add\n      mload(0x40)\n      swap1\n      dup2\n      add\n      0x40\n      mstore\n      dup1\n      swap3\n      swap2\n      swap1\n      dup2\n      dup2\n      mstore\n      0x20\n      add\n      dup3\n      dup1\n      sload\n      tag_144\n      swap1\n      tag_143\n      jump\t// in\n    tag_144:\n      dup1\n      iszero\n      tag_145\n      jumpi\n      dup1\n      0x1f\n      lt\n      tag_146\n      jumpi\n      0x0100\n      dup1\n      dup4\n      sload\n      div\n      mul\n      dup4\n      mstore\n      swap2\n      0x20\n      add\n      swap2\n      jump(tag_145)\n    tag_146:\n      dup3\n      add\n      swap2\n      swap1\n      0x00\n      mstore\n      keccak256(0x00, 0x20)\n      swap1\n    tag_147:\n      dup2\n      sload\n      dup2\n      mstore\n      swap1\n      0x01\n      add\n      swap1\n      0x20\n      add\n      dup1\n      dup4\n      gt\n      tag_147\n      jumpi\n      dup3\n      swap1\n      sub\n      0x1f\n      and\n      dup3\n      add\n      swap2\n    tag_145:\n      pop\n      pop\n      pop\n      pop\n      pop\n      dup2\n      jump\t// out\n        /* \"AEIOU.sol\":3665:4074  function getSummary() public view returns (uint, uint, uint256, uint, uint, address, string memory, string memory, string memory) {... */\n    tag_62:\n        /* \"AEIOU.sol\":3708:3712  uint */\n      0x00\n        /* \"AEIOU.sol\":3714:3718  uint */\n      dup1\n        /* \"AEIOU.sol\":3720:3727  uint256 */\n      0x00\n        /* \"AEIOU.sol\":3729:3733  uint */\n      dup1\n        /* \"AEIOU.sol\":3735:3739  uint */\n      0x00\n        /* \"AEIOU.sol\":3741:3748  address */\n      dup1\n        /* \"AEIOU.sol\":3750:3763  string memory */\n      0x60\n        /* \"AEIOU.sol\":3765:3778  string memory */\n      dup1\n        /* \"AEIOU.sol\":3780:3793  string memory */\n      0x60\n        /* \"AEIOU.sol\":3826:3839  minimumAmount */\n      sload(0x04)\n        /* \"AEIOU.sol\":3853:3865  targetAmount */\n      sload(0x05)\n        /* \"AEIOU.sol\":3895:3899  this */\n      address\n        /* \"AEIOU.sol\":3879:3909  payable(address(this)).balance */\n      0xffffffffffffffffffffffffffffffffffffffff\n      and\n      balance\n        /* \"AEIOU.sol\":3923:3931  requests */\n      0x09\n        /* \"AEIOU.sol\":3923:3938  requests.length */\n      dup1\n      sload\n      swap1\n      pop\n        /* \"AEIOU.sol\":3952:3969  totalContributors */\n      sload(0x08)\n        /* \"AEIOU.sol\":3983:3990  manager */\n      0x03\n      0x00\n      swap1\n      sload\n      swap1\n      0x0100\n      exp\n      swap1\n      div\n      0xffffffffffffffffffffffffffffffffffffffff\n      and\n        /* \"AEIOU.sol\":4004:4009  title */\n      0x00\n        /* \"AEIOU.sol\":4023:4034  description */\n      0x01\n        /* \"AEIOU.sol\":4048:4057  imgSource */\n      0x02\n        /* \"AEIOU.sol\":3805:4067  return (... */\n      dup3\n      dup1\n      sload\n      tag_149\n      swap1\n      tag_143\n      jump\t// in\n    tag_149:\n      dup1\n      0x1f\n      add\n      0x20\n      dup1\n      swap2\n      div\n      mul\n      0x20\n      add\n      mload(0x40)\n      swap1\n      dup2\n      add\n      0x40\n      mstore\n      dup1\n      swap3\n      swap2\n      swap1\n      dup2\n      dup2\n      mstore\n      0x20\n      add\n      dup3\n      dup1\n      sload\n      tag_150\n      swap1\n      tag_143\n      jump\t// in\n    tag_150:\n      dup1\n      iszero\n      tag_151\n      jumpi\n      dup1\n      0x1f\n      lt\n      tag_152\n      jumpi\n      0x0100\n      dup1\n      dup4\n      sload\n      div\n      mul\n      dup4\n      mstore\n      swap2\n      0x20\n      add\n      swap2\n      jump(tag_151)\n    tag_152:\n      dup3\n      add\n      swap2\n      swap1\n      0x00\n      mstore\n      keccak256(0x00, 0x20)\n      swap1\n    tag_153:\n      dup2\n      sload\n      dup2\n      mstore\n      swap1\n      0x01\n      add\n      swap1\n      0x20\n      add\n      dup1\n      dup4\n      gt\n      tag_153\n      jumpi\n      dup3\n      swap1\n      sub\n      0x1f\n      and\n      dup3\n      add\n      swap2\n    tag_151:\n      pop\n      pop\n      pop\n      pop\n      pop\n      swap3\n      pop\n      dup2\n      dup1\n      sload\n      tag_154\n      swap1\n      tag_143\n      jump\t// in\n    tag_154:\n      dup1\n      0x1f\n      add\n      0x20\n      dup1\n      swap2\n      div\n      mul\n      0x20\n      add\n      mload(0x40)\n      swap1\n      dup2\n      add\n      0x40\n      mstore\n      dup1\n      swap3\n      swap2\n      swap1\n      dup2\n      dup2\n      mstore\n      0x20\n      add\n      dup3\n      dup1\n      sload\n      tag_155\n      swap1\n      tag_143\n      jump\t// in\n    tag_155:\n      dup1\n      iszero\n      tag_156\n      jumpi\n      dup1\n      0x1f\n      lt\n      tag_157\n      jumpi\n      0x0100\n      dup1\n      dup4\n      sload\n      div\n      mul\n      dup4\n      mstore\n      swap2\n      0x20\n      add\n      swap2\n      jump(tag_156)\n    tag_157:\n      dup3\n      add\n      swap2\n      swap1\n      0x00\n      mstore\n      keccak256(0x00, 0x20)\n      swap1\n    tag_158:\n      dup2\n      sload\n      dup2\n      mstore\n      swap1\n      0x01\n      add\n      swap1\n      0x20\n      add\n      dup1\n      dup4\n      gt\n      tag_158\n      jumpi\n      dup3\n      swap1\n      sub\n      0x1f\n      and\n      dup3\n      add\n      swap2\n    tag_156:\n      pop\n      pop\n      pop\n      pop\n      pop\n      swap2\n      pop\n      dup1\n      dup1\n      sload\n      tag_159\n      swap1\n      tag_143\n      jump\t// in\n    tag_159:\n      dup1\n      0x1f\n      add\n      0x20\n      dup1\n      swap2\n      div\n      mul\n      0x20\n      add\n      mload(0x40)\n      swap1\n      dup2\n      add\n      0x40\n      mstore\n      dup1\n      swap3\n      swap2\n      swap1\n      dup2\n      dup2\n      mstore\n      0x20\n      add\n      dup3\n      dup1\n      sload\n      tag_160\n      swap1\n      tag_143\n      jump\t// in\n    tag_160:\n      dup1\n      iszero\n      tag_161\n      jumpi\n      dup1\n      0x1f\n      lt\n      tag_162\n      jumpi\n      0x0100\n      dup1\n      dup4\n      sload\n      div\n      mul\n      dup4\n      mstore\n      swap2\n      0x20\n      add\n      swap2\n      jump(tag_161)\n    tag_162:\n      dup3\n      add\n      swap2\n      swap1\n      0x00\n      mstore\n      keccak256(0x00, 0x20)\n      swap1\n    tag_163:\n      dup2\n      sload\n      dup2\n      mstore\n      swap1\n      0x01\n      add\n      swap1\n      0x20\n      add\n      dup1\n      dup4\n      gt\n      tag_163\n      jumpi\n      dup3\n      swap1\n      sub\n      0x1f\n      and\n      dup3\n      add\n      swap2\n    tag_161:\n      pop\n      pop\n      pop\n      pop\n      pop\n      swap1\n      pop\n      swap9\n      pop\n      swap9\n      pop\n      swap9\n      pop\n      swap9\n      pop\n      swap9\n      pop\n      swap9\n      pop\n      swap9\n      pop\n      swap9\n      pop\n      swap9\n      pop\n        /* \"AEIOU.sol\":3665:4074  function getSummary() public view returns (uint, uint, uint256, uint, uint, address, string memory, string memory, string memory) {... */\n      swap1\n      swap2\n      swap3\n      swap4\n      swap5\n      swap6\n      swap7\n      swap8\n      swap9\n      jump\t// out\n        /* \"AEIOU.sol\":812:834  address public manager */\n    tag_67:\n      0x03\n      0x00\n      swap1\n      sload\n      swap1\n      0x0100\n      exp\n      swap1\n      div\n      0xffffffffffffffffffffffffffffffffffffffff\n      and\n      dup2\n      jump\t// out\n        /* \"AEIOU.sol\":727:746  string public title */\n    tag_71:\n      0x00\n      dup1\n      sload\n      tag_164\n      swap1\n      tag_143\n      jump\t// in\n    tag_164:\n      dup1\n      0x1f\n      add\n      0x20\n      dup1\n      swap2\n      div\n      mul\n      0x20\n      add\n      mload(0x40)\n      swap1\n      dup2\n      add\n      0x40\n      mstore\n      dup1\n      swap3\n      swap2\n      swap1\n      dup2\n      dup2\n      mstore\n      0x20\n      add\n      dup3\n      dup1\n      sload\n      tag_165\n      swap1\n      tag_143\n      jump\t// in\n    tag_165:\n      dup1\n      iszero\n      tag_166\n      jumpi\n      dup1\n      0x1f\n      lt\n      tag_167\n      jumpi\n      0x0100\n      dup1\n      dup4\n      sload\n      div\n      mul\n      dup4\n      mstore\n      swap2\n      0x20\n      add\n      swap2\n      jump(tag_166)\n    tag_167:\n      dup3\n      add\n      swap2\n      swap1\n      0x00\n      mstore\n      keccak256(0x00, 0x20)\n      swap1\n    tag_168:\n      dup2\n      sload\n      dup2\n      mstore\n      swap1\n      0x01\n      add\n      swap1\n      0x20\n      add\n      dup1\n      dup4\n      gt\n      tag_168\n      jumpi\n      dup3\n      swap1\n      sub\n      0x1f\n      and\n      dup3\n      add\n      swap2\n    tag_166:\n      pop\n      pop\n      pop\n      pop\n      pop\n      dup2\n      jump\t// out\n        /* \"AEIOU.sol\":1853:1962  function getAllContributors() public view returns (address[] memory) {... */\n    tag_75:\n        /* \"AEIOU.sol\":1904:1920  address[] memory */\n      0x60\n        /* \"AEIOU.sol\":1939:1955  contributorsList */\n      0x07\n        /* \"AEIOU.sol\":1932:1955  return contributorsList */\n      dup1\n      sload\n      dup1\n      0x20\n      mul\n      0x20\n      add\n      mload(0x40)\n      swap1\n      dup2\n      add\n      0x40\n      mstore\n      dup1\n      swap3\n      swap2\n      swap1\n      dup2\n      dup2\n      mstore\n      0x20\n      add\n      dup3\n      dup1\n      sload\n      dup1\n      iszero\n      tag_170\n      jumpi\n      0x20\n      mul\n      dup3\n      add\n      swap2\n      swap1\n      0x00\n      mstore\n      keccak256(0x00, 0x20)\n      swap1\n    tag_171:\n      dup2\n      0x00\n      swap1\n      sload\n      swap1\n      0x0100\n      exp\n      swap1\n      div\n      0xffffffffffffffffffffffffffffffffffffffff\n      and\n      0xffffffffffffffffffffffffffffffffffffffff\n      and\n      dup2\n      mstore\n      0x20\n      add\n      swap1\n      0x01\n      add\n      swap1\n      dup1\n      dup4\n      gt\n      tag_171\n      jumpi\n    tag_170:\n      pop\n      pop\n      pop\n      pop\n      pop\n      swap1\n      pop\n        /* \"AEIOU.sol\":1853:1962  function getAllContributors() public view returns (address[] memory) {... */\n      swap1\n      jump\t// out\n        /* \"AEIOU.sol\":752:777  string public description */\n    tag_80:\n      0x01\n      dup1\n      sload\n      tag_172\n      swap1\n      tag_143\n      jump\t// in\n    tag_172:\n      dup1\n      0x1f\n      add\n      0x20\n      dup1\n      swap2\n      div\n      mul\n      0x20\n      add\n      mload(0x40)\n      swap1\n      dup2\n      add\n      0x40\n      mstore\n      dup1\n      swap3\n      swap2\n      swap1\n      dup2\n      dup2\n      mstore\n      0x20\n      add\n      dup3\n      dup1\n      sload\n      tag_173\n      swap1\n      tag_143\n      jump\t// in\n    tag_173:\n      dup1\n      iszero\n      tag_174\n      jumpi\n      dup1\n      0x1f\n      lt\n      tag_175\n      jumpi\n      0x0100\n      dup1\n      dup4\n      sload\n      div\n      mul\n      dup4\n      mstore\n      swap2\n      0x20\n      add\n      swap2\n      jump(tag_174)\n    tag_175:\n      dup3\n      add\n      swap2\n      swap1\n      0x00\n      mstore\n      keccak256(0x00, 0x20)\n      swap1\n    tag_176:\n      dup2\n      sload\n      dup2\n      mstore\n      swap1\n      0x01\n      add\n      swap1\n      0x20\n      add\n      dup1\n      dup4\n      gt\n      tag_176\n      jumpi\n      dup3\n      swap1\n      sub\n      0x1f\n      and\n      dup3\n      add\n      swap2\n    tag_174:\n      pop\n      pop\n      pop\n      pop\n      pop\n      dup2\n      jump\t// out\n        /* \"AEIOU.sol\":1025:1050  Request[] public requests */\n    tag_85:\n      0x09\n      dup2\n      dup2\n      sload\n      dup2\n      lt\n      tag_177\n      jumpi\n      0x00\n      dup1\n      revert\n    tag_177:\n      swap1\n      0x00\n      mstore\n      keccak256(0x00, 0x20)\n      swap1\n      0x07\n      mul\n      add\n      0x00\n      swap2\n      pop\n      swap1\n      pop\n      dup1\n      0x00\n      add\n      dup1\n      sload\n      tag_179\n      swap1\n      tag_143\n      jump\t// in\n    tag_179:\n      dup1\n      0x1f\n      add\n      0x20\n      dup1\n      swap2\n      div\n      mul\n      0x20\n      add\n      mload(0x40)\n      swap1\n      dup2\n      add\n      0x40\n      mstore\n      dup1\n      swap3\n      swap2\n      swap1\n      dup2\n      dup2\n      mstore\n      0x20\n      add\n      dup3\n      dup1\n      sload\n      tag_180\n      swap1\n      tag_143\n      jump\t// in\n    tag_180:\n      dup1\n      iszero\n      tag_181\n      jumpi\n      dup1\n      0x1f\n      lt\n      tag_182\n      jumpi\n      0x0100\n      dup1\n      dup4\n      sload\n      div\n      mul\n      dup4\n      mstore\n      swap2\n      0x20\n      add\n      swap2\n      jump(tag_181)\n    tag_182:\n      dup3\n      add\n      swap2\n      swap1\n      0x00\n      mstore\n      keccak256(0x00, 0x20)\n      swap1\n    tag_183:\n      dup2\n      sload\n      dup2\n      mstore\n      swap1\n      0x01\n      add\n      swap1\n      0x20\n      add\n      dup1\n      dup4\n      gt\n      tag_183\n      jumpi\n      dup3\n      swap1\n      sub\n      0x1f\n      and\n      dup3\n      add\n      swap2\n    tag_181:\n      pop\n      pop\n      pop\n      pop\n      pop\n      swap1\n      dup1\n      0x01\n      add\n      dup1\n      sload\n      tag_184\n      swap1\n      tag_143\n      jump\t// in\n    tag_184:\n      dup1\n      0x1f\n      add\n      0x20\n      dup1\n      swap2\n      div\n      mul\n      0x20\n      add\n      mload(0x40)\n      swap1\n      dup2\n      add\n      0x40\n      mstore\n      dup1\n      swap3\n      swap2\n      swap1\n      dup2\n      dup2\n      mstore\n      0x20\n      add\n      dup3\n      dup1\n      sload\n      tag_185\n      swap1\n      tag_143\n      jump\t// in\n    tag_185:\n      dup1\n      iszero\n      tag_186\n      jumpi\n      dup1\n      0x1f\n      lt\n      tag_187\n      jumpi\n      0x0100\n      dup1\n      dup4\n      sload\n      div\n      mul\n      dup4\n      mstore\n      swap2\n      0x20\n      add\n      swap2\n      jump(tag_186)\n    tag_187:\n      dup3\n      add\n      swap2\n      swap1\n      0x00\n      mstore\n      keccak256(0x00, 0x20)\n      swap1\n    tag_188:\n      dup2\n      sload\n      dup2\n      mstore\n      swap1\n      0x01\n      add\n      swap1\n      0x20\n      add\n      dup1\n      dup4\n      gt\n      tag_188\n      jumpi\n      dup3\n      swap1\n      sub\n      0x1f\n      and\n      dup3\n      add\n      swap2\n    tag_186:\n      pop\n      pop\n      pop\n      pop\n      pop\n      swap1\n      dup1\n      0x02\n      add\n      0x00\n      swap1\n      sload\n      swap1\n      0x0100\n      exp\n      swap1\n      div\n      0xffffffffffffffffffffffffffffffffffffffff\n      and\n      swap1\n      dup1\n      0x03\n      add\n      sload\n      swap1\n      dup1\n      0x04\n      add\n      sload\n      swap1\n      dup1\n      0x05\n      add\n      0x00\n      swap1\n      sload\n      swap1\n      0x0100\n      exp\n      swap1\n      div\n      0xff\n      and\n      swap1\n      pop\n      dup7\n      jump\t// out\n        /* \"AEIOU.sol\":871:895  uint public targetAmount */\n    tag_90:\n      sload(0x05)\n      dup2\n      jump\t// out\n        /* \"AEIOU.sol\":840:865  uint public minimumAmount */\n    tag_94:\n      sload(0x04)\n      dup2\n      jump\t// out\n        /* \"AEIOU.sol\":1534:1780  function contribute() public payable {... */\n    tag_97:\n        /* \"AEIOU.sol\":1602:1615  minimumAmount */\n      sload(0x04)\n        /* \"AEIOU.sol\":1589:1598  msg.value */\n      callvalue\n        /* \"AEIOU.sol\":1589:1615  msg.value >= minimumAmount */\n      lt\n      iszero\n        /* \"AEIOU.sol\":1581:1616  require(msg.value >= minimumAmount) */\n      tag_190\n      jumpi\n      0x00\n      dup1\n      revert\n    tag_190:\n        /* \"AEIOU.sol\":1635:1647  contributors */\n      0x06\n        /* \"AEIOU.sol\":1635:1659  contributors[msg.sender] */\n      0x00\n        /* \"AEIOU.sol\":1648:1658  msg.sender */\n      caller\n        /* \"AEIOU.sol\":1635:1659  contributors[msg.sender] */\n      0xffffffffffffffffffffffffffffffffffffffff\n      and\n      0xffffffffffffffffffffffffffffffffffffffff\n      and\n      dup2\n      mstore\n      0x20\n      add\n      swap1\n      dup2\n      mstore\n      0x20\n      add\n      0x00\n      keccak256\n      0x00\n      swap1\n      sload\n      swap1\n      0x0100\n      exp\n      swap1\n      div\n      0xff\n      and\n        /* \"AEIOU.sol\":1634:1659  !contributors[msg.sender] */\n      iszero\n        /* \"AEIOU.sol\":1626:1660  require(!contributors[msg.sender]) */\n      tag_191\n      jumpi\n      0x00\n      dup1\n      revert\n    tag_191:\n        /* \"AEIOU.sol\":1697:1701  true */\n      0x01\n        /* \"AEIOU.sol\":1670:1682  contributors */\n      0x06\n        /* \"AEIOU.sol\":1670:1694  contributors[msg.sender] */\n      0x00\n        /* \"AEIOU.sol\":1683:1693  msg.sender */\n      caller\n        /* \"AEIOU.sol\":1670:1694  contributors[msg.sender] */\n      0xffffffffffffffffffffffffffffffffffffffff\n      and\n      0xffffffffffffffffffffffffffffffffffffffff\n      and\n      dup2\n      mstore\n      0x20\n      add\n      swap1\n      dup2\n      mstore\n      0x20\n      add\n      0x00\n      keccak256\n      0x00\n        /* \"AEIOU.sol\":1670:1701  contributors[msg.sender] = true */\n      0x0100\n      exp\n      dup2\n      sload\n      dup2\n      0xff\n      mul\n      not\n      and\n      swap1\n      dup4\n      iszero\n      iszero\n      mul\n      or\n      swap1\n      sstore\n      pop\n        /* \"AEIOU.sol\":1711:1727  contributorsList */\n      0x07\n        /* \"AEIOU.sol\":1733:1743  msg.sender */\n      caller\n        /* \"AEIOU.sol\":1711:1744  contributorsList.push(msg.sender) */\n      swap1\n      dup1\n      0x01\n      dup2\n      sload\n      add\n      dup1\n      dup3\n      sstore\n      dup1\n      swap2\n      pop\n      pop\n      0x01\n      swap1\n      sub\n      swap1\n      0x00\n      mstore\n      keccak256(0x00, 0x20)\n      add\n      0x00\n      swap1\n      swap2\n      swap1\n      swap2\n      swap1\n      swap2\n      0x0100\n      exp\n      dup2\n      sload\n      dup2\n      0xffffffffffffffffffffffffffffffffffffffff\n      mul\n      not\n      and\n      swap1\n      dup4\n      0xffffffffffffffffffffffffffffffffffffffff\n      and\n      mul\n      or\n      swap1\n      sstore\n      pop\n        /* \"AEIOU.sol\":1754:1771  totalContributors */\n      0x08\n      0x00\n        /* \"AEIOU.sol\":1754:1773  totalContributors++ */\n      dup2\n      sload\n      dup1\n      swap3\n      swap2\n      swap1\n      tag_193\n      swap1\n      tag_194\n      jump\t// in\n    tag_193:\n      swap2\n      swap1\n      pop\n      sstore\n      pop\n        /* \"AEIOU.sol\":1534:1780  function contribute() public payable {... */\n      jump\t// out\n        /* \"AEIOU.sol\":2940:3214  function approveRequest(uint requestIndex) public {... */\n    tag_101:\n        /* \"AEIOU.sol\":3008:3020  contributors */\n      0x06\n        /* \"AEIOU.sol\":3008:3032  contributors[msg.sender] */\n      0x00\n        /* \"AEIOU.sol\":3021:3031  msg.sender */\n      caller\n        /* \"AEIOU.sol\":3008:3032  contributors[msg.sender] */\n      0xffffffffffffffffffffffffffffffffffffffff\n      and\n      0xffffffffffffffffffffffffffffffffffffffff\n      and\n      dup2\n      mstore\n      0x20\n      add\n      swap1\n      dup2\n      mstore\n      0x20\n      add\n      0x00\n      keccak256\n      0x00\n      swap1\n      sload\n      swap1\n      0x0100\n      exp\n      swap1\n      div\n      0xff\n      and\n        /* \"AEIOU.sol\":3000:3033  require(contributors[msg.sender]) */\n      tag_196\n      jumpi\n      0x00\n      dup1\n      revert\n    tag_196:\n        /* \"AEIOU.sol\":3052:3060  requests */\n      0x09\n        /* \"AEIOU.sol\":3061:3073  requestIndex */\n      dup2\n        /* \"AEIOU.sol\":3052:3074  requests[requestIndex] */\n      dup2\n      sload\n      dup2\n      lt\n      tag_197\n      jumpi\n      tag_198\n      tag_113\n      jump\t// in\n    tag_198:\n    tag_197:\n      swap1\n      0x00\n      mstore\n      keccak256(0x00, 0x20)\n      swap1\n      0x07\n      mul\n      add\n        /* \"AEIOU.sol\":3052:3084  requests[requestIndex].approvals */\n      0x06\n      add\n        /* \"AEIOU.sol\":3052:3096  requests[requestIndex].approvals[msg.sender] */\n      0x00\n        /* \"AEIOU.sol\":3085:3095  msg.sender */\n      caller\n        /* \"AEIOU.sol\":3052:3096  requests[requestIndex].approvals[msg.sender] */\n      0xffffffffffffffffffffffffffffffffffffffff\n      and\n      0xffffffffffffffffffffffffffffffffffffffff\n      and\n      dup2\n      mstore\n      0x20\n      add\n      swap1\n      dup2\n      mstore\n      0x20\n      add\n      0x00\n      keccak256\n      0x00\n      swap1\n      sload\n      swap1\n      0x0100\n      exp\n      swap1\n      div\n      0xff\n      and\n        /* \"AEIOU.sol\":3051:3096  !requests[requestIndex].approvals[msg.sender] */\n      iszero\n        /* \"AEIOU.sol\":3043:3097  require(!requests[requestIndex].approvals[msg.sender]) */\n      tag_200\n      jumpi\n      0x00\n      dup1\n      revert\n    tag_200:\n        /* \"AEIOU.sol\":3154:3158  true */\n      0x01\n        /* \"AEIOU.sol\":3107:3115  requests */\n      0x09\n        /* \"AEIOU.sol\":3116:3128  requestIndex */\n      dup3\n        /* \"AEIOU.sol\":3107:3129  requests[requestIndex] */\n      dup2\n      sload\n      dup2\n      lt\n      tag_201\n      jumpi\n      tag_202\n      tag_113\n      jump\t// in\n    tag_202:\n    tag_201:\n      swap1\n      0x00\n      mstore\n      keccak256(0x00, 0x20)\n      swap1\n      0x07\n      mul\n      add\n        /* \"AEIOU.sol\":3107:3139  requests[requestIndex].approvals */\n      0x06\n      add\n        /* \"AEIOU.sol\":3107:3151  requests[requestIndex].approvals[msg.sender] */\n      0x00\n        /* \"AEIOU.sol\":3140:3150  msg.sender */\n      caller\n        /* \"AEIOU.sol\":3107:3151  requests[requestIndex].approvals[msg.sender] */\n      0xffffffffffffffffffffffffffffffffffffffff\n      and\n      0xffffffffffffffffffffffffffffffffffffffff\n      and\n      dup2\n      mstore\n      0x20\n      add\n      swap1\n      dup2\n      mstore\n      0x20\n      add\n      0x00\n      keccak256\n      0x00\n        /* \"AEIOU.sol\":3107:3158  requests[requestIndex].approvals[msg.sender] = true */\n      0x0100\n      exp\n      dup2\n      sload\n      dup2\n      0xff\n      mul\n      not\n      and\n      swap1\n      dup4\n      iszero\n      iszero\n      mul\n      or\n      swap1\n      sstore\n      pop\n        /* \"AEIOU.sol\":3168:3176  requests */\n      0x09\n        /* \"AEIOU.sol\":3177:3189  requestIndex */\n      dup2\n        /* \"AEIOU.sol\":3168:3190  requests[requestIndex] */\n      dup2\n      sload\n      dup2\n      lt\n      tag_204\n      jumpi\n      tag_205\n      tag_113\n      jump\t// in\n    tag_205:\n    tag_204:\n      swap1\n      0x00\n      mstore\n      keccak256(0x00, 0x20)\n      swap1\n      0x07\n      mul\n      add\n        /* \"AEIOU.sol\":3168:3205  requests[requestIndex].approvalsCount */\n      0x04\n      add\n      0x00\n        /* \"AEIOU.sol\":3168:3207  requests[requestIndex].approvalsCount++ */\n      dup2\n      sload\n      dup1\n      swap3\n      swap2\n      swap1\n      tag_207\n      swap1\n      tag_194\n      jump\t// in\n    tag_207:\n      swap2\n      swap1\n      pop\n      sstore\n      pop\n        /* \"AEIOU.sol\":2940:3214  function approveRequest(uint requestIndex) public {... */\n      pop\n      jump\t// out\n        /* \"AEIOU.sol\":990:1019  uint public totalContributors */\n    tag_104:\n      sload(0x08)\n      dup2\n      jump\t// out\n    tag_139:\n      dup3\n      dup1\n      sload\n      tag_208\n      swap1\n      tag_143\n      jump\t// in\n    tag_208:\n      swap1\n      0x00\n      mstore\n      keccak256(0x00, 0x20)\n      swap1\n      0x1f\n      add\n      0x20\n      swap1\n      div\n      dup2\n      add\n      swap3\n      dup3\n      tag_210\n      jumpi\n      0x00\n      dup6\n      sstore\n      jump(tag_209)\n    tag_210:\n      dup3\n      0x1f\n      lt\n      tag_211\n      jumpi\n      dup1\n      mload\n      not(0xff)\n      and\n      dup4\n      dup1\n      add\n      or\n      dup6\n      sstore\n      jump(tag_209)\n    tag_211:\n      dup3\n      dup1\n      add\n      0x01\n      add\n      dup6\n      sstore\n      dup3\n      iszero\n      tag_209\n      jumpi\n      swap2\n      dup3\n      add\n    tag_212:\n      dup3\n      dup2\n      gt\n      iszero\n      tag_213\n      jumpi\n      dup3\n      mload\n      dup3\n      sstore\n      swap2\n      0x20\n      add\n      swap2\n      swap1\n      0x01\n      add\n      swap1\n      jump(tag_212)\n    tag_213:\n    tag_209:\n      pop\n      swap1\n      pop\n      tag_214\n      swap2\n      swap1\n      tag_215\n      jump\t// in\n    tag_214:\n      pop\n      swap1\n      jump\t// out\n    tag_215:\n    tag_216:\n      dup1\n      dup3\n      gt\n      iszero\n      tag_217\n      jumpi\n      0x00\n      dup2\n      0x00\n      swap1\n      sstore\n      pop\n      0x01\n      add\n      jump(tag_216)\n    tag_217:\n      pop\n      swap1\n      jump\t// out\n        /* \"#utility.yul\":7:82   */\n    tag_218:\n        /* \"#utility.yul\":40:46   */\n      0x00\n        /* \"#utility.yul\":73:75   */\n      0x40\n        /* \"#utility.yul\":67:76   */\n      mload\n        /* \"#utility.yul\":57:76   */\n      swap1\n      pop\n        /* \"#utility.yul\":7:82   */\n      swap1\n      jump\t// out\n        /* \"#utility.yul\":88:205   */\n    tag_219:\n        /* \"#utility.yul\":197:198   */\n      0x00\n        /* \"#utility.yul\":194:195   */\n      dup1\n        /* \"#utility.yul\":187:199   */\n      revert\n        /* \"#utility.yul\":211:328   */\n    tag_220:\n        /* \"#utility.yul\":320:321   */\n      0x00\n        /* \"#utility.yul\":317:318   */\n      dup1\n        /* \"#utility.yul\":310:322   */\n      revert\n        /* \"#utility.yul\":334:411   */\n    tag_221:\n        /* \"#utility.yul\":371:378   */\n      0x00\n        /* \"#utility.yul\":400:405   */\n      dup2\n        /* \"#utility.yul\":389:405   */\n      swap1\n      pop\n        /* \"#utility.yul\":334:411   */\n      swap2\n      swap1\n      pop\n      jump\t// out\n        /* \"#utility.yul\":417:539   */\n    tag_222:\n        /* \"#utility.yul\":490:514   */\n      tag_262\n        /* \"#utility.yul\":508:513   */\n      dup2\n        /* \"#utility.yul\":490:514   */\n      tag_221\n      jump\t// in\n    tag_262:\n        /* \"#utility.yul\":483:488   */\n      dup2\n        /* \"#utility.yul\":480:515   */\n      eq\n        /* \"#utility.yul\":470:533   */\n      tag_263\n      jumpi\n        /* \"#utility.yul\":529:530   */\n      0x00\n        /* \"#utility.yul\":526:527   */\n      dup1\n        /* \"#utility.yul\":519:531   */\n      revert\n        /* \"#utility.yul\":470:533   */\n    tag_263:\n        /* \"#utility.yul\":417:539   */\n      pop\n      jump\t// out\n        /* \"#utility.yul\":545:684   */\n    tag_223:\n        /* \"#utility.yul\":591:596   */\n      0x00\n        /* \"#utility.yul\":629:635   */\n      dup2\n        /* \"#utility.yul\":616:636   */\n      calldataload\n        /* \"#utility.yul\":607:636   */\n      swap1\n      pop\n        /* \"#utility.yul\":645:678   */\n      tag_265\n        /* \"#utility.yul\":672:677   */\n      dup2\n        /* \"#utility.yul\":645:678   */\n      tag_222\n      jump\t// in\n    tag_265:\n        /* \"#utility.yul\":545:684   */\n      swap3\n      swap2\n      pop\n      pop\n      jump\t// out\n        /* \"#utility.yul\":690:1019   */\n    tag_26:\n        /* \"#utility.yul\":749:755   */\n      0x00\n        /* \"#utility.yul\":798:800   */\n      0x20\n        /* \"#utility.yul\":786:795   */\n      dup3\n        /* \"#utility.yul\":777:784   */\n      dup5\n        /* \"#utility.yul\":773:796   */\n      sub\n        /* \"#utility.yul\":769:801   */\n      slt\n        /* \"#utility.yul\":766:885   */\n      iszero\n      tag_267\n      jumpi\n        /* \"#utility.yul\":804:883   */\n      tag_268\n      tag_219\n      jump\t// in\n    tag_268:\n        /* \"#utility.yul\":766:885   */\n    tag_267:\n        /* \"#utility.yul\":924:925   */\n      0x00\n        /* \"#utility.yul\":949:1002   */\n      tag_269\n        /* \"#utility.yul\":994:1001   */\n      dup5\n        /* \"#utility.yul\":985:991   */\n      dup3\n        /* \"#utility.yul\":974:983   */\n      dup6\n        /* \"#utility.yul\":970:992   */\n      add\n        /* \"#utility.yul\":949:1002   */\n      tag_223\n      jump\t// in\n    tag_269:\n        /* \"#utility.yul\":939:1002   */\n      swap2\n      pop\n        /* \"#utility.yul\":895:1012   */\n      pop\n        /* \"#utility.yul\":690:1019   */\n      swap3\n      swap2\n      pop\n      pop\n      jump\t// out\n        /* \"#utility.yul\":1025:1151   */\n    tag_224:\n        /* \"#utility.yul\":1062:1069   */\n      0x00\n        /* \"#utility.yul\":1102:1144   */\n      0xffffffffffffffffffffffffffffffffffffffff\n        /* \"#utility.yul\":1095:1100   */\n      dup3\n        /* \"#utility.yul\":1091:1145   */\n      and\n        /* \"#utility.yul\":1080:1145   */\n      swap1\n      pop\n        /* \"#utility.yul\":1025:1151   */\n      swap2\n      swap1\n      pop\n      jump\t// out\n        /* \"#utility.yul\":1157:1253   */\n    tag_225:\n        /* \"#utility.yul\":1194:1201   */\n      0x00\n        /* \"#utility.yul\":1223:1247   */\n      tag_272\n        /* \"#utility.yul\":1241:1246   */\n      dup3\n        /* \"#utility.yul\":1223:1247   */\n      tag_224\n      jump\t// in\n    tag_272:\n        /* \"#utility.yul\":1212:1247   */\n      swap1\n      pop\n        /* \"#utility.yul\":1157:1253   */\n      swap2\n      swap1\n      pop\n      jump\t// out\n        /* \"#utility.yul\":1259:1377   */\n    tag_226:\n        /* \"#utility.yul\":1346:1370   */\n      tag_274\n        /* \"#utility.yul\":1364:1369   */\n      dup2\n        /* \"#utility.yul\":1346:1370   */\n      tag_225\n      jump\t// in\n    tag_274:\n        /* \"#utility.yul\":1341:1344   */\n      dup3\n        /* \"#utility.yul\":1334:1371   */\n      mstore\n        /* \"#utility.yul\":1259:1377   */\n      pop\n      pop\n      jump\t// out\n        /* \"#utility.yul\":1383:1605   */\n    tag_33:\n        /* \"#utility.yul\":1476:1480   */\n      0x00\n        /* \"#utility.yul\":1514:1516   */\n      0x20\n        /* \"#utility.yul\":1503:1512   */\n      dup3\n        /* \"#utility.yul\":1499:1517   */\n      add\n        /* \"#utility.yul\":1491:1517   */\n      swap1\n      pop\n        /* \"#utility.yul\":1527:1598   */\n      tag_276\n        /* \"#utility.yul\":1595:1596   */\n      0x00\n        /* \"#utility.yul\":1584:1593   */\n      dup4\n        /* \"#utility.yul\":1580:1597   */\n      add\n        /* \"#utility.yul\":1571:1577   */\n      dup5\n        /* \"#utility.yul\":1527:1598   */\n      tag_226\n      jump\t// in\n    tag_276:\n        /* \"#utility.yul\":1383:1605   */\n      swap3\n      swap2\n      pop\n      pop\n      jump\t// out\n        /* \"#utility.yul\":1611:1729   */\n    tag_227:\n        /* \"#utility.yul\":1698:1722   */\n      tag_278\n        /* \"#utility.yul\":1716:1721   */\n      dup2\n        /* \"#utility.yul\":1698:1722   */\n      tag_221\n      jump\t// in\n    tag_278:\n        /* \"#utility.yul\":1693:1696   */\n      dup3\n        /* \"#utility.yul\":1686:1723   */\n      mstore\n        /* \"#utility.yul\":1611:1729   */\n      pop\n      pop\n      jump\t// out\n        /* \"#utility.yul\":1735:1957   */\n    tag_38:\n        /* \"#utility.yul\":1828:1832   */\n      0x00\n        /* \"#utility.yul\":1866:1868   */\n      0x20\n        /* \"#utility.yul\":1855:1864   */\n      dup3\n        /* \"#utility.yul\":1851:1869   */\n      add\n        /* \"#utility.yul\":1843:1869   */\n      swap1\n      pop\n        /* \"#utility.yul\":1879:1950   */\n      tag_280\n        /* \"#utility.yul\":1947:1948   */\n      0x00\n        /* \"#utility.yul\":1936:1945   */\n      dup4\n        /* \"#utility.yul\":1932:1949   */\n      add\n        /* \"#utility.yul\":1923:1929   */\n      dup5\n        /* \"#utility.yul\":1879:1950   */\n      tag_227\n      jump\t// in\n    tag_280:\n        /* \"#utility.yul\":1735:1957   */\n      swap3\n      swap2\n      pop\n      pop\n      jump\t// out\n        /* \"#utility.yul\":1963:2085   */\n    tag_228:\n        /* \"#utility.yul\":2036:2060   */\n      tag_282\n        /* \"#utility.yul\":2054:2059   */\n      dup2\n        /* \"#utility.yul\":2036:2060   */\n      tag_225\n      jump\t// in\n    tag_282:\n        /* \"#utility.yul\":2029:2034   */\n      dup2\n        /* \"#utility.yul\":2026:2061   */\n      eq\n        /* \"#utility.yul\":2016:2079   */\n      tag_283\n      jumpi\n        /* \"#utility.yul\":2075:2076   */\n      0x00\n        /* \"#utility.yul\":2072:2073   */\n      dup1\n        /* \"#utility.yul\":2065:2077   */\n      revert\n        /* \"#utility.yul\":2016:2079   */\n    tag_283:\n        /* \"#utility.yul\":1963:2085   */\n      pop\n      jump\t// out\n        /* \"#utility.yul\":2091:2230   */\n    tag_229:\n        /* \"#utility.yul\":2137:2142   */\n      0x00\n        /* \"#utility.yul\":2175:2181   */\n      dup2\n        /* \"#utility.yul\":2162:2182   */\n      calldataload\n        /* \"#utility.yul\":2153:2182   */\n      swap1\n      pop\n        /* \"#utility.yul\":2191:2224   */\n      tag_285\n        /* \"#utility.yul\":2218:2223   */\n      dup2\n        /* \"#utility.yul\":2191:2224   */\n      tag_228\n      jump\t// in\n    tag_285:\n        /* \"#utility.yul\":2091:2230   */\n      swap3\n      swap2\n      pop\n      pop\n      jump\t// out\n        /* \"#utility.yul\":2236:2565   */\n    tag_42:\n        /* \"#utility.yul\":2295:2301   */\n      0x00\n        /* \"#utility.yul\":2344:2346   */\n      0x20\n        /* \"#utility.yul\":2332:2341   */\n      dup3\n        /* \"#utility.yul\":2323:2330   */\n      dup5\n        /* \"#utility.yul\":2319:2342   */\n      sub\n        /* \"#utility.yul\":2315:2347   */\n      slt\n        /* \"#utility.yul\":2312:2431   */\n      iszero\n      tag_287\n      jumpi\n        /* \"#utility.yul\":2350:2429   */\n      tag_288\n      tag_219\n      jump\t// in\n    tag_288:\n        /* \"#utility.yul\":2312:2431   */\n    tag_287:\n        /* \"#utility.yul\":2470:2471   */\n      0x00\n        /* \"#utility.yul\":2495:2548   */\n      tag_289\n        /* \"#utility.yul\":2540:2547   */\n      dup5\n        /* \"#utility.yul\":2531:2537   */\n      dup3\n        /* \"#utility.yul\":2520:2529   */\n      dup6\n        /* \"#utility.yul\":2516:2538   */\n      add\n        /* \"#utility.yul\":2495:2548   */\n      tag_229\n      jump\t// in\n    tag_289:\n        /* \"#utility.yul\":2485:2548   */\n      swap2\n      pop\n        /* \"#utility.yul\":2441:2558   */\n      pop\n        /* \"#utility.yul\":2236:2565   */\n      swap3\n      swap2\n      pop\n      pop\n      jump\t// out\n        /* \"#utility.yul\":2571:2661   */\n    tag_230:\n        /* \"#utility.yul\":2605:2612   */\n      0x00\n        /* \"#utility.yul\":2648:2653   */\n      dup2\n        /* \"#utility.yul\":2641:2654   */\n      iszero\n        /* \"#utility.yul\":2634:2655   */\n      iszero\n        /* \"#utility.yul\":2623:2655   */\n      swap1\n      pop\n        /* \"#utility.yul\":2571:2661   */\n      swap2\n      swap1\n      pop\n      jump\t// out\n        /* \"#utility.yul\":2667:2776   */\n    tag_231:\n        /* \"#utility.yul\":2748:2769   */\n      tag_292\n        /* \"#utility.yul\":2763:2768   */\n      dup2\n        /* \"#utility.yul\":2748:2769   */\n      tag_230\n      jump\t// in\n    tag_292:\n        /* \"#utility.yul\":2743:2746   */\n      dup3\n        /* \"#utility.yul\":2736:2770   */\n      mstore\n        /* \"#utility.yul\":2667:2776   */\n      pop\n      pop\n      jump\t// out\n        /* \"#utility.yul\":2782:2992   */\n    tag_45:\n        /* \"#utility.yul\":2869:2873   */\n      0x00\n        /* \"#utility.yul\":2907:2909   */\n      0x20\n        /* \"#utility.yul\":2896:2905   */\n      dup3\n        /* \"#utility.yul\":2892:2910   */\n      add\n        /* \"#utility.yul\":2884:2910   */\n      swap1\n      pop\n        /* \"#utility.yul\":2920:2985   */\n      tag_294\n        /* \"#utility.yul\":2982:2983   */\n      0x00\n        /* \"#utility.yul\":2971:2980   */\n      dup4\n        /* \"#utility.yul\":2967:2984   */\n      add\n        /* \"#utility.yul\":2958:2964   */\n      dup5\n        /* \"#utility.yul\":2920:2985   */\n      tag_231\n      jump\t// in\n    tag_294:\n        /* \"#utility.yul\":2782:2992   */\n      swap3\n      swap2\n      pop\n      pop\n      jump\t// out\n        /* \"#utility.yul\":2998:3115   */\n    tag_232:\n        /* \"#utility.yul\":3107:3108   */\n      0x00\n        /* \"#utility.yul\":3104:3105   */\n      dup1\n        /* \"#utility.yul\":3097:3109   */\n      revert\n        /* \"#utility.yul\":3121:3238   */\n    tag_233:\n        /* \"#utility.yul\":3230:3231   */\n      0x00\n        /* \"#utility.yul\":3227:3228   */\n      dup1\n        /* \"#utility.yul\":3220:3232   */\n      revert\n        /* \"#utility.yul\":3244:3346   */\n    tag_234:\n        /* \"#utility.yul\":3285:3291   */\n      0x00\n        /* \"#utility.yul\":3336:3338   */\n      0x1f\n        /* \"#utility.yul\":3332:3339   */\n      not\n        /* \"#utility.yul\":3327:3329   */\n      0x1f\n        /* \"#utility.yul\":3320:3325   */\n      dup4\n        /* \"#utility.yul\":3316:3330   */\n      add\n        /* \"#utility.yul\":3312:3340   */\n      and\n        /* \"#utility.yul\":3302:3340   */\n      swap1\n      pop\n        /* \"#utility.yul\":3244:3346   */\n      swap2\n      swap1\n      pop\n      jump\t// out\n        /* \"#utility.yul\":3352:3532   */\n    tag_235:\n        /* \"#utility.yul\":3400:3477   */\n      0x4e487b7100000000000000000000000000000000000000000000000000000000\n        /* \"#utility.yul\":3397:3398   */\n      0x00\n        /* \"#utility.yul\":3390:3478   */\n      mstore\n        /* \"#utility.yul\":3497:3501   */\n      0x41\n        /* \"#utility.yul\":3494:3495   */\n      0x04\n        /* \"#utility.yul\":3487:3502   */\n      mstore\n        /* \"#utility.yul\":3521:3525   */\n      0x24\n        /* \"#utility.yul\":3518:3519   */\n      0x00\n        /* \"#utility.yul\":3511:3526   */\n      revert\n        /* \"#utility.yul\":3538:3819   */\n    tag_236:\n        /* \"#utility.yul\":3621:3648   */\n      tag_300\n        /* \"#utility.yul\":3643:3647   */\n      dup3\n        /* \"#utility.yul\":3621:3648   */\n      tag_234\n      jump\t// in\n    tag_300:\n        /* \"#utility.yul\":3613:3619   */\n      dup2\n        /* \"#utility.yul\":3609:3649   */\n      add\n        /* \"#utility.yul\":3751:3757   */\n      dup2\n        /* \"#utility.yul\":3739:3749   */\n      dup2\n        /* \"#utility.yul\":3736:3758   */\n      lt\n        /* \"#utility.yul\":3715:3733   */\n      0xffffffffffffffff\n        /* \"#utility.yul\":3703:3713   */\n      dup3\n        /* \"#utility.yul\":3700:3734   */\n      gt\n        /* \"#utility.yul\":3697:3759   */\n      or\n        /* \"#utility.yul\":3694:3782   */\n      iszero\n      tag_301\n      jumpi\n        /* \"#utility.yul\":3762:3780   */\n      tag_302\n      tag_235\n      jump\t// in\n    tag_302:\n        /* \"#utility.yul\":3694:3782   */\n    tag_301:\n        /* \"#utility.yul\":3802:3812   */\n      dup1\n        /* \"#utility.yul\":3798:3800   */\n      0x40\n        /* \"#utility.yul\":3791:3813   */\n      mstore\n        /* \"#utility.yul\":3581:3819   */\n      pop\n        /* \"#utility.yul\":3538:3819   */\n      pop\n      pop\n      jump\t// out\n        /* \"#utility.yul\":3825:3954   */\n    tag_237:\n        /* \"#utility.yul\":3859:3865   */\n      0x00\n        /* \"#utility.yul\":3886:3906   */\n      tag_304\n      tag_218\n      jump\t// in\n    tag_304:\n        /* \"#utility.yul\":3876:3906   */\n      swap1\n      pop\n        /* \"#utility.yul\":3915:3948   */\n      tag_305\n        /* \"#utility.yul\":3943:3947   */\n      dup3\n        /* \"#utility.yul\":3935:3941   */\n      dup3\n        /* \"#utility.yul\":3915:3948   */\n      tag_236\n      jump\t// in\n    tag_305:\n        /* \"#utility.yul\":3825:3954   */\n      swap2\n      swap1\n      pop\n      jump\t// out\n        /* \"#utility.yul\":3960:4268   */\n    tag_238:\n        /* \"#utility.yul\":4022:4026   */\n      0x00\n        /* \"#utility.yul\":4112:4130   */\n      0xffffffffffffffff\n        /* \"#utility.yul\":4104:4110   */\n      dup3\n        /* \"#utility.yul\":4101:4131   */\n      gt\n        /* \"#utility.yul\":4098:4154   */\n      iszero\n      tag_307\n      jumpi\n        /* \"#utility.yul\":4134:4152   */\n      tag_308\n      tag_235\n      jump\t// in\n    tag_308:\n        /* \"#utility.yul\":4098:4154   */\n    tag_307:\n        /* \"#utility.yul\":4172:4201   */\n      tag_309\n        /* \"#utility.yul\":4194:4200   */\n      dup3\n        /* \"#utility.yul\":4172:4201   */\n      tag_234\n      jump\t// in\n    tag_309:\n        /* \"#utility.yul\":4164:4201   */\n      swap1\n      pop\n        /* \"#utility.yul\":4256:4260   */\n      0x20\n        /* \"#utility.yul\":4250:4254   */\n      dup2\n        /* \"#utility.yul\":4246:4261   */\n      add\n        /* \"#utility.yul\":4238:4261   */\n      swap1\n      pop\n        /* \"#utility.yul\":3960:4268   */\n      swap2\n      swap1\n      pop\n      jump\t// out\n        /* \"#utility.yul\":4274:4428   */\n    tag_239:\n        /* \"#utility.yul\":4358:4364   */\n      dup3\n        /* \"#utility.yul\":4353:4356   */\n      dup2\n        /* \"#utility.yul\":4348:4351   */\n      dup4\n        /* \"#utility.yul\":4335:4365   */\n      calldatacopy\n        /* \"#utility.yul\":4420:4421   */\n      0x00\n        /* \"#utility.yul\":4411:4417   */\n      dup4\n        /* \"#utility.yul\":4406:4409   */\n      dup4\n        /* \"#utility.yul\":4402:4418   */\n      add\n        /* \"#utility.yul\":4395:4422   */\n      mstore\n        /* \"#utility.yul\":4274:4428   */\n      pop\n      pop\n      pop\n      jump\t// out\n        /* \"#utility.yul\":4434:4846   */\n    tag_240:\n        /* \"#utility.yul\":4512:4517   */\n      0x00\n        /* \"#utility.yul\":4537:4603   */\n      tag_312\n        /* \"#utility.yul\":4553:4602   */\n      tag_313\n        /* \"#utility.yul\":4595:4601   */\n      dup5\n        /* \"#utility.yul\":4553:4602   */\n      tag_238\n      jump\t// in\n    tag_313:\n        /* \"#utility.yul\":4537:4603   */\n      tag_237\n      jump\t// in\n    tag_312:\n        /* \"#utility.yul\":4528:4603   */\n      swap1\n      pop\n        /* \"#utility.yul\":4626:4632   */\n      dup3\n        /* \"#utility.yul\":4619:4624   */\n      dup2\n        /* \"#utility.yul\":4612:4633   */\n      mstore\n        /* \"#utility.yul\":4664:4668   */\n      0x20\n        /* \"#utility.yul\":4657:4662   */\n      dup2\n        /* \"#utility.yul\":4653:4669   */\n      add\n        /* \"#utility.yul\":4702:4705   */\n      dup5\n        /* \"#utility.yul\":4693:4699   */\n      dup5\n        /* \"#utility.yul\":4688:4691   */\n      dup5\n        /* \"#utility.yul\":4684:4700   */\n      add\n        /* \"#utility.yul\":4681:4706   */\n      gt\n        /* \"#utility.yul\":4678:4790   */\n      iszero\n      tag_314\n      jumpi\n        /* \"#utility.yul\":4709:4788   */\n      tag_315\n      tag_233\n      jump\t// in\n    tag_315:\n        /* \"#utility.yul\":4678:4790   */\n    tag_314:\n        /* \"#utility.yul\":4799:4840   */\n      tag_316\n        /* \"#utility.yul\":4833:4839   */\n      dup5\n        /* \"#utility.yul\":4828:4831   */\n      dup3\n        /* \"#utility.yul\":4823:4826   */\n      dup6\n        /* \"#utility.yul\":4799:4840   */\n      tag_239\n      jump\t// in\n    tag_316:\n        /* \"#utility.yul\":4518:4846   */\n      pop\n        /* \"#utility.yul\":4434:4846   */\n      swap4\n      swap3\n      pop\n      pop\n      pop\n      jump\t// out\n        /* \"#utility.yul\":4866:5206   */\n    tag_241:\n        /* \"#utility.yul\":4922:4927   */\n      0x00\n        /* \"#utility.yul\":4971:4974   */\n      dup3\n        /* \"#utility.yul\":4964:4968   */\n      0x1f\n        /* \"#utility.yul\":4956:4962   */\n      dup4\n        /* \"#utility.yul\":4952:4969   */\n      add\n        /* \"#utility.yul\":4948:4975   */\n      slt\n        /* \"#utility.yul\":4938:5060   */\n      tag_318\n      jumpi\n        /* \"#utility.yul\":4979:5058   */\n      tag_319\n      tag_232\n      jump\t// in\n    tag_319:\n        /* \"#utility.yul\":4938:5060   */\n    tag_318:\n        /* \"#utility.yul\":5096:5102   */\n      dup2\n        /* \"#utility.yul\":5083:5103   */\n      calldataload\n        /* \"#utility.yul\":5121:5200   */\n      tag_320\n        /* \"#utility.yul\":5196:5199   */\n      dup5\n        /* \"#utility.yul\":5188:5194   */\n      dup3\n        /* \"#utility.yul\":5181:5185   */\n      0x20\n        /* \"#utility.yul\":5173:5179   */\n      dup7\n        /* \"#utility.yul\":5169:5186   */\n      add\n        /* \"#utility.yul\":5121:5200   */\n      tag_240\n      jump\t// in\n    tag_320:\n        /* \"#utility.yul\":5112:5200   */\n      swap2\n      pop\n        /* \"#utility.yul\":4928:5206   */\n      pop\n        /* \"#utility.yul\":4866:5206   */\n      swap3\n      swap2\n      pop\n      pop\n      jump\t// out\n        /* \"#utility.yul\":5212:6337   */\n    tag_49:\n        /* \"#utility.yul\":5318:5324   */\n      0x00\n        /* \"#utility.yul\":5326:5332   */\n      dup1\n        /* \"#utility.yul\":5334:5340   */\n      0x00\n        /* \"#utility.yul\":5342:5348   */\n      dup1\n        /* \"#utility.yul\":5391:5394   */\n      0x80\n        /* \"#utility.yul\":5379:5388   */\n      dup6\n        /* \"#utility.yul\":5370:5377   */\n      dup8\n        /* \"#utility.yul\":5366:5389   */\n      sub\n        /* \"#utility.yul\":5362:5395   */\n      slt\n        /* \"#utility.yul\":5359:5479   */\n      iszero\n      tag_322\n      jumpi\n        /* \"#utility.yul\":5398:5477   */\n      tag_323\n      tag_219\n      jump\t// in\n    tag_323:\n        /* \"#utility.yul\":5359:5479   */\n    tag_322:\n        /* \"#utility.yul\":5546:5547   */\n      0x00\n        /* \"#utility.yul\":5535:5544   */\n      dup6\n        /* \"#utility.yul\":5531:5548   */\n      add\n        /* \"#utility.yul\":5518:5549   */\n      calldataload\n        /* \"#utility.yul\":5576:5594   */\n      0xffffffffffffffff\n        /* \"#utility.yul\":5568:5574   */\n      dup2\n        /* \"#utility.yul\":5565:5595   */\n      gt\n        /* \"#utility.yul\":5562:5679   */\n      iszero\n      tag_324\n      jumpi\n        /* \"#utility.yul\":5598:5677   */\n      tag_325\n      tag_220\n      jump\t// in\n    tag_325:\n        /* \"#utility.yul\":5562:5679   */\n    tag_324:\n        /* \"#utility.yul\":5703:5766   */\n      tag_326\n        /* \"#utility.yul\":5758:5765   */\n      dup8\n        /* \"#utility.yul\":5749:5755   */\n      dup3\n        /* \"#utility.yul\":5738:5747   */\n      dup9\n        /* \"#utility.yul\":5734:5756   */\n      add\n        /* \"#utility.yul\":5703:5766   */\n      tag_241\n      jump\t// in\n    tag_326:\n        /* \"#utility.yul\":5693:5766   */\n      swap5\n      pop\n        /* \"#utility.yul\":5489:5776   */\n      pop\n        /* \"#utility.yul\":5843:5845   */\n      0x20\n        /* \"#utility.yul\":5832:5841   */\n      dup6\n        /* \"#utility.yul\":5828:5846   */\n      add\n        /* \"#utility.yul\":5815:5847   */\n      calldataload\n        /* \"#utility.yul\":5874:5892   */\n      0xffffffffffffffff\n        /* \"#utility.yul\":5866:5872   */\n      dup2\n        /* \"#utility.yul\":5863:5893   */\n      gt\n        /* \"#utility.yul\":5860:5977   */\n      iszero\n      tag_327\n      jumpi\n        /* \"#utility.yul\":5896:5975   */\n      tag_328\n      tag_220\n      jump\t// in\n    tag_328:\n        /* \"#utility.yul\":5860:5977   */\n    tag_327:\n        /* \"#utility.yul\":6001:6064   */\n      tag_329\n        /* \"#utility.yul\":6056:6063   */\n      dup8\n        /* \"#utility.yul\":6047:6053   */\n      dup3\n        /* \"#utility.yul\":6036:6045   */\n      dup9\n        /* \"#utility.yul\":6032:6054   */\n      add\n        /* \"#utility.yul\":6001:6064   */\n      tag_241\n      jump\t// in\n    tag_329:\n        /* \"#utility.yul\":5991:6064   */\n      swap4\n      pop\n        /* \"#utility.yul\":5786:6074   */\n      pop\n        /* \"#utility.yul\":6113:6115   */\n      0x40\n        /* \"#utility.yul\":6139:6192   */\n      tag_330\n        /* \"#utility.yul\":6184:6191   */\n      dup8\n        /* \"#utility.yul\":6175:6181   */\n      dup3\n        /* \"#utility.yul\":6164:6173   */\n      dup9\n        /* \"#utility.yul\":6160:6182   */\n      add\n        /* \"#utility.yul\":6139:6192   */\n      tag_229\n      jump\t// in\n    tag_330:\n        /* \"#utility.yul\":6129:6192   */\n      swap3\n      pop\n        /* \"#utility.yul\":6084:6202   */\n      pop\n        /* \"#utility.yul\":6241:6243   */\n      0x60\n        /* \"#utility.yul\":6267:6320   */\n      tag_331\n        /* \"#utility.yul\":6312:6319   */\n      dup8\n        /* \"#utility.yul\":6303:6309   */\n      dup3\n        /* \"#utility.yul\":6292:6301   */\n      dup9\n        /* \"#utility.yul\":6288:6310   */\n      add\n        /* \"#utility.yul\":6267:6320   */\n      tag_223\n      jump\t// in\n    tag_331:\n        /* \"#utility.yul\":6257:6320   */\n      swap2\n      pop\n        /* \"#utility.yul\":6212:6330   */\n      pop\n        /* \"#utility.yul\":5212:6337   */\n      swap3\n      swap6\n      swap2\n      swap5\n      pop\n      swap3\n      pop\n      jump\t// out\n        /* \"#utility.yul\":6343:6442   */\n    tag_242:\n        /* \"#utility.yul\":6395:6401   */\n      0x00\n        /* \"#utility.yul\":6429:6434   */\n      dup2\n        /* \"#utility.yul\":6423:6435   */\n      mload\n        /* \"#utility.yul\":6413:6435   */\n      swap1\n      pop\n        /* \"#utility.yul\":6343:6442   */\n      swap2\n      swap1\n      pop\n      jump\t// out\n        /* \"#utility.yul\":6448:6617   */\n    tag_243:\n        /* \"#utility.yul\":6532:6543   */\n      0x00\n        /* \"#utility.yul\":6566:6572   */\n      dup3\n        /* \"#utility.yul\":6561:6564   */\n      dup3\n        /* \"#utility.yul\":6554:6573   */\n      mstore\n        /* \"#utility.yul\":6606:6610   */\n      0x20\n        /* \"#utility.yul\":6601:6604   */\n      dup3\n        /* \"#utility.yul\":6597:6611   */\n      add\n        /* \"#utility.yul\":6582:6611   */\n      swap1\n      pop\n        /* \"#utility.yul\":6448:6617   */\n      swap3\n      swap2\n      pop\n      pop\n      jump\t// out\n        /* \"#utility.yul\":6623:6930   */\n    tag_244:\n        /* \"#utility.yul\":6691:6692   */\n      0x00\n        /* \"#utility.yul\":6701:6814   */\n    tag_335:\n        /* \"#utility.yul\":6715:6721   */\n      dup4\n        /* \"#utility.yul\":6712:6713   */\n      dup2\n        /* \"#utility.yul\":6709:6722   */\n      lt\n        /* \"#utility.yul\":6701:6814   */\n      iszero\n      tag_337\n      jumpi\n        /* \"#utility.yul\":6800:6801   */\n      dup1\n        /* \"#utility.yul\":6795:6798   */\n      dup3\n        /* \"#utility.yul\":6791:6802   */\n      add\n        /* \"#utility.yul\":6785:6803   */\n      mload\n        /* \"#utility.yul\":6781:6782   */\n      dup2\n        /* \"#utility.yul\":6776:6779   */\n      dup5\n        /* \"#utility.yul\":6772:6783   */\n      add\n        /* \"#utility.yul\":6765:6804   */\n      mstore\n        /* \"#utility.yul\":6737:6739   */\n      0x20\n        /* \"#utility.yul\":6734:6735   */\n      dup2\n        /* \"#utility.yul\":6730:6740   */\n      add\n        /* \"#utility.yul\":6725:6740   */\n      swap1\n      pop\n        /* \"#utility.yul\":6701:6814   */\n      jump(tag_335)\n    tag_337:\n        /* \"#utility.yul\":6832:6838   */\n      dup4\n        /* \"#utility.yul\":6829:6830   */\n      dup2\n        /* \"#utility.yul\":6826:6839   */\n      gt\n        /* \"#utility.yul\":6823:6924   */\n      iszero\n      tag_338\n      jumpi\n        /* \"#utility.yul\":6912:6913   */\n      0x00\n        /* \"#utility.yul\":6903:6909   */\n      dup5\n        /* \"#utility.yul\":6898:6901   */\n      dup5\n        /* \"#utility.yul\":6894:6910   */\n      add\n        /* \"#utility.yul\":6887:6914   */\n      mstore\n        /* \"#utility.yul\":6823:6924   */\n    tag_338:\n        /* \"#utility.yul\":6672:6930   */\n      pop\n        /* \"#utility.yul\":6623:6930   */\n      pop\n      pop\n      pop\n      jump\t// out\n        /* \"#utility.yul\":6936:7300   */\n    tag_245:\n        /* \"#utility.yul\":7024:7027   */\n      0x00\n        /* \"#utility.yul\":7052:7091   */\n      tag_340\n        /* \"#utility.yul\":7085:7090   */\n      dup3\n        /* \"#utility.yul\":7052:7091   */\n      tag_242\n      jump\t// in\n    tag_340:\n        /* \"#utility.yul\":7107:7178   */\n      tag_341\n        /* \"#utility.yul\":7171:7177   */\n      dup2\n        /* \"#utility.yul\":7166:7169   */\n      dup6\n        /* \"#utility.yul\":7107:7178   */\n      tag_243\n      jump\t// in\n    tag_341:\n        /* \"#utility.yul\":7100:7178   */\n      swap4\n      pop\n        /* \"#utility.yul\":7187:7239   */\n      tag_342\n        /* \"#utility.yul\":7232:7238   */\n      dup2\n        /* \"#utility.yul\":7227:7230   */\n      dup6\n        /* \"#utility.yul\":7220:7224   */\n      0x20\n        /* \"#utility.yul\":7213:7218   */\n      dup7\n        /* \"#utility.yul\":7209:7225   */\n      add\n        /* \"#utility.yul\":7187:7239   */\n      tag_244\n      jump\t// in\n    tag_342:\n        /* \"#utility.yul\":7264:7293   */\n      tag_343\n        /* \"#utility.yul\":7286:7292   */\n      dup2\n        /* \"#utility.yul\":7264:7293   */\n      tag_234\n      jump\t// in\n    tag_343:\n        /* \"#utility.yul\":7259:7262   */\n      dup5\n        /* \"#utility.yul\":7255:7294   */\n      add\n        /* \"#utility.yul\":7248:7294   */\n      swap2\n      pop\n        /* \"#utility.yul\":7028:7300   */\n      pop\n        /* \"#utility.yul\":6936:7300   */\n      swap3\n      swap2\n      pop\n      pop\n      jump\t// out\n        /* \"#utility.yul\":7306:7619   */\n    tag_59:\n        /* \"#utility.yul\":7419:7423   */\n      0x00\n        /* \"#utility.yul\":7457:7459   */\n      0x20\n        /* \"#utility.yul\":7446:7455   */\n      dup3\n        /* \"#utility.yul\":7442:7460   */\n      add\n        /* \"#utility.yul\":7434:7460   */\n      swap1\n      pop\n        /* \"#utility.yul\":7506:7515   */\n      dup2\n        /* \"#utility.yul\":7500:7504   */\n      dup2\n        /* \"#utility.yul\":7496:7516   */\n      sub\n        /* \"#utility.yul\":7492:7493   */\n      0x00\n        /* \"#utility.yul\":7481:7490   */\n      dup4\n        /* \"#utility.yul\":7477:7494   */\n      add\n        /* \"#utility.yul\":7470:7517   */\n      mstore\n        /* \"#utility.yul\":7534:7612   */\n      tag_345\n        /* \"#utility.yul\":7607:7611   */\n      dup2\n        /* \"#utility.yul\":7598:7604   */\n      dup5\n        /* \"#utility.yul\":7534:7612   */\n      tag_245\n      jump\t// in\n    tag_345:\n        /* \"#utility.yul\":7526:7612   */\n      swap1\n      pop\n        /* \"#utility.yul\":7306:7619   */\n      swap3\n      swap2\n      pop\n      pop\n      jump\t// out\n        /* \"#utility.yul\":7625:9006   */\n    tag_64:\n        /* \"#utility.yul\":8002:8006   */\n      0x00\n        /* \"#utility.yul\":8040:8043   */\n      0x0120\n        /* \"#utility.yul\":8029:8038   */\n      dup3\n        /* \"#utility.yul\":8025:8044   */\n      add\n        /* \"#utility.yul\":8017:8044   */\n      swap1\n      pop\n        /* \"#utility.yul\":8054:8125   */\n      tag_347\n        /* \"#utility.yul\":8122:8123   */\n      0x00\n        /* \"#utility.yul\":8111:8120   */\n      dup4\n        /* \"#utility.yul\":8107:8124   */\n      add\n        /* \"#utility.yul\":8098:8104   */\n      dup13\n        /* \"#utility.yul\":8054:8125   */\n      tag_227\n      jump\t// in\n    tag_347:\n        /* \"#utility.yul\":8135:8207   */\n      tag_348\n        /* \"#utility.yul\":8203:8205   */\n      0x20\n        /* \"#utility.yul\":8192:8201   */\n      dup4\n        /* \"#utility.yul\":8188:8206   */\n      add\n        /* \"#utility.yul\":8179:8185   */\n      dup12\n        /* \"#utility.yul\":8135:8207   */\n      tag_227\n      jump\t// in\n    tag_348:\n        /* \"#utility.yul\":8217:8289   */\n      tag_349\n        /* \"#utility.yul\":8285:8287   */\n      0x40\n        /* \"#utility.yul\":8274:8283   */\n      dup4\n        /* \"#utility.yul\":8270:8288   */\n      add\n        /* \"#utility.yul\":8261:8267   */\n      dup11\n        /* \"#utility.yul\":8217:8289   */\n      tag_227\n      jump\t// in\n    tag_349:\n        /* \"#utility.yul\":8299:8371   */\n      tag_350\n        /* \"#utility.yul\":8367:8369   */\n      0x60\n        /* \"#utility.yul\":8356:8365   */\n      dup4\n        /* \"#utility.yul\":8352:8370   */\n      add\n        /* \"#utility.yul\":8343:8349   */\n      dup10\n        /* \"#utility.yul\":8299:8371   */\n      tag_227\n      jump\t// in\n    tag_350:\n        /* \"#utility.yul\":8381:8454   */\n      tag_351\n        /* \"#utility.yul\":8449:8452   */\n      0x80\n        /* \"#utility.yul\":8438:8447   */\n      dup4\n        /* \"#utility.yul\":8434:8453   */\n      add\n        /* \"#utility.yul\":8425:8431   */\n      dup9\n        /* \"#utility.yul\":8381:8454   */\n      tag_227\n      jump\t// in\n    tag_351:\n        /* \"#utility.yul\":8464:8537   */\n      tag_352\n        /* \"#utility.yul\":8532:8535   */\n      0xa0\n        /* \"#utility.yul\":8521:8530   */\n      dup4\n        /* \"#utility.yul\":8517:8536   */\n      add\n        /* \"#utility.yul\":8508:8514   */\n      dup8\n        /* \"#utility.yul\":8464:8537   */\n      tag_226\n      jump\t// in\n    tag_352:\n        /* \"#utility.yul\":8585:8594   */\n      dup2\n        /* \"#utility.yul\":8579:8583   */\n      dup2\n        /* \"#utility.yul\":8575:8595   */\n      sub\n        /* \"#utility.yul\":8569:8572   */\n      0xc0\n        /* \"#utility.yul\":8558:8567   */\n      dup4\n        /* \"#utility.yul\":8554:8573   */\n      add\n        /* \"#utility.yul\":8547:8596   */\n      mstore\n        /* \"#utility.yul\":8613:8691   */\n      tag_353\n        /* \"#utility.yul\":8686:8690   */\n      dup2\n        /* \"#utility.yul\":8677:8683   */\n      dup7\n        /* \"#utility.yul\":8613:8691   */\n      tag_245\n      jump\t// in\n    tag_353:\n        /* \"#utility.yul\":8605:8691   */\n      swap1\n      pop\n        /* \"#utility.yul\":8739:8748   */\n      dup2\n        /* \"#utility.yul\":8733:8737   */\n      dup2\n        /* \"#utility.yul\":8729:8749   */\n      sub\n        /* \"#utility.yul\":8723:8726   */\n      0xe0\n        /* \"#utility.yul\":8712:8721   */\n      dup4\n        /* \"#utility.yul\":8708:8727   */\n      add\n        /* \"#utility.yul\":8701:8750   */\n      mstore\n        /* \"#utility.yul\":8767:8845   */\n      tag_354\n        /* \"#utility.yul\":8840:8844   */\n      dup2\n        /* \"#utility.yul\":8831:8837   */\n      dup6\n        /* \"#utility.yul\":8767:8845   */\n      tag_245\n      jump\t// in\n    tag_354:\n        /* \"#utility.yul\":8759:8845   */\n      swap1\n      pop\n        /* \"#utility.yul\":8893:8902   */\n      dup2\n        /* \"#utility.yul\":8887:8891   */\n      dup2\n        /* \"#utility.yul\":8883:8903   */\n      sub\n        /* \"#utility.yul\":8877:8880   */\n      0x0100\n        /* \"#utility.yul\":8866:8875   */\n      dup4\n        /* \"#utility.yul\":8862:8881   */\n      add\n        /* \"#utility.yul\":8855:8904   */\n      mstore\n        /* \"#utility.yul\":8921:8999   */\n      tag_355\n        /* \"#utility.yul\":8994:8998   */\n      dup2\n        /* \"#utility.yul\":8985:8991   */\n      dup5\n        /* \"#utility.yul\":8921:8999   */\n      tag_245\n      jump\t// in\n    tag_355:\n        /* \"#utility.yul\":8913:8999   */\n      swap1\n      pop\n        /* \"#utility.yul\":7625:9006   */\n      swap11\n      swap10\n      pop\n      pop\n      pop\n      pop\n      pop\n      pop\n      pop\n      pop\n      pop\n      pop\n      jump\t// out\n        /* \"#utility.yul\":9012:9126   */\n    tag_246:\n        /* \"#utility.yul\":9079:9085   */\n      0x00\n        /* \"#utility.yul\":9113:9118   */\n      dup2\n        /* \"#utility.yul\":9107:9119   */\n      mload\n        /* \"#utility.yul\":9097:9119   */\n      swap1\n      pop\n        /* \"#utility.yul\":9012:9126   */\n      swap2\n      swap1\n      pop\n      jump\t// out\n        /* \"#utility.yul\":9132:9316   */\n    tag_247:\n        /* \"#utility.yul\":9231:9242   */\n      0x00\n        /* \"#utility.yul\":9265:9271   */\n      dup3\n        /* \"#utility.yul\":9260:9263   */\n      dup3\n        /* \"#utility.yul\":9253:9272   */\n      mstore\n        /* \"#utility.yul\":9305:9309   */\n      0x20\n        /* \"#utility.yul\":9300:9303   */\n      dup3\n        /* \"#utility.yul\":9296:9310   */\n      add\n        /* \"#utility.yul\":9281:9310   */\n      swap1\n      pop\n        /* \"#utility.yul\":9132:9316   */\n      swap3\n      swap2\n      pop\n      pop\n      jump\t// out\n        /* \"#utility.yul\":9322:9454   */\n    tag_248:\n        /* \"#utility.yul\":9389:9393   */\n      0x00\n        /* \"#utility.yul\":9412:9415   */\n      dup2\n        /* \"#utility.yul\":9404:9415   */\n      swap1\n      pop\n        /* \"#utility.yul\":9442:9446   */\n      0x20\n        /* \"#utility.yul\":9437:9440   */\n      dup3\n        /* \"#utility.yul\":9433:9447   */\n      add\n        /* \"#utility.yul\":9425:9447   */\n      swap1\n      pop\n        /* \"#utility.yul\":9322:9454   */\n      swap2\n      swap1\n      pop\n      jump\t// out\n        /* \"#utility.yul\":9460:9568   */\n    tag_249:\n        /* \"#utility.yul\":9537:9561   */\n      tag_360\n        /* \"#utility.yul\":9555:9560   */\n      dup2\n        /* \"#utility.yul\":9537:9561   */\n      tag_225\n      jump\t// in\n    tag_360:\n        /* \"#utility.yul\":9532:9535   */\n      dup3\n        /* \"#utility.yul\":9525:9562   */\n      mstore\n        /* \"#utility.yul\":9460:9568   */\n      pop\n      pop\n      jump\t// out\n        /* \"#utility.yul\":9574:9753   */\n    tag_250:\n        /* \"#utility.yul\":9643:9653   */\n      0x00\n        /* \"#utility.yul\":9664:9710   */\n      tag_362\n        /* \"#utility.yul\":9706:9709   */\n      dup4\n        /* \"#utility.yul\":9698:9704   */\n      dup4\n        /* \"#utility.yul\":9664:9710   */\n      tag_249\n      jump\t// in\n    tag_362:\n        /* \"#utility.yul\":9742:9746   */\n      0x20\n        /* \"#utility.yul\":9737:9740   */\n      dup4\n        /* \"#utility.yul\":9733:9747   */\n      add\n        /* \"#utility.yul\":9719:9747   */\n      swap1\n      pop\n        /* \"#utility.yul\":9574:9753   */\n      swap3\n      swap2\n      pop\n      pop\n      jump\t// out\n        /* \"#utility.yul\":9759:9872   */\n    tag_251:\n        /* \"#utility.yul\":9829:9833   */\n      0x00\n        /* \"#utility.yul\":9861:9865   */\n      0x20\n        /* \"#utility.yul\":9856:9859   */\n      dup3\n        /* \"#utility.yul\":9852:9866   */\n      add\n        /* \"#utility.yul\":9844:9866   */\n      swap1\n      pop\n        /* \"#utility.yul\":9759:9872   */\n      swap2\n      swap1\n      pop\n      jump\t// out\n        /* \"#utility.yul\":9908:10640   */\n    tag_252:\n        /* \"#utility.yul\":10027:10030   */\n      0x00\n        /* \"#utility.yul\":10056:10110   */\n      tag_365\n        /* \"#utility.yul\":10104:10109   */\n      dup3\n        /* \"#utility.yul\":10056:10110   */\n      tag_246\n      jump\t// in\n    tag_365:\n        /* \"#utility.yul\":10126:10212   */\n      tag_366\n        /* \"#utility.yul\":10205:10211   */\n      dup2\n        /* \"#utility.yul\":10200:10203   */\n      dup6\n        /* \"#utility.yul\":10126:10212   */\n      tag_247\n      jump\t// in\n    tag_366:\n        /* \"#utility.yul\":10119:10212   */\n      swap4\n      pop\n        /* \"#utility.yul\":10236:10292   */\n      tag_367\n        /* \"#utility.yul\":10286:10291   */\n      dup4\n        /* \"#utility.yul\":10236:10292   */\n      tag_248\n      jump\t// in\n    tag_367:\n        /* \"#utility.yul\":10315:10322   */\n      dup1\n        /* \"#utility.yul\":10346:10347   */\n      0x00\n        /* \"#utility.yul\":10331:10615   */\n    tag_368:\n        /* \"#utility.yul\":10356:10362   */\n      dup4\n        /* \"#utility.yul\":10353:10354   */\n      dup2\n        /* \"#utility.yul\":10350:10363   */\n      lt\n        /* \"#utility.yul\":10331:10615   */\n      iszero\n      tag_370\n      jumpi\n        /* \"#utility.yul\":10432:10438   */\n      dup2\n        /* \"#utility.yul\":10426:10439   */\n      mload\n        /* \"#utility.yul\":10459:10522   */\n      tag_371\n        /* \"#utility.yul\":10518:10521   */\n      dup9\n        /* \"#utility.yul\":10503:10516   */\n      dup3\n        /* \"#utility.yul\":10459:10522   */\n      tag_250\n      jump\t// in\n    tag_371:\n        /* \"#utility.yul\":10452:10522   */\n      swap8\n      pop\n        /* \"#utility.yul\":10545:10605   */\n      tag_372\n        /* \"#utility.yul\":10598:10604   */\n      dup4\n        /* \"#utility.yul\":10545:10605   */\n      tag_251\n      jump\t// in\n    tag_372:\n        /* \"#utility.yul\":10535:10605   */\n      swap3\n      pop\n        /* \"#utility.yul\":10391:10615   */\n      pop\n        /* \"#utility.yul\":10378:10379   */\n      0x01\n        /* \"#utility.yul\":10375:10376   */\n      dup2\n        /* \"#utility.yul\":10371:10380   */\n      add\n        /* \"#utility.yul\":10366:10380   */\n      swap1\n      pop\n        /* \"#utility.yul\":10331:10615   */\n      jump(tag_368)\n    tag_370:\n        /* \"#utility.yul\":10335:10349   */\n      pop\n        /* \"#utility.yul\":10631:10634   */\n      dup6\n        /* \"#utility.yul\":10624:10634   */\n      swap4\n      pop\n        /* \"#utility.yul\":10032:10640   */\n      pop\n      pop\n      pop\n        /* \"#utility.yul\":9908:10640   */\n      swap3\n      swap2\n      pop\n      pop\n      jump\t// out\n        /* \"#utility.yul\":10646:11019   */\n    tag_77:\n        /* \"#utility.yul\":10789:10793   */\n      0x00\n        /* \"#utility.yul\":10827:10829   */\n      0x20\n        /* \"#utility.yul\":10816:10825   */\n      dup3\n        /* \"#utility.yul\":10812:10830   */\n      add\n        /* \"#utility.yul\":10804:10830   */\n      swap1\n      pop\n        /* \"#utility.yul\":10876:10885   */\n      dup2\n        /* \"#utility.yul\":10870:10874   */\n      dup2\n        /* \"#utility.yul\":10866:10886   */\n      sub\n        /* \"#utility.yul\":10862:10863   */\n      0x00\n        /* \"#utility.yul\":10851:10860   */\n      dup4\n        /* \"#utility.yul\":10847:10864   */\n      add\n        /* \"#utility.yul\":10840:10887   */\n      mstore\n        /* \"#utility.yul\":10904:11012   */\n      tag_374\n        /* \"#utility.yul\":11007:11011   */\n      dup2\n        /* \"#utility.yul\":10998:11004   */\n      dup5\n        /* \"#utility.yul\":10904:11012   */\n      tag_252\n      jump\t// in\n    tag_374:\n        /* \"#utility.yul\":10896:11012   */\n      swap1\n      pop\n        /* \"#utility.yul\":10646:11019   */\n      swap3\n      swap2\n      pop\n      pop\n      jump\t// out\n        /* \"#utility.yul\":11025:11970   */\n    tag_87:\n        /* \"#utility.yul\":11292:11296   */\n      0x00\n        /* \"#utility.yul\":11330:11333   */\n      0xc0\n        /* \"#utility.yul\":11319:11328   */\n      dup3\n        /* \"#utility.yul\":11315:11334   */\n      add\n        /* \"#utility.yul\":11307:11334   */\n      swap1\n      pop\n        /* \"#utility.yul\":11380:11389   */\n      dup2\n        /* \"#utility.yul\":11374:11378   */\n      dup2\n        /* \"#utility.yul\":11370:11390   */\n      sub\n        /* \"#utility.yul\":11366:11367   */\n      0x00\n        /* \"#utility.yul\":11355:11364   */\n      dup4\n        /* \"#utility.yul\":11351:11368   */\n      add\n        /* \"#utility.yul\":11344:11391   */\n      mstore\n        /* \"#utility.yul\":11408:11486   */\n      tag_376\n        /* \"#utility.yul\":11481:11485   */\n      dup2\n        /* \"#utility.yul\":11472:11478   */\n      dup10\n        /* \"#utility.yul\":11408:11486   */\n      tag_245\n      jump\t// in\n    tag_376:\n        /* \"#utility.yul\":11400:11486   */\n      swap1\n      pop\n        /* \"#utility.yul\":11533:11542   */\n      dup2\n        /* \"#utility.yul\":11527:11531   */\n      dup2\n        /* \"#utility.yul\":11523:11543   */\n      sub\n        /* \"#utility.yul\":11518:11520   */\n      0x20\n        /* \"#utility.yul\":11507:11516   */\n      dup4\n        /* \"#utility.yul\":11503:11521   */\n      add\n        /* \"#utility.yul\":11496:11544   */\n      mstore\n        /* \"#utility.yul\":11561:11639   */\n      tag_377\n        /* \"#utility.yul\":11634:11638   */\n      dup2\n        /* \"#utility.yul\":11625:11631   */\n      dup9\n        /* \"#utility.yul\":11561:11639   */\n      tag_245\n      jump\t// in\n    tag_377:\n        /* \"#utility.yul\":11553:11639   */\n      swap1\n      pop\n        /* \"#utility.yul\":11649:11721   */\n      tag_378\n        /* \"#utility.yul\":11717:11719   */\n      0x40\n        /* \"#utility.yul\":11706:11715   */\n      dup4\n        /* \"#utility.yul\":11702:11720   */\n      add\n        /* \"#utility.yul\":11693:11699   */\n      dup8\n        /* \"#utility.yul\":11649:11721   */\n      tag_226\n      jump\t// in\n    tag_378:\n        /* \"#utility.yul\":11731:11803   */\n      tag_379\n        /* \"#utility.yul\":11799:11801   */\n      0x60\n        /* \"#utility.yul\":11788:11797   */\n      dup4\n        /* \"#utility.yul\":11784:11802   */\n      add\n        /* \"#utility.yul\":11775:11781   */\n      dup7\n        /* \"#utility.yul\":11731:11803   */\n      tag_227\n      jump\t// in\n    tag_379:\n        /* \"#utility.yul\":11813:11886   */\n      tag_380\n        /* \"#utility.yul\":11881:11884   */\n      0x80\n        /* \"#utility.yul\":11870:11879   */\n      dup4\n        /* \"#utility.yul\":11866:11885   */\n      add\n        /* \"#utility.yul\":11857:11863   */\n      dup6\n        /* \"#utility.yul\":11813:11886   */\n      tag_227\n      jump\t// in\n    tag_380:\n        /* \"#utility.yul\":11896:11963   */\n      tag_381\n        /* \"#utility.yul\":11958:11961   */\n      0xa0\n        /* \"#utility.yul\":11947:11956   */\n      dup4\n        /* \"#utility.yul\":11943:11962   */\n      add\n        /* \"#utility.yul\":11934:11940   */\n      dup5\n        /* \"#utility.yul\":11896:11963   */\n      tag_231\n      jump\t// in\n    tag_381:\n        /* \"#utility.yul\":11025:11970   */\n      swap8\n      swap7\n      pop\n      pop\n      pop\n      pop\n      pop\n      pop\n      pop\n      jump\t// out\n        /* \"#utility.yul\":11976:12156   */\n    tag_253:\n        /* \"#utility.yul\":12024:12101   */\n      0x4e487b7100000000000000000000000000000000000000000000000000000000\n        /* \"#utility.yul\":12021:12022   */\n      0x00\n        /* \"#utility.yul\":12014:12102   */\n      mstore\n        /* \"#utility.yul\":12121:12125   */\n      0x12\n        /* \"#utility.yul\":12118:12119   */\n      0x04\n        /* \"#utility.yul\":12111:12126   */\n      mstore\n        /* \"#utility.yul\":12145:12149   */\n      0x24\n        /* \"#utility.yul\":12142:12143   */\n      0x00\n        /* \"#utility.yul\":12135:12150   */\n      revert\n        /* \"#utility.yul\":12162:12342   */\n    tag_254:\n        /* \"#utility.yul\":12210:12287   */\n      0x4e487b7100000000000000000000000000000000000000000000000000000000\n        /* \"#utility.yul\":12207:12208   */\n      0x00\n        /* \"#utility.yul\":12200:12288   */\n      mstore\n        /* \"#utility.yul\":12307:12311   */\n      0x11\n        /* \"#utility.yul\":12304:12305   */\n      0x04\n        /* \"#utility.yul\":12297:12312   */\n      mstore\n        /* \"#utility.yul\":12331:12335   */\n      0x24\n        /* \"#utility.yul\":12328:12329   */\n      0x00\n        /* \"#utility.yul\":12321:12336   */\n      revert\n        /* \"#utility.yul\":12348:12533   */\n    tag_110:\n        /* \"#utility.yul\":12388:12389   */\n      0x00\n        /* \"#utility.yul\":12405:12425   */\n      tag_385\n        /* \"#utility.yul\":12423:12424   */\n      dup3\n        /* \"#utility.yul\":12405:12425   */\n      tag_221\n      jump\t// in\n    tag_385:\n        /* \"#utility.yul\":12400:12425   */\n      swap2\n      pop\n        /* \"#utility.yul\":12439:12459   */\n      tag_386\n        /* \"#utility.yul\":12457:12458   */\n      dup4\n        /* \"#utility.yul\":12439:12459   */\n      tag_221\n      jump\t// in\n    tag_386:\n        /* \"#utility.yul\":12434:12459   */\n      swap3\n      pop\n        /* \"#utility.yul\":12478:12479   */\n      dup3\n        /* \"#utility.yul\":12468:12503   */\n      tag_387\n      jumpi\n        /* \"#utility.yul\":12483:12501   */\n      tag_388\n      tag_253\n      jump\t// in\n    tag_388:\n        /* \"#utility.yul\":12468:12503   */\n    tag_387:\n        /* \"#utility.yul\":12525:12526   */\n      dup3\n        /* \"#utility.yul\":12522:12523   */\n      dup3\n        /* \"#utility.yul\":12518:12527   */\n      div\n        /* \"#utility.yul\":12513:12527   */\n      swap1\n      pop\n        /* \"#utility.yul\":12348:12533   */\n      swap3\n      swap2\n      pop\n      pop\n      jump\t// out\n        /* \"#utility.yul\":12539:12719   */\n    tag_113:\n        /* \"#utility.yul\":12587:12664   */\n      0x4e487b7100000000000000000000000000000000000000000000000000000000\n        /* \"#utility.yul\":12584:12585   */\n      0x00\n        /* \"#utility.yul\":12577:12665   */\n      mstore\n        /* \"#utility.yul\":12684:12688   */\n      0x32\n        /* \"#utility.yul\":12681:12682   */\n      0x04\n        /* \"#utility.yul\":12674:12689   */\n      mstore\n        /* \"#utility.yul\":12708:12712   */\n      0x24\n        /* \"#utility.yul\":12705:12706   */\n      0x00\n        /* \"#utility.yul\":12698:12713   */\n      revert\n        /* \"#utility.yul\":12725:12905   */\n    tag_255:\n        /* \"#utility.yul\":12773:12850   */\n      0x4e487b7100000000000000000000000000000000000000000000000000000000\n        /* \"#utility.yul\":12770:12771   */\n      0x00\n        /* \"#utility.yul\":12763:12851   */\n      mstore\n        /* \"#utility.yul\":12870:12874   */\n      0x22\n        /* \"#utility.yul\":12867:12868   */\n      0x04\n        /* \"#utility.yul\":12860:12875   */\n      mstore\n        /* \"#utility.yul\":12894:12898   */\n      0x24\n        /* \"#utility.yul\":12891:12892   */\n      0x00\n        /* \"#utility.yul\":12884:12899   */\n      revert\n        /* \"#utility.yul\":12911:13231   */\n    tag_143:\n        /* \"#utility.yul\":12955:12961   */\n      0x00\n        /* \"#utility.yul\":12992:12993   */\n      0x02\n        /* \"#utility.yul\":12986:12990   */\n      dup3\n        /* \"#utility.yul\":12982:12994   */\n      div\n        /* \"#utility.yul\":12972:12994   */\n      swap1\n      pop\n        /* \"#utility.yul\":13039:13040   */\n      0x01\n        /* \"#utility.yul\":13033:13037   */\n      dup3\n        /* \"#utility.yul\":13029:13041   */\n      and\n        /* \"#utility.yul\":13060:13078   */\n      dup1\n        /* \"#utility.yul\":13050:13131   */\n      tag_392\n      jumpi\n        /* \"#utility.yul\":13116:13120   */\n      0x7f\n        /* \"#utility.yul\":13108:13114   */\n      dup3\n        /* \"#utility.yul\":13104:13121   */\n      and\n        /* \"#utility.yul\":13094:13121   */\n      swap2\n      pop\n        /* \"#utility.yul\":13050:13131   */\n    tag_392:\n        /* \"#utility.yul\":13178:13180   */\n      0x20\n        /* \"#utility.yul\":13170:13176   */\n      dup3\n        /* \"#utility.yul\":13167:13181   */\n      lt\n        /* \"#utility.yul\":13147:13165   */\n      dup2\n        /* \"#utility.yul\":13144:13182   */\n      sub\n        /* \"#utility.yul\":13141:13225   */\n      tag_393\n      jumpi\n        /* \"#utility.yul\":13197:13215   */\n      tag_394\n      tag_255\n      jump\t// in\n    tag_394:\n        /* \"#utility.yul\":13141:13225   */\n    tag_393:\n        /* \"#utility.yul\":12962:13231   */\n      pop\n        /* \"#utility.yul\":12911:13231   */\n      swap2\n      swap1\n      pop\n      jump\t// out\n        /* \"#utility.yul\":13237:13470   */\n    tag_194:\n        /* \"#utility.yul\":13276:13279   */\n      0x00\n        /* \"#utility.yul\":13299:13323   */\n      tag_396\n        /* \"#utility.yul\":13317:13322   */\n      dup3\n        /* \"#utility.yul\":13299:13323   */\n      tag_221\n      jump\t// in\n    tag_396:\n        /* \"#utility.yul\":13290:13323   */\n      swap2\n      pop\n        /* \"#utility.yul\":13345:13411   */\n      0xffffffffffffffffffffffffffffffffffffffffffffffffffffffffffffffff\n        /* \"#utility.yul\":13338:13343   */\n      dup3\n        /* \"#utility.yul\":13335:13412   */\n      sub\n        /* \"#utility.yul\":13332:13435   */\n      tag_397\n      jumpi\n        /* \"#utility.yul\":13415:13433   */\n      tag_398\n      tag_254\n      jump\t// in\n    tag_398:\n        /* \"#utility.yul\":13332:13435   */\n    tag_397:\n        /* \"#utility.yul\":13462:13463   */\n      0x01\n        /* \"#utility.yul\":13455:13460   */\n      dup3\n        /* \"#utility.yul\":13451:13464   */\n      add\n        /* \"#utility.yul\":13444:13464   */\n      swap1\n      pop\n        /* \"#utility.yul\":13237:13470   */\n      swap2\n      swap1\n      pop\n      jump\t// out\n\n    auxdata: 0xa2646970667358221220fe2d451fe320fc5e766cb5cbd5fd68846a2bb818204adae6d5e21efc85e2662664736f6c634300080d0033\n}\n","bytecode":{"linkReferences":{},"object":"60806040523480156200001157600080fd5b5060405162001e0b38038062001e0b8339818101604052810190620000379190620003ca565b85600090805190602001906200004f929190620000dd565b50846001908051906020019062000068929190620000dd565b50826004819055508160058190555083600290805190602001906200008f929190620000dd565b5080600360006101000a81548173ffffffffffffffffffffffffffffffffffffffff021916908373ffffffffffffffffffffffffffffffffffffffff16021790555050505050505062000527565b828054620000eb90620004f2565b90600052602060002090601f0160209004810192826200010f57600085556200015b565b82601f106200012a57805160ff19168380011785556200015b565b828001600101855582156200015b579182015b828111156200015a5782518255916020019190600101906200013d565b5b5090506200016a91906200016e565b5090565b5b80821115620001895760008160009055506001016200016f565b5090565b6000604051905090565b600080fd5b600080fd5b600080fd5b600080fd5b6000601f19601f8301169050919050565b7f4e487b7100000000000000000000000000000000000000000000000000000000600052604160045260246000fd5b620001f682620001ab565b810181811067ffffffffffffffff82111715620002185762000217620001bc565b5b80604052505050565b60006200022d6200018d565b90506200023b8282620001eb565b919050565b600067ffffffffffffffff8211156200025e576200025d620001bc565b5b6200026982620001ab565b9050602081019050919050565b60005b838110156200029657808201518184015260208101905062000279565b83811115620002a6576000848401525b50505050565b6000620002c3620002bd8462000240565b62000221565b905082815260208101848484011115620002e257620002e1620001a6565b5b620002ef84828562000276565b509392505050565b600082601f8301126200030f576200030e620001a1565b5b815162000321848260208601620002ac565b91505092915050565b6000819050919050565b6200033f816200032a565b81146200034b57600080fd5b50565b6000815190506200035f8162000334565b92915050565b600073ffffffffffffffffffffffffffffffffffffffff82169050919050565b6000620003928262000365565b9050919050565b620003a48162000385565b8114620003b057600080fd5b50565b600081519050620003c48162000399565b92915050565b60008060008060008060c08789031215620003ea57620003e962000197565b5b600087015167ffffffffffffffff8111156200040b576200040a6200019c565b5b6200041989828a01620002f7565b965050602087015167ffffffffffffffff8111156200043d576200043c6200019c565b5b6200044b89828a01620002f7565b955050604087015167ffffffffffffffff8111156200046f576200046e6200019c565b5b6200047d89828a01620002f7565b94505060606200049089828a016200034e565b9350506080620004a389828a016200034e565b92505060a0620004b689828a01620003b3565b9150509295509295509295565b7f4e487b7100000000000000000000000000000000000000000000000000000000600052602260045260246000fd5b600060028204905060018216806200050b57607f821691505b602082108103620005215762000520620004c3565b5b50919050565b6118d480620005376000396000f3fe6080604052600436106101095760003560e01c80634a79d50c11610095578063953b8fb811610064578063953b8fb81461037c578063bb0c8298146103a7578063d7bb99ba146103d2578063d7d1bbdb146103dc578063f251fc8c1461040557610109565b80634a79d50c146102b957806351f890ea146102e45780637284e4161461030f57806381d12c581461033a57610109565b80632f814278116100dc5780632f814278146101dc5780633410452a1461020557806337627839146102305780634051ddac1461025b578063481c6a751461028e57610109565b8063034410061461010e5780630b9f2c4a1461013757806312065fe0146101745780631f6d49421461019f575b600080fd5b34801561011a57600080fd5b5061013560048036038101906101309190611176565b610430565b005b34801561014357600080fd5b5061015e60048036038101906101599190611176565b6105f8565b60405161016b91906111e4565b60405180910390f35b34801561018057600080fd5b50610189610637565b604051610196919061120e565b60405180910390f35b3480156101ab57600080fd5b506101c660048036038101906101c19190611255565b610656565b6040516101d3919061129d565b60405180910390f35b3480156101e857600080fd5b5061020360048036038101906101fe91906113fe565b610676565b005b34801561021157600080fd5b5061021a6107a0565b604051610227919061120e565b60405180910390f35b34801561023c57600080fd5b506102456107ad565b6040516102529190611525565b60405180910390f35b34801561026757600080fd5b5061027061083b565b60405161028599989796959493929190611547565b60405180910390f35b34801561029a57600080fd5b506102a3610a5a565b6040516102b091906111e4565b60405180910390f35b3480156102c557600080fd5b506102ce610a80565b6040516102db9190611525565b60405180910390f35b3480156102f057600080fd5b506102f9610b0e565b60405161030691906116a7565b60405180910390f35b34801561031b57600080fd5b50610324610b9c565b6040516103319190611525565b60405180910390f35b34801561034657600080fd5b50610361600480360381019061035c9190611176565b610c2a565b604051610373969594939291906116c9565b60405180910390f35b34801561038857600080fd5b50610391610db3565b60405161039e919061120e565b60405180910390f35b3480156103b357600080fd5b506103bc610db9565b6040516103c9919061120e565b60405180910390f35b6103da610dbf565b005b3480156103e857600080fd5b5061040360048036038101906103fe9190611176565b610efa565b005b34801561041157600080fd5b5061041a611083565b604051610427919061120e565b60405180910390f35b600360009054906101000a900473ffffffffffffffffffffffffffffffffffffffff1673ffffffffffffffffffffffffffffffffffffffff163373ffffffffffffffffffffffffffffffffffffffff161461048a57600080fd5b60026008546104999190611796565b600982815481106104ad576104ac6117c7565b5b906000526020600020906007020160040154116104c957600080fd5b600981815481106104dd576104dc6117c7565b5b906000526020600020906007020160050160009054906101000a900460ff161561050657600080fd5b6009818154811061051a576105196117c7565b5b906000526020600020906007020160020160009054906101000a900473ffffffffffffffffffffffffffffffffffffffff1673ffffffffffffffffffffffffffffffffffffffff166108fc60098381548110610579576105786117c7565b5b9060005260206000209060070201600301549081150290604051600060405180830381858888f193505050501580156105b6573d6000803e3d6000fd5b506001600982815481106105cd576105cc6117c7565b5b906000526020600020906007020160050160006101000a81548160ff02191690831515021790555050565b6007818154811061060857600080fd5b906000526020600020016000915054906101000a900473ffffffffffffffffffffffffffffffffffffffff1681565b60003073ffffffffffffffffffffffffffffffffffffffff1631905090565b60066020528060005260406000206000915054906101000a900460ff1681565b600360009054906101000a900473ffffffffffffffffffffffffffffffffffffffff1673ffffffffffffffffffffffffffffffffffffffff163373ffffffffffffffffffffffffffffffffffffffff16146106d057600080fd5b6000600960018160018154018082558091505003906000526020600020906007020190508481600001908051906020019061070c929190611089565b5083816001019080519060200190610725929190611089565b50828160020160006101000a81548173ffffffffffffffffffffffffffffffffffffffff021916908373ffffffffffffffffffffffffffffffffffffffff16021790555081816003018190555060008160050160006101000a81548160ff021916908315150217905550600081600401819055505050505050565b6000600980549050905090565b600280546107ba90611825565b80601f01602080910402602001604051908101604052809291908181526020018280546107e690611825565b80156108335780601f1061080857610100808354040283529160200191610833565b820191906000526020600020905b81548152906001019060200180831161081657829003601f168201915b505050505081565b60008060008060008060608060606004546005543073ffffffffffffffffffffffffffffffffffffffff1631600980549050600854600360009054906101000a900473ffffffffffffffffffffffffffffffffffffffff166000600160028280546108a590611825565b80601f01602080910402602001604051908101604052809291908181526020018280546108d190611825565b801561091e5780601f106108f35761010080835404028352916020019161091e565b820191906000526020600020905b81548152906001019060200180831161090157829003601f168201915b5050505050925081805461093190611825565b80601f016020809104026020016040519081016040528092919081815260200182805461095d90611825565b80156109aa5780601f1061097f576101008083540402835291602001916109aa565b820191906000526020600020905b81548152906001019060200180831161098d57829003601f168201915b505050505091508080546109bd90611825565b80601f01602080910402602001604051908101604052809291908181526020018280546109e990611825565b8015610a365780601f10610a0b57610100808354040283529160200191610a36565b820191906000526020600020905b815481529060010190602001808311610a1957829003601f168201915b50505050509050985098509850985098509850985098509850909192939495969798565b600360009054906101000a900473ffffffffffffffffffffffffffffffffffffffff1681565b60008054610a8d90611825565b80601f0160208091040260200160405190810160405280929190818152602001828054610ab990611825565b8015610b065780601f10610adb57610100808354040283529160200191610b06565b820191906000526020600020905b815481529060010190602001808311610ae957829003601f168201915b505050505081565b60606007805480602002602001604051908101604052809291908181526020018280548015610b9257602002820191906000526020600020905b8160009054906101000a900473ffffffffffffffffffffffffffffffffffffffff1673ffffffffffffffffffffffffffffffffffffffff1681526020019060010190808311610b48575b5050505050905090565b60018054610ba990611825565b80601f0160208091040260200160405190810160405280929190818152602001828054610bd590611825565b8015610c225780601f10610bf757610100808354040283529160200191610c22565b820191906000526020600020905b815481529060010190602001808311610c0557829003601f168201915b505050505081565b60098181548110610c3a57600080fd5b9060005260206000209060070201600091509050806000018054610c5d90611825565b80601f0160208091040260200160405190810160405280929190818152602001828054610c8990611825565b8015610cd65780601f10610cab57610100808354040283529160200191610cd6565b820191906000526020600020905b815481529060010190602001808311610cb957829003601f168201915b505050505090806001018054610ceb90611825565b80601f0160208091040260200160405190810160405280929190818152602001828054610d1790611825565b8015610d645780601f10610d3957610100808354040283529160200191610d64565b820191906000526020600020905b815481529060010190602001808311610d4757829003601f168201915b5050505050908060020160009054906101000a900473ffffffffffffffffffffffffffffffffffffffff16908060030154908060040154908060050160009054906101000a900460ff16905086565b60055481565b60045481565b600454341015610dce57600080fd5b600660003373ffffffffffffffffffffffffffffffffffffffff1673ffffffffffffffffffffffffffffffffffffffff16815260200190815260200160002060009054906101000a900460ff1615610e2557600080fd5b6001600660003373ffffffffffffffffffffffffffffffffffffffff1673ffffffffffffffffffffffffffffffffffffffff16815260200190815260200160002060006101000a81548160ff0219169083151502179055506007339080600181540180825580915050600190039060005260206000200160009091909190916101000a81548173ffffffffffffffffffffffffffffffffffffffff021916908373ffffffffffffffffffffffffffffffffffffffff16021790555060086000815480929190610ef390611856565b9190505550565b600660003373ffffffffffffffffffffffffffffffffffffffff1673ffffffffffffffffffffffffffffffffffffffff16815260200190815260200160002060009054906101000a900460ff16610f5057600080fd5b60098181548110610f6457610f636117c7565b5b906000526020600020906007020160060160003373ffffffffffffffffffffffffffffffffffffffff1673ffffffffffffffffffffffffffffffffffffffff16815260200190815260200160002060009054906101000a900460ff1615610fca57600080fd5b600160098281548110610fe057610fdf6117c7565b5b906000526020600020906007020160060160003373ffffffffffffffffffffffffffffffffffffffff1673ffffffffffffffffffffffffffffffffffffffff16815260200190815260200160002060006101000a81548160ff02191690831515021790555060098181548110611059576110586117c7565b5b9060005260206000209060070201600401600081548092919061107b90611856565b919050555050565b60085481565b82805461109590611825565b90600052602060002090601f0160209004810192826110b757600085556110fe565b82601f106110d057805160ff19168380011785556110fe565b828001600101855582156110fe579182015b828111156110fd5782518255916020019190600101906110e2565b5b50905061110b919061110f565b5090565b5b80821115611128576000816000905550600101611110565b5090565b6000604051905090565b600080fd5b600080fd5b6000819050919050565b61115381611140565b811461115e57600080fd5b50565b6000813590506111708161114a565b92915050565b60006020828403121561118c5761118b611136565b5b600061119a84828501611161565b91505092915050565b600073ffffffffffffffffffffffffffffffffffffffff82169050919050565b60006111ce826111a3565b9050919050565b6111de816111c3565b82525050565b60006020820190506111f960008301846111d5565b92915050565b61120881611140565b82525050565b600060208201905061122360008301846111ff565b92915050565b611232816111c3565b811461123d57600080fd5b50565b60008135905061124f81611229565b92915050565b60006020828403121561126b5761126a611136565b5b600061127984828501611240565b91505092915050565b60008115159050919050565b61129781611282565b82525050565b60006020820190506112b2600083018461128e565b92915050565b600080fd5b600080fd5b6000601f19601f8301169050919050565b7f4e487b7100000000000000000000000000000000000000000000000000000000600052604160045260246000fd5b61130b826112c2565b810181811067ffffffffffffffff8211171561132a576113296112d3565b5b80604052505050565b600061133d61112c565b90506113498282611302565b919050565b600067ffffffffffffffff821115611369576113686112d3565b5b611372826112c2565b9050602081019050919050565b82818337600083830152505050565b60006113a161139c8461134e565b611333565b9050828152602081018484840111156113bd576113bc6112bd565b5b6113c884828561137f565b509392505050565b600082601f8301126113e5576113e46112b8565b5b81356113f584826020860161138e565b91505092915050565b6000806000806080858703121561141857611417611136565b5b600085013567ffffffffffffffff8111156114365761143561113b565b5b611442878288016113d0565b945050602085013567ffffffffffffffff8111156114635761146261113b565b5b61146f878288016113d0565b935050604061148087828801611240565b925050606061149187828801611161565b91505092959194509250565b600081519050919050565b600082825260208201905092915050565b60005b838110156114d75780820151818401526020810190506114bc565b838111156114e6576000848401525b50505050565b60006114f78261149d565b61150181856114a8565b93506115118185602086016114b9565b61151a816112c2565b840191505092915050565b6000602082019050818103600083015261153f81846114ec565b905092915050565b60006101208201905061155d600083018c6111ff565b61156a602083018b6111ff565b611577604083018a6111ff565b61158460608301896111ff565b61159160808301886111ff565b61159e60a08301876111d5565b81810360c08301526115b081866114ec565b905081810360e08301526115c481856114ec565b90508181036101008301526115d981846114ec565b90509a9950505050505050505050565b600081519050919050565b600082825260208201905092915050565b6000819050602082019050919050565b61161e816111c3565b82525050565b60006116308383611615565b60208301905092915050565b6000602082019050919050565b6000611654826115e9565b61165e81856115f4565b935061166983611605565b8060005b8381101561169a5781516116818882611624565b975061168c8361163c565b92505060018101905061166d565b5085935050505092915050565b600060208201905081810360008301526116c18184611649565b905092915050565b600060c08201905081810360008301526116e381896114ec565b905081810360208301526116f781886114ec565b905061170660408301876111d5565b61171360608301866111ff565b61172060808301856111ff565b61172d60a083018461128e565b979650505050505050565b7f4e487b7100000000000000000000000000000000000000000000000000000000600052601260045260246000fd5b7f4e487b7100000000000000000000000000000000000000000000000000000000600052601160045260246000fd5b60006117a182611140565b91506117ac83611140565b9250826117bc576117bb611738565b5b828204905092915050565b7f4e487b7100000000000000000000000000000000000000000000000000000000600052603260045260246000fd5b7f4e487b7100000000000000000000000000000000000000000000000000000000600052602260045260246000fd5b6000600282049050600182168061183d57607f821691505b6020821081036118505761184f6117f6565b5b50919050565b600061186182611140565b91507fffffffffffffffffffffffffffffffffffffffffffffffffffffffffffffffff820361189357611892611767565b5b60018201905091905056fea2646970667358221220fe2d451fe320fc5e766cb5cbd5fd68846a2bb818204adae6d5e21efc85e2662664736f6c634300080d0033","opcodes":"PUSH1 0x80 PUSH1 0x40 MSTORE CALLVALUE DUP1 ISZERO PUSH3 0x11 JUMPI PUSH1 0x0 DUP1 REVERT JUMPDEST POP PUSH1 0x40 MLOAD PUSH3 0x1E0B CODESIZE SUB DUP1 PUSH3 0x1E0B DUP4 CODECOPY DUP2 DUP2 ADD PUSH1 0x40 MSTORE DUP2 ADD SWAP1 PUSH3 0x37 SWAP2 SWAP1 PUSH3 0x3CA JUMP JUMPDEST DUP6 PUSH1 0x0 SWAP1 DUP1 MLOAD SWAP1 PUSH1 0x20 ADD SWAP1 PUSH3 0x4F SWAP3 SWAP2 SWAP1 PUSH3 0xDD JUMP JUMPDEST POP DUP5 PUSH1 0x1 SWAP1 DUP1 MLOAD SWAP1 PUSH1 0x20 ADD SWAP1 PUSH3 0x68 SWAP3 SWAP2 SWAP1 PUSH3 0xDD JUMP JUMPDEST POP DUP3 PUSH1 0x4 DUP2 SWAP1 SSTORE POP DUP2 PUSH1 0x5 DUP2 SWAP1 SSTORE POP DUP4 PUSH1 0x2 SWAP1 DUP1 MLOAD SWAP1 PUSH1 0x20 ADD SWAP1 PUSH3 0x8F SWAP3 SWAP2 SWAP1 PUSH3 0xDD JUMP JUMPDEST POP DUP1 PUSH1 0x3 PUSH1 0x0 PUSH2 0x100 EXP DUP2 SLOAD DUP2 PUSH20 0xFFFFFFFFFFFFFFFFFFFFFFFFFFFFFFFFFFFFFFFF MUL NOT AND SWAP1 DUP4 PUSH20 0xFFFFFFFFFFFFFFFFFFFFFFFFFFFFFFFFFFFFFFFF AND MUL OR SWAP1 SSTORE POP POP POP POP POP POP POP PUSH3 0x527 JUMP JUMPDEST DUP3 DUP1 SLOAD PUSH3 0xEB SWAP1 PUSH3 0x4F2 JUMP JUMPDEST SWAP1 PUSH1 0x0 MSTORE PUSH1 0x20 PUSH1 0x0 KECCAK256 SWAP1 PUSH1 0x1F ADD PUSH1 0x20 SWAP1 DIV DUP2 ADD SWAP3 DUP3 PUSH3 0x10F JUMPI PUSH1 0x0 DUP6 SSTORE PUSH3 0x15B JUMP JUMPDEST DUP3 PUSH1 0x1F LT PUSH3 0x12A JUMPI DUP1 MLOAD PUSH1 0xFF NOT AND DUP4 DUP1 ADD OR DUP6 SSTORE PUSH3 0x15B JUMP JUMPDEST DUP3 DUP1 ADD PUSH1 0x1 ADD DUP6 SSTORE DUP3 ISZERO PUSH3 0x15B JUMPI SWAP2 DUP3 ADD JUMPDEST DUP3 DUP2 GT ISZERO PUSH3 0x15A JUMPI DUP3 MLOAD DUP3 SSTORE SWAP2 PUSH1 0x20 ADD SWAP2 SWAP1 PUSH1 0x1 ADD SWAP1 PUSH3 0x13D JUMP JUMPDEST JUMPDEST POP SWAP1 POP PUSH3 0x16A SWAP2 SWAP1 PUSH3 0x16E JUMP JUMPDEST POP SWAP1 JUMP JUMPDEST JUMPDEST DUP1 DUP3 GT ISZERO PUSH3 0x189 JUMPI PUSH1 0x0 DUP2 PUSH1 0x0 SWAP1 SSTORE POP PUSH1 0x1 ADD PUSH3 0x16F JUMP JUMPDEST POP SWAP1 JUMP JUMPDEST PUSH1 0x0 PUSH1 0x40 MLOAD SWAP1 POP SWAP1 JUMP JUMPDEST PUSH1 0x0 DUP1 REVERT JUMPDEST PUSH1 0x0 DUP1 REVERT JUMPDEST PUSH1 0x0 DUP1 REVERT JUMPDEST PUSH1 0x0 DUP1 REVERT JUMPDEST PUSH1 0x0 PUSH1 0x1F NOT PUSH1 0x1F DUP4 ADD AND SWAP1 POP SWAP2 SWAP1 POP JUMP JUMPDEST PUSH32 0x4E487B7100000000000000000000000000000000000000000000000000000000 PUSH1 0x0 MSTORE PUSH1 0x41 PUSH1 0x4 MSTORE PUSH1 0x24 PUSH1 0x0 REVERT JUMPDEST PUSH3 0x1F6 DUP3 PUSH3 0x1AB JUMP JUMPDEST DUP2 ADD DUP2 DUP2 LT PUSH8 0xFFFFFFFFFFFFFFFF DUP3 GT OR ISZERO PUSH3 0x218 JUMPI PUSH3 0x217 PUSH3 0x1BC JUMP JUMPDEST JUMPDEST DUP1 PUSH1 0x40 MSTORE POP POP POP JUMP JUMPDEST PUSH1 0x0 PUSH3 0x22D PUSH3 0x18D JUMP JUMPDEST SWAP1 POP PUSH3 0x23B DUP3 DUP3 PUSH3 0x1EB JUMP JUMPDEST SWAP2 SWAP1 POP JUMP JUMPDEST PUSH1 0x0 PUSH8 0xFFFFFFFFFFFFFFFF DUP3 GT ISZERO PUSH3 0x25E JUMPI PUSH3 0x25D PUSH3 0x1BC JUMP JUMPDEST JUMPDEST PUSH3 0x269 DUP3 PUSH3 0x1AB JUMP JUMPDEST SWAP1 POP PUSH1 0x20 DUP2 ADD SWAP1 POP SWAP2 SWAP1 POP JUMP JUMPDEST PUSH1 0x0 JUMPDEST DUP4 DUP2 LT ISZERO PUSH3 0x296 JUMPI DUP1 DUP3 ADD MLOAD DUP2 DUP5 ADD MSTORE PUSH1 0x20 DUP2 ADD SWAP1 POP PUSH3 0x279 JUMP JUMPDEST DUP4 DUP2 GT ISZERO PUSH3 0x2A6 JUMPI PUSH1 0x0 DUP5 DUP5 ADD MSTORE JUMPDEST POP POP POP POP JUMP JUMPDEST PUSH1 0x0 PUSH3 0x2C3 PUSH3 0x2BD DUP5 PUSH3 0x240 JUMP JUMPDEST PUSH3 0x221 JUMP JUMPDEST SWAP1 POP DUP3 DUP2 MSTORE PUSH1 0x20 DUP2 ADD DUP5 DUP5 DUP5 ADD GT ISZERO PUSH3 0x2E2 JUMPI PUSH3 0x2E1 PUSH3 0x1A6 JUMP JUMPDEST JUMPDEST PUSH3 0x2EF DUP5 DUP3 DUP6 PUSH3 0x276 JUMP JUMPDEST POP SWAP4 SWAP3 POP POP POP JUMP JUMPDEST PUSH1 0x0 DUP3 PUSH1 0x1F DUP4 ADD SLT PUSH3 0x30F JUMPI PUSH3 0x30E PUSH3 0x1A1 JUMP JUMPDEST JUMPDEST DUP2 MLOAD PUSH3 0x321 DUP5 DUP3 PUSH1 0x20 DUP7 ADD PUSH3 0x2AC JUMP JUMPDEST SWAP2 POP POP SWAP3 SWAP2 POP POP JUMP JUMPDEST PUSH1 0x0 DUP2 SWAP1 POP SWAP2 SWAP1 POP JUMP JUMPDEST PUSH3 0x33F DUP2 PUSH3 0x32A JUMP JUMPDEST DUP2 EQ PUSH3 0x34B JUMPI PUSH1 0x0 DUP1 REVERT JUMPDEST POP JUMP JUMPDEST PUSH1 0x0 DUP2 MLOAD SWAP1 POP PUSH3 0x35F DUP2 PUSH3 0x334 JUMP JUMPDEST SWAP3 SWAP2 POP POP JUMP JUMPDEST PUSH1 0x0 PUSH20 0xFFFFFFFFFFFFFFFFFFFFFFFFFFFFFFFFFFFFFFFF DUP3 AND SWAP1 POP SWAP2 SWAP1 POP JUMP JUMPDEST PUSH1 0x0 PUSH3 0x392 DUP3 PUSH3 0x365 JUMP JUMPDEST SWAP1 POP SWAP2 SWAP1 POP JUMP JUMPDEST PUSH3 0x3A4 DUP2 PUSH3 0x385 JUMP JUMPDEST DUP2 EQ PUSH3 0x3B0 JUMPI PUSH1 0x0 DUP1 REVERT JUMPDEST POP JUMP JUMPDEST PUSH1 0x0 DUP2 MLOAD SWAP1 POP PUSH3 0x3C4 DUP2 PUSH3 0x399 JUMP JUMPDEST SWAP3 SWAP2 POP POP JUMP JUMPDEST PUSH1 0x0 DUP1 PUSH1 0x0 DUP1 PUSH1 0x0 DUP1 PUSH1 0xC0 DUP8 DUP10 SUB SLT ISZERO PUSH3 0x3EA JUMPI PUSH3 0x3E9 PUSH3 0x197 JUMP JUMPDEST JUMPDEST PUSH1 0x0 DUP8 ADD MLOAD PUSH8 0xFFFFFFFFFFFFFFFF DUP2 GT ISZERO PUSH3 0x40B JUMPI PUSH3 0x40A PUSH3 0x19C JUMP JUMPDEST JUMPDEST PUSH3 0x419 DUP10 DUP3 DUP11 ADD PUSH3 0x2F7 JUMP JUMPDEST SWAP7 POP POP PUSH1 0x20 DUP8 ADD MLOAD PUSH8 0xFFFFFFFFFFFFFFFF DUP2 GT ISZERO PUSH3 0x43D JUMPI PUSH3 0x43C PUSH3 0x19C JUMP JUMPDEST JUMPDEST PUSH3 0x44B DUP10 DUP3 DUP11 ADD PUSH3 0x2F7 JUMP JUMPDEST SWAP6 POP POP PUSH1 0x40 DUP8 ADD MLOAD PUSH8 0xFFFFFFFFFFFFFFFF DUP2 GT ISZERO PUSH3 0x46F JUMPI PUSH3 0x46E PUSH3 0x19C JUMP JUMPDEST JUMPDEST PUSH3 0x47D DUP10 DUP3 DUP11 ADD PUSH3 0x2F7 JUMP JUMPDEST SWAP5 POP POP PUSH1 0x60 PUSH3 0x490 DUP10 DUP3 DUP11 ADD PUSH3 0x34E JUMP JUMPDEST SWAP4 POP POP PUSH1 0x80 PUSH3 0x4A3 DUP10 DUP3 DUP11 ADD PUSH3 0x34E JUMP JUMPDEST SWAP3 POP POP PUSH1 0xA0 PUSH3 0x4B6 DUP10 DUP3 DUP11 ADD PUSH3 0x3B3 JUMP JUMPDEST SWAP2 POP POP SWAP3 SWAP6 POP SWAP3 SWAP6 POP SWAP3 SWAP6 JUMP JUMPDEST PUSH32 0x4E487B7100000000000000000000000000000000000000000000000000000000 PUSH1 0x0 MSTORE PUSH1 0x22 PUSH1 0x4 MSTORE PUSH1 0x24 PUSH1 0x0 REVERT JUMPDEST PUSH1 0x0 PUSH1 0x2 DUP3 DIV SWAP1 POP PUSH1 0x1 DUP3 AND DUP1 PUSH3 0x50B JUMPI PUSH1 0x7F DUP3 AND SWAP2 POP JUMPDEST PUSH1 0x20 DUP3 LT DUP2 SUB PUSH3 0x521 JUMPI PUSH3 0x520 PUSH3 0x4C3 JUMP JUMPDEST JUMPDEST POP SWAP2 SWAP1 POP JUMP JUMPDEST PUSH2 0x18D4 DUP1 PUSH3 0x537 PUSH1 0x0 CODECOPY PUSH1 0x0 RETURN INVALID PUSH1 0x80 PUSH1 0x40 MSTORE PUSH1 0x4 CALLDATASIZE LT PUSH2 0x109 JUMPI PUSH1 0x0 CALLDATALOAD PUSH1 0xE0 SHR DUP1 PUSH4 0x4A79D50C GT PUSH2 0x95 JUMPI DUP1 PUSH4 0x953B8FB8 GT PUSH2 0x64 JUMPI DUP1 PUSH4 0x953B8FB8 EQ PUSH2 0x37C JUMPI DUP1 PUSH4 0xBB0C8298 EQ PUSH2 0x3A7 JUMPI DUP1 PUSH4 0xD7BB99BA EQ PUSH2 0x3D2 JUMPI DUP1 PUSH4 0xD7D1BBDB EQ PUSH2 0x3DC JUMPI DUP1 PUSH4 0xF251FC8C EQ PUSH2 0x405 JUMPI PUSH2 0x109 JUMP JUMPDEST DUP1 PUSH4 0x4A79D50C EQ PUSH2 0x2B9 JUMPI DUP1 PUSH4 0x51F890EA EQ PUSH2 0x2E4 JUMPI DUP1 PUSH4 0x7284E416 EQ PUSH2 0x30F JUMPI DUP1 PUSH4 0x81D12C58 EQ PUSH2 0x33A JUMPI PUSH2 0x109 JUMP JUMPDEST DUP1 PUSH4 0x2F814278 GT PUSH2 0xDC JUMPI DUP1 PUSH4 0x2F814278 EQ PUSH2 0x1DC JUMPI DUP1 PUSH4 0x3410452A EQ PUSH2 0x205 JUMPI DUP1 PUSH4 0x37627839 EQ PUSH2 0x230 JUMPI DUP1 PUSH4 0x4051DDAC EQ PUSH2 0x25B JUMPI DUP1 PUSH4 0x481C6A75 EQ PUSH2 0x28E JUMPI PUSH2 0x109 JUMP JUMPDEST DUP1 PUSH4 0x3441006 EQ PUSH2 0x10E JUMPI DUP1 PUSH4 0xB9F2C4A EQ PUSH2 0x137 JUMPI DUP1 PUSH4 0x12065FE0 EQ PUSH2 0x174 JUMPI DUP1 PUSH4 0x1F6D4942 EQ PUSH2 0x19F JUMPI JUMPDEST PUSH1 0x0 DUP1 REVERT JUMPDEST CALLVALUE DUP1 ISZERO PUSH2 0x11A JUMPI PUSH1 0x0 DUP1 REVERT JUMPDEST POP PUSH2 0x135 PUSH1 0x4 DUP1 CALLDATASIZE SUB DUP2 ADD SWAP1 PUSH2 0x130 SWAP2 SWAP1 PUSH2 0x1176 JUMP JUMPDEST PUSH2 0x430 JUMP JUMPDEST STOP JUMPDEST CALLVALUE DUP1 ISZERO PUSH2 0x143 JUMPI PUSH1 0x0 DUP1 REVERT JUMPDEST POP PUSH2 0x15E PUSH1 0x4 DUP1 CALLDATASIZE SUB DUP2 ADD SWAP1 PUSH2 0x159 SWAP2 SWAP1 PUSH2 0x1176 JUMP JUMPDEST PUSH2 0x5F8 JUMP JUMPDEST PUSH1 0x40 MLOAD PUSH2 0x16B SWAP2 SWAP1 PUSH2 0x11E4 JUMP JUMPDEST PUSH1 0x40 MLOAD DUP1 SWAP2 SUB SWAP1 RETURN JUMPDEST CALLVALUE DUP1 ISZERO PUSH2 0x180 JUMPI PUSH1 0x0 DUP1 REVERT JUMPDEST POP PUSH2 0x189 PUSH2 0x637 JUMP JUMPDEST PUSH1 0x40 MLOAD PUSH2 0x196 SWAP2 SWAP1 PUSH2 0x120E JUMP JUMPDEST PUSH1 0x40 MLOAD DUP1 SWAP2 SUB SWAP1 RETURN JUMPDEST CALLVALUE DUP1 ISZERO PUSH2 0x1AB JUMPI PUSH1 0x0 DUP1 REVERT JUMPDEST POP PUSH2 0x1C6 PUSH1 0x4 DUP1 CALLDATASIZE SUB DUP2 ADD SWAP1 PUSH2 0x1C1 SWAP2 SWAP1 PUSH2 0x1255 JUMP JUMPDEST PUSH2 0x656 JUMP JUMPDEST PUSH1 0x40 MLOAD PUSH2 0x1D3 SWAP2 SWAP1 PUSH2 0x129D JUMP JUMPDEST PUSH1 0x40 MLOAD DUP1 SWAP2 SUB SWAP1 RETURN JUMPDEST CALLVALUE DUP1 ISZERO PUSH2 0x1E8 JUMPI PUSH1 0x0 DUP1 REVERT JUMPDEST POP PUSH2 0x203 PUSH1 0x4 DUP1 CALLDATASIZE SUB DUP2 ADD SWAP1 PUSH2 0x1FE SWAP2 SWAP1 PUSH2 0x13FE JUMP JUMPDEST PUSH2 0x676 JUMP JUMPDEST STOP JUMPDEST CALLVALUE DUP1 ISZERO PUSH2 0x211 JUMPI PUSH1 0x0 DUP1 REVERT JUMPDEST POP PUSH2 0x21A PUSH2 0x7A0 JUMP JUMPDEST PUSH1 0x40 MLOAD PUSH2 0x227 SWAP2 SWAP1 PUSH2 0x120E JUMP JUMPDEST PUSH1 0x40 MLOAD DUP1 SWAP2 SUB SWAP1 RETURN JUMPDEST CALLVALUE DUP1 ISZERO PUSH2 0x23C JUMPI PUSH1 0x0 DUP1 REVERT JUMPDEST POP PUSH2 0x245 PUSH2 0x7AD JUMP JUMPDEST PUSH1 0x40 MLOAD PUSH2 0x252 SWAP2 SWAP1 PUSH2 0x1525 JUMP JUMPDEST PUSH1 0x40 MLOAD DUP1 SWAP2 SUB SWAP1 RETURN JUMPDEST CALLVALUE DUP1 ISZERO PUSH2 0x267 JUMPI PUSH1 0x0 DUP1 REVERT JUMPDEST POP PUSH2 0x270 PUSH2 0x83B JUMP JUMPDEST PUSH1 0x40 MLOAD PUSH2 0x285 SWAP10 SWAP9 SWAP8 SWAP7 SWAP6 SWAP5 SWAP4 SWAP3 SWAP2 SWAP1 PUSH2 0x1547 JUMP JUMPDEST PUSH1 0x40 MLOAD DUP1 SWAP2 SUB SWAP1 RETURN JUMPDEST CALLVALUE DUP1 ISZERO PUSH2 0x29A JUMPI PUSH1 0x0 DUP1 REVERT JUMPDEST POP PUSH2 0x2A3 PUSH2 0xA5A JUMP JUMPDEST PUSH1 0x40 MLOAD PUSH2 0x2B0 SWAP2 SWAP1 PUSH2 0x11E4 JUMP JUMPDEST PUSH1 0x40 MLOAD DUP1 SWAP2 SUB SWAP1 RETURN JUMPDEST CALLVALUE DUP1 ISZERO PUSH2 0x2C5 JUMPI PUSH1 0x0 DUP1 REVERT JUMPDEST POP PUSH2 0x2CE PUSH2 0xA80 JUMP JUMPDEST PUSH1 0x40 MLOAD PUSH2 0x2DB SWAP2 SWAP1 PUSH2 0x1525 JUMP JUMPDEST PUSH1 0x40 MLOAD DUP1 SWAP2 SUB SWAP1 RETURN JUMPDEST CALLVALUE DUP1 ISZERO PUSH2 0x2F0 JUMPI PUSH1 0x0 DUP1 REVERT JUMPDEST POP PUSH2 0x2F9 PUSH2 0xB0E JUMP JUMPDEST PUSH1 0x40 MLOAD PUSH2 0x306 SWAP2 SWAP1 PUSH2 0x16A7 JUMP JUMPDEST PUSH1 0x40 MLOAD DUP1 SWAP2 SUB SWAP1 RETURN JUMPDEST CALLVALUE DUP1 ISZERO PUSH2 0x31B JUMPI PUSH1 0x0 DUP1 REVERT JUMPDEST POP PUSH2 0x324 PUSH2 0xB9C JUMP JUMPDEST PUSH1 0x40 MLOAD PUSH2 0x331 SWAP2 SWAP1 PUSH2 0x1525 JUMP JUMPDEST PUSH1 0x40 MLOAD DUP1 SWAP2 SUB SWAP1 RETURN JUMPDEST CALLVALUE DUP1 ISZERO PUSH2 0x346 JUMPI PUSH1 0x0 DUP1 REVERT JUMPDEST POP PUSH2 0x361 PUSH1 0x4 DUP1 CALLDATASIZE SUB DUP2 ADD SWAP1 PUSH2 0x35C SWAP2 SWAP1 PUSH2 0x1176 JUMP JUMPDEST PUSH2 0xC2A JUMP JUMPDEST PUSH1 0x40 MLOAD PUSH2 0x373 SWAP7 SWAP6 SWAP5 SWAP4 SWAP3 SWAP2 SWAP1 PUSH2 0x16C9 JUMP JUMPDEST PUSH1 0x40 MLOAD DUP1 SWAP2 SUB SWAP1 RETURN JUMPDEST CALLVALUE DUP1 ISZERO PUSH2 0x388 JUMPI PUSH1 0x0 DUP1 REVERT JUMPDEST POP PUSH2 0x391 PUSH2 0xDB3 JUMP JUMPDEST PUSH1 0x40 MLOAD PUSH2 0x39E SWAP2 SWAP1 PUSH2 0x120E JUMP JUMPDEST PUSH1 0x40 MLOAD DUP1 SWAP2 SUB SWAP1 RETURN JUMPDEST CALLVALUE DUP1 ISZERO PUSH2 0x3B3 JUMPI PUSH1 0x0 DUP1 REVERT JUMPDEST POP PUSH2 0x3BC PUSH2 0xDB9 JUMP JUMPDEST PUSH1 0x40 MLOAD PUSH2 0x3C9 SWAP2 SWAP1 PUSH2 0x120E JUMP JUMPDEST PUSH1 0x40 MLOAD DUP1 SWAP2 SUB SWAP1 RETURN JUMPDEST PUSH2 0x3DA PUSH2 0xDBF JUMP JUMPDEST STOP JUMPDEST CALLVALUE DUP1 ISZERO PUSH2 0x3E8 JUMPI PUSH1 0x0 DUP1 REVERT JUMPDEST POP PUSH2 0x403 PUSH1 0x4 DUP1 CALLDATASIZE SUB DUP2 ADD SWAP1 PUSH2 0x3FE SWAP2 SWAP1 PUSH2 0x1176 JUMP JUMPDEST PUSH2 0xEFA JUMP JUMPDEST STOP JUMPDEST CALLVALUE DUP1 ISZERO PUSH2 0x411 JUMPI PUSH1 0x0 DUP1 REVERT JUMPDEST POP PUSH2 0x41A PUSH2 0x1083 JUMP JUMPDEST PUSH1 0x40 MLOAD PUSH2 0x427 SWAP2 SWAP1 PUSH2 0x120E JUMP JUMPDEST PUSH1 0x40 MLOAD DUP1 SWAP2 SUB SWAP1 RETURN JUMPDEST PUSH1 0x3 PUSH1 0x0 SWAP1 SLOAD SWAP1 PUSH2 0x100 EXP SWAP1 DIV PUSH20 0xFFFFFFFFFFFFFFFFFFFFFFFFFFFFFFFFFFFFFFFF AND PUSH20 0xFFFFFFFFFFFFFFFFFFFFFFFFFFFFFFFFFFFFFFFF AND CALLER PUSH20 0xFFFFFFFFFFFFFFFFFFFFFFFFFFFFFFFFFFFFFFFF AND EQ PUSH2 0x48A JUMPI PUSH1 0x0 DUP1 REVERT JUMPDEST PUSH1 0x2 PUSH1 0x8 SLOAD PUSH2 0x499 SWAP2 SWAP1 PUSH2 0x1796 JUMP JUMPDEST PUSH1 0x9 DUP3 DUP2 SLOAD DUP2 LT PUSH2 0x4AD JUMPI PUSH2 0x4AC PUSH2 0x17C7 JUMP JUMPDEST JUMPDEST SWAP1 PUSH1 0x0 MSTORE PUSH1 0x20 PUSH1 0x0 KECCAK256 SWAP1 PUSH1 0x7 MUL ADD PUSH1 0x4 ADD SLOAD GT PUSH2 0x4C9 JUMPI PUSH1 0x0 DUP1 REVERT JUMPDEST PUSH1 0x9 DUP2 DUP2 SLOAD DUP2 LT PUSH2 0x4DD JUMPI PUSH2 0x4DC PUSH2 0x17C7 JUMP JUMPDEST JUMPDEST SWAP1 PUSH1 0x0 MSTORE PUSH1 0x20 PUSH1 0x0 KECCAK256 SWAP1 PUSH1 0x7 MUL ADD PUSH1 0x5 ADD PUSH1 0x0 SWAP1 SLOAD SWAP1 PUSH2 0x100 EXP SWAP1 DIV PUSH1 0xFF AND ISZERO PUSH2 0x506 JUMPI PUSH1 0x0 DUP1 REVERT JUMPDEST PUSH1 0x9 DUP2 DUP2 SLOAD DUP2 LT PUSH2 0x51A JUMPI PUSH2 0x519 PUSH2 0x17C7 JUMP JUMPDEST JUMPDEST SWAP1 PUSH1 0x0 MSTORE PUSH1 0x20 PUSH1 0x0 KECCAK256 SWAP1 PUSH1 0x7 MUL ADD PUSH1 0x2 ADD PUSH1 0x0 SWAP1 SLOAD SWAP1 PUSH2 0x100 EXP SWAP1 DIV PUSH20 0xFFFFFFFFFFFFFFFFFFFFFFFFFFFFFFFFFFFFFFFF AND PUSH20 0xFFFFFFFFFFFFFFFFFFFFFFFFFFFFFFFFFFFFFFFF AND PUSH2 0x8FC PUSH1 0x9 DUP4 DUP2 SLOAD DUP2 LT PUSH2 0x579 JUMPI PUSH2 0x578 PUSH2 0x17C7 JUMP JUMPDEST JUMPDEST SWAP1 PUSH1 0x0 MSTORE PUSH1 0x20 PUSH1 0x0 KECCAK256 SWAP1 PUSH1 0x7 MUL ADD PUSH1 0x3 ADD SLOAD SWAP1 DUP2 ISZERO MUL SWAP1 PUSH1 0x40 MLOAD PUSH1 0x0 PUSH1 0x40 MLOAD DUP1 DUP4 SUB DUP2 DUP6 DUP9 DUP9 CALL SWAP4 POP POP POP POP ISZERO DUP1 ISZERO PUSH2 0x5B6 JUMPI RETURNDATASIZE PUSH1 0x0 DUP1 RETURNDATACOPY RETURNDATASIZE PUSH1 0x0 REVERT JUMPDEST POP PUSH1 0x1 PUSH1 0x9 DUP3 DUP2 SLOAD DUP2 LT PUSH2 0x5CD JUMPI PUSH2 0x5CC PUSH2 0x17C7 JUMP JUMPDEST JUMPDEST SWAP1 PUSH1 0x0 MSTORE PUSH1 0x20 PUSH1 0x0 KECCAK256 SWAP1 PUSH1 0x7 MUL ADD PUSH1 0x5 ADD PUSH1 0x0 PUSH2 0x100 EXP DUP2 SLOAD DUP2 PUSH1 0xFF MUL NOT AND SWAP1 DUP4 ISZERO ISZERO MUL OR SWAP1 SSTORE POP POP JUMP JUMPDEST PUSH1 0x7 DUP2 DUP2 SLOAD DUP2 LT PUSH2 0x608 JUMPI PUSH1 0x0 DUP1 REVERT JUMPDEST SWAP1 PUSH1 0x0 MSTORE PUSH1 0x20 PUSH1 0x0 KECCAK256 ADD PUSH1 0x0 SWAP2 POP SLOAD SWAP1 PUSH2 0x100 EXP SWAP1 DIV PUSH20 0xFFFFFFFFFFFFFFFFFFFFFFFFFFFFFFFFFFFFFFFF AND DUP2 JUMP JUMPDEST PUSH1 0x0 ADDRESS PUSH20 0xFFFFFFFFFFFFFFFFFFFFFFFFFFFFFFFFFFFFFFFF AND BALANCE SWAP1 POP SWAP1 JUMP JUMPDEST PUSH1 0x6 PUSH1 0x20 MSTORE DUP1 PUSH1 0x0 MSTORE PUSH1 0x40 PUSH1 0x0 KECCAK256 PUSH1 0x0 SWAP2 POP SLOAD SWAP1 PUSH2 0x100 EXP SWAP1 DIV PUSH1 0xFF AND DUP2 JUMP JUMPDEST PUSH1 0x3 PUSH1 0x0 SWAP1 SLOAD SWAP1 PUSH2 0x100 EXP SWAP1 DIV PUSH20 0xFFFFFFFFFFFFFFFFFFFFFFFFFFFFFFFFFFFFFFFF AND PUSH20 0xFFFFFFFFFFFFFFFFFFFFFFFFFFFFFFFFFFFFFFFF AND CALLER PUSH20 0xFFFFFFFFFFFFFFFFFFFFFFFFFFFFFFFFFFFFFFFF AND EQ PUSH2 0x6D0 JUMPI PUSH1 0x0 DUP1 REVERT JUMPDEST PUSH1 0x0 PUSH1 0x9 PUSH1 0x1 DUP2 PUSH1 0x1 DUP2 SLOAD ADD DUP1 DUP3 SSTORE DUP1 SWAP2 POP POP SUB SWAP1 PUSH1 0x0 MSTORE PUSH1 0x20 PUSH1 0x0 KECCAK256 SWAP1 PUSH1 0x7 MUL ADD SWAP1 POP DUP5 DUP2 PUSH1 0x0 ADD SWAP1 DUP1 MLOAD SWAP1 PUSH1 0x20 ADD SWAP1 PUSH2 0x70C SWAP3 SWAP2 SWAP1 PUSH2 0x1089 JUMP JUMPDEST POP DUP4 DUP2 PUSH1 0x1 ADD SWAP1 DUP1 MLOAD SWAP1 PUSH1 0x20 ADD SWAP1 PUSH2 0x725 SWAP3 SWAP2 SWAP1 PUSH2 0x1089 JUMP JUMPDEST POP DUP3 DUP2 PUSH1 0x2 ADD PUSH1 0x0 PUSH2 0x100 EXP DUP2 SLOAD DUP2 PUSH20 0xFFFFFFFFFFFFFFFFFFFFFFFFFFFFFFFFFFFFFFFF MUL NOT AND SWAP1 DUP4 PUSH20 0xFFFFFFFFFFFFFFFFFFFFFFFFFFFFFFFFFFFFFFFF AND MUL OR SWAP1 SSTORE POP DUP2 DUP2 PUSH1 0x3 ADD DUP2 SWAP1 SSTORE POP PUSH1 0x0 DUP2 PUSH1 0x5 ADD PUSH1 0x0 PUSH2 0x100 EXP DUP2 SLOAD DUP2 PUSH1 0xFF MUL NOT AND SWAP1 DUP4 ISZERO ISZERO MUL OR SWAP1 SSTORE POP PUSH1 0x0 DUP2 PUSH1 0x4 ADD DUP2 SWAP1 SSTORE POP POP POP POP POP POP JUMP JUMPDEST PUSH1 0x0 PUSH1 0x9 DUP1 SLOAD SWAP1 POP SWAP1 POP SWAP1 JUMP JUMPDEST PUSH1 0x2 DUP1 SLOAD PUSH2 0x7BA SWAP1 PUSH2 0x1825 JUMP JUMPDEST DUP1 PUSH1 0x1F ADD PUSH1 0x20 DUP1 SWAP2 DIV MUL PUSH1 0x20 ADD PUSH1 0x40 MLOAD SWAP1 DUP2 ADD PUSH1 0x40 MSTORE DUP1 SWAP3 SWAP2 SWAP1 DUP2 DUP2 MSTORE PUSH1 0x20 ADD DUP3 DUP1 SLOAD PUSH2 0x7E6 SWAP1 PUSH2 0x1825 JUMP JUMPDEST DUP1 ISZERO PUSH2 0x833 JUMPI DUP1 PUSH1 0x1F LT PUSH2 0x808 JUMPI PUSH2 0x100 DUP1 DUP4 SLOAD DIV MUL DUP4 MSTORE SWAP2 PUSH1 0x20 ADD SWAP2 PUSH2 0x833 JUMP JUMPDEST DUP3 ADD SWAP2 SWAP1 PUSH1 0x0 MSTORE PUSH1 0x20 PUSH1 0x0 KECCAK256 SWAP1 JUMPDEST DUP2 SLOAD DUP2 MSTORE SWAP1 PUSH1 0x1 ADD SWAP1 PUSH1 0x20 ADD DUP1 DUP4 GT PUSH2 0x816 JUMPI DUP3 SWAP1 SUB PUSH1 0x1F AND DUP3 ADD SWAP2 JUMPDEST POP POP POP POP POP DUP2 JUMP JUMPDEST PUSH1 0x0 DUP1 PUSH1 0x0 DUP1 PUSH1 0x0 DUP1 PUSH1 0x60 DUP1 PUSH1 0x60 PUSH1 0x4 SLOAD PUSH1 0x5 SLOAD ADDRESS PUSH20 0xFFFFFFFFFFFFFFFFFFFFFFFFFFFFFFFFFFFFFFFF AND BALANCE PUSH1 0x9 DUP1 SLOAD SWAP1 POP PUSH1 0x8 SLOAD PUSH1 0x3 PUSH1 0x0 SWAP1 SLOAD SWAP1 PUSH2 0x100 EXP SWAP1 DIV PUSH20 0xFFFFFFFFFFFFFFFFFFFFFFFFFFFFFFFFFFFFFFFF AND PUSH1 0x0 PUSH1 0x1 PUSH1 0x2 DUP3 DUP1 SLOAD PUSH2 0x8A5 SWAP1 PUSH2 0x1825 JUMP JUMPDEST DUP1 PUSH1 0x1F ADD PUSH1 0x20 DUP1 SWAP2 DIV MUL PUSH1 0x20 ADD PUSH1 0x40 MLOAD SWAP1 DUP2 ADD PUSH1 0x40 MSTORE DUP1 SWAP3 SWAP2 SWAP1 DUP2 DUP2 MSTORE PUSH1 0x20 ADD DUP3 DUP1 SLOAD PUSH2 0x8D1 SWAP1 PUSH2 0x1825 JUMP JUMPDEST DUP1 ISZERO PUSH2 0x91E JUMPI DUP1 PUSH1 0x1F LT PUSH2 0x8F3 JUMPI PUSH2 0x100 DUP1 DUP4 SLOAD DIV MUL DUP4 MSTORE SWAP2 PUSH1 0x20 ADD SWAP2 PUSH2 0x91E JUMP JUMPDEST DUP3 ADD SWAP2 SWAP1 PUSH1 0x0 MSTORE PUSH1 0x20 PUSH1 0x0 KECCAK256 SWAP1 JUMPDEST DUP2 SLOAD DUP2 MSTORE SWAP1 PUSH1 0x1 ADD SWAP1 PUSH1 0x20 ADD DUP1 DUP4 GT PUSH2 0x901 JUMPI DUP3 SWAP1 SUB PUSH1 0x1F AND DUP3 ADD SWAP2 JUMPDEST POP POP POP POP POP SWAP3 POP DUP2 DUP1 SLOAD PUSH2 0x931 SWAP1 PUSH2 0x1825 JUMP JUMPDEST DUP1 PUSH1 0x1F ADD PUSH1 0x20 DUP1 SWAP2 DIV MUL PUSH1 0x20 ADD PUSH1 0x40 MLOAD SWAP1 DUP2 ADD PUSH1 0x40 MSTORE DUP1 SWAP3 SWAP2 SWAP1 DUP2 DUP2 MSTORE PUSH1 0x20 ADD DUP3 DUP1 SLOAD PUSH2 0x95D SWAP1 PUSH2 0x1825 JUMP JUMPDEST DUP1 ISZERO PUSH2 0x9AA JUMPI DUP1 PUSH1 0x1F LT PUSH2 0x97F JUMPI PUSH2 0x100 DUP1 DUP4 SLOAD DIV MUL DUP4 MSTORE SWAP2 PUSH1 0x20 ADD SWAP2 PUSH2 0x9AA JUMP JUMPDEST DUP3 ADD SWAP2 SWAP1 PUSH1 0x0 MSTORE PUSH1 0x20 PUSH1 0x0 KECCAK256 SWAP1 JUMPDEST DUP2 SLOAD DUP2 MSTORE SWAP1 PUSH1 0x1 ADD SWAP1 PUSH1 0x20 ADD DUP1 DUP4 GT PUSH2 0x98D JUMPI DUP3 SWAP1 SUB PUSH1 0x1F AND DUP3 ADD SWAP2 JUMPDEST POP POP POP POP POP SWAP2 POP DUP1 DUP1 SLOAD PUSH2 0x9BD SWAP1 PUSH2 0x1825 JUMP JUMPDEST DUP1 PUSH1 0x1F ADD PUSH1 0x20 DUP1 SWAP2 DIV MUL PUSH1 0x20 ADD PUSH1 0x40 MLOAD SWAP1 DUP2 ADD PUSH1 0x40 MSTORE DUP1 SWAP3 SWAP2 SWAP1 DUP2 DUP2 MSTORE PUSH1 0x20 ADD DUP3 DUP1 SLOAD PUSH2 0x9E9 SWAP1 PUSH2 0x1825 JUMP JUMPDEST DUP1 ISZERO PUSH2 0xA36 JUMPI DUP1 PUSH1 0x1F LT PUSH2 0xA0B JUMPI PUSH2 0x100 DUP1 DUP4 SLOAD DIV MUL DUP4 MSTORE SWAP2 PUSH1 0x20 ADD SWAP2 PUSH2 0xA36 JUMP JUMPDEST DUP3 ADD SWAP2 SWAP1 PUSH1 0x0 MSTORE PUSH1 0x20 PUSH1 0x0 KECCAK256 SWAP1 JUMPDEST DUP2 SLOAD DUP2 MSTORE SWAP1 PUSH1 0x1 ADD SWAP1 PUSH1 0x20 ADD DUP1 DUP4 GT PUSH2 0xA19 JUMPI DUP3 SWAP1 SUB PUSH1 0x1F AND DUP3 ADD SWAP2 JUMPDEST POP POP POP POP POP SWAP1 POP SWAP9 POP SWAP9 POP SWAP9 POP SWAP9 POP SWAP9 POP SWAP9 POP SWAP9 POP SWAP9 POP SWAP9 POP SWAP1 SWAP2 SWAP3 SWAP4 SWAP5 SWAP6 SWAP7 SWAP8 SWAP9 JUMP JUMPDEST PUSH1 0x3 PUSH1 0x0 SWAP1 SLOAD SWAP1 PUSH2 0x100 EXP SWAP1 DIV PUSH20 0xFFFFFFFFFFFFFFFFFFFFFFFFFFFFFFFFFFFFFFFF AND DUP2 JUMP JUMPDEST PUSH1 0x0 DUP1 SLOAD PUSH2 0xA8D SWAP1 PUSH2 0x1825 JUMP JUMPDEST DUP1 PUSH1 0x1F ADD PUSH1 0x20 DUP1 SWAP2 DIV MUL PUSH1 0x20 ADD PUSH1 0x40 MLOAD SWAP1 DUP2 ADD PUSH1 0x40 MSTORE DUP1 SWAP3 SWAP2 SWAP1 DUP2 DUP2 MSTORE PUSH1 0x20 ADD DUP3 DUP1 SLOAD PUSH2 0xAB9 SWAP1 PUSH2 0x1825 JUMP JUMPDEST DUP1 ISZERO PUSH2 0xB06 JUMPI DUP1 PUSH1 0x1F LT PUSH2 0xADB JUMPI PUSH2 0x100 DUP1 DUP4 SLOAD DIV MUL DUP4 MSTORE SWAP2 PUSH1 0x20 ADD SWAP2 PUSH2 0xB06 JUMP JUMPDEST DUP3 ADD SWAP2 SWAP1 PUSH1 0x0 MSTORE PUSH1 0x20 PUSH1 0x0 KECCAK256 SWAP1 JUMPDEST DUP2 SLOAD DUP2 MSTORE SWAP1 PUSH1 0x1 ADD SWAP1 PUSH1 0x20 ADD DUP1 DUP4 GT PUSH2 0xAE9 JUMPI DUP3 SWAP1 SUB PUSH1 0x1F AND DUP3 ADD SWAP2 JUMPDEST POP POP POP POP POP DUP2 JUMP JUMPDEST PUSH1 0x60 PUSH1 0x7 DUP1 SLOAD DUP1 PUSH1 0x20 MUL PUSH1 0x20 ADD PUSH1 0x40 MLOAD SWAP1 DUP2 ADD PUSH1 0x40 MSTORE DUP1 SWAP3 SWAP2 SWAP1 DUP2 DUP2 MSTORE PUSH1 0x20 ADD DUP3 DUP1 SLOAD DUP1 ISZERO PUSH2 0xB92 JUMPI PUSH1 0x20 MUL DUP3 ADD SWAP2 SWAP1 PUSH1 0x0 MSTORE PUSH1 0x20 PUSH1 0x0 KECCAK256 SWAP1 JUMPDEST DUP2 PUSH1 0x0 SWAP1 SLOAD SWAP1 PUSH2 0x100 EXP SWAP1 DIV PUSH20 0xFFFFFFFFFFFFFFFFFFFFFFFFFFFFFFFFFFFFFFFF AND PUSH20 0xFFFFFFFFFFFFFFFFFFFFFFFFFFFFFFFFFFFFFFFF AND DUP2 MSTORE PUSH1 0x20 ADD SWAP1 PUSH1 0x1 ADD SWAP1 DUP1 DUP4 GT PUSH2 0xB48 JUMPI JUMPDEST POP POP POP POP POP SWAP1 POP SWAP1 JUMP JUMPDEST PUSH1 0x1 DUP1 SLOAD PUSH2 0xBA9 SWAP1 PUSH2 0x1825 JUMP JUMPDEST DUP1 PUSH1 0x1F ADD PUSH1 0x20 DUP1 SWAP2 DIV MUL PUSH1 0x20 ADD PUSH1 0x40 MLOAD SWAP1 DUP2 ADD PUSH1 0x40 MSTORE DUP1 SWAP3 SWAP2 SWAP1 DUP2 DUP2 MSTORE PUSH1 0x20 ADD DUP3 DUP1 SLOAD PUSH2 0xBD5 SWAP1 PUSH2 0x1825 JUMP JUMPDEST DUP1 ISZERO PUSH2 0xC22 JUMPI DUP1 PUSH1 0x1F LT PUSH2 0xBF7 JUMPI PUSH2 0x100 DUP1 DUP4 SLOAD DIV MUL DUP4 MSTORE SWAP2 PUSH1 0x20 ADD SWAP2 PUSH2 0xC22 JUMP JUMPDEST DUP3 ADD SWAP2 SWAP1 PUSH1 0x0 MSTORE PUSH1 0x20 PUSH1 0x0 KECCAK256 SWAP1 JUMPDEST DUP2 SLOAD DUP2 MSTORE SWAP1 PUSH1 0x1 ADD SWAP1 PUSH1 0x20 ADD DUP1 DUP4 GT PUSH2 0xC05 JUMPI DUP3 SWAP1 SUB PUSH1 0x1F AND DUP3 ADD SWAP2 JUMPDEST POP POP POP POP POP DUP2 JUMP JUMPDEST PUSH1 0x9 DUP2 DUP2 SLOAD DUP2 LT PUSH2 0xC3A JUMPI PUSH1 0x0 DUP1 REVERT JUMPDEST SWAP1 PUSH1 0x0 MSTORE PUSH1 0x20 PUSH1 0x0 KECCAK256 SWAP1 PUSH1 0x7 MUL ADD PUSH1 0x0 SWAP2 POP SWAP1 POP DUP1 PUSH1 0x0 ADD DUP1 SLOAD PUSH2 0xC5D SWAP1 PUSH2 0x1825 JUMP JUMPDEST DUP1 PUSH1 0x1F ADD PUSH1 0x20 DUP1 SWAP2 DIV MUL PUSH1 0x20 ADD PUSH1 0x40 MLOAD SWAP1 DUP2 ADD PUSH1 0x40 MSTORE DUP1 SWAP3 SWAP2 SWAP1 DUP2 DUP2 MSTORE PUSH1 0x20 ADD DUP3 DUP1 SLOAD PUSH2 0xC89 SWAP1 PUSH2 0x1825 JUMP JUMPDEST DUP1 ISZERO PUSH2 0xCD6 JUMPI DUP1 PUSH1 0x1F LT PUSH2 0xCAB JUMPI PUSH2 0x100 DUP1 DUP4 SLOAD DIV MUL DUP4 MSTORE SWAP2 PUSH1 0x20 ADD SWAP2 PUSH2 0xCD6 JUMP JUMPDEST DUP3 ADD SWAP2 SWAP1 PUSH1 0x0 MSTORE PUSH1 0x20 PUSH1 0x0 KECCAK256 SWAP1 JUMPDEST DUP2 SLOAD DUP2 MSTORE SWAP1 PUSH1 0x1 ADD SWAP1 PUSH1 0x20 ADD DUP1 DUP4 GT PUSH2 0xCB9 JUMPI DUP3 SWAP1 SUB PUSH1 0x1F AND DUP3 ADD SWAP2 JUMPDEST POP POP POP POP POP SWAP1 DUP1 PUSH1 0x1 ADD DUP1 SLOAD PUSH2 0xCEB SWAP1 PUSH2 0x1825 JUMP JUMPDEST DUP1 PUSH1 0x1F ADD PUSH1 0x20 DUP1 SWAP2 DIV MUL PUSH1 0x20 ADD PUSH1 0x40 MLOAD SWAP1 DUP2 ADD PUSH1 0x40 MSTORE DUP1 SWAP3 SWAP2 SWAP1 DUP2 DUP2 MSTORE PUSH1 0x20 ADD DUP3 DUP1 SLOAD PUSH2 0xD17 SWAP1 PUSH2 0x1825 JUMP JUMPDEST DUP1 ISZERO PUSH2 0xD64 JUMPI DUP1 PUSH1 0x1F LT PUSH2 0xD39 JUMPI PUSH2 0x100 DUP1 DUP4 SLOAD DIV MUL DUP4 MSTORE SWAP2 PUSH1 0x20 ADD SWAP2 PUSH2 0xD64 JUMP JUMPDEST DUP3 ADD SWAP2 SWAP1 PUSH1 0x0 MSTORE PUSH1 0x20 PUSH1 0x0 KECCAK256 SWAP1 JUMPDEST DUP2 SLOAD DUP2 MSTORE SWAP1 PUSH1 0x1 ADD SWAP1 PUSH1 0x20 ADD DUP1 DUP4 GT PUSH2 0xD47 JUMPI DUP3 SWAP1 SUB PUSH1 0x1F AND DUP3 ADD SWAP2 JUMPDEST POP POP POP POP POP SWAP1 DUP1 PUSH1 0x2 ADD PUSH1 0x0 SWAP1 SLOAD SWAP1 PUSH2 0x100 EXP SWAP1 DIV PUSH20 0xFFFFFFFFFFFFFFFFFFFFFFFFFFFFFFFFFFFFFFFF AND SWAP1 DUP1 PUSH1 0x3 ADD SLOAD SWAP1 DUP1 PUSH1 0x4 ADD SLOAD SWAP1 DUP1 PUSH1 0x5 ADD PUSH1 0x0 SWAP1 SLOAD SWAP1 PUSH2 0x100 EXP SWAP1 DIV PUSH1 0xFF AND SWAP1 POP DUP7 JUMP JUMPDEST PUSH1 0x5 SLOAD DUP2 JUMP JUMPDEST PUSH1 0x4 SLOAD DUP2 JUMP JUMPDEST PUSH1 0x4 SLOAD CALLVALUE LT ISZERO PUSH2 0xDCE JUMPI PUSH1 0x0 DUP1 REVERT JUMPDEST PUSH1 0x6 PUSH1 0x0 CALLER PUSH20 0xFFFFFFFFFFFFFFFFFFFFFFFFFFFFFFFFFFFFFFFF AND PUSH20 0xFFFFFFFFFFFFFFFFFFFFFFFFFFFFFFFFFFFFFFFF AND DUP2 MSTORE PUSH1 0x20 ADD SWAP1 DUP2 MSTORE PUSH1 0x20 ADD PUSH1 0x0 KECCAK256 PUSH1 0x0 SWAP1 SLOAD SWAP1 PUSH2 0x100 EXP SWAP1 DIV PUSH1 0xFF AND ISZERO PUSH2 0xE25 JUMPI PUSH1 0x0 DUP1 REVERT JUMPDEST PUSH1 0x1 PUSH1 0x6 PUSH1 0x0 CALLER PUSH20 0xFFFFFFFFFFFFFFFFFFFFFFFFFFFFFFFFFFFFFFFF AND PUSH20 0xFFFFFFFFFFFFFFFFFFFFFFFFFFFFFFFFFFFFFFFF AND DUP2 MSTORE PUSH1 0x20 ADD SWAP1 DUP2 MSTORE PUSH1 0x20 ADD PUSH1 0x0 KECCAK256 PUSH1 0x0 PUSH2 0x100 EXP DUP2 SLOAD DUP2 PUSH1 0xFF MUL NOT AND SWAP1 DUP4 ISZERO ISZERO MUL OR SWAP1 SSTORE POP PUSH1 0x7 CALLER SWAP1 DUP1 PUSH1 0x1 DUP2 SLOAD ADD DUP1 DUP3 SSTORE DUP1 SWAP2 POP POP PUSH1 0x1 SWAP1 SUB SWAP1 PUSH1 0x0 MSTORE PUSH1 0x20 PUSH1 0x0 KECCAK256 ADD PUSH1 0x0 SWAP1 SWAP2 SWAP1 SWAP2 SWAP1 SWAP2 PUSH2 0x100 EXP DUP2 SLOAD DUP2 PUSH20 0xFFFFFFFFFFFFFFFFFFFFFFFFFFFFFFFFFFFFFFFF MUL NOT AND SWAP1 DUP4 PUSH20 0xFFFFFFFFFFFFFFFFFFFFFFFFFFFFFFFFFFFFFFFF AND MUL OR SWAP1 SSTORE POP PUSH1 0x8 PUSH1 0x0 DUP2 SLOAD DUP1 SWAP3 SWAP2 SWAP1 PUSH2 0xEF3 SWAP1 PUSH2 0x1856 JUMP JUMPDEST SWAP2 SWAP1 POP SSTORE POP JUMP JUMPDEST PUSH1 0x6 PUSH1 0x0 CALLER PUSH20 0xFFFFFFFFFFFFFFFFFFFFFFFFFFFFFFFFFFFFFFFF AND PUSH20 0xFFFFFFFFFFFFFFFFFFFFFFFFFFFFFFFFFFFFFFFF AND DUP2 MSTORE PUSH1 0x20 ADD SWAP1 DUP2 MSTORE PUSH1 0x20 ADD PUSH1 0x0 KECCAK256 PUSH1 0x0 SWAP1 SLOAD SWAP1 PUSH2 0x100 EXP SWAP1 DIV PUSH1 0xFF AND PUSH2 0xF50 JUMPI PUSH1 0x0 DUP1 REVERT JUMPDEST PUSH1 0x9 DUP2 DUP2 SLOAD DUP2 LT PUSH2 0xF64 JUMPI PUSH2 0xF63 PUSH2 0x17C7 JUMP JUMPDEST JUMPDEST SWAP1 PUSH1 0x0 MSTORE PUSH1 0x20 PUSH1 0x0 KECCAK256 SWAP1 PUSH1 0x7 MUL ADD PUSH1 0x6 ADD PUSH1 0x0 CALLER PUSH20 0xFFFFFFFFFFFFFFFFFFFFFFFFFFFFFFFFFFFFFFFF AND PUSH20 0xFFFFFFFFFFFFFFFFFFFFFFFFFFFFFFFFFFFFFFFF AND DUP2 MSTORE PUSH1 0x20 ADD SWAP1 DUP2 MSTORE PUSH1 0x20 ADD PUSH1 0x0 KECCAK256 PUSH1 0x0 SWAP1 SLOAD SWAP1 PUSH2 0x100 EXP SWAP1 DIV PUSH1 0xFF AND ISZERO PUSH2 0xFCA JUMPI PUSH1 0x0 DUP1 REVERT JUMPDEST PUSH1 0x1 PUSH1 0x9 DUP3 DUP2 SLOAD DUP2 LT PUSH2 0xFE0 JUMPI PUSH2 0xFDF PUSH2 0x17C7 JUMP JUMPDEST JUMPDEST SWAP1 PUSH1 0x0 MSTORE PUSH1 0x20 PUSH1 0x0 KECCAK256 SWAP1 PUSH1 0x7 MUL ADD PUSH1 0x6 ADD PUSH1 0x0 CALLER PUSH20 0xFFFFFFFFFFFFFFFFFFFFFFFFFFFFFFFFFFFFFFFF AND PUSH20 0xFFFFFFFFFFFFFFFFFFFFFFFFFFFFFFFFFFFFFFFF AND DUP2 MSTORE PUSH1 0x20 ADD SWAP1 DUP2 MSTORE PUSH1 0x20 ADD PUSH1 0x0 KECCAK256 PUSH1 0x0 PUSH2 0x100 EXP DUP2 SLOAD DUP2 PUSH1 0xFF MUL NOT AND SWAP1 DUP4 ISZERO ISZERO MUL OR SWAP1 SSTORE POP PUSH1 0x9 DUP2 DUP2 SLOAD DUP2 LT PUSH2 0x1059 JUMPI PUSH2 0x1058 PUSH2 0x17C7 JUMP JUMPDEST JUMPDEST SWAP1 PUSH1 0x0 MSTORE PUSH1 0x20 PUSH1 0x0 KECCAK256 SWAP1 PUSH1 0x7 MUL ADD PUSH1 0x4 ADD PUSH1 0x0 DUP2 SLOAD DUP1 SWAP3 SWAP2 SWAP1 PUSH2 0x107B SWAP1 PUSH2 0x1856 JUMP JUMPDEST SWAP2 SWAP1 POP SSTORE POP POP JUMP JUMPDEST PUSH1 0x8 SLOAD DUP2 JUMP JUMPDEST DUP3 DUP1 SLOAD PUSH2 0x1095 SWAP1 PUSH2 0x1825 JUMP JUMPDEST SWAP1 PUSH1 0x0 MSTORE PUSH1 0x20 PUSH1 0x0 KECCAK256 SWAP1 PUSH1 0x1F ADD PUSH1 0x20 SWAP1 DIV DUP2 ADD SWAP3 DUP3 PUSH2 0x10B7 JUMPI PUSH1 0x0 DUP6 SSTORE PUSH2 0x10FE JUMP JUMPDEST DUP3 PUSH1 0x1F LT PUSH2 0x10D0 JUMPI DUP1 MLOAD PUSH1 0xFF NOT AND DUP4 DUP1 ADD OR DUP6 SSTORE PUSH2 0x10FE JUMP JUMPDEST DUP3 DUP1 ADD PUSH1 0x1 ADD DUP6 SSTORE DUP3 ISZERO PUSH2 0x10FE JUMPI SWAP2 DUP3 ADD JUMPDEST DUP3 DUP2 GT ISZERO PUSH2 0x10FD JUMPI DUP3 MLOAD DUP3 SSTORE SWAP2 PUSH1 0x20 ADD SWAP2 SWAP1 PUSH1 0x1 ADD SWAP1 PUSH2 0x10E2 JUMP JUMPDEST JUMPDEST POP SWAP1 POP PUSH2 0x110B SWAP2 SWAP1 PUSH2 0x110F JUMP JUMPDEST POP SWAP1 JUMP JUMPDEST JUMPDEST DUP1 DUP3 GT ISZERO PUSH2 0x1128 JUMPI PUSH1 0x0 DUP2 PUSH1 0x0 SWAP1 SSTORE POP PUSH1 0x1 ADD PUSH2 0x1110 JUMP JUMPDEST POP SWAP1 JUMP JUMPDEST PUSH1 0x0 PUSH1 0x40 MLOAD SWAP1 POP SWAP1 JUMP JUMPDEST PUSH1 0x0 DUP1 REVERT JUMPDEST PUSH1 0x0 DUP1 REVERT JUMPDEST PUSH1 0x0 DUP2 SWAP1 POP SWAP2 SWAP1 POP JUMP JUMPDEST PUSH2 0x1153 DUP2 PUSH2 0x1140 JUMP JUMPDEST DUP2 EQ PUSH2 0x115E JUMPI PUSH1 0x0 DUP1 REVERT JUMPDEST POP JUMP JUMPDEST PUSH1 0x0 DUP2 CALLDATALOAD SWAP1 POP PUSH2 0x1170 DUP2 PUSH2 0x114A JUMP JUMPDEST SWAP3 SWAP2 POP POP JUMP JUMPDEST PUSH1 0x0 PUSH1 0x20 DUP3 DUP5 SUB SLT ISZERO PUSH2 0x118C JUMPI PUSH2 0x118B PUSH2 0x1136 JUMP JUMPDEST JUMPDEST PUSH1 0x0 PUSH2 0x119A DUP5 DUP3 DUP6 ADD PUSH2 0x1161 JUMP JUMPDEST SWAP2 POP POP SWAP3 SWAP2 POP POP JUMP JUMPDEST PUSH1 0x0 PUSH20 0xFFFFFFFFFFFFFFFFFFFFFFFFFFFFFFFFFFFFFFFF DUP3 AND SWAP1 POP SWAP2 SWAP1 POP JUMP JUMPDEST PUSH1 0x0 PUSH2 0x11CE DUP3 PUSH2 0x11A3 JUMP JUMPDEST SWAP1 POP SWAP2 SWAP1 POP JUMP JUMPDEST PUSH2 0x11DE DUP2 PUSH2 0x11C3 JUMP JUMPDEST DUP3 MSTORE POP POP JUMP JUMPDEST PUSH1 0x0 PUSH1 0x20 DUP3 ADD SWAP1 POP PUSH2 0x11F9 PUSH1 0x0 DUP4 ADD DUP5 PUSH2 0x11D5 JUMP JUMPDEST SWAP3 SWAP2 POP POP JUMP JUMPDEST PUSH2 0x1208 DUP2 PUSH2 0x1140 JUMP JUMPDEST DUP3 MSTORE POP POP JUMP JUMPDEST PUSH1 0x0 PUSH1 0x20 DUP3 ADD SWAP1 POP PUSH2 0x1223 PUSH1 0x0 DUP4 ADD DUP5 PUSH2 0x11FF JUMP JUMPDEST SWAP3 SWAP2 POP POP JUMP JUMPDEST PUSH2 0x1232 DUP2 PUSH2 0x11C3 JUMP JUMPDEST DUP2 EQ PUSH2 0x123D JUMPI PUSH1 0x0 DUP1 REVERT JUMPDEST POP JUMP JUMPDEST PUSH1 0x0 DUP2 CALLDATALOAD SWAP1 POP PUSH2 0x124F DUP2 PUSH2 0x1229 JUMP JUMPDEST SWAP3 SWAP2 POP POP JUMP JUMPDEST PUSH1 0x0 PUSH1 0x20 DUP3 DUP5 SUB SLT ISZERO PUSH2 0x126B JUMPI PUSH2 0x126A PUSH2 0x1136 JUMP JUMPDEST JUMPDEST PUSH1 0x0 PUSH2 0x1279 DUP5 DUP3 DUP6 ADD PUSH2 0x1240 JUMP JUMPDEST SWAP2 POP POP SWAP3 SWAP2 POP POP JUMP JUMPDEST PUSH1 0x0 DUP2 ISZERO ISZERO SWAP1 POP SWAP2 SWAP1 POP JUMP JUMPDEST PUSH2 0x1297 DUP2 PUSH2 0x1282 JUMP JUMPDEST DUP3 MSTORE POP POP JUMP JUMPDEST PUSH1 0x0 PUSH1 0x20 DUP3 ADD SWAP1 POP PUSH2 0x12B2 PUSH1 0x0 DUP4 ADD DUP5 PUSH2 0x128E JUMP JUMPDEST SWAP3 SWAP2 POP POP JUMP JUMPDEST PUSH1 0x0 DUP1 REVERT JUMPDEST PUSH1 0x0 DUP1 REVERT JUMPDEST PUSH1 0x0 PUSH1 0x1F NOT PUSH1 0x1F DUP4 ADD AND SWAP1 POP SWAP2 SWAP1 POP JUMP JUMPDEST PUSH32 0x4E487B7100000000000000000000000000000000000000000000000000000000 PUSH1 0x0 MSTORE PUSH1 0x41 PUSH1 0x4 MSTORE PUSH1 0x24 PUSH1 0x0 REVERT JUMPDEST PUSH2 0x130B DUP3 PUSH2 0x12C2 JUMP JUMPDEST DUP2 ADD DUP2 DUP2 LT PUSH8 0xFFFFFFFFFFFFFFFF DUP3 GT OR ISZERO PUSH2 0x132A JUMPI PUSH2 0x1329 PUSH2 0x12D3 JUMP JUMPDEST JUMPDEST DUP1 PUSH1 0x40 MSTORE POP POP POP JUMP JUMPDEST PUSH1 0x0 PUSH2 0x133D PUSH2 0x112C JUMP JUMPDEST SWAP1 POP PUSH2 0x1349 DUP3 DUP3 PUSH2 0x1302 JUMP JUMPDEST SWAP2 SWAP1 POP JUMP JUMPDEST PUSH1 0x0 PUSH8 0xFFFFFFFFFFFFFFFF DUP3 GT ISZERO PUSH2 0x1369 JUMPI PUSH2 0x1368 PUSH2 0x12D3 JUMP JUMPDEST JUMPDEST PUSH2 0x1372 DUP3 PUSH2 0x12C2 JUMP JUMPDEST SWAP1 POP PUSH1 0x20 DUP2 ADD SWAP1 POP SWAP2 SWAP1 POP JUMP JUMPDEST DUP3 DUP2 DUP4 CALLDATACOPY PUSH1 0x0 DUP4 DUP4 ADD MSTORE POP POP POP JUMP JUMPDEST PUSH1 0x0 PUSH2 0x13A1 PUSH2 0x139C DUP5 PUSH2 0x134E JUMP JUMPDEST PUSH2 0x1333 JUMP JUMPDEST SWAP1 POP DUP3 DUP2 MSTORE PUSH1 0x20 DUP2 ADD DUP5 DUP5 DUP5 ADD GT ISZERO PUSH2 0x13BD JUMPI PUSH2 0x13BC PUSH2 0x12BD JUMP JUMPDEST JUMPDEST PUSH2 0x13C8 DUP5 DUP3 DUP6 PUSH2 0x137F JUMP JUMPDEST POP SWAP4 SWAP3 POP POP POP JUMP JUMPDEST PUSH1 0x0 DUP3 PUSH1 0x1F DUP4 ADD SLT PUSH2 0x13E5 JUMPI PUSH2 0x13E4 PUSH2 0x12B8 JUMP JUMPDEST JUMPDEST DUP2 CALLDATALOAD PUSH2 0x13F5 DUP5 DUP3 PUSH1 0x20 DUP7 ADD PUSH2 0x138E JUMP JUMPDEST SWAP2 POP POP SWAP3 SWAP2 POP POP JUMP JUMPDEST PUSH1 0x0 DUP1 PUSH1 0x0 DUP1 PUSH1 0x80 DUP6 DUP8 SUB SLT ISZERO PUSH2 0x1418 JUMPI PUSH2 0x1417 PUSH2 0x1136 JUMP JUMPDEST JUMPDEST PUSH1 0x0 DUP6 ADD CALLDATALOAD PUSH8 0xFFFFFFFFFFFFFFFF DUP2 GT ISZERO PUSH2 0x1436 JUMPI PUSH2 0x1435 PUSH2 0x113B JUMP JUMPDEST JUMPDEST PUSH2 0x1442 DUP8 DUP3 DUP9 ADD PUSH2 0x13D0 JUMP JUMPDEST SWAP5 POP POP PUSH1 0x20 DUP6 ADD CALLDATALOAD PUSH8 0xFFFFFFFFFFFFFFFF DUP2 GT ISZERO PUSH2 0x1463 JUMPI PUSH2 0x1462 PUSH2 0x113B JUMP JUMPDEST JUMPDEST PUSH2 0x146F DUP8 DUP3 DUP9 ADD PUSH2 0x13D0 JUMP JUMPDEST SWAP4 POP POP PUSH1 0x40 PUSH2 0x1480 DUP8 DUP3 DUP9 ADD PUSH2 0x1240 JUMP JUMPDEST SWAP3 POP POP PUSH1 0x60 PUSH2 0x1491 DUP8 DUP3 DUP9 ADD PUSH2 0x1161 JUMP JUMPDEST SWAP2 POP POP SWAP3 SWAP6 SWAP2 SWAP5 POP SWAP3 POP JUMP JUMPDEST PUSH1 0x0 DUP2 MLOAD SWAP1 POP SWAP2 SWAP1 POP JUMP JUMPDEST PUSH1 0x0 DUP3 DUP3 MSTORE PUSH1 0x20 DUP3 ADD SWAP1 POP SWAP3 SWAP2 POP POP JUMP JUMPDEST PUSH1 0x0 JUMPDEST DUP4 DUP2 LT ISZERO PUSH2 0x14D7 JUMPI DUP1 DUP3 ADD MLOAD DUP2 DUP5 ADD MSTORE PUSH1 0x20 DUP2 ADD SWAP1 POP PUSH2 0x14BC JUMP JUMPDEST DUP4 DUP2 GT ISZERO PUSH2 0x14E6 JUMPI PUSH1 0x0 DUP5 DUP5 ADD MSTORE JUMPDEST POP POP POP POP JUMP JUMPDEST PUSH1 0x0 PUSH2 0x14F7 DUP3 PUSH2 0x149D JUMP JUMPDEST PUSH2 0x1501 DUP2 DUP6 PUSH2 0x14A8 JUMP JUMPDEST SWAP4 POP PUSH2 0x1511 DUP2 DUP6 PUSH1 0x20 DUP7 ADD PUSH2 0x14B9 JUMP JUMPDEST PUSH2 0x151A DUP2 PUSH2 0x12C2 JUMP JUMPDEST DUP5 ADD SWAP2 POP POP SWAP3 SWAP2 POP POP JUMP JUMPDEST PUSH1 0x0 PUSH1 0x20 DUP3 ADD SWAP1 POP DUP2 DUP2 SUB PUSH1 0x0 DUP4 ADD MSTORE PUSH2 0x153F DUP2 DUP5 PUSH2 0x14EC JUMP JUMPDEST SWAP1 POP SWAP3 SWAP2 POP POP JUMP JUMPDEST PUSH1 0x0 PUSH2 0x120 DUP3 ADD SWAP1 POP PUSH2 0x155D PUSH1 0x0 DUP4 ADD DUP13 PUSH2 0x11FF JUMP JUMPDEST PUSH2 0x156A PUSH1 0x20 DUP4 ADD DUP12 PUSH2 0x11FF JUMP JUMPDEST PUSH2 0x1577 PUSH1 0x40 DUP4 ADD DUP11 PUSH2 0x11FF JUMP JUMPDEST PUSH2 0x1584 PUSH1 0x60 DUP4 ADD DUP10 PUSH2 0x11FF JUMP JUMPDEST PUSH2 0x1591 PUSH1 0x80 DUP4 ADD DUP9 PUSH2 0x11FF JUMP JUMPDEST PUSH2 0x159E PUSH1 0xA0 DUP4 ADD DUP8 PUSH2 0x11D5 JUMP JUMPDEST DUP2 DUP2 SUB PUSH1 0xC0 DUP4 ADD MSTORE PUSH2 0x15B0 DUP2 DUP7 PUSH2 0x14EC JUMP JUMPDEST SWAP1 POP DUP2 DUP2 SUB PUSH1 0xE0 DUP4 ADD MSTORE PUSH2 0x15C4 DUP2 DUP6 PUSH2 0x14EC JUMP JUMPDEST SWAP1 POP DUP2 DUP2 SUB PUSH2 0x100 DUP4 ADD MSTORE PUSH2 0x15D9 DUP2 DUP5 PUSH2 0x14EC JUMP JUMPDEST SWAP1 POP SWAP11 SWAP10 POP POP POP POP POP POP POP POP POP POP JUMP JUMPDEST PUSH1 0x0 DUP2 MLOAD SWAP1 POP SWAP2 SWAP1 POP JUMP JUMPDEST PUSH1 0x0 DUP3 DUP3 MSTORE PUSH1 0x20 DUP3 ADD SWAP1 POP SWAP3 SWAP2 POP POP JUMP JUMPDEST PUSH1 0x0 DUP2 SWAP1 POP PUSH1 0x20 DUP3 ADD SWAP1 POP SWAP2 SWAP1 POP JUMP JUMPDEST PUSH2 0x161E DUP2 PUSH2 0x11C3 JUMP JUMPDEST DUP3 MSTORE POP POP JUMP JUMPDEST PUSH1 0x0 PUSH2 0x1630 DUP4 DUP4 PUSH2 0x1615 JUMP JUMPDEST PUSH1 0x20 DUP4 ADD SWAP1 POP SWAP3 SWAP2 POP POP JUMP JUMPDEST PUSH1 0x0 PUSH1 0x20 DUP3 ADD SWAP1 POP SWAP2 SWAP1 POP JUMP JUMPDEST PUSH1 0x0 PUSH2 0x1654 DUP3 PUSH2 0x15E9 JUMP JUMPDEST PUSH2 0x165E DUP2 DUP6 PUSH2 0x15F4 JUMP JUMPDEST SWAP4 POP PUSH2 0x1669 DUP4 PUSH2 0x1605 JUMP JUMPDEST DUP1 PUSH1 0x0 JUMPDEST DUP4 DUP2 LT ISZERO PUSH2 0x169A JUMPI DUP2 MLOAD PUSH2 0x1681 DUP9 DUP3 PUSH2 0x1624 JUMP JUMPDEST SWAP8 POP PUSH2 0x168C DUP4 PUSH2 0x163C JUMP JUMPDEST SWAP3 POP POP PUSH1 0x1 DUP2 ADD SWAP1 POP PUSH2 0x166D JUMP JUMPDEST POP DUP6 SWAP4 POP POP POP POP SWAP3 SWAP2 POP POP JUMP JUMPDEST PUSH1 0x0 PUSH1 0x20 DUP3 ADD SWAP1 POP DUP2 DUP2 SUB PUSH1 0x0 DUP4 ADD MSTORE PUSH2 0x16C1 DUP2 DUP5 PUSH2 0x1649 JUMP JUMPDEST SWAP1 POP SWAP3 SWAP2 POP POP JUMP JUMPDEST PUSH1 0x0 PUSH1 0xC0 DUP3 ADD SWAP1 POP DUP2 DUP2 SUB PUSH1 0x0 DUP4 ADD MSTORE PUSH2 0x16E3 DUP2 DUP10 PUSH2 0x14EC JUMP JUMPDEST SWAP1 POP DUP2 DUP2 SUB PUSH1 0x20 DUP4 ADD MSTORE PUSH2 0x16F7 DUP2 DUP9 PUSH2 0x14EC JUMP JUMPDEST SWAP1 POP PUSH2 0x1706 PUSH1 0x40 DUP4 ADD DUP8 PUSH2 0x11D5 JUMP JUMPDEST PUSH2 0x1713 PUSH1 0x60 DUP4 ADD DUP7 PUSH2 0x11FF JUMP JUMPDEST PUSH2 0x1720 PUSH1 0x80 DUP4 ADD DUP6 PUSH2 0x11FF JUMP JUMPDEST PUSH2 0x172D PUSH1 0xA0 DUP4 ADD DUP5 PUSH2 0x128E JUMP JUMPDEST SWAP8 SWAP7 POP POP POP POP POP POP POP JUMP JUMPDEST PUSH32 0x4E487B7100000000000000000000000000000000000000000000000000000000 PUSH1 0x0 MSTORE PUSH1 0x12 PUSH1 0x4 MSTORE PUSH1 0x24 PUSH1 0x0 REVERT JUMPDEST PUSH32 0x4E487B7100000000000000000000000000000000000000000000000000000000 PUSH1 0x0 MSTORE PUSH1 0x11 PUSH1 0x4 MSTORE PUSH1 0x24 PUSH1 0x0 REVERT JUMPDEST PUSH1 0x0 PUSH2 0x17A1 DUP3 PUSH2 0x1140 JUMP JUMPDEST SWAP2 POP PUSH2 0x17AC DUP4 PUSH2 0x1140 JUMP JUMPDEST SWAP3 POP DUP3 PUSH2 0x17BC JUMPI PUSH2 0x17BB PUSH2 0x1738 JUMP JUMPDEST JUMPDEST DUP3 DUP3 DIV SWAP1 POP SWAP3 SWAP2 POP POP JUMP JUMPDEST PUSH32 0x4E487B7100000000000000000000000000000000000000000000000000000000 PUSH1 0x0 MSTORE PUSH1 0x32 PUSH1 0x4 MSTORE PUSH1 0x24 PUSH1 0x0 REVERT JUMPDEST PUSH32 0x4E487B7100000000000000000000000000000000000000000000000000000000 PUSH1 0x0 MSTORE PUSH1 0x22 PUSH1 0x4 MSTORE PUSH1 0x24 PUSH1 0x0 REVERT JUMPDEST PUSH1 0x0 PUSH1 0x2 DUP3 DIV SWAP1 POP PUSH1 0x1 DUP3 AND DUP1 PUSH2 0x183D JUMPI PUSH1 0x7F DUP3 AND SWAP2 POP JUMPDEST PUSH1 0x20 DUP3 LT DUP2 SUB PUSH2 0x1850 JUMPI PUSH2 0x184F PUSH2 0x17F6 JUMP JUMPDEST JUMPDEST POP SWAP2 SWAP1 POP JUMP JUMPDEST PUSH1 0x0 PUSH2 0x1861 DUP3 PUSH2 0x1140 JUMP JUMPDEST SWAP2 POP PUSH32 0xFFFFFFFFFFFFFFFFFFFFFFFFFFFFFFFFFFFFFFFFFFFFFFFFFFFFFFFFFFFFFFFF DUP3 SUB PUSH2 0x1893 JUMPI PUSH2 0x1892 PUSH2 0x1767 JUMP JUMPDEST JUMPDEST PUSH1 0x1 DUP3 ADD SWAP1 POP SWAP2 SWAP1 POP JUMP INVALID LOG2 PUSH5 0x6970667358 0x22 SLT KECCAK256 INVALID 0x2D GASLIMIT 0x1F 0xE3 KECCAK256 0xFC 0x5E PUSH23 0x6CB5CBD5FD68846A2BB818204ADAE6D5E21EFC85E26626 PUSH5 0x736F6C6343 STOP ADDMOD 0xD STOP CALLER "},"gasEstimates":{"creation":{"codeDepositCost":"1271200","executionCost":"infinite","totalCost":"infinite"},"external":{"approveRequest(uint256)":"infinite","contribute()":"101847","contributors(address)":"2935","contributorsList(uint256)":"5002","createRequest(string,string,address,uint256)":"infinite","description()":"infinite","finalizeRequest(uint256)":"infinite","getAllContributors()":"infinite","getBalance()":"3010","getRequestsCount()":"2490","getSummary()":"infinite","imgSource()":"infinite","manager()":"2625","minimumAmount()":"2473","requests(uint256)":"infinite","targetAmount()":"2451","title()":"infinite","totalContributors()":"2539"}},"methodIdentifiers":{"approveRequest(uint256)":"d7d1bbdb","contribute()":"d7bb99ba","contributors(address)":"1f6d4942","contributorsList(uint256)":"0b9f2c4a","createRequest(string,string,address,uint256)":"2f814278","description()":"7284e416","finalizeRequest(uint256)":"03441006","getAllContributors()":"51f890ea","getBalance()":"12065fe0","getRequestsCount()":"3410452a","getSummary()":"4051ddac","imgSource()":"37627839","manager()":"481c6a75","minimumAmount()":"bb0c8298","requests(uint256)":"81d12c58","targetAmount()":"953b8fb8","title()":"4a79d50c","totalContributors()":"f251fc8c"}},"storageLayout":{"storage":[{"astId":71,"contract":"AEIOU.sol:AEIOUCampaign","label":"title","offset":0,"slot":"0","type":"t_string_storage"},{"astId":73,"contract":"AEIOU.sol:AEIOUCampaign","label":"description","offset":0,"slot":"1","type":"t_string_storage"},{"astId":75,"contract":"AEIOU.sol:AEIOUCampaign","label":"imgSource","offset":0,"slot":"2","type":"t_string_storage"},{"astId":77,"contract":"AEIOU.sol:AEIOUCampaign","label":"manager","offset":0,"slot":"3","type":"t_address"},{"astId":79,"contract":"AEIOU.sol:AEIOUCampaign","label":"minimumAmount","offset":0,"slot":"4","type":"t_uint256"},{"astId":81,"contract":"AEIOU.sol:AEIOUCampaign","label":"targetAmount","offset":0,"slot":"5","type":"t_uint256"},{"astId":85,"contract":"AEIOU.sol:AEIOUCampaign","label":"contributors","offset":0,"slot":"6","type":"t_mapping(t_address,t_bool)"},{"astId":88,"contract":"AEIOU.sol:AEIOUCampaign","label":"contributorsList","offset":0,"slot":"7","type":"t_array(t_address)dyn_storage"},{"astId":90,"contract":"AEIOU.sol:AEIOUCampaign","label":"totalContributors","offset":0,"slot":"8","type":"t_uint256"},{"astId":94,"contract":"AEIOU.sol:AEIOUCampaign","label":"requests","offset":0,"slot":"9","type":"t_array(t_struct(Request)69_storage)dyn_storage"}],"types":{"t_address":{"encoding":"inplace","label":"address","numberOfBytes":"20"},"t_array(t_address)dyn_storage":{"base":"t_address","encoding":"dynamic_array","label":"address[]","numberOfBytes":"32"},"t_array(t_struct(Request)69_storage)dyn_storage":{"base":"t_struct(Request)69_storage","encoding":"dynamic_array","label":"struct AEIOUCampaign.Request[]","numberOfBytes":"32"},"t_bool":{"encoding":"inplace","label":"bool","numberOfBytes":"1"},"t_mapping(t_address,t_bool)":{"encoding":"mapping","key":"t_address","label":"mapping(address => bool)","numberOfBytes":"32","value":"t_bool"},"t_string_storage":{"encoding":"bytes","label":"string","numberOfBytes":"32"},"t_struct(Request)69_storage":{"encoding":"inplace","label":"struct AEIOUCampaign.Request","members":[{"astId":54,"contract":"AEIOU.sol:AEIOUCampaign","label":"title","offset":0,"slot":"0","type":"t_string_storage"},{"astId":56,"contract":"AEIOU.sol:AEIOUCampaign","label":"description","offset":0,"slot":"1","type":"t_string_storage"},{"astId":58,"contract":"AEIOU.sol:AEIOUCampaign","label":"receiver","offset":0,"slot":"2","type":"t_address"},{"astId":60,"contract":"AEIOU.sol:AEIOUCampaign","label":"amount","offset":0,"slot":"3","type":"t_uint256"},{"astId":62,"contract":"AEIOU.sol:AEIOUCampaign","label":"approvalsCount","offset":0,"slot":"4","type":"t_uint256"},{"astId":64,"contract":"AEIOU.sol:AEIOUCampaign","label":"completed","offset":0,"slot":"5","type":"t_bool"},{"astId":68,"contract":"AEIOU.sol:AEIOUCampaign","label":"approvals","offset":0,"slot":"6","type":"t_mapping(t_address,t_bool)"}],"numberOfBytes":"224"},"t_uint256":{"encoding":"inplace","label":"uint256","numberOfBytes":"32"}}},"userdoc":{"kind":"user","methods":{},"version":1}}