{"abi":[{"inputs":[{"internalType":"uint256","name":"","type":"uint256"}],"name":"campaigns","outputs":[{"internalType":"address","name":"","type":"address"}],"stateMutability":"view","type":"function"},{"inputs":[{"internalType":"string","name":"title","type":"string"},{"internalType":"string","name":"description","type":"string"},{"internalType":"string","name":"image","type":"string"},{"internalType":"uint256","name":"minimumAmount","type":"uint256"},{"internalType":"uint256","name":"targetAmount","type":"uint256"}],"name":"createCampaign","outputs":[],"stateMutability":"nonpayable","type":"function"},{"inputs":[],"name":"getAllCampaigns","outputs":[{"internalType":"address[]","name":"","type":"address[]"}],"stateMutability":"view","type":"function"}],"devdoc":{"kind":"dev","methods":{"createCampaign(string,string,string,uint256,uint256)":{"details":"Creates a new campaign","params":{"description":"Description of new campaign","image":"Image of new campaign","minimumAmount":"Minimum investment amount","targetAmount":"Target crowdfunding amount","title":"Title of new campaign"}},"getAllCampaigns()":{"details":"Returns all created campaigns"}},"version":1},"evm":{"assembly":"    /* \"AEIOU.sol\":58:1032  contract AEIOUCampaignFactory {... */\n  mstore(0x40, 0x80)\n  callvalue\n  dup1\n  iszero\n  tag_1\n  jumpi\n  0x00\n  dup1\n  revert\ntag_1:\n  pop\n  dataSize(sub_0)\n  dup1\n  dataOffset(sub_0)\n  0x00\n  codecopy\n  0x00\n  return\nstop\n\nsub_0: assembly {\n        /* \"AEIOU.sol\":58:1032  contract AEIOUCampaignFactory {... */\n      mstore(0x40, 0x80)\n      callvalue\n      dup1\n      iszero\n      tag_1\n      jumpi\n      0x00\n      dup1\n      revert\n    tag_1:\n      pop\n      jumpi(tag_2, lt(calldatasize, 0x04))\n      shr(0xe0, calldataload(0x00))\n      dup1\n      0x141961bc\n      eq\n      tag_3\n      jumpi\n      dup1\n      0x86cdf604\n      eq\n      tag_4\n      jumpi\n      dup1\n      0x980f2e66\n      eq\n      tag_5\n      jumpi\n    tag_2:\n      0x00\n      dup1\n      revert\n        /* \"AEIOU.sol\":94:120  address[] public campaigns */\n    tag_3:\n      tag_6\n      0x04\n      dup1\n      calldatasize\n      sub\n      dup2\n      add\n      swap1\n      tag_7\n      swap2\n      swap1\n      tag_8\n      jump\t// in\n    tag_7:\n      tag_9\n      jump\t// in\n    tag_6:\n      mload(0x40)\n      tag_10\n      swap2\n      swap1\n      tag_11\n      jump\t// in\n    tag_10:\n      mload(0x40)\n      dup1\n      swap2\n      sub\n      swap1\n      return\n        /* \"AEIOU.sol\":931:1030  function getAllCampaigns() public view returns (address[] memory) {... */\n    tag_4:\n      tag_12\n      tag_13\n      jump\t// in\n    tag_12:\n      mload(0x40)\n      tag_14\n      swap2\n      swap1\n      tag_15\n      jump\t// in\n    tag_14:\n      mload(0x40)\n      dup1\n      swap2\n      sub\n      swap1\n      return\n        /* \"AEIOU.sol\":424:867  function createCampaign(... */\n    tag_5:\n      tag_16\n      0x04\n      dup1\n      calldatasize\n      sub\n      dup2\n      add\n      swap1\n      tag_17\n      swap2\n      swap1\n      tag_18\n      jump\t// in\n    tag_17:\n      tag_19\n      jump\t// in\n    tag_16:\n      stop\n        /* \"AEIOU.sol\":94:120  address[] public campaigns */\n    tag_9:\n      0x00\n      dup2\n      dup2\n      sload\n      dup2\n      lt\n      tag_20\n      jumpi\n      0x00\n      dup1\n      revert\n    tag_20:\n      swap1\n      0x00\n      mstore\n      keccak256(0x00, 0x20)\n      add\n      0x00\n      swap2\n      pop\n      sload\n      swap1\n      0x0100\n      exp\n      swap1\n      div\n      0xffffffffffffffffffffffffffffffffffffffff\n      and\n      dup2\n      jump\t// out\n        /* \"AEIOU.sol\":931:1030  function getAllCampaigns() public view returns (address[] memory) {... */\n    tag_13:\n        /* \"AEIOU.sol\":979:995  address[] memory */\n      0x60\n        /* \"AEIOU.sol\":1014:1023  campaigns */\n      0x00\n        /* \"AEIOU.sol\":1007:1023  return campaigns */\n      dup1\n      sload\n      dup1\n      0x20\n      mul\n      0x20\n      add\n      mload(0x40)\n      swap1\n      dup2\n      add\n      0x40\n      mstore\n      dup1\n      swap3\n      swap2\n      swap1\n      dup2\n      dup2\n      mstore\n      0x20\n      add\n      dup3\n      dup1\n      sload\n      dup1\n      iszero\n      tag_23\n      jumpi\n      0x20\n      mul\n      dup3\n      add\n      swap2\n      swap1\n      0x00\n      mstore\n      keccak256(0x00, 0x20)\n      swap1\n    tag_24:\n      dup2\n      0x00\n      swap1\n      sload\n      swap1\n      0x0100\n      exp\n      swap1\n      div\n      0xffffffffffffffffffffffffffffffffffffffff\n      and\n      0xffffffffffffffffffffffffffffffffffffffff\n      and\n      dup2\n      mstore\n      0x20\n      add\n      swap1\n      0x01\n      add\n      swap1\n      dup1\n      dup4\n      gt\n      tag_24\n      jumpi\n    tag_23:\n      pop\n      pop\n      pop\n      pop\n      pop\n      swap1\n      pop\n        /* \"AEIOU.sol\":931:1030  function getAllCampaigns() public view returns (address[] memory) {... */\n      swap1\n      jump\t// out\n        /* \"AEIOU.sol\":424:867  function createCampaign(... */\n    tag_19:\n        /* \"AEIOU.sol\":619:644  AEIOUCampaign newCampaign */\n      0x00\n        /* \"AEIOU.sol\":678:683  title */\n      dup6\n        /* \"AEIOU.sol\":697:708  description */\n      dup6\n        /* \"AEIOU.sol\":722:727  image */\n      dup6\n        /* \"AEIOU.sol\":741:754  minimumAmount */\n      dup6\n        /* \"AEIOU.sol\":768:780  targetAmount */\n      dup6\n        /* \"AEIOU.sol\":794:804  msg.sender */\n      caller\n        /* \"AEIOU.sol\":647:814  new AEIOUCampaign(... */\n      mload(0x40)\n      tag_26\n      swap1\n      tag_27\n      jump\t// in\n    tag_26:\n      tag_28\n      swap7\n      swap6\n      swap5\n      swap4\n      swap3\n      swap2\n      swap1\n      tag_29\n      jump\t// in\n    tag_28:\n      mload(0x40)\n      dup1\n      swap2\n      sub\n      swap1\n      0x00\n      create\n      dup1\n      iszero\n      dup1\n      iszero\n      tag_30\n      jumpi\n      returndatasize\n      0x00\n      dup1\n      returndatacopy\n      revert(0x00, returndatasize)\n    tag_30:\n      pop\n        /* \"AEIOU.sol\":619:814  AEIOUCampaign newCampaign = new AEIOUCampaign(... */\n      swap1\n      pop\n        /* \"AEIOU.sol\":824:833  campaigns */\n      0x00\n        /* \"AEIOU.sol\":847:858  newCampaign */\n      dup2\n        /* \"AEIOU.sol\":824:860  campaigns.push(address(newCampaign)) */\n      swap1\n      dup1\n      0x01\n      dup2\n      sload\n      add\n      dup1\n      dup3\n      sstore\n      dup1\n      swap2\n      pop\n      pop\n      0x01\n      swap1\n      sub\n      swap1\n      0x00\n      mstore\n      keccak256(0x00, 0x20)\n      add\n      0x00\n      swap1\n      swap2\n      swap1\n      swap2\n      swap1\n      swap2\n      0x0100\n      exp\n      dup2\n      sload\n      dup2\n      0xffffffffffffffffffffffffffffffffffffffff\n      mul\n      not\n      and\n      swap1\n      dup4\n      0xffffffffffffffffffffffffffffffffffffffff\n      and\n      mul\n      or\n      swap1\n      sstore\n      pop\n        /* \"AEIOU.sol\":609:867  {... */\n      pop\n        /* \"AEIOU.sol\":424:867  function createCampaign(... */\n      pop\n      pop\n      pop\n      pop\n      pop\n      jump\t// out\n    tag_27:\n      dataSize(sub_0)\n      dup1\n      dataOffset(sub_0)\n      dup4\n      codecopy\n      add\n      swap1\n      jump\t// out\n        /* \"#utility.yul\":7:82   */\n    tag_32:\n        /* \"#utility.yul\":40:46   */\n      0x00\n        /* \"#utility.yul\":73:75   */\n      0x40\n        /* \"#utility.yul\":67:76   */\n      mload\n        /* \"#utility.yul\":57:76   */\n      swap1\n      pop\n        /* \"#utility.yul\":7:82   */\n      swap1\n      jump\t// out\n        /* \"#utility.yul\":88:205   */\n    tag_33:\n        /* \"#utility.yul\":197:198   */\n      0x00\n        /* \"#utility.yul\":194:195   */\n      dup1\n        /* \"#utility.yul\":187:199   */\n      revert\n        /* \"#utility.yul\":211:328   */\n    tag_34:\n        /* \"#utility.yul\":320:321   */\n      0x00\n        /* \"#utility.yul\":317:318   */\n      dup1\n        /* \"#utility.yul\":310:322   */\n      revert\n        /* \"#utility.yul\":334:411   */\n    tag_35:\n        /* \"#utility.yul\":371:378   */\n      0x00\n        /* \"#utility.yul\":400:405   */\n      dup2\n        /* \"#utility.yul\":389:405   */\n      swap1\n      pop\n        /* \"#utility.yul\":334:411   */\n      swap2\n      swap1\n      pop\n      jump\t// out\n        /* \"#utility.yul\":417:539   */\n    tag_36:\n        /* \"#utility.yul\":490:514   */\n      tag_69\n        /* \"#utility.yul\":508:513   */\n      dup2\n        /* \"#utility.yul\":490:514   */\n      tag_35\n      jump\t// in\n    tag_69:\n        /* \"#utility.yul\":483:488   */\n      dup2\n        /* \"#utility.yul\":480:515   */\n      eq\n        /* \"#utility.yul\":470:533   */\n      tag_70\n      jumpi\n        /* \"#utility.yul\":529:530   */\n      0x00\n        /* \"#utility.yul\":526:527   */\n      dup1\n        /* \"#utility.yul\":519:531   */\n      revert\n        /* \"#utility.yul\":470:533   */\n    tag_70:\n        /* \"#utility.yul\":417:539   */\n      pop\n      jump\t// out\n        /* \"#utility.yul\":545:684   */\n    tag_37:\n        /* \"#utility.yul\":591:596   */\n      0x00\n        /* \"#utility.yul\":629:635   */\n      dup2\n        /* \"#utility.yul\":616:636   */\n      calldataload\n        /* \"#utility.yul\":607:636   */\n      swap1\n      pop\n        /* \"#utility.yul\":645:678   */\n      tag_72\n        /* \"#utility.yul\":672:677   */\n      dup2\n        /* \"#utility.yul\":645:678   */\n      tag_36\n      jump\t// in\n    tag_72:\n        /* \"#utility.yul\":545:684   */\n      swap3\n      swap2\n      pop\n      pop\n      jump\t// out\n        /* \"#utility.yul\":690:1019   */\n    tag_8:\n        /* \"#utility.yul\":749:755   */\n      0x00\n        /* \"#utility.yul\":798:800   */\n      0x20\n        /* \"#utility.yul\":786:795   */\n      dup3\n        /* \"#utility.yul\":777:784   */\n      dup5\n        /* \"#utility.yul\":773:796   */\n      sub\n        /* \"#utility.yul\":769:801   */\n      slt\n        /* \"#utility.yul\":766:885   */\n      iszero\n      tag_74\n      jumpi\n        /* \"#utility.yul\":804:883   */\n      tag_75\n      tag_33\n      jump\t// in\n    tag_75:\n        /* \"#utility.yul\":766:885   */\n    tag_74:\n        /* \"#utility.yul\":924:925   */\n      0x00\n        /* \"#utility.yul\":949:1002   */\n      tag_76\n        /* \"#utility.yul\":994:1001   */\n      dup5\n        /* \"#utility.yul\":985:991   */\n      dup3\n        /* \"#utility.yul\":974:983   */\n      dup6\n        /* \"#utility.yul\":970:992   */\n      add\n        /* \"#utility.yul\":949:1002   */\n      tag_37\n      jump\t// in\n    tag_76:\n        /* \"#utility.yul\":939:1002   */\n      swap2\n      pop\n        /* \"#utility.yul\":895:1012   */\n      pop\n        /* \"#utility.yul\":690:1019   */\n      swap3\n      swap2\n      pop\n      pop\n      jump\t// out\n        /* \"#utility.yul\":1025:1151   */\n    tag_38:\n        /* \"#utility.yul\":1062:1069   */\n      0x00\n        /* \"#utility.yul\":1102:1144   */\n      0xffffffffffffffffffffffffffffffffffffffff\n        /* \"#utility.yul\":1095:1100   */\n      dup3\n        /* \"#utility.yul\":1091:1145   */\n      and\n        /* \"#utility.yul\":1080:1145   */\n      swap1\n      pop\n        /* \"#utility.yul\":1025:1151   */\n      swap2\n      swap1\n      pop\n      jump\t// out\n        /* \"#utility.yul\":1157:1253   */\n    tag_39:\n        /* \"#utility.yul\":1194:1201   */\n      0x00\n        /* \"#utility.yul\":1223:1247   */\n      tag_79\n        /* \"#utility.yul\":1241:1246   */\n      dup3\n        /* \"#utility.yul\":1223:1247   */\n      tag_38\n      jump\t// in\n    tag_79:\n        /* \"#utility.yul\":1212:1247   */\n      swap1\n      pop\n        /* \"#utility.yul\":1157:1253   */\n      swap2\n      swap1\n      pop\n      jump\t// out\n        /* \"#utility.yul\":1259:1377   */\n    tag_40:\n        /* \"#utility.yul\":1346:1370   */\n      tag_81\n        /* \"#utility.yul\":1364:1369   */\n      dup2\n        /* \"#utility.yul\":1346:1370   */\n      tag_39\n      jump\t// in\n    tag_81:\n        /* \"#utility.yul\":1341:1344   */\n      dup3\n        /* \"#utility.yul\":1334:1371   */\n      mstore\n        /* \"#utility.yul\":1259:1377   */\n      pop\n      pop\n      jump\t// out\n        /* \"#utility.yul\":1383:1605   */\n    tag_11:\n        /* \"#utility.yul\":1476:1480   */\n      0x00\n        /* \"#utility.yul\":1514:1516   */\n      0x20\n        /* \"#utility.yul\":1503:1512   */\n      dup3\n        /* \"#utility.yul\":1499:1517   */\n      add\n        /* \"#utility.yul\":1491:1517   */\n      swap1\n      pop\n        /* \"#utility.yul\":1527:1598   */\n      tag_83\n        /* \"#utility.yul\":1595:1596   */\n      0x00\n        /* \"#utility.yul\":1584:1593   */\n      dup4\n        /* \"#utility.yul\":1580:1597   */\n      add\n        /* \"#utility.yul\":1571:1577   */\n      dup5\n        /* \"#utility.yul\":1527:1598   */\n      tag_40\n      jump\t// in\n    tag_83:\n        /* \"#utility.yul\":1383:1605   */\n      swap3\n      swap2\n      pop\n      pop\n      jump\t// out\n        /* \"#utility.yul\":1611:1725   */\n    tag_41:\n        /* \"#utility.yul\":1678:1684   */\n      0x00\n        /* \"#utility.yul\":1712:1717   */\n      dup2\n        /* \"#utility.yul\":1706:1718   */\n      mload\n        /* \"#utility.yul\":1696:1718   */\n      swap1\n      pop\n        /* \"#utility.yul\":1611:1725   */\n      swap2\n      swap1\n      pop\n      jump\t// out\n        /* \"#utility.yul\":1731:1915   */\n    tag_42:\n        /* \"#utility.yul\":1830:1841   */\n      0x00\n        /* \"#utility.yul\":1864:1870   */\n      dup3\n        /* \"#utility.yul\":1859:1862   */\n      dup3\n        /* \"#utility.yul\":1852:1871   */\n      mstore\n        /* \"#utility.yul\":1904:1908   */\n      0x20\n        /* \"#utility.yul\":1899:1902   */\n      dup3\n        /* \"#utility.yul\":1895:1909   */\n      add\n        /* \"#utility.yul\":1880:1909   */\n      swap1\n      pop\n        /* \"#utility.yul\":1731:1915   */\n      swap3\n      swap2\n      pop\n      pop\n      jump\t// out\n        /* \"#utility.yul\":1921:2053   */\n    tag_43:\n        /* \"#utility.yul\":1988:1992   */\n      0x00\n        /* \"#utility.yul\":2011:2014   */\n      dup2\n        /* \"#utility.yul\":2003:2014   */\n      swap1\n      pop\n        /* \"#utility.yul\":2041:2045   */\n      0x20\n        /* \"#utility.yul\":2036:2039   */\n      dup3\n        /* \"#utility.yul\":2032:2046   */\n      add\n        /* \"#utility.yul\":2024:2046   */\n      swap1\n      pop\n        /* \"#utility.yul\":1921:2053   */\n      swap2\n      swap1\n      pop\n      jump\t// out\n        /* \"#utility.yul\":2059:2167   */\n    tag_44:\n        /* \"#utility.yul\":2136:2160   */\n      tag_88\n        /* \"#utility.yul\":2154:2159   */\n      dup2\n        /* \"#utility.yul\":2136:2160   */\n      tag_39\n      jump\t// in\n    tag_88:\n        /* \"#utility.yul\":2131:2134   */\n      dup3\n        /* \"#utility.yul\":2124:2161   */\n      mstore\n        /* \"#utility.yul\":2059:2167   */\n      pop\n      pop\n      jump\t// out\n        /* \"#utility.yul\":2173:2352   */\n    tag_45:\n        /* \"#utility.yul\":2242:2252   */\n      0x00\n        /* \"#utility.yul\":2263:2309   */\n      tag_90\n        /* \"#utility.yul\":2305:2308   */\n      dup4\n        /* \"#utility.yul\":2297:2303   */\n      dup4\n        /* \"#utility.yul\":2263:2309   */\n      tag_44\n      jump\t// in\n    tag_90:\n        /* \"#utility.yul\":2341:2345   */\n      0x20\n        /* \"#utility.yul\":2336:2339   */\n      dup4\n        /* \"#utility.yul\":2332:2346   */\n      add\n        /* \"#utility.yul\":2318:2346   */\n      swap1\n      pop\n        /* \"#utility.yul\":2173:2352   */\n      swap3\n      swap2\n      pop\n      pop\n      jump\t// out\n        /* \"#utility.yul\":2358:2471   */\n    tag_46:\n        /* \"#utility.yul\":2428:2432   */\n      0x00\n        /* \"#utility.yul\":2460:2464   */\n      0x20\n        /* \"#utility.yul\":2455:2458   */\n      dup3\n        /* \"#utility.yul\":2451:2465   */\n      add\n        /* \"#utility.yul\":2443:2465   */\n      swap1\n      pop\n        /* \"#utility.yul\":2358:2471   */\n      swap2\n      swap1\n      pop\n      jump\t// out\n        /* \"#utility.yul\":2507:3239   */\n    tag_47:\n        /* \"#utility.yul\":2626:2629   */\n      0x00\n        /* \"#utility.yul\":2655:2709   */\n      tag_93\n        /* \"#utility.yul\":2703:2708   */\n      dup3\n        /* \"#utility.yul\":2655:2709   */\n      tag_41\n      jump\t// in\n    tag_93:\n        /* \"#utility.yul\":2725:2811   */\n      tag_94\n        /* \"#utility.yul\":2804:2810   */\n      dup2\n        /* \"#utility.yul\":2799:2802   */\n      dup6\n        /* \"#utility.yul\":2725:2811   */\n      tag_42\n      jump\t// in\n    tag_94:\n        /* \"#utility.yul\":2718:2811   */\n      swap4\n      pop\n        /* \"#utility.yul\":2835:2891   */\n      tag_95\n        /* \"#utility.yul\":2885:2890   */\n      dup4\n        /* \"#utility.yul\":2835:2891   */\n      tag_43\n      jump\t// in\n    tag_95:\n        /* \"#utility.yul\":2914:2921   */\n      dup1\n        /* \"#utility.yul\":2945:2946   */\n      0x00\n        /* \"#utility.yul\":2930:3214   */\n    tag_96:\n        /* \"#utility.yul\":2955:2961   */\n      dup4\n        /* \"#utility.yul\":2952:2953   */\n      dup2\n        /* \"#utility.yul\":2949:2962   */\n      lt\n        /* \"#utility.yul\":2930:3214   */\n      iszero\n      tag_98\n      jumpi\n        /* \"#utility.yul\":3031:3037   */\n      dup2\n        /* \"#utility.yul\":3025:3038   */\n      mload\n        /* \"#utility.yul\":3058:3121   */\n      tag_99\n        /* \"#utility.yul\":3117:3120   */\n      dup9\n        /* \"#utility.yul\":3102:3115   */\n      dup3\n        /* \"#utility.yul\":3058:3121   */\n      tag_45\n      jump\t// in\n    tag_99:\n        /* \"#utility.yul\":3051:3121   */\n      swap8\n      pop\n        /* \"#utility.yul\":3144:3204   */\n      tag_100\n        /* \"#utility.yul\":3197:3203   */\n      dup4\n        /* \"#utility.yul\":3144:3204   */\n      tag_46\n      jump\t// in\n    tag_100:\n        /* \"#utility.yul\":3134:3204   */\n      swap3\n      pop\n        /* \"#utility.yul\":2990:3214   */\n      pop\n        /* \"#utility.yul\":2977:2978   */\n      0x01\n        /* \"#utility.yul\":2974:2975   */\n      dup2\n        /* \"#utility.yul\":2970:2979   */\n      add\n        /* \"#utility.yul\":2965:2979   */\n      swap1\n      pop\n        /* \"#utility.yul\":2930:3214   */\n      jump(tag_96)\n    tag_98:\n        /* \"#utility.yul\":2934:2948   */\n      pop\n        /* \"#utility.yul\":3230:3233   */\n      dup6\n        /* \"#utility.yul\":3223:3233   */\n      swap4\n      pop\n        /* \"#utility.yul\":2631:3239   */\n      pop\n      pop\n      pop\n        /* \"#utility.yul\":2507:3239   */\n      swap3\n      swap2\n      pop\n      pop\n      jump\t// out\n        /* \"#utility.yul\":3245:3618   */\n    tag_15:\n        /* \"#utility.yul\":3388:3392   */\n      0x00\n        /* \"#utility.yul\":3426:3428   */\n      0x20\n        /* \"#utility.yul\":3415:3424   */\n      dup3\n        /* \"#utility.yul\":3411:3429   */\n      add\n        /* \"#utility.yul\":3403:3429   */\n      swap1\n      pop\n        /* \"#utility.yul\":3475:3484   */\n      dup2\n        /* \"#utility.yul\":3469:3473   */\n      dup2\n        /* \"#utility.yul\":3465:3485   */\n      sub\n        /* \"#utility.yul\":3461:3462   */\n      0x00\n        /* \"#utility.yul\":3450:3459   */\n      dup4\n        /* \"#utility.yul\":3446:3463   */\n      add\n        /* \"#utility.yul\":3439:3486   */\n      mstore\n        /* \"#utility.yul\":3503:3611   */\n      tag_102\n        /* \"#utility.yul\":3606:3610   */\n      dup2\n        /* \"#utility.yul\":3597:3603   */\n      dup5\n        /* \"#utility.yul\":3503:3611   */\n      tag_47\n      jump\t// in\n    tag_102:\n        /* \"#utility.yul\":3495:3611   */\n      swap1\n      pop\n        /* \"#utility.yul\":3245:3618   */\n      swap3\n      swap2\n      pop\n      pop\n      jump\t// out\n        /* \"#utility.yul\":3624:3741   */\n    tag_48:\n        /* \"#utility.yul\":3733:3734   */\n      0x00\n        /* \"#utility.yul\":3730:3731   */\n      dup1\n        /* \"#utility.yul\":3723:3735   */\n      revert\n        /* \"#utility.yul\":3747:3864   */\n    tag_49:\n        /* \"#utility.yul\":3856:3857   */\n      0x00\n        /* \"#utility.yul\":3853:3854   */\n      dup1\n        /* \"#utility.yul\":3846:3858   */\n      revert\n        /* \"#utility.yul\":3870:3972   */\n    tag_50:\n        /* \"#utility.yul\":3911:3917   */\n      0x00\n        /* \"#utility.yul\":3962:3964   */\n      0x1f\n        /* \"#utility.yul\":3958:3965   */\n      not\n        /* \"#utility.yul\":3953:3955   */\n      0x1f\n        /* \"#utility.yul\":3946:3951   */\n      dup4\n        /* \"#utility.yul\":3942:3956   */\n      add\n        /* \"#utility.yul\":3938:3966   */\n      and\n        /* \"#utility.yul\":3928:3966   */\n      swap1\n      pop\n        /* \"#utility.yul\":3870:3972   */\n      swap2\n      swap1\n      pop\n      jump\t// out\n        /* \"#utility.yul\":3978:4158   */\n    tag_51:\n        /* \"#utility.yul\":4026:4103   */\n      0x4e487b7100000000000000000000000000000000000000000000000000000000\n        /* \"#utility.yul\":4023:4024   */\n      0x00\n        /* \"#utility.yul\":4016:4104   */\n      mstore\n        /* \"#utility.yul\":4123:4127   */\n      0x41\n        /* \"#utility.yul\":4120:4121   */\n      0x04\n        /* \"#utility.yul\":4113:4128   */\n      mstore\n        /* \"#utility.yul\":4147:4151   */\n      0x24\n        /* \"#utility.yul\":4144:4145   */\n      0x00\n        /* \"#utility.yul\":4137:4152   */\n      revert\n        /* \"#utility.yul\":4164:4445   */\n    tag_52:\n        /* \"#utility.yul\":4247:4274   */\n      tag_108\n        /* \"#utility.yul\":4269:4273   */\n      dup3\n        /* \"#utility.yul\":4247:4274   */\n      tag_50\n      jump\t// in\n    tag_108:\n        /* \"#utility.yul\":4239:4245   */\n      dup2\n        /* \"#utility.yul\":4235:4275   */\n      add\n        /* \"#utility.yul\":4377:4383   */\n      dup2\n        /* \"#utility.yul\":4365:4375   */\n      dup2\n        /* \"#utility.yul\":4362:4384   */\n      lt\n        /* \"#utility.yul\":4341:4359   */\n      0xffffffffffffffff\n        /* \"#utility.yul\":4329:4339   */\n      dup3\n        /* \"#utility.yul\":4326:4360   */\n      gt\n        /* \"#utility.yul\":4323:4385   */\n      or\n        /* \"#utility.yul\":4320:4408   */\n      iszero\n      tag_109\n      jumpi\n        /* \"#utility.yul\":4388:4406   */\n      tag_110\n      tag_51\n      jump\t// in\n    tag_110:\n        /* \"#utility.yul\":4320:4408   */\n    tag_109:\n        /* \"#utility.yul\":4428:4438   */\n      dup1\n        /* \"#utility.yul\":4424:4426   */\n      0x40\n        /* \"#utility.yul\":4417:4439   */\n      mstore\n        /* \"#utility.yul\":4207:4445   */\n      pop\n        /* \"#utility.yul\":4164:4445   */\n      pop\n      pop\n      jump\t// out\n        /* \"#utility.yul\":4451:4580   */\n    tag_53:\n        /* \"#utility.yul\":4485:4491   */\n      0x00\n        /* \"#utility.yul\":4512:4532   */\n      tag_112\n      tag_32\n      jump\t// in\n    tag_112:\n        /* \"#utility.yul\":4502:4532   */\n      swap1\n      pop\n        /* \"#utility.yul\":4541:4574   */\n      tag_113\n        /* \"#utility.yul\":4569:4573   */\n      dup3\n        /* \"#utility.yul\":4561:4567   */\n      dup3\n        /* \"#utility.yul\":4541:4574   */\n      tag_52\n      jump\t// in\n    tag_113:\n        /* \"#utility.yul\":4451:4580   */\n      swap2\n      swap1\n      pop\n      jump\t// out\n        /* \"#utility.yul\":4586:4894   */\n    tag_54:\n        /* \"#utility.yul\":4648:4652   */\n      0x00\n        /* \"#utility.yul\":4738:4756   */\n      0xffffffffffffffff\n        /* \"#utility.yul\":4730:4736   */\n      dup3\n        /* \"#utility.yul\":4727:4757   */\n      gt\n        /* \"#utility.yul\":4724:4780   */\n      iszero\n      tag_115\n      jumpi\n        /* \"#utility.yul\":4760:4778   */\n      tag_116\n      tag_51\n      jump\t// in\n    tag_116:\n        /* \"#utility.yul\":4724:4780   */\n    tag_115:\n        /* \"#utility.yul\":4798:4827   */\n      tag_117\n        /* \"#utility.yul\":4820:4826   */\n      dup3\n        /* \"#utility.yul\":4798:4827   */\n      tag_50\n      jump\t// in\n    tag_117:\n        /* \"#utility.yul\":4790:4827   */\n      swap1\n      pop\n        /* \"#utility.yul\":4882:4886   */\n      0x20\n        /* \"#utility.yul\":4876:4880   */\n      dup2\n        /* \"#utility.yul\":4872:4887   */\n      add\n        /* \"#utility.yul\":4864:4887   */\n      swap1\n      pop\n        /* \"#utility.yul\":4586:4894   */\n      swap2\n      swap1\n      pop\n      jump\t// out\n        /* \"#utility.yul\":4900:5054   */\n    tag_55:\n        /* \"#utility.yul\":4984:4990   */\n      dup3\n        /* \"#utility.yul\":4979:4982   */\n      dup2\n        /* \"#utility.yul\":4974:4977   */\n      dup4\n        /* \"#utility.yul\":4961:4991   */\n      calldatacopy\n        /* \"#utility.yul\":5046:5047   */\n      0x00\n        /* \"#utility.yul\":5037:5043   */\n      dup4\n        /* \"#utility.yul\":5032:5035   */\n      dup4\n        /* \"#utility.yul\":5028:5044   */\n      add\n        /* \"#utility.yul\":5021:5048   */\n      mstore\n        /* \"#utility.yul\":4900:5054   */\n      pop\n      pop\n      pop\n      jump\t// out\n        /* \"#utility.yul\":5060:5472   */\n    tag_56:\n        /* \"#utility.yul\":5138:5143   */\n      0x00\n        /* \"#utility.yul\":5163:5229   */\n      tag_120\n        /* \"#utility.yul\":5179:5228   */\n      tag_121\n        /* \"#utility.yul\":5221:5227   */\n      dup5\n        /* \"#utility.yul\":5179:5228   */\n      tag_54\n      jump\t// in\n    tag_121:\n        /* \"#utility.yul\":5163:5229   */\n      tag_53\n      jump\t// in\n    tag_120:\n        /* \"#utility.yul\":5154:5229   */\n      swap1\n      pop\n        /* \"#utility.yul\":5252:5258   */\n      dup3\n        /* \"#utility.yul\":5245:5250   */\n      dup2\n        /* \"#utility.yul\":5238:5259   */\n      mstore\n        /* \"#utility.yul\":5290:5294   */\n      0x20\n        /* \"#utility.yul\":5283:5288   */\n      dup2\n        /* \"#utility.yul\":5279:5295   */\n      add\n        /* \"#utility.yul\":5328:5331   */\n      dup5\n        /* \"#utility.yul\":5319:5325   */\n      dup5\n        /* \"#utility.yul\":5314:5317   */\n      dup5\n        /* \"#utility.yul\":5310:5326   */\n      add\n        /* \"#utility.yul\":5307:5332   */\n      gt\n        /* \"#utility.yul\":5304:5416   */\n      iszero\n      tag_122\n      jumpi\n        /* \"#utility.yul\":5335:5414   */\n      tag_123\n      tag_49\n      jump\t// in\n    tag_123:\n        /* \"#utility.yul\":5304:5416   */\n    tag_122:\n        /* \"#utility.yul\":5425:5466   */\n      tag_124\n        /* \"#utility.yul\":5459:5465   */\n      dup5\n        /* \"#utility.yul\":5454:5457   */\n      dup3\n        /* \"#utility.yul\":5449:5452   */\n      dup6\n        /* \"#utility.yul\":5425:5466   */\n      tag_55\n      jump\t// in\n    tag_124:\n        /* \"#utility.yul\":5144:5472   */\n      pop\n        /* \"#utility.yul\":5060:5472   */\n      swap4\n      swap3\n      pop\n      pop\n      pop\n      jump\t// out\n        /* \"#utility.yul\":5492:5832   */\n    tag_57:\n        /* \"#utility.yul\":5548:5553   */\n      0x00\n        /* \"#utility.yul\":5597:5600   */\n      dup3\n        /* \"#utility.yul\":5590:5594   */\n      0x1f\n        /* \"#utility.yul\":5582:5588   */\n      dup4\n        /* \"#utility.yul\":5578:5595   */\n      add\n        /* \"#utility.yul\":5574:5601   */\n      slt\n        /* \"#utility.yul\":5564:5686   */\n      tag_126\n      jumpi\n        /* \"#utility.yul\":5605:5684   */\n      tag_127\n      tag_48\n      jump\t// in\n    tag_127:\n        /* \"#utility.yul\":5564:5686   */\n    tag_126:\n        /* \"#utility.yul\":5722:5728   */\n      dup2\n        /* \"#utility.yul\":5709:5729   */\n      calldataload\n        /* \"#utility.yul\":5747:5826   */\n      tag_128\n        /* \"#utility.yul\":5822:5825   */\n      dup5\n        /* \"#utility.yul\":5814:5820   */\n      dup3\n        /* \"#utility.yul\":5807:5811   */\n      0x20\n        /* \"#utility.yul\":5799:5805   */\n      dup7\n        /* \"#utility.yul\":5795:5812   */\n      add\n        /* \"#utility.yul\":5747:5826   */\n      tag_56\n      jump\t// in\n    tag_128:\n        /* \"#utility.yul\":5738:5826   */\n      swap2\n      pop\n        /* \"#utility.yul\":5554:5832   */\n      pop\n        /* \"#utility.yul\":5492:5832   */\n      swap3\n      swap2\n      pop\n      pop\n      jump\t// out\n        /* \"#utility.yul\":5838:7289   */\n    tag_18:\n        /* \"#utility.yul\":5963:5969   */\n      0x00\n        /* \"#utility.yul\":5971:5977   */\n      dup1\n        /* \"#utility.yul\":5979:5985   */\n      0x00\n        /* \"#utility.yul\":5987:5993   */\n      dup1\n        /* \"#utility.yul\":5995:6001   */\n      0x00\n        /* \"#utility.yul\":6044:6047   */\n      0xa0\n        /* \"#utility.yul\":6032:6041   */\n      dup7\n        /* \"#utility.yul\":6023:6030   */\n      dup9\n        /* \"#utility.yul\":6019:6042   */\n      sub\n        /* \"#utility.yul\":6015:6048   */\n      slt\n        /* \"#utility.yul\":6012:6132   */\n      iszero\n      tag_130\n      jumpi\n        /* \"#utility.yul\":6051:6130   */\n      tag_131\n      tag_33\n      jump\t// in\n    tag_131:\n        /* \"#utility.yul\":6012:6132   */\n    tag_130:\n        /* \"#utility.yul\":6199:6200   */\n      0x00\n        /* \"#utility.yul\":6188:6197   */\n      dup7\n        /* \"#utility.yul\":6184:6201   */\n      add\n        /* \"#utility.yul\":6171:6202   */\n      calldataload\n        /* \"#utility.yul\":6229:6247   */\n      0xffffffffffffffff\n        /* \"#utility.yul\":6221:6227   */\n      dup2\n        /* \"#utility.yul\":6218:6248   */\n      gt\n        /* \"#utility.yul\":6215:6332   */\n      iszero\n      tag_132\n      jumpi\n        /* \"#utility.yul\":6251:6330   */\n      tag_133\n      tag_34\n      jump\t// in\n    tag_133:\n        /* \"#utility.yul\":6215:6332   */\n    tag_132:\n        /* \"#utility.yul\":6356:6419   */\n      tag_134\n        /* \"#utility.yul\":6411:6418   */\n      dup9\n        /* \"#utility.yul\":6402:6408   */\n      dup3\n        /* \"#utility.yul\":6391:6400   */\n      dup10\n        /* \"#utility.yul\":6387:6409   */\n      add\n        /* \"#utility.yul\":6356:6419   */\n      tag_57\n      jump\t// in\n    tag_134:\n        /* \"#utility.yul\":6346:6419   */\n      swap6\n      pop\n        /* \"#utility.yul\":6142:6429   */\n      pop\n        /* \"#utility.yul\":6496:6498   */\n      0x20\n        /* \"#utility.yul\":6485:6494   */\n      dup7\n        /* \"#utility.yul\":6481:6499   */\n      add\n        /* \"#utility.yul\":6468:6500   */\n      calldataload\n        /* \"#utility.yul\":6527:6545   */\n      0xffffffffffffffff\n        /* \"#utility.yul\":6519:6525   */\n      dup2\n        /* \"#utility.yul\":6516:6546   */\n      gt\n        /* \"#utility.yul\":6513:6630   */\n      iszero\n      tag_135\n      jumpi\n        /* \"#utility.yul\":6549:6628   */\n      tag_136\n      tag_34\n      jump\t// in\n    tag_136:\n        /* \"#utility.yul\":6513:6630   */\n    tag_135:\n        /* \"#utility.yul\":6654:6717   */\n      tag_137\n        /* \"#utility.yul\":6709:6716   */\n      dup9\n        /* \"#utility.yul\":6700:6706   */\n      dup3\n        /* \"#utility.yul\":6689:6698   */\n      dup10\n        /* \"#utility.yul\":6685:6707   */\n      add\n        /* \"#utility.yul\":6654:6717   */\n      tag_57\n      jump\t// in\n    tag_137:\n        /* \"#utility.yul\":6644:6717   */\n      swap5\n      pop\n        /* \"#utility.yul\":6439:6727   */\n      pop\n        /* \"#utility.yul\":6794:6796   */\n      0x40\n        /* \"#utility.yul\":6783:6792   */\n      dup7\n        /* \"#utility.yul\":6779:6797   */\n      add\n        /* \"#utility.yul\":6766:6798   */\n      calldataload\n        /* \"#utility.yul\":6825:6843   */\n      0xffffffffffffffff\n        /* \"#utility.yul\":6817:6823   */\n      dup2\n        /* \"#utility.yul\":6814:6844   */\n      gt\n        /* \"#utility.yul\":6811:6928   */\n      iszero\n      tag_138\n      jumpi\n        /* \"#utility.yul\":6847:6926   */\n      tag_139\n      tag_34\n      jump\t// in\n    tag_139:\n        /* \"#utility.yul\":6811:6928   */\n    tag_138:\n        /* \"#utility.yul\":6952:7015   */\n      tag_140\n        /* \"#utility.yul\":7007:7014   */\n      dup9\n        /* \"#utility.yul\":6998:7004   */\n      dup3\n        /* \"#utility.yul\":6987:6996   */\n      dup10\n        /* \"#utility.yul\":6983:7005   */\n      add\n        /* \"#utility.yul\":6952:7015   */\n      tag_57\n      jump\t// in\n    tag_140:\n        /* \"#utility.yul\":6942:7015   */\n      swap4\n      pop\n        /* \"#utility.yul\":6737:7025   */\n      pop\n        /* \"#utility.yul\":7064:7066   */\n      0x60\n        /* \"#utility.yul\":7090:7143   */\n      tag_141\n        /* \"#utility.yul\":7135:7142   */\n      dup9\n        /* \"#utility.yul\":7126:7132   */\n      dup3\n        /* \"#utility.yul\":7115:7124   */\n      dup10\n        /* \"#utility.yul\":7111:7133   */\n      add\n        /* \"#utility.yul\":7090:7143   */\n      tag_37\n      jump\t// in\n    tag_141:\n        /* \"#utility.yul\":7080:7143   */\n      swap3\n      pop\n        /* \"#utility.yul\":7035:7153   */\n      pop\n        /* \"#utility.yul\":7192:7195   */\n      0x80\n        /* \"#utility.yul\":7219:7272   */\n      tag_142\n        /* \"#utility.yul\":7264:7271   */\n      dup9\n        /* \"#utility.yul\":7255:7261   */\n      dup3\n        /* \"#utility.yul\":7244:7253   */\n      dup10\n        /* \"#utility.yul\":7240:7262   */\n      add\n        /* \"#utility.yul\":7219:7272   */\n      tag_37\n      jump\t// in\n    tag_142:\n        /* \"#utility.yul\":7209:7272   */\n      swap2\n      pop\n        /* \"#utility.yul\":7163:7282   */\n      pop\n        /* \"#utility.yul\":5838:7289   */\n      swap3\n      swap6\n      pop\n      swap3\n      swap6\n      swap1\n      swap4\n      pop\n      jump\t// out\n        /* \"#utility.yul\":7295:7394   */\n    tag_58:\n        /* \"#utility.yul\":7347:7353   */\n      0x00\n        /* \"#utility.yul\":7381:7386   */\n      dup2\n        /* \"#utility.yul\":7375:7387   */\n      mload\n        /* \"#utility.yul\":7365:7387   */\n      swap1\n      pop\n        /* \"#utility.yul\":7295:7394   */\n      swap2\n      swap1\n      pop\n      jump\t// out\n        /* \"#utility.yul\":7400:7569   */\n    tag_59:\n        /* \"#utility.yul\":7484:7495   */\n      0x00\n        /* \"#utility.yul\":7518:7524   */\n      dup3\n        /* \"#utility.yul\":7513:7516   */\n      dup3\n        /* \"#utility.yul\":7506:7525   */\n      mstore\n        /* \"#utility.yul\":7558:7562   */\n      0x20\n        /* \"#utility.yul\":7553:7556   */\n      dup3\n        /* \"#utility.yul\":7549:7563   */\n      add\n        /* \"#utility.yul\":7534:7563   */\n      swap1\n      pop\n        /* \"#utility.yul\":7400:7569   */\n      swap3\n      swap2\n      pop\n      pop\n      jump\t// out\n        /* \"#utility.yul\":7575:7882   */\n    tag_60:\n        /* \"#utility.yul\":7643:7644   */\n      0x00\n        /* \"#utility.yul\":7653:7766   */\n    tag_146:\n        /* \"#utility.yul\":7667:7673   */\n      dup4\n        /* \"#utility.yul\":7664:7665   */\n      dup2\n        /* \"#utility.yul\":7661:7674   */\n      lt\n        /* \"#utility.yul\":7653:7766   */\n      iszero\n      tag_148\n      jumpi\n        /* \"#utility.yul\":7752:7753   */\n      dup1\n        /* \"#utility.yul\":7747:7750   */\n      dup3\n        /* \"#utility.yul\":7743:7754   */\n      add\n        /* \"#utility.yul\":7737:7755   */\n      mload\n        /* \"#utility.yul\":7733:7734   */\n      dup2\n        /* \"#utility.yul\":7728:7731   */\n      dup5\n        /* \"#utility.yul\":7724:7735   */\n      add\n        /* \"#utility.yul\":7717:7756   */\n      mstore\n        /* \"#utility.yul\":7689:7691   */\n      0x20\n        /* \"#utility.yul\":7686:7687   */\n      dup2\n        /* \"#utility.yul\":7682:7692   */\n      add\n        /* \"#utility.yul\":7677:7692   */\n      swap1\n      pop\n        /* \"#utility.yul\":7653:7766   */\n      jump(tag_146)\n    tag_148:\n        /* \"#utility.yul\":7784:7790   */\n      dup4\n        /* \"#utility.yul\":7781:7782   */\n      dup2\n        /* \"#utility.yul\":7778:7791   */\n      gt\n        /* \"#utility.yul\":7775:7876   */\n      iszero\n      tag_149\n      jumpi\n        /* \"#utility.yul\":7864:7865   */\n      0x00\n        /* \"#utility.yul\":7855:7861   */\n      dup5\n        /* \"#utility.yul\":7850:7853   */\n      dup5\n        /* \"#utility.yul\":7846:7862   */\n      add\n        /* \"#utility.yul\":7839:7866   */\n      mstore\n        /* \"#utility.yul\":7775:7876   */\n    tag_149:\n        /* \"#utility.yul\":7624:7882   */\n      pop\n        /* \"#utility.yul\":7575:7882   */\n      pop\n      pop\n      pop\n      jump\t// out\n        /* \"#utility.yul\":7888:8252   */\n    tag_61:\n        /* \"#utility.yul\":7976:7979   */\n      0x00\n        /* \"#utility.yul\":8004:8043   */\n      tag_151\n        /* \"#utility.yul\":8037:8042   */\n      dup3\n        /* \"#utility.yul\":8004:8043   */\n      tag_58\n      jump\t// in\n    tag_151:\n        /* \"#utility.yul\":8059:8130   */\n      tag_152\n        /* \"#utility.yul\":8123:8129   */\n      dup2\n        /* \"#utility.yul\":8118:8121   */\n      dup6\n        /* \"#utility.yul\":8059:8130   */\n      tag_59\n      jump\t// in\n    tag_152:\n        /* \"#utility.yul\":8052:8130   */\n      swap4\n      pop\n        /* \"#utility.yul\":8139:8191   */\n      tag_153\n        /* \"#utility.yul\":8184:8190   */\n      dup2\n        /* \"#utility.yul\":8179:8182   */\n      dup6\n        /* \"#utility.yul\":8172:8176   */\n      0x20\n        /* \"#utility.yul\":8165:8170   */\n      dup7\n        /* \"#utility.yul\":8161:8177   */\n      add\n        /* \"#utility.yul\":8139:8191   */\n      tag_60\n      jump\t// in\n    tag_153:\n        /* \"#utility.yul\":8216:8245   */\n      tag_154\n        /* \"#utility.yul\":8238:8244   */\n      dup2\n        /* \"#utility.yul\":8216:8245   */\n      tag_50\n      jump\t// in\n    tag_154:\n        /* \"#utility.yul\":8211:8214   */\n      dup5\n        /* \"#utility.yul\":8207:8246   */\n      add\n        /* \"#utility.yul\":8200:8246   */\n      swap2\n      pop\n        /* \"#utility.yul\":7980:8252   */\n      pop\n        /* \"#utility.yul\":7888:8252   */\n      swap3\n      swap2\n      pop\n      pop\n      jump\t// out\n        /* \"#utility.yul\":8258:8376   */\n    tag_62:\n        /* \"#utility.yul\":8345:8369   */\n      tag_156\n        /* \"#utility.yul\":8363:8368   */\n      dup2\n        /* \"#utility.yul\":8345:8369   */\n      tag_35\n      jump\t// in\n    tag_156:\n        /* \"#utility.yul\":8340:8343   */\n      dup3\n        /* \"#utility.yul\":8333:8370   */\n      mstore\n        /* \"#utility.yul\":8258:8376   */\n      pop\n      pop\n      jump\t// out\n        /* \"#utility.yul\":8382:9430   */\n    tag_29:\n        /* \"#utility.yul\":8675:8679   */\n      0x00\n        /* \"#utility.yul\":8713:8716   */\n      0xc0\n        /* \"#utility.yul\":8702:8711   */\n      dup3\n        /* \"#utility.yul\":8698:8717   */\n      add\n        /* \"#utility.yul\":8690:8717   */\n      swap1\n      pop\n        /* \"#utility.yul\":8763:8772   */\n      dup2\n        /* \"#utility.yul\":8757:8761   */\n      dup2\n        /* \"#utility.yul\":8753:8773   */\n      sub\n        /* \"#utility.yul\":8749:8750   */\n      0x00\n        /* \"#utility.yul\":8738:8747   */\n      dup4\n        /* \"#utility.yul\":8734:8751   */\n      add\n        /* \"#utility.yul\":8727:8774   */\n      mstore\n        /* \"#utility.yul\":8791:8869   */\n      tag_158\n        /* \"#utility.yul\":8864:8868   */\n      dup2\n        /* \"#utility.yul\":8855:8861   */\n      dup10\n        /* \"#utility.yul\":8791:8869   */\n      tag_61\n      jump\t// in\n    tag_158:\n        /* \"#utility.yul\":8783:8869   */\n      swap1\n      pop\n        /* \"#utility.yul\":8916:8925   */\n      dup2\n        /* \"#utility.yul\":8910:8914   */\n      dup2\n        /* \"#utility.yul\":8906:8926   */\n      sub\n        /* \"#utility.yul\":8901:8903   */\n      0x20\n        /* \"#utility.yul\":8890:8899   */\n      dup4\n        /* \"#utility.yul\":8886:8904   */\n      add\n        /* \"#utility.yul\":8879:8927   */\n      mstore\n        /* \"#utility.yul\":8944:9022   */\n      tag_159\n        /* \"#utility.yul\":9017:9021   */\n      dup2\n        /* \"#utility.yul\":9008:9014   */\n      dup9\n        /* \"#utility.yul\":8944:9022   */\n      tag_61\n      jump\t// in\n    tag_159:\n        /* \"#utility.yul\":8936:9022   */\n      swap1\n      pop\n        /* \"#utility.yul\":9069:9078   */\n      dup2\n        /* \"#utility.yul\":9063:9067   */\n      dup2\n        /* \"#utility.yul\":9059:9079   */\n      sub\n        /* \"#utility.yul\":9054:9056   */\n      0x40\n        /* \"#utility.yul\":9043:9052   */\n      dup4\n        /* \"#utility.yul\":9039:9057   */\n      add\n        /* \"#utility.yul\":9032:9080   */\n      mstore\n        /* \"#utility.yul\":9097:9175   */\n      tag_160\n        /* \"#utility.yul\":9170:9174   */\n      dup2\n        /* \"#utility.yul\":9161:9167   */\n      dup8\n        /* \"#utility.yul\":9097:9175   */\n      tag_61\n      jump\t// in\n    tag_160:\n        /* \"#utility.yul\":9089:9175   */\n      swap1\n      pop\n        /* \"#utility.yul\":9185:9257   */\n      tag_161\n        /* \"#utility.yul\":9253:9255   */\n      0x60\n        /* \"#utility.yul\":9242:9251   */\n      dup4\n        /* \"#utility.yul\":9238:9256   */\n      add\n        /* \"#utility.yul\":9229:9235   */\n      dup7\n        /* \"#utility.yul\":9185:9257   */\n      tag_62\n      jump\t// in\n    tag_161:\n        /* \"#utility.yul\":9267:9340   */\n      tag_162\n        /* \"#utility.yul\":9335:9338   */\n      0x80\n        /* \"#utility.yul\":9324:9333   */\n      dup4\n        /* \"#utility.yul\":9320:9339   */\n      add\n        /* \"#utility.yul\":9311:9317   */\n      dup6\n        /* \"#utility.yul\":9267:9340   */\n      tag_62\n      jump\t// in\n    tag_162:\n        /* \"#utility.yul\":9350:9423   */\n      tag_163\n        /* \"#utility.yul\":9418:9421   */\n      0xa0\n        /* \"#utility.yul\":9407:9416   */\n      dup4\n        /* \"#utility.yul\":9403:9422   */\n      add\n        /* \"#utility.yul\":9394:9400   */\n      dup5\n        /* \"#utility.yul\":9350:9423   */\n      tag_40\n      jump\t// in\n    tag_163:\n        /* \"#utility.yul\":8382:9430   */\n      swap8\n      swap7\n      pop\n      pop\n      pop\n      pop\n      pop\n      pop\n      pop\n      jump\t// out\n    stop\n\n    sub_0: assembly {\n            /* \"AEIOU.sol\":1034:5475  contract AEIOUCampaign {... */\n          mstore(0x40, 0x80)\n            /* \"AEIOU.sol\":2014:2408  constructor(... */\n          callvalue\n          dup1\n          iszero\n          tag_1\n          jumpi\n          0x00\n          dup1\n          revert\n        tag_1:\n          pop\n          mload(0x40)\n          sub(codesize, bytecodeSize)\n          dup1\n          bytecodeSize\n          dup4\n          codecopy\n          dup2\n          dup2\n          add\n          0x40\n          mstore\n          dup2\n          add\n          swap1\n          tag_2\n          swap2\n          swap1\n          tag_3\n          jump\t// in\n        tag_2:\n            /* \"AEIOU.sol\":2229:2235  _title */\n          dup6\n            /* \"AEIOU.sol\":2221:2226  title */\n          0x00\n            /* \"AEIOU.sol\":2221:2235  title = _title */\n          swap1\n          dup1\n          mload\n          swap1\n          0x20\n          add\n          swap1\n          tag_6\n          swap3\n          swap2\n          swap1\n          tag_7\n          jump\t// in\n        tag_6:\n          pop\n            /* \"AEIOU.sol\":2259:2271  _description */\n          dup5\n            /* \"AEIOU.sol\":2245:2256  description */\n          0x01\n            /* \"AEIOU.sol\":2245:2271  description = _description */\n          swap1\n          dup1\n          mload\n          swap1\n          0x20\n          add\n          swap1\n          tag_8\n          swap3\n          swap2\n          swap1\n          tag_7\n          jump\t// in\n        tag_8:\n          pop\n            /* \"AEIOU.sol\":2289:2295  _image */\n          dup4\n            /* \"AEIOU.sol\":2281:2286  image */\n          0x02\n            /* \"AEIOU.sol\":2281:2295  image = _image */\n          swap1\n          dup1\n          mload\n          swap1\n          0x20\n          add\n          swap1\n          tag_9\n          swap3\n          swap2\n          swap1\n          tag_7\n          jump\t// in\n        tag_9:\n          pop\n            /* \"AEIOU.sol\":2321:2335  _minimumAmount */\n          dup3\n            /* \"AEIOU.sol\":2305:2318  minimumAmount */\n          0x03\n            /* \"AEIOU.sol\":2305:2335  minimumAmount = _minimumAmount */\n          dup2\n          swap1\n          sstore\n          pop\n            /* \"AEIOU.sol\":2360:2373  _targetAmount */\n          dup2\n            /* \"AEIOU.sol\":2345:2357  targetAmount */\n          0x04\n            /* \"AEIOU.sol\":2345:2373  targetAmount = _targetAmount */\n          dup2\n          swap1\n          sstore\n          pop\n            /* \"AEIOU.sol\":2393:2401  _manager */\n          dup1\n            /* \"AEIOU.sol\":2383:2390  manager */\n          0x05\n          0x00\n            /* \"AEIOU.sol\":2383:2401  manager = _manager */\n          0x0100\n          exp\n          dup2\n          sload\n          dup2\n          0xffffffffffffffffffffffffffffffffffffffff\n          mul\n          not\n          and\n          swap1\n          dup4\n          0xffffffffffffffffffffffffffffffffffffffff\n          and\n          mul\n          or\n          swap1\n          sstore\n          pop\n            /* \"AEIOU.sol\":2014:2408  constructor(... */\n          pop\n          pop\n          pop\n          pop\n          pop\n          pop\n            /* \"AEIOU.sol\":1034:5475  contract AEIOUCampaign {... */\n          jump(tag_10)\n        tag_7:\n          dup3\n          dup1\n          sload\n          tag_11\n          swap1\n          tag_12\n          jump\t// in\n        tag_11:\n          swap1\n          0x00\n          mstore\n          keccak256(0x00, 0x20)\n          swap1\n          0x1f\n          add\n          0x20\n          swap1\n          div\n          dup2\n          add\n          swap3\n          dup3\n          tag_14\n          jumpi\n          0x00\n          dup6\n          sstore\n          jump(tag_13)\n        tag_14:\n          dup3\n          0x1f\n          lt\n          tag_15\n          jumpi\n          dup1\n          mload\n          not(0xff)\n          and\n          dup4\n          dup1\n          add\n          or\n          dup6\n          sstore\n          jump(tag_13)\n        tag_15:\n          dup3\n          dup1\n          add\n          0x01\n          add\n          dup6\n          sstore\n          dup3\n          iszero\n          tag_13\n          jumpi\n          swap2\n          dup3\n          add\n        tag_16:\n          dup3\n          dup2\n          gt\n          iszero\n          tag_17\n          jumpi\n          dup3\n          mload\n          dup3\n          sstore\n          swap2\n          0x20\n          add\n          swap2\n          swap1\n          0x01\n          add\n          swap1\n          jump(tag_16)\n        tag_17:\n        tag_13:\n          pop\n          swap1\n          pop\n          tag_18\n          swap2\n          swap1\n          tag_19\n          jump\t// in\n        tag_18:\n          pop\n          swap1\n          jump\t// out\n        tag_19:\n        tag_20:\n          dup1\n          dup3\n          gt\n          iszero\n          tag_21\n          jumpi\n          0x00\n          dup2\n          0x00\n          swap1\n          sstore\n          pop\n          0x01\n          add\n          jump(tag_20)\n        tag_21:\n          pop\n          swap1\n          jump\t// out\n            /* \"#utility.yul\":7:82   */\n        tag_22:\n            /* \"#utility.yul\":40:46   */\n          0x00\n            /* \"#utility.yul\":73:75   */\n          0x40\n            /* \"#utility.yul\":67:76   */\n          mload\n            /* \"#utility.yul\":57:76   */\n          swap1\n          pop\n            /* \"#utility.yul\":7:82   */\n          swap1\n          jump\t// out\n            /* \"#utility.yul\":88:205   */\n        tag_23:\n            /* \"#utility.yul\":197:198   */\n          0x00\n            /* \"#utility.yul\":194:195   */\n          dup1\n            /* \"#utility.yul\":187:199   */\n          revert\n            /* \"#utility.yul\":211:328   */\n        tag_24:\n            /* \"#utility.yul\":320:321   */\n          0x00\n            /* \"#utility.yul\":317:318   */\n          dup1\n            /* \"#utility.yul\":310:322   */\n          revert\n            /* \"#utility.yul\":334:451   */\n        tag_25:\n            /* \"#utility.yul\":443:444   */\n          0x00\n            /* \"#utility.yul\":440:441   */\n          dup1\n            /* \"#utility.yul\":433:445   */\n          revert\n            /* \"#utility.yul\":457:574   */\n        tag_26:\n            /* \"#utility.yul\":566:567   */\n          0x00\n            /* \"#utility.yul\":563:564   */\n          dup1\n            /* \"#utility.yul\":556:568   */\n          revert\n            /* \"#utility.yul\":580:682   */\n        tag_27:\n            /* \"#utility.yul\":621:627   */\n          0x00\n            /* \"#utility.yul\":672:674   */\n          0x1f\n            /* \"#utility.yul\":668:675   */\n          not\n            /* \"#utility.yul\":663:665   */\n          0x1f\n            /* \"#utility.yul\":656:661   */\n          dup4\n            /* \"#utility.yul\":652:666   */\n          add\n            /* \"#utility.yul\":648:676   */\n          and\n            /* \"#utility.yul\":638:676   */\n          swap1\n          pop\n            /* \"#utility.yul\":580:682   */\n          swap2\n          swap1\n          pop\n          jump\t// out\n            /* \"#utility.yul\":688:868   */\n        tag_28:\n            /* \"#utility.yul\":736:813   */\n          0x4e487b7100000000000000000000000000000000000000000000000000000000\n            /* \"#utility.yul\":733:734   */\n          0x00\n            /* \"#utility.yul\":726:814   */\n          mstore\n            /* \"#utility.yul\":833:837   */\n          0x41\n            /* \"#utility.yul\":830:831   */\n          0x04\n            /* \"#utility.yul\":823:838   */\n          mstore\n            /* \"#utility.yul\":857:861   */\n          0x24\n            /* \"#utility.yul\":854:855   */\n          0x00\n            /* \"#utility.yul\":847:862   */\n          revert\n            /* \"#utility.yul\":874:1155   */\n        tag_29:\n            /* \"#utility.yul\":957:984   */\n          tag_52\n            /* \"#utility.yul\":979:983   */\n          dup3\n            /* \"#utility.yul\":957:984   */\n          tag_27\n          jump\t// in\n        tag_52:\n            /* \"#utility.yul\":949:955   */\n          dup2\n            /* \"#utility.yul\":945:985   */\n          add\n            /* \"#utility.yul\":1087:1093   */\n          dup2\n            /* \"#utility.yul\":1075:1085   */\n          dup2\n            /* \"#utility.yul\":1072:1094   */\n          lt\n            /* \"#utility.yul\":1051:1069   */\n          0xffffffffffffffff\n            /* \"#utility.yul\":1039:1049   */\n          dup3\n            /* \"#utility.yul\":1036:1070   */\n          gt\n            /* \"#utility.yul\":1033:1095   */\n          or\n            /* \"#utility.yul\":1030:1118   */\n          iszero\n          tag_53\n          jumpi\n            /* \"#utility.yul\":1098:1116   */\n          tag_54\n          tag_28\n          jump\t// in\n        tag_54:\n            /* \"#utility.yul\":1030:1118   */\n        tag_53:\n            /* \"#utility.yul\":1138:1148   */\n          dup1\n            /* \"#utility.yul\":1134:1136   */\n          0x40\n            /* \"#utility.yul\":1127:1149   */\n          mstore\n            /* \"#utility.yul\":917:1155   */\n          pop\n            /* \"#utility.yul\":874:1155   */\n          pop\n          pop\n          jump\t// out\n            /* \"#utility.yul\":1161:1290   */\n        tag_30:\n            /* \"#utility.yul\":1195:1201   */\n          0x00\n            /* \"#utility.yul\":1222:1242   */\n          tag_56\n          tag_22\n          jump\t// in\n        tag_56:\n            /* \"#utility.yul\":1212:1242   */\n          swap1\n          pop\n            /* \"#utility.yul\":1251:1284   */\n          tag_57\n            /* \"#utility.yul\":1279:1283   */\n          dup3\n            /* \"#utility.yul\":1271:1277   */\n          dup3\n            /* \"#utility.yul\":1251:1284   */\n          tag_29\n          jump\t// in\n        tag_57:\n            /* \"#utility.yul\":1161:1290   */\n          swap2\n          swap1\n          pop\n          jump\t// out\n            /* \"#utility.yul\":1296:1604   */\n        tag_31:\n            /* \"#utility.yul\":1358:1362   */\n          0x00\n            /* \"#utility.yul\":1448:1466   */\n          0xffffffffffffffff\n            /* \"#utility.yul\":1440:1446   */\n          dup3\n            /* \"#utility.yul\":1437:1467   */\n          gt\n            /* \"#utility.yul\":1434:1490   */\n          iszero\n          tag_59\n          jumpi\n            /* \"#utility.yul\":1470:1488   */\n          tag_60\n          tag_28\n          jump\t// in\n        tag_60:\n            /* \"#utility.yul\":1434:1490   */\n        tag_59:\n            /* \"#utility.yul\":1508:1537   */\n          tag_61\n            /* \"#utility.yul\":1530:1536   */\n          dup3\n            /* \"#utility.yul\":1508:1537   */\n          tag_27\n          jump\t// in\n        tag_61:\n            /* \"#utility.yul\":1500:1537   */\n          swap1\n          pop\n            /* \"#utility.yul\":1592:1596   */\n          0x20\n            /* \"#utility.yul\":1586:1590   */\n          dup2\n            /* \"#utility.yul\":1582:1597   */\n          add\n            /* \"#utility.yul\":1574:1597   */\n          swap1\n          pop\n            /* \"#utility.yul\":1296:1604   */\n          swap2\n          swap1\n          pop\n          jump\t// out\n            /* \"#utility.yul\":1610:1917   */\n        tag_32:\n            /* \"#utility.yul\":1678:1679   */\n          0x00\n            /* \"#utility.yul\":1688:1801   */\n        tag_63:\n            /* \"#utility.yul\":1702:1708   */\n          dup4\n            /* \"#utility.yul\":1699:1700   */\n          dup2\n            /* \"#utility.yul\":1696:1709   */\n          lt\n            /* \"#utility.yul\":1688:1801   */\n          iszero\n          tag_65\n          jumpi\n            /* \"#utility.yul\":1787:1788   */\n          dup1\n            /* \"#utility.yul\":1782:1785   */\n          dup3\n            /* \"#utility.yul\":1778:1789   */\n          add\n            /* \"#utility.yul\":1772:1790   */\n          mload\n            /* \"#utility.yul\":1768:1769   */\n          dup2\n            /* \"#utility.yul\":1763:1766   */\n          dup5\n            /* \"#utility.yul\":1759:1770   */\n          add\n            /* \"#utility.yul\":1752:1791   */\n          mstore\n            /* \"#utility.yul\":1724:1726   */\n          0x20\n            /* \"#utility.yul\":1721:1722   */\n          dup2\n            /* \"#utility.yul\":1717:1727   */\n          add\n            /* \"#utility.yul\":1712:1727   */\n          swap1\n          pop\n            /* \"#utility.yul\":1688:1801   */\n          jump(tag_63)\n        tag_65:\n            /* \"#utility.yul\":1819:1825   */\n          dup4\n            /* \"#utility.yul\":1816:1817   */\n          dup2\n            /* \"#utility.yul\":1813:1826   */\n          gt\n            /* \"#utility.yul\":1810:1911   */\n          iszero\n          tag_66\n          jumpi\n            /* \"#utility.yul\":1899:1900   */\n          0x00\n            /* \"#utility.yul\":1890:1896   */\n          dup5\n            /* \"#utility.yul\":1885:1888   */\n          dup5\n            /* \"#utility.yul\":1881:1897   */\n          add\n            /* \"#utility.yul\":1874:1901   */\n          mstore\n            /* \"#utility.yul\":1810:1911   */\n        tag_66:\n            /* \"#utility.yul\":1659:1917   */\n          pop\n            /* \"#utility.yul\":1610:1917   */\n          pop\n          pop\n          pop\n          jump\t// out\n            /* \"#utility.yul\":1923:2344   */\n        tag_33:\n            /* \"#utility.yul\":2012:2017   */\n          0x00\n            /* \"#utility.yul\":2037:2103   */\n          tag_68\n            /* \"#utility.yul\":2053:2102   */\n          tag_69\n            /* \"#utility.yul\":2095:2101   */\n          dup5\n            /* \"#utility.yul\":2053:2102   */\n          tag_31\n          jump\t// in\n        tag_69:\n            /* \"#utility.yul\":2037:2103   */\n          tag_30\n          jump\t// in\n        tag_68:\n            /* \"#utility.yul\":2028:2103   */\n          swap1\n          pop\n            /* \"#utility.yul\":2126:2132   */\n          dup3\n            /* \"#utility.yul\":2119:2124   */\n          dup2\n            /* \"#utility.yul\":2112:2133   */\n          mstore\n            /* \"#utility.yul\":2164:2168   */\n          0x20\n            /* \"#utility.yul\":2157:2162   */\n          dup2\n            /* \"#utility.yul\":2153:2169   */\n          add\n            /* \"#utility.yul\":2202:2205   */\n          dup5\n            /* \"#utility.yul\":2193:2199   */\n          dup5\n            /* \"#utility.yul\":2188:2191   */\n          dup5\n            /* \"#utility.yul\":2184:2200   */\n          add\n            /* \"#utility.yul\":2181:2206   */\n          gt\n            /* \"#utility.yul\":2178:2290   */\n          iszero\n          tag_70\n          jumpi\n            /* \"#utility.yul\":2209:2288   */\n          tag_71\n          tag_26\n          jump\t// in\n        tag_71:\n            /* \"#utility.yul\":2178:2290   */\n        tag_70:\n            /* \"#utility.yul\":2299:2338   */\n          tag_72\n            /* \"#utility.yul\":2331:2337   */\n          dup5\n            /* \"#utility.yul\":2326:2329   */\n          dup3\n            /* \"#utility.yul\":2321:2324   */\n          dup6\n            /* \"#utility.yul\":2299:2338   */\n          tag_32\n          jump\t// in\n        tag_72:\n            /* \"#utility.yul\":2018:2344   */\n          pop\n            /* \"#utility.yul\":1923:2344   */\n          swap4\n          swap3\n          pop\n          pop\n          pop\n          jump\t// out\n            /* \"#utility.yul\":2364:2719   */\n        tag_34:\n            /* \"#utility.yul\":2431:2436   */\n          0x00\n            /* \"#utility.yul\":2480:2483   */\n          dup3\n            /* \"#utility.yul\":2473:2477   */\n          0x1f\n            /* \"#utility.yul\":2465:2471   */\n          dup4\n            /* \"#utility.yul\":2461:2478   */\n          add\n            /* \"#utility.yul\":2457:2484   */\n          slt\n            /* \"#utility.yul\":2447:2569   */\n          tag_74\n          jumpi\n            /* \"#utility.yul\":2488:2567   */\n          tag_75\n          tag_25\n          jump\t// in\n        tag_75:\n            /* \"#utility.yul\":2447:2569   */\n        tag_74:\n            /* \"#utility.yul\":2598:2604   */\n          dup2\n            /* \"#utility.yul\":2592:2605   */\n          mload\n            /* \"#utility.yul\":2623:2713   */\n          tag_76\n            /* \"#utility.yul\":2709:2712   */\n          dup5\n            /* \"#utility.yul\":2701:2707   */\n          dup3\n            /* \"#utility.yul\":2694:2698   */\n          0x20\n            /* \"#utility.yul\":2686:2692   */\n          dup7\n            /* \"#utility.yul\":2682:2699   */\n          add\n            /* \"#utility.yul\":2623:2713   */\n          tag_33\n          jump\t// in\n        tag_76:\n            /* \"#utility.yul\":2614:2713   */\n          swap2\n          pop\n            /* \"#utility.yul\":2437:2719   */\n          pop\n            /* \"#utility.yul\":2364:2719   */\n          swap3\n          swap2\n          pop\n          pop\n          jump\t// out\n            /* \"#utility.yul\":2725:2802   */\n        tag_35:\n            /* \"#utility.yul\":2762:2769   */\n          0x00\n            /* \"#utility.yul\":2791:2796   */\n          dup2\n            /* \"#utility.yul\":2780:2796   */\n          swap1\n          pop\n            /* \"#utility.yul\":2725:2802   */\n          swap2\n          swap1\n          pop\n          jump\t// out\n            /* \"#utility.yul\":2808:2930   */\n        tag_36:\n            /* \"#utility.yul\":2881:2905   */\n          tag_79\n            /* \"#utility.yul\":2899:2904   */\n          dup2\n            /* \"#utility.yul\":2881:2905   */\n          tag_35\n          jump\t// in\n        tag_79:\n            /* \"#utility.yul\":2874:2879   */\n          dup2\n            /* \"#utility.yul\":2871:2906   */\n          eq\n            /* \"#utility.yul\":2861:2924   */\n          tag_80\n          jumpi\n            /* \"#utility.yul\":2920:2921   */\n          0x00\n            /* \"#utility.yul\":2917:2918   */\n          dup1\n            /* \"#utility.yul\":2910:2922   */\n          revert\n            /* \"#utility.yul\":2861:2924   */\n        tag_80:\n            /* \"#utility.yul\":2808:2930   */\n          pop\n          jump\t// out\n            /* \"#utility.yul\":2936:3079   */\n        tag_37:\n            /* \"#utility.yul\":2993:2998   */\n          0x00\n            /* \"#utility.yul\":3024:3030   */\n          dup2\n            /* \"#utility.yul\":3018:3031   */\n          mload\n            /* \"#utility.yul\":3009:3031   */\n          swap1\n          pop\n            /* \"#utility.yul\":3040:3073   */\n          tag_82\n            /* \"#utility.yul\":3067:3072   */\n          dup2\n            /* \"#utility.yul\":3040:3073   */\n          tag_36\n          jump\t// in\n        tag_82:\n            /* \"#utility.yul\":2936:3079   */\n          swap3\n          swap2\n          pop\n          pop\n          jump\t// out\n            /* \"#utility.yul\":3085:3211   */\n        tag_38:\n            /* \"#utility.yul\":3122:3129   */\n          0x00\n            /* \"#utility.yul\":3162:3204   */\n          0xffffffffffffffffffffffffffffffffffffffff\n            /* \"#utility.yul\":3155:3160   */\n          dup3\n            /* \"#utility.yul\":3151:3205   */\n          and\n            /* \"#utility.yul\":3140:3205   */\n          swap1\n          pop\n            /* \"#utility.yul\":3085:3211   */\n          swap2\n          swap1\n          pop\n          jump\t// out\n            /* \"#utility.yul\":3217:3313   */\n        tag_39:\n            /* \"#utility.yul\":3254:3261   */\n          0x00\n            /* \"#utility.yul\":3283:3307   */\n          tag_85\n            /* \"#utility.yul\":3301:3306   */\n          dup3\n            /* \"#utility.yul\":3283:3307   */\n          tag_38\n          jump\t// in\n        tag_85:\n            /* \"#utility.yul\":3272:3307   */\n          swap1\n          pop\n            /* \"#utility.yul\":3217:3313   */\n          swap2\n          swap1\n          pop\n          jump\t// out\n            /* \"#utility.yul\":3319:3441   */\n        tag_40:\n            /* \"#utility.yul\":3392:3416   */\n          tag_87\n            /* \"#utility.yul\":3410:3415   */\n          dup2\n            /* \"#utility.yul\":3392:3416   */\n          tag_39\n          jump\t// in\n        tag_87:\n            /* \"#utility.yul\":3385:3390   */\n          dup2\n            /* \"#utility.yul\":3382:3417   */\n          eq\n            /* \"#utility.yul\":3372:3435   */\n          tag_88\n          jumpi\n            /* \"#utility.yul\":3431:3432   */\n          0x00\n            /* \"#utility.yul\":3428:3429   */\n          dup1\n            /* \"#utility.yul\":3421:3433   */\n          revert\n            /* \"#utility.yul\":3372:3435   */\n        tag_88:\n            /* \"#utility.yul\":3319:3441   */\n          pop\n          jump\t// out\n            /* \"#utility.yul\":3447:3590   */\n        tag_41:\n            /* \"#utility.yul\":3504:3509   */\n          0x00\n            /* \"#utility.yul\":3535:3541   */\n          dup2\n            /* \"#utility.yul\":3529:3542   */\n          mload\n            /* \"#utility.yul\":3520:3542   */\n          swap1\n          pop\n            /* \"#utility.yul\":3551:3584   */\n          tag_90\n            /* \"#utility.yul\":3578:3583   */\n          dup2\n            /* \"#utility.yul\":3551:3584   */\n          tag_40\n          jump\t// in\n        tag_90:\n            /* \"#utility.yul\":3447:3590   */\n          swap3\n          swap2\n          pop\n          pop\n          jump\t// out\n            /* \"#utility.yul\":3596:5249   */\n        tag_3:\n            /* \"#utility.yul\":3741:3747   */\n          0x00\n            /* \"#utility.yul\":3749:3755   */\n          dup1\n            /* \"#utility.yul\":3757:3763   */\n          0x00\n            /* \"#utility.yul\":3765:3771   */\n          dup1\n            /* \"#utility.yul\":3773:3779   */\n          0x00\n            /* \"#utility.yul\":3781:3787   */\n          dup1\n            /* \"#utility.yul\":3830:3833   */\n          0xc0\n            /* \"#utility.yul\":3818:3827   */\n          dup8\n            /* \"#utility.yul\":3809:3816   */\n          dup10\n            /* \"#utility.yul\":3805:3828   */\n          sub\n            /* \"#utility.yul\":3801:3834   */\n          slt\n            /* \"#utility.yul\":3798:3918   */\n          iszero\n          tag_92\n          jumpi\n            /* \"#utility.yul\":3837:3916   */\n          tag_93\n          tag_23\n          jump\t// in\n        tag_93:\n            /* \"#utility.yul\":3798:3918   */\n        tag_92:\n            /* \"#utility.yul\":3978:3979   */\n          0x00\n            /* \"#utility.yul\":3967:3976   */\n          dup8\n            /* \"#utility.yul\":3963:3980   */\n          add\n            /* \"#utility.yul\":3957:3981   */\n          mload\n            /* \"#utility.yul\":4008:4026   */\n          0xffffffffffffffff\n            /* \"#utility.yul\":4000:4006   */\n          dup2\n            /* \"#utility.yul\":3997:4027   */\n          gt\n            /* \"#utility.yul\":3994:4111   */\n          iszero\n          tag_94\n          jumpi\n            /* \"#utility.yul\":4030:4109   */\n          tag_95\n          tag_24\n          jump\t// in\n        tag_95:\n            /* \"#utility.yul\":3994:4111   */\n        tag_94:\n            /* \"#utility.yul\":4135:4209   */\n          tag_96\n            /* \"#utility.yul\":4201:4208   */\n          dup10\n            /* \"#utility.yul\":4192:4198   */\n          dup3\n            /* \"#utility.yul\":4181:4190   */\n          dup11\n            /* \"#utility.yul\":4177:4199   */\n          add\n            /* \"#utility.yul\":4135:4209   */\n          tag_34\n          jump\t// in\n        tag_96:\n            /* \"#utility.yul\":4125:4209   */\n          swap7\n          pop\n            /* \"#utility.yul\":3928:4219   */\n          pop\n            /* \"#utility.yul\":4279:4281   */\n          0x20\n            /* \"#utility.yul\":4268:4277   */\n          dup8\n            /* \"#utility.yul\":4264:4282   */\n          add\n            /* \"#utility.yul\":4258:4283   */\n          mload\n            /* \"#utility.yul\":4310:4328   */\n          0xffffffffffffffff\n            /* \"#utility.yul\":4302:4308   */\n          dup2\n            /* \"#utility.yul\":4299:4329   */\n          gt\n            /* \"#utility.yul\":4296:4413   */\n          iszero\n          tag_97\n          jumpi\n            /* \"#utility.yul\":4332:4411   */\n          tag_98\n          tag_24\n          jump\t// in\n        tag_98:\n            /* \"#utility.yul\":4296:4413   */\n        tag_97:\n            /* \"#utility.yul\":4437:4511   */\n          tag_99\n            /* \"#utility.yul\":4503:4510   */\n          dup10\n            /* \"#utility.yul\":4494:4500   */\n          dup3\n            /* \"#utility.yul\":4483:4492   */\n          dup11\n            /* \"#utility.yul\":4479:4501   */\n          add\n            /* \"#utility.yul\":4437:4511   */\n          tag_34\n          jump\t// in\n        tag_99:\n            /* \"#utility.yul\":4427:4511   */\n          swap6\n          pop\n            /* \"#utility.yul\":4229:4521   */\n          pop\n            /* \"#utility.yul\":4581:4583   */\n          0x40\n            /* \"#utility.yul\":4570:4579   */\n          dup8\n            /* \"#utility.yul\":4566:4584   */\n          add\n            /* \"#utility.yul\":4560:4585   */\n          mload\n            /* \"#utility.yul\":4612:4630   */\n          0xffffffffffffffff\n            /* \"#utility.yul\":4604:4610   */\n          dup2\n            /* \"#utility.yul\":4601:4631   */\n          gt\n            /* \"#utility.yul\":4598:4715   */\n          iszero\n          tag_100\n          jumpi\n            /* \"#utility.yul\":4634:4713   */\n          tag_101\n          tag_24\n          jump\t// in\n        tag_101:\n            /* \"#utility.yul\":4598:4715   */\n        tag_100:\n            /* \"#utility.yul\":4739:4813   */\n          tag_102\n            /* \"#utility.yul\":4805:4812   */\n          dup10\n            /* \"#utility.yul\":4796:4802   */\n          dup3\n            /* \"#utility.yul\":4785:4794   */\n          dup11\n            /* \"#utility.yul\":4781:4803   */\n          add\n            /* \"#utility.yul\":4739:4813   */\n          tag_34\n          jump\t// in\n        tag_102:\n            /* \"#utility.yul\":4729:4813   */\n          swap5\n          pop\n            /* \"#utility.yul\":4531:4823   */\n          pop\n            /* \"#utility.yul\":4862:4864   */\n          0x60\n            /* \"#utility.yul\":4888:4952   */\n          tag_103\n            /* \"#utility.yul\":4944:4951   */\n          dup10\n            /* \"#utility.yul\":4935:4941   */\n          dup3\n            /* \"#utility.yul\":4924:4933   */\n          dup11\n            /* \"#utility.yul\":4920:4942   */\n          add\n            /* \"#utility.yul\":4888:4952   */\n          tag_37\n          jump\t// in\n        tag_103:\n            /* \"#utility.yul\":4878:4952   */\n          swap4\n          pop\n            /* \"#utility.yul\":4833:4962   */\n          pop\n            /* \"#utility.yul\":5001:5004   */\n          0x80\n            /* \"#utility.yul\":5028:5092   */\n          tag_104\n            /* \"#utility.yul\":5084:5091   */\n          dup10\n            /* \"#utility.yul\":5075:5081   */\n          dup3\n            /* \"#utility.yul\":5064:5073   */\n          dup11\n            /* \"#utility.yul\":5060:5082   */\n          add\n            /* \"#utility.yul\":5028:5092   */\n          tag_37\n          jump\t// in\n        tag_104:\n            /* \"#utility.yul\":5018:5092   */\n          swap3\n          pop\n            /* \"#utility.yul\":4972:5102   */\n          pop\n            /* \"#utility.yul\":5141:5144   */\n          0xa0\n            /* \"#utility.yul\":5168:5232   */\n          tag_105\n            /* \"#utility.yul\":5224:5231   */\n          dup10\n            /* \"#utility.yul\":5215:5221   */\n          dup3\n            /* \"#utility.yul\":5204:5213   */\n          dup11\n            /* \"#utility.yul\":5200:5222   */\n          add\n            /* \"#utility.yul\":5168:5232   */\n          tag_41\n          jump\t// in\n        tag_105:\n            /* \"#utility.yul\":5158:5232   */\n          swap2\n          pop\n            /* \"#utility.yul\":5112:5242   */\n          pop\n            /* \"#utility.yul\":3596:5249   */\n          swap3\n          swap6\n          pop\n          swap3\n          swap6\n          pop\n          swap3\n          swap6\n          jump\t// out\n            /* \"#utility.yul\":5255:5435   */\n        tag_42:\n            /* \"#utility.yul\":5303:5380   */\n          0x4e487b7100000000000000000000000000000000000000000000000000000000\n            /* \"#utility.yul\":5300:5301   */\n          0x00\n            /* \"#utility.yul\":5293:5381   */\n          mstore\n            /* \"#utility.yul\":5400:5404   */\n          0x22\n            /* \"#utility.yul\":5397:5398   */\n          0x04\n            /* \"#utility.yul\":5390:5405   */\n          mstore\n            /* \"#utility.yul\":5424:5428   */\n          0x24\n            /* \"#utility.yul\":5421:5422   */\n          0x00\n            /* \"#utility.yul\":5414:5429   */\n          revert\n            /* \"#utility.yul\":5441:5761   */\n        tag_12:\n            /* \"#utility.yul\":5485:5491   */\n          0x00\n            /* \"#utility.yul\":5522:5523   */\n          0x02\n            /* \"#utility.yul\":5516:5520   */\n          dup3\n            /* \"#utility.yul\":5512:5524   */\n          div\n            /* \"#utility.yul\":5502:5524   */\n          swap1\n          pop\n            /* \"#utility.yul\":5569:5570   */\n          0x01\n            /* \"#utility.yul\":5563:5567   */\n          dup3\n            /* \"#utility.yul\":5559:5571   */\n          and\n            /* \"#utility.yul\":5590:5608   */\n          dup1\n            /* \"#utility.yul\":5580:5661   */\n          tag_108\n          jumpi\n            /* \"#utility.yul\":5646:5650   */\n          0x7f\n            /* \"#utility.yul\":5638:5644   */\n          dup3\n            /* \"#utility.yul\":5634:5651   */\n          and\n            /* \"#utility.yul\":5624:5651   */\n          swap2\n          pop\n            /* \"#utility.yul\":5580:5661   */\n        tag_108:\n            /* \"#utility.yul\":5708:5710   */\n          0x20\n            /* \"#utility.yul\":5700:5706   */\n          dup3\n            /* \"#utility.yul\":5697:5711   */\n          lt\n            /* \"#utility.yul\":5677:5695   */\n          dup2\n            /* \"#utility.yul\":5674:5712   */\n          sub\n            /* \"#utility.yul\":5671:5755   */\n          tag_109\n          jumpi\n            /* \"#utility.yul\":5727:5745   */\n          tag_110\n          tag_42\n          jump\t// in\n        tag_110:\n            /* \"#utility.yul\":5671:5755   */\n        tag_109:\n            /* \"#utility.yul\":5492:5761   */\n          pop\n            /* \"#utility.yul\":5441:5761   */\n          swap2\n          swap1\n          pop\n          jump\t// out\n            /* \"AEIOU.sol\":1034:5475  contract AEIOUCampaign {... */\n        tag_10:\n          dataSize(sub_0)\n          dup1\n          dataOffset(sub_0)\n          0x00\n          codecopy\n          0x00\n          return\n        stop\n\n        sub_0: assembly {\n                /* \"AEIOU.sol\":1034:5475  contract AEIOUCampaign {... */\n              mstore(0x40, 0x80)\n              jumpi(tag_1, lt(calldatasize, 0x04))\n              shr(0xe0, calldataload(0x00))\n              dup1\n              0x51f890ea\n              gt\n              tag_20\n              jumpi\n              dup1\n              0xbb0c8298\n              gt\n              tag_21\n              jumpi\n              dup1\n              0xbb0c8298\n              eq\n              tag_15\n              jumpi\n              dup1\n              0xd7bb99ba\n              eq\n              tag_16\n              jumpi\n              dup1\n              0xd7d1bbdb\n              eq\n              tag_17\n              jumpi\n              dup1\n              0xf251fc8c\n              eq\n              tag_18\n              jumpi\n              dup1\n              0xf3ccaac0\n              eq\n              tag_19\n              jumpi\n              jump(tag_1)\n            tag_21:\n              dup1\n              0x51f890ea\n              eq\n              tag_11\n              jumpi\n              dup1\n              0x7284e416\n              eq\n              tag_12\n              jumpi\n              dup1\n              0x81d12c58\n              eq\n              tag_13\n              jumpi\n              dup1\n              0x953b8fb8\n              eq\n              tag_14\n              jumpi\n              jump(tag_1)\n            tag_20:\n              dup1\n              0x2f814278\n              gt\n              tag_22\n              jumpi\n              dup1\n              0x2f814278\n              eq\n              tag_6\n              jumpi\n              dup1\n              0x3410452a\n              eq\n              tag_7\n              jumpi\n              dup1\n              0x4051ddac\n              eq\n              tag_8\n              jumpi\n              dup1\n              0x481c6a75\n              eq\n              tag_9\n              jumpi\n              dup1\n              0x4a79d50c\n              eq\n              tag_10\n              jumpi\n              jump(tag_1)\n            tag_22:\n              dup1\n              0x03441006\n              eq\n              tag_2\n              jumpi\n              dup1\n              0x0b9f2c4a\n              eq\n              tag_3\n              jumpi\n              dup1\n              0x12065fe0\n              eq\n              tag_4\n              jumpi\n              dup1\n              0x1f6d4942\n              eq\n              tag_5\n              jumpi\n            tag_1:\n              0x00\n              dup1\n              revert\n                /* \"AEIOU.sol\":4378:4765  function finalizeRequest(uint requestIndex) public onlyManager {... */\n            tag_2:\n              callvalue\n              dup1\n              iszero\n              tag_23\n              jumpi\n              0x00\n              dup1\n              revert\n            tag_23:\n              pop\n              tag_24\n              0x04\n              dup1\n              calldatasize\n              sub\n              dup2\n              add\n              swap1\n              tag_25\n              swap2\n              swap1\n              tag_26\n              jump\t// in\n            tag_25:\n              tag_27\n              jump\t// in\n            tag_24:\n              stop\n                /* \"AEIOU.sol\":1907:1940  address[] public contributorsList */\n            tag_3:\n              callvalue\n              dup1\n              iszero\n              tag_28\n              jumpi\n              0x00\n              dup1\n              revert\n            tag_28:\n              pop\n              tag_29\n              0x04\n              dup1\n              calldatasize\n              sub\n              dup2\n              add\n              swap1\n              tag_30\n              swap2\n              swap1\n              tag_26\n              jump\t// in\n            tag_30:\n              tag_31\n              jump\t// in\n            tag_29:\n              mload(0x40)\n              tag_32\n              swap2\n              swap1\n              tag_33\n              jump\t// in\n            tag_32:\n              mload(0x40)\n              dup1\n              swap2\n              sub\n              swap1\n              return\n                /* \"AEIOU.sol\":2462:2568  function getBalance() public view returns (uint256) {... */\n            tag_4:\n              callvalue\n              dup1\n              iszero\n              tag_34\n              jumpi\n              0x00\n              dup1\n              revert\n            tag_34:\n              pop\n              tag_35\n              tag_36\n              jump\t// in\n            tag_35:\n              mload(0x40)\n              tag_37\n              swap2\n              swap1\n              tag_38\n              jump\t// in\n            tag_37:\n              mload(0x40)\n              dup1\n              swap2\n              sub\n              swap1\n              return\n                /* \"AEIOU.sol\":1857:1901  mapping(address => bool) public contributors */\n            tag_5:\n              callvalue\n              dup1\n              iszero\n              tag_39\n              jumpi\n              0x00\n              dup1\n              revert\n            tag_39:\n              pop\n              tag_40\n              0x04\n              dup1\n              calldatasize\n              sub\n              dup2\n              add\n              swap1\n              tag_41\n              swap2\n              swap1\n              tag_42\n              jump\t// in\n            tag_41:\n              tag_43\n              jump\t// in\n            tag_40:\n              mload(0x40)\n              tag_44\n              swap2\n              swap1\n              tag_45\n              jump\t// in\n            tag_44:\n              mload(0x40)\n              dup1\n              swap2\n              sub\n              swap1\n              return\n                /* \"AEIOU.sol\":3177:3638  function createRequest(... */\n            tag_6:\n              callvalue\n              dup1\n              iszero\n              tag_46\n              jumpi\n              0x00\n              dup1\n              revert\n            tag_46:\n              pop\n              tag_47\n              0x04\n              dup1\n              calldatasize\n              sub\n              dup2\n              add\n              swap1\n              tag_48\n              swap2\n              swap1\n              tag_49\n              jump\t// in\n            tag_48:\n              tag_50\n              jump\t// in\n            tag_47:\n              stop\n                /* \"AEIOU.sol\":3704:3798  function getRequestsCount() public view returns (uint) {... */\n            tag_7:\n              callvalue\n              dup1\n              iszero\n              tag_51\n              jumpi\n              0x00\n              dup1\n              revert\n            tag_51:\n              pop\n              tag_52\n              tag_53\n              jump\t// in\n            tag_52:\n              mload(0x40)\n              tag_54\n              swap2\n              swap1\n              tag_38\n              jump\t// in\n            tag_54:\n              mload(0x40)\n              dup1\n              swap2\n              sub\n              swap1\n              return\n                /* \"AEIOU.sol\":4835:5386  function getSummary()... */\n            tag_8:\n              callvalue\n              dup1\n              iszero\n              tag_55\n              jumpi\n              0x00\n              dup1\n              revert\n            tag_55:\n              pop\n              tag_56\n              tag_57\n              jump\t// in\n            tag_56:\n              mload(0x40)\n              tag_58\n              swap10\n              swap9\n              swap8\n              swap7\n              swap6\n              swap5\n              swap4\n              swap3\n              swap2\n              swap1\n              tag_59\n              jump\t// in\n            tag_58:\n              mload(0x40)\n              dup1\n              swap2\n              sub\n              swap1\n              return\n                /* \"AEIOU.sol\":1828:1850  address public manager */\n            tag_9:\n              callvalue\n              dup1\n              iszero\n              tag_60\n              jumpi\n              0x00\n              dup1\n              revert\n            tag_60:\n              pop\n              tag_61\n              tag_62\n              jump\t// in\n            tag_61:\n              mload(0x40)\n              tag_63\n              swap2\n              swap1\n              tag_33\n              jump\t// in\n            tag_63:\n              mload(0x40)\n              dup1\n              swap2\n              sub\n              swap1\n              return\n                /* \"AEIOU.sol\":1686:1705  string public title */\n            tag_10:\n              callvalue\n              dup1\n              iszero\n              tag_64\n              jumpi\n              0x00\n              dup1\n              revert\n            tag_64:\n              pop\n              tag_65\n              tag_66\n              jump\t// in\n            tag_65:\n              mload(0x40)\n              tag_67\n              swap2\n              swap1\n              tag_68\n              jump\t// in\n            tag_67:\n              mload(0x40)\n              dup1\n              swap2\n              sub\n              swap1\n              return\n                /* \"AEIOU.sol\":2944:3053  function getAllContributors() public view returns (address[] memory) {... */\n            tag_11:\n              callvalue\n              dup1\n              iszero\n              tag_69\n              jumpi\n              0x00\n              dup1\n              revert\n            tag_69:\n              pop\n              tag_70\n              tag_71\n              jump\t// in\n            tag_70:\n              mload(0x40)\n              tag_72\n              swap2\n              swap1\n              tag_73\n              jump\t// in\n            tag_72:\n              mload(0x40)\n              dup1\n              swap2\n              sub\n              swap1\n              return\n                /* \"AEIOU.sol\":1711:1736  string public description */\n            tag_12:\n              callvalue\n              dup1\n              iszero\n              tag_74\n              jumpi\n              0x00\n              dup1\n              revert\n            tag_74:\n              pop\n              tag_75\n              tag_76\n              jump\t// in\n            tag_75:\n              mload(0x40)\n              tag_77\n              swap2\n              swap1\n              tag_68\n              jump\t// in\n            tag_77:\n              mload(0x40)\n              dup1\n              swap2\n              sub\n              swap1\n              return\n                /* \"AEIOU.sol\":1982:2007  Request[] public requests */\n            tag_13:\n              callvalue\n              dup1\n              iszero\n              tag_78\n              jumpi\n              0x00\n              dup1\n              revert\n            tag_78:\n              pop\n              tag_79\n              0x04\n              dup1\n              calldatasize\n              sub\n              dup2\n              add\n              swap1\n              tag_80\n              swap2\n              swap1\n              tag_26\n              jump\t// in\n            tag_80:\n              tag_81\n              jump\t// in\n            tag_79:\n              mload(0x40)\n              tag_82\n              swap7\n              swap6\n              swap5\n              swap4\n              swap3\n              swap2\n              swap1\n              tag_83\n              jump\t// in\n            tag_82:\n              mload(0x40)\n              dup1\n              swap2\n              sub\n              swap1\n              return\n                /* \"AEIOU.sol\":1798:1822  uint public targetAmount */\n            tag_14:\n              callvalue\n              dup1\n              iszero\n              tag_84\n              jumpi\n              0x00\n              dup1\n              revert\n            tag_84:\n              pop\n              tag_85\n              tag_86\n              jump\t// in\n            tag_85:\n              mload(0x40)\n              tag_87\n              swap2\n              swap1\n              tag_38\n              jump\t// in\n            tag_87:\n              mload(0x40)\n              dup1\n              swap2\n              sub\n              swap1\n              return\n                /* \"AEIOU.sol\":1767:1792  uint public minimumAmount */\n            tag_15:\n              callvalue\n              dup1\n              iszero\n              tag_88\n              jumpi\n              0x00\n              dup1\n              revert\n            tag_88:\n              pop\n              tag_89\n              tag_90\n              jump\t// in\n            tag_89:\n              mload(0x40)\n              tag_91\n              swap2\n              swap1\n              tag_38\n              jump\t// in\n            tag_91:\n              mload(0x40)\n              dup1\n              swap2\n              sub\n              swap1\n              return\n                /* \"AEIOU.sol\":2638:2884  function contribute() public payable {... */\n            tag_16:\n              tag_92\n              tag_93\n              jump\t// in\n            tag_92:\n              stop\n                /* \"AEIOU.sol\":3935:4209  function approveRequest(uint requestIndex) public {... */\n            tag_17:\n              callvalue\n              dup1\n              iszero\n              tag_94\n              jumpi\n              0x00\n              dup1\n              revert\n            tag_94:\n              pop\n              tag_95\n              0x04\n              dup1\n              calldatasize\n              sub\n              dup2\n              add\n              swap1\n              tag_96\n              swap2\n              swap1\n              tag_26\n              jump\t// in\n            tag_96:\n              tag_97\n              jump\t// in\n            tag_95:\n              stop\n                /* \"AEIOU.sol\":1946:1975  uint public totalContributors */\n            tag_18:\n              callvalue\n              dup1\n              iszero\n              tag_98\n              jumpi\n              0x00\n              dup1\n              revert\n            tag_98:\n              pop\n              tag_99\n              tag_100\n              jump\t// in\n            tag_99:\n              mload(0x40)\n              tag_101\n              swap2\n              swap1\n              tag_38\n              jump\t// in\n            tag_101:\n              mload(0x40)\n              dup1\n              swap2\n              sub\n              swap1\n              return\n                /* \"AEIOU.sol\":1742:1761  string public image */\n            tag_19:\n              callvalue\n              dup1\n              iszero\n              tag_102\n              jumpi\n              0x00\n              dup1\n              revert\n            tag_102:\n              pop\n              tag_103\n              tag_104\n              jump\t// in\n            tag_103:\n              mload(0x40)\n              tag_105\n              swap2\n              swap1\n              tag_68\n              jump\t// in\n            tag_105:\n              mload(0x40)\n              dup1\n              swap2\n              sub\n              swap1\n              return\n                /* \"AEIOU.sol\":4378:4765  function finalizeRequest(uint requestIndex) public onlyManager {... */\n            tag_27:\n                /* \"AEIOU.sol\":5447:5454  manager */\n              0x05\n              0x00\n              swap1\n              sload\n              swap1\n              0x0100\n              exp\n              swap1\n              div\n              0xffffffffffffffffffffffffffffffffffffffff\n              and\n                /* \"AEIOU.sol\":5433:5454  msg.sender == manager */\n              0xffffffffffffffffffffffffffffffffffffffff\n              and\n                /* \"AEIOU.sol\":5433:5443  msg.sender */\n              caller\n                /* \"AEIOU.sol\":5433:5454  msg.sender == manager */\n              0xffffffffffffffffffffffffffffffffffffffff\n              and\n              eq\n                /* \"AEIOU.sol\":5425:5455  require(msg.sender == manager) */\n              tag_107\n              jumpi\n              0x00\n              dup1\n              revert\n            tag_107:\n                /* \"AEIOU.sol\":4533:4534  2 */\n              0x02\n                /* \"AEIOU.sol\":4513:4530  totalContributors */\n              sload(0x08)\n                /* \"AEIOU.sol\":4513:4534  totalContributors / 2 */\n              tag_109\n              swap2\n              swap1\n              tag_110\n              jump\t// in\n            tag_109:\n                /* \"AEIOU.sol\":4472:4480  requests */\n              0x09\n                /* \"AEIOU.sol\":4481:4493  requestIndex */\n              dup3\n                /* \"AEIOU.sol\":4472:4494  requests[requestIndex] */\n              dup2\n              sload\n              dup2\n              lt\n              tag_111\n              jumpi\n              tag_112\n              tag_113\n              jump\t// in\n            tag_112:\n            tag_111:\n              swap1\n              0x00\n              mstore\n              keccak256(0x00, 0x20)\n              swap1\n              0x07\n              mul\n              add\n                /* \"AEIOU.sol\":4472:4509  requests[requestIndex].approvalsCount */\n              0x04\n              add\n              sload\n                /* \"AEIOU.sol\":4472:4535  requests[requestIndex].approvalsCount > (totalContributors / 2) */\n              gt\n                /* \"AEIOU.sol\":4451:4545  require(... */\n              tag_115\n              jumpi\n              0x00\n              dup1\n              revert\n            tag_115:\n                /* \"AEIOU.sol\":4564:4572  requests */\n              0x09\n                /* \"AEIOU.sol\":4573:4585  requestIndex */\n              dup2\n                /* \"AEIOU.sol\":4564:4586  requests[requestIndex] */\n              dup2\n              sload\n              dup2\n              lt\n              tag_116\n              jumpi\n              tag_117\n              tag_113\n              jump\t// in\n            tag_117:\n            tag_116:\n              swap1\n              0x00\n              mstore\n              keccak256(0x00, 0x20)\n              swap1\n              0x07\n              mul\n              add\n                /* \"AEIOU.sol\":4564:4596  requests[requestIndex].completed */\n              0x05\n              add\n              0x00\n              swap1\n              sload\n              swap1\n              0x0100\n              exp\n              swap1\n              div\n              0xff\n              and\n                /* \"AEIOU.sol\":4563:4596  !requests[requestIndex].completed */\n              iszero\n                /* \"AEIOU.sol\":4555:4597  require(!requests[requestIndex].completed) */\n              tag_119\n              jumpi\n              0x00\n              dup1\n              revert\n            tag_119:\n                /* \"AEIOU.sol\":4615:4623  requests */\n              0x09\n                /* \"AEIOU.sol\":4624:4636  requestIndex */\n              dup2\n                /* \"AEIOU.sol\":4615:4637  requests[requestIndex] */\n              dup2\n              sload\n              dup2\n              lt\n              tag_120\n              jumpi\n              tag_121\n              tag_113\n              jump\t// in\n            tag_121:\n            tag_120:\n              swap1\n              0x00\n              mstore\n              keccak256(0x00, 0x20)\n              swap1\n              0x07\n              mul\n              add\n                /* \"AEIOU.sol\":4615:4646  requests[requestIndex].receiver */\n              0x02\n              add\n              0x00\n              swap1\n              sload\n              swap1\n              0x0100\n              exp\n              swap1\n              div\n              0xffffffffffffffffffffffffffffffffffffffff\n              and\n                /* \"AEIOU.sol\":4607:4656  payable(requests[requestIndex].receiver).transfer */\n              0xffffffffffffffffffffffffffffffffffffffff\n              and\n                /* \"AEIOU.sol\":4607:4709  payable(requests[requestIndex].receiver).transfer(... */\n              0x08fc\n                /* \"AEIOU.sol\":4670:4678  requests */\n              0x09\n                /* \"AEIOU.sol\":4679:4691  requestIndex */\n              dup4\n                /* \"AEIOU.sol\":4670:4692  requests[requestIndex] */\n              dup2\n              sload\n              dup2\n              lt\n              tag_123\n              jumpi\n              tag_124\n              tag_113\n              jump\t// in\n            tag_124:\n            tag_123:\n              swap1\n              0x00\n              mstore\n              keccak256(0x00, 0x20)\n              swap1\n              0x07\n              mul\n              add\n                /* \"AEIOU.sol\":4670:4699  requests[requestIndex].amount */\n              0x03\n              add\n              sload\n                /* \"AEIOU.sol\":4607:4709  payable(requests[requestIndex].receiver).transfer(... */\n              swap1\n              dup2\n              iszero\n              mul\n              swap1\n              mload(0x40)\n              0x00\n              mload(0x40)\n              dup1\n              dup4\n              sub\n              dup2\n              dup6\n              dup9\n              dup9\n              call\n              swap4\n              pop\n              pop\n              pop\n              pop\n              iszero\n              dup1\n              iszero\n              tag_127\n              jumpi\n              returndatasize\n              0x00\n              dup1\n              returndatacopy\n              revert(0x00, returndatasize)\n            tag_127:\n              pop\n                /* \"AEIOU.sol\":4754:4758  true */\n              0x01\n                /* \"AEIOU.sol\":4719:4727  requests */\n              0x09\n                /* \"AEIOU.sol\":4728:4740  requestIndex */\n              dup3\n                /* \"AEIOU.sol\":4719:4741  requests[requestIndex] */\n              dup2\n              sload\n              dup2\n              lt\n              tag_128\n              jumpi\n              tag_129\n              tag_113\n              jump\t// in\n            tag_129:\n            tag_128:\n              swap1\n              0x00\n              mstore\n              keccak256(0x00, 0x20)\n              swap1\n              0x07\n              mul\n              add\n                /* \"AEIOU.sol\":4719:4751  requests[requestIndex].completed */\n              0x05\n              add\n              0x00\n                /* \"AEIOU.sol\":4719:4758  requests[requestIndex].completed = true */\n              0x0100\n              exp\n              dup2\n              sload\n              dup2\n              0xff\n              mul\n              not\n              and\n              swap1\n              dup4\n              iszero\n              iszero\n              mul\n              or\n              swap1\n              sstore\n              pop\n                /* \"AEIOU.sol\":4378:4765  function finalizeRequest(uint requestIndex) public onlyManager {... */\n              pop\n              jump\t// out\n                /* \"AEIOU.sol\":1907:1940  address[] public contributorsList */\n            tag_31:\n              0x07\n              dup2\n              dup2\n              sload\n              dup2\n              lt\n              tag_131\n              jumpi\n              0x00\n              dup1\n              revert\n            tag_131:\n              swap1\n              0x00\n              mstore\n              keccak256(0x00, 0x20)\n              add\n              0x00\n              swap2\n              pop\n              sload\n              swap1\n              0x0100\n              exp\n              swap1\n              div\n              0xffffffffffffffffffffffffffffffffffffffff\n              and\n              dup2\n              jump\t// out\n                /* \"AEIOU.sol\":2462:2568  function getBalance() public view returns (uint256) {... */\n            tag_36:\n                /* \"AEIOU.sol\":2505:2512  uint256 */\n              0x00\n                /* \"AEIOU.sol\":2547:2551  this */\n              address\n                /* \"AEIOU.sol\":2531:2561  payable(address(this)).balance */\n              0xffffffffffffffffffffffffffffffffffffffff\n              and\n              balance\n                /* \"AEIOU.sol\":2524:2561  return payable(address(this)).balance */\n              swap1\n              pop\n                /* \"AEIOU.sol\":2462:2568  function getBalance() public view returns (uint256) {... */\n              swap1\n              jump\t// out\n                /* \"AEIOU.sol\":1857:1901  mapping(address => bool) public contributors */\n            tag_43:\n              mstore(0x20, 0x06)\n              dup1\n              0x00\n              mstore\n              keccak256(0x00, 0x40)\n              0x00\n              swap2\n              pop\n              sload\n              swap1\n              0x0100\n              exp\n              swap1\n              div\n              0xff\n              and\n              dup2\n              jump\t// out\n                /* \"AEIOU.sol\":3177:3638  function createRequest(... */\n            tag_50:\n                /* \"AEIOU.sol\":5447:5454  manager */\n              0x05\n              0x00\n              swap1\n              sload\n              swap1\n              0x0100\n              exp\n              swap1\n              div\n              0xffffffffffffffffffffffffffffffffffffffff\n              and\n                /* \"AEIOU.sol\":5433:5454  msg.sender == manager */\n              0xffffffffffffffffffffffffffffffffffffffff\n              and\n                /* \"AEIOU.sol\":5433:5443  msg.sender */\n              caller\n                /* \"AEIOU.sol\":5433:5454  msg.sender == manager */\n              0xffffffffffffffffffffffffffffffffffffffff\n              and\n              eq\n                /* \"AEIOU.sol\":5425:5455  require(msg.sender == manager) */\n              tag_135\n              jumpi\n              0x00\n              dup1\n              revert\n            tag_135:\n                /* \"AEIOU.sol\":3350:3376  Request storage newRequest */\n              0x00\n                /* \"AEIOU.sol\":3379:3387  requests */\n              0x09\n                /* \"AEIOU.sol\":3379:3394  requests.push() */\n              0x01\n              dup2\n              0x01\n              dup2\n              sload\n              add\n              dup1\n              dup3\n              sstore\n              dup1\n              swap2\n              pop\n              pop\n              sub\n              swap1\n              0x00\n              mstore\n              keccak256(0x00, 0x20)\n              swap1\n              0x07\n              mul\n              add\n                /* \"AEIOU.sol\":3350:3394  Request storage newRequest = requests.push() */\n              swap1\n              pop\n                /* \"AEIOU.sol\":3423:3429  _title */\n              dup5\n                /* \"AEIOU.sol\":3404:3414  newRequest */\n              dup2\n                /* \"AEIOU.sol\":3404:3420  newRequest.title */\n              0x00\n              add\n                /* \"AEIOU.sol\":3404:3429  newRequest.title = _title */\n              swap1\n              dup1\n              mload\n              swap1\n              0x20\n              add\n              swap1\n              tag_138\n              swap3\n              swap2\n              swap1\n              tag_139\n              jump\t// in\n            tag_138:\n              pop\n                /* \"AEIOU.sol\":3464:3476  _description */\n              dup4\n                /* \"AEIOU.sol\":3439:3449  newRequest */\n              dup2\n                /* \"AEIOU.sol\":3439:3461  newRequest.description */\n              0x01\n              add\n                /* \"AEIOU.sol\":3439:3476  newRequest.description = _description */\n              swap1\n              dup1\n              mload\n              swap1\n              0x20\n              add\n              swap1\n              tag_140\n              swap3\n              swap2\n              swap1\n              tag_139\n              jump\t// in\n            tag_140:\n              pop\n                /* \"AEIOU.sol\":3508:3517  _receiver */\n              dup3\n                /* \"AEIOU.sol\":3486:3496  newRequest */\n              dup2\n                /* \"AEIOU.sol\":3486:3505  newRequest.receiver */\n              0x02\n              add\n              0x00\n                /* \"AEIOU.sol\":3486:3517  newRequest.receiver = _receiver */\n              0x0100\n              exp\n              dup2\n              sload\n              dup2\n              0xffffffffffffffffffffffffffffffffffffffff\n              mul\n              not\n              and\n              swap1\n              dup4\n              0xffffffffffffffffffffffffffffffffffffffff\n              and\n              mul\n              or\n              swap1\n              sstore\n              pop\n                /* \"AEIOU.sol\":3547:3554  _amount */\n              dup2\n                /* \"AEIOU.sol\":3527:3537  newRequest */\n              dup2\n                /* \"AEIOU.sol\":3527:3544  newRequest.amount */\n              0x03\n              add\n                /* \"AEIOU.sol\":3527:3554  newRequest.amount = _amount */\n              dup2\n              swap1\n              sstore\n              pop\n                /* \"AEIOU.sol\":3587:3592  false */\n              0x00\n                /* \"AEIOU.sol\":3564:3574  newRequest */\n              dup2\n                /* \"AEIOU.sol\":3564:3584  newRequest.completed */\n              0x05\n              add\n              0x00\n                /* \"AEIOU.sol\":3564:3592  newRequest.completed = false */\n              0x0100\n              exp\n              dup2\n              sload\n              dup2\n              0xff\n              mul\n              not\n              and\n              swap1\n              dup4\n              iszero\n              iszero\n              mul\n              or\n              swap1\n              sstore\n              pop\n                /* \"AEIOU.sol\":3630:3631  0 */\n              0x00\n                /* \"AEIOU.sol\":3602:3612  newRequest */\n              dup2\n                /* \"AEIOU.sol\":3602:3627  newRequest.approvalsCount */\n              0x04\n              add\n                /* \"AEIOU.sol\":3602:3631  newRequest.approvalsCount = 0 */\n              dup2\n              swap1\n              sstore\n              pop\n                /* \"AEIOU.sol\":3340:3638  {... */\n              pop\n                /* \"AEIOU.sol\":3177:3638  function createRequest(... */\n              pop\n              pop\n              pop\n              pop\n              jump\t// out\n                /* \"AEIOU.sol\":3704:3798  function getRequestsCount() public view returns (uint) {... */\n            tag_53:\n                /* \"AEIOU.sol\":3753:3757  uint */\n              0x00\n                /* \"AEIOU.sol\":3776:3784  requests */\n              0x09\n                /* \"AEIOU.sol\":3776:3791  requests.length */\n              dup1\n              sload\n              swap1\n              pop\n                /* \"AEIOU.sol\":3769:3791  return requests.length */\n              swap1\n              pop\n                /* \"AEIOU.sol\":3704:3798  function getRequestsCount() public view returns (uint) {... */\n              swap1\n              jump\t// out\n                /* \"AEIOU.sol\":4835:5386  function getSummary()... */\n            tag_57:\n                /* \"AEIOU.sol\":4915:4919  uint */\n              0x00\n                /* \"AEIOU.sol\":4933:4937  uint */\n              dup1\n                /* \"AEIOU.sol\":4951:4958  uint256 */\n              0x00\n                /* \"AEIOU.sol\":4972:4976  uint */\n              dup1\n                /* \"AEIOU.sol\":4990:4994  uint */\n              0x00\n                /* \"AEIOU.sol\":5008:5015  address */\n              dup1\n                /* \"AEIOU.sol\":5029:5042  string memory */\n              0x60\n                /* \"AEIOU.sol\":5056:5069  string memory */\n              dup1\n                /* \"AEIOU.sol\":5083:5096  string memory */\n              0x60\n                /* \"AEIOU.sol\":5142:5155  minimumAmount */\n              sload(0x03)\n                /* \"AEIOU.sol\":5169:5181  targetAmount */\n              sload(0x04)\n                /* \"AEIOU.sol\":5211:5215  this */\n              address\n                /* \"AEIOU.sol\":5195:5225  payable(address(this)).balance */\n              0xffffffffffffffffffffffffffffffffffffffff\n              and\n              balance\n                /* \"AEIOU.sol\":5239:5247  requests */\n              0x09\n                /* \"AEIOU.sol\":5239:5254  requests.length */\n              dup1\n              sload\n              swap1\n              pop\n                /* \"AEIOU.sol\":5268:5285  totalContributors */\n              sload(0x08)\n                /* \"AEIOU.sol\":5299:5306  manager */\n              0x05\n              0x00\n              swap1\n              sload\n              swap1\n              0x0100\n              exp\n              swap1\n              div\n              0xffffffffffffffffffffffffffffffffffffffff\n              and\n                /* \"AEIOU.sol\":5320:5325  title */\n              0x00\n                /* \"AEIOU.sol\":5339:5350  description */\n              0x01\n                /* \"AEIOU.sol\":5364:5369  image */\n              0x02\n                /* \"AEIOU.sol\":5121:5379  return (... */\n              dup3\n              dup1\n              sload\n              tag_143\n              swap1\n              tag_144\n              jump\t// in\n            tag_143:\n              dup1\n              0x1f\n              add\n              0x20\n              dup1\n              swap2\n              div\n              mul\n              0x20\n              add\n              mload(0x40)\n              swap1\n              dup2\n              add\n              0x40\n              mstore\n              dup1\n              swap3\n              swap2\n              swap1\n              dup2\n              dup2\n              mstore\n              0x20\n              add\n              dup3\n              dup1\n              sload\n              tag_145\n              swap1\n              tag_144\n              jump\t// in\n            tag_145:\n              dup1\n              iszero\n              tag_146\n              jumpi\n              dup1\n              0x1f\n              lt\n              tag_147\n              jumpi\n              0x0100\n              dup1\n              dup4\n              sload\n              div\n              mul\n              dup4\n              mstore\n              swap2\n              0x20\n              add\n              swap2\n              jump(tag_146)\n            tag_147:\n              dup3\n              add\n              swap2\n              swap1\n              0x00\n              mstore\n              keccak256(0x00, 0x20)\n              swap1\n            tag_148:\n              dup2\n              sload\n              dup2\n              mstore\n              swap1\n              0x01\n              add\n              swap1\n              0x20\n              add\n              dup1\n              dup4\n              gt\n              tag_148\n              jumpi\n              dup3\n              swap1\n              sub\n              0x1f\n              and\n              dup3\n              add\n              swap2\n            tag_146:\n              pop\n              pop\n              pop\n              pop\n              pop\n              swap3\n              pop\n              dup2\n              dup1\n              sload\n              tag_149\n              swap1\n              tag_144\n              jump\t// in\n            tag_149:\n              dup1\n              0x1f\n              add\n              0x20\n              dup1\n              swap2\n              div\n              mul\n              0x20\n              add\n              mload(0x40)\n              swap1\n              dup2\n              add\n              0x40\n              mstore\n              dup1\n              swap3\n              swap2\n              swap1\n              dup2\n              dup2\n              mstore\n              0x20\n              add\n              dup3\n              dup1\n              sload\n              tag_150\n              swap1\n              tag_144\n              jump\t// in\n            tag_150:\n              dup1\n              iszero\n              tag_151\n              jumpi\n              dup1\n              0x1f\n              lt\n              tag_152\n              jumpi\n              0x0100\n              dup1\n              dup4\n              sload\n              div\n              mul\n              dup4\n              mstore\n              swap2\n              0x20\n              add\n              swap2\n              jump(tag_151)\n            tag_152:\n              dup3\n              add\n              swap2\n              swap1\n              0x00\n              mstore\n              keccak256(0x00, 0x20)\n              swap1\n            tag_153:\n              dup2\n              sload\n              dup2\n              mstore\n              swap1\n              0x01\n              add\n              swap1\n              0x20\n              add\n              dup1\n              dup4\n              gt\n              tag_153\n              jumpi\n              dup3\n              swap1\n              sub\n              0x1f\n              and\n              dup3\n              add\n              swap2\n            tag_151:\n              pop\n              pop\n              pop\n              pop\n              pop\n              swap2\n              pop\n              dup1\n              dup1\n              sload\n              tag_154\n              swap1\n              tag_144\n              jump\t// in\n            tag_154:\n              dup1\n              0x1f\n              add\n              0x20\n              dup1\n              swap2\n              div\n              mul\n              0x20\n              add\n              mload(0x40)\n              swap1\n              dup2\n              add\n              0x40\n              mstore\n              dup1\n              swap3\n              swap2\n              swap1\n              dup2\n              dup2\n              mstore\n              0x20\n              add\n              dup3\n              dup1\n              sload\n              tag_155\n              swap1\n              tag_144\n              jump\t// in\n            tag_155:\n              dup1\n              iszero\n              tag_156\n              jumpi\n              dup1\n              0x1f\n              lt\n              tag_157\n              jumpi\n              0x0100\n              dup1\n              dup4\n              sload\n              div\n              mul\n              dup4\n              mstore\n              swap2\n              0x20\n              add\n              swap2\n              jump(tag_156)\n            tag_157:\n              dup3\n              add\n              swap2\n              swap1\n              0x00\n              mstore\n              keccak256(0x00, 0x20)\n              swap1\n            tag_158:\n              dup2\n              sload\n              dup2\n              mstore\n              swap1\n              0x01\n              add\n              swap1\n              0x20\n              add\n              dup1\n              dup4\n              gt\n              tag_158\n              jumpi\n              dup3\n              swap1\n              sub\n              0x1f\n              and\n              dup3\n              add\n              swap2\n            tag_156:\n              pop\n              pop\n              pop\n              pop\n              pop\n              swap1\n              pop\n              swap9\n              pop\n              swap9\n              pop\n              swap9\n              pop\n              swap9\n              pop\n              swap9\n              pop\n              swap9\n              pop\n              swap9\n              pop\n              swap9\n              pop\n              swap9\n              pop\n                /* \"AEIOU.sol\":4835:5386  function getSummary()... */\n              swap1\n              swap2\n              swap3\n              swap4\n              swap5\n              swap6\n              swap7\n              swap8\n              swap9\n              jump\t// out\n                /* \"AEIOU.sol\":1828:1850  address public manager */\n            tag_62:\n              0x05\n              0x00\n              swap1\n              sload\n              swap1\n              0x0100\n              exp\n              swap1\n              div\n              0xffffffffffffffffffffffffffffffffffffffff\n              and\n              dup2\n              jump\t// out\n                /* \"AEIOU.sol\":1686:1705  string public title */\n            tag_66:\n              0x00\n              dup1\n              sload\n              tag_159\n              swap1\n              tag_144\n              jump\t// in\n            tag_159:\n              dup1\n              0x1f\n              add\n              0x20\n              dup1\n              swap2\n              div\n              mul\n              0x20\n              add\n              mload(0x40)\n              swap1\n              dup2\n              add\n              0x40\n              mstore\n              dup1\n              swap3\n              swap2\n              swap1\n              dup2\n              dup2\n              mstore\n              0x20\n              add\n              dup3\n              dup1\n              sload\n              tag_160\n              swap1\n              tag_144\n              jump\t// in\n            tag_160:\n              dup1\n              iszero\n              tag_161\n              jumpi\n              dup1\n              0x1f\n              lt\n              tag_162\n              jumpi\n              0x0100\n              dup1\n              dup4\n              sload\n              div\n              mul\n              dup4\n              mstore\n              swap2\n              0x20\n              add\n              swap2\n              jump(tag_161)\n            tag_162:\n              dup3\n              add\n              swap2\n              swap1\n              0x00\n              mstore\n              keccak256(0x00, 0x20)\n              swap1\n            tag_163:\n              dup2\n              sload\n              dup2\n              mstore\n              swap1\n              0x01\n              add\n              swap1\n              0x20\n              add\n              dup1\n              dup4\n              gt\n              tag_163\n              jumpi\n              dup3\n              swap1\n              sub\n              0x1f\n              and\n              dup3\n              add\n              swap2\n            tag_161:\n              pop\n              pop\n              pop\n              pop\n              pop\n              dup2\n              jump\t// out\n                /* \"AEIOU.sol\":2944:3053  function getAllContributors() public view returns (address[] memory) {... */\n            tag_71:\n                /* \"AEIOU.sol\":2995:3011  address[] memory */\n              0x60\n                /* \"AEIOU.sol\":3030:3046  contributorsList */\n              0x07\n                /* \"AEIOU.sol\":3023:3046  return contributorsList */\n              dup1\n              sload\n              dup1\n              0x20\n              mul\n              0x20\n              add\n              mload(0x40)\n              swap1\n              dup2\n              add\n              0x40\n              mstore\n              dup1\n              swap3\n              swap2\n              swap1\n              dup2\n              dup2\n              mstore\n              0x20\n              add\n              dup3\n              dup1\n              sload\n              dup1\n              iszero\n              tag_165\n              jumpi\n              0x20\n              mul\n              dup3\n              add\n              swap2\n              swap1\n              0x00\n              mstore\n              keccak256(0x00, 0x20)\n              swap1\n            tag_166:\n              dup2\n              0x00\n              swap1\n              sload\n              swap1\n              0x0100\n              exp\n              swap1\n              div\n              0xffffffffffffffffffffffffffffffffffffffff\n              and\n              0xffffffffffffffffffffffffffffffffffffffff\n              and\n              dup2\n              mstore\n              0x20\n              add\n              swap1\n              0x01\n              add\n              swap1\n              dup1\n              dup4\n              gt\n              tag_166\n              jumpi\n            tag_165:\n              pop\n              pop\n              pop\n              pop\n              pop\n              swap1\n              pop\n                /* \"AEIOU.sol\":2944:3053  function getAllContributors() public view returns (address[] memory) {... */\n              swap1\n              jump\t// out\n                /* \"AEIOU.sol\":1711:1736  string public description */\n            tag_76:\n              0x01\n              dup1\n              sload\n              tag_167\n              swap1\n              tag_144\n              jump\t// in\n            tag_167:\n              dup1\n              0x1f\n              add\n              0x20\n              dup1\n              swap2\n              div\n              mul\n              0x20\n              add\n              mload(0x40)\n              swap1\n              dup2\n              add\n              0x40\n              mstore\n              dup1\n              swap3\n              swap2\n              swap1\n              dup2\n              dup2\n              mstore\n              0x20\n              add\n              dup3\n              dup1\n              sload\n              tag_168\n              swap1\n              tag_144\n              jump\t// in\n            tag_168:\n              dup1\n              iszero\n              tag_169\n              jumpi\n              dup1\n              0x1f\n              lt\n              tag_170\n              jumpi\n              0x0100\n              dup1\n              dup4\n              sload\n              div\n              mul\n              dup4\n              mstore\n              swap2\n              0x20\n              add\n              swap2\n              jump(tag_169)\n            tag_170:\n              dup3\n              add\n              swap2\n              swap1\n              0x00\n              mstore\n              keccak256(0x00, 0x20)\n              swap1\n            tag_171:\n              dup2\n              sload\n              dup2\n              mstore\n              swap1\n              0x01\n              add\n              swap1\n              0x20\n              add\n              dup1\n              dup4\n              gt\n              tag_171\n              jumpi\n              dup3\n              swap1\n              sub\n              0x1f\n              and\n              dup3\n              add\n              swap2\n            tag_169:\n              pop\n              pop\n              pop\n              pop\n              pop\n              dup2\n              jump\t// out\n                /* \"AEIOU.sol\":1982:2007  Request[] public requests */\n            tag_81:\n              0x09\n              dup2\n              dup2\n              sload\n              dup2\n              lt\n              tag_172\n              jumpi\n              0x00\n              dup1\n              revert\n            tag_172:\n              swap1\n              0x00\n              mstore\n              keccak256(0x00, 0x20)\n              swap1\n              0x07\n              mul\n              add\n              0x00\n              swap2\n              pop\n              swap1\n              pop\n              dup1\n              0x00\n              add\n              dup1\n              sload\n              tag_174\n              swap1\n              tag_144\n              jump\t// in\n            tag_174:\n              dup1\n              0x1f\n              add\n              0x20\n              dup1\n              swap2\n              div\n              mul\n              0x20\n              add\n              mload(0x40)\n              swap1\n              dup2\n              add\n              0x40\n              mstore\n              dup1\n              swap3\n              swap2\n              swap1\n              dup2\n              dup2\n              mstore\n              0x20\n              add\n              dup3\n              dup1\n              sload\n              tag_175\n              swap1\n              tag_144\n              jump\t// in\n            tag_175:\n              dup1\n              iszero\n              tag_176\n              jumpi\n              dup1\n              0x1f\n              lt\n              tag_177\n              jumpi\n              0x0100\n              dup1\n              dup4\n              sload\n              div\n              mul\n              dup4\n              mstore\n              swap2\n              0x20\n              add\n              swap2\n              jump(tag_176)\n            tag_177:\n              dup3\n              add\n              swap2\n              swap1\n              0x00\n              mstore\n              keccak256(0x00, 0x20)\n              swap1\n            tag_178:\n              dup2\n              sload\n              dup2\n              mstore\n              swap1\n              0x01\n              add\n              swap1\n              0x20\n              add\n              dup1\n              dup4\n              gt\n              tag_178\n              jumpi\n              dup3\n              swap1\n              sub\n              0x1f\n              and\n              dup3\n              add\n              swap2\n            tag_176:\n              pop\n              pop\n              pop\n              pop\n              pop\n              swap1\n              dup1\n              0x01\n              add\n              dup1\n              sload\n              tag_179\n              swap1\n              tag_144\n              jump\t// in\n            tag_179:\n              dup1\n              0x1f\n              add\n              0x20\n              dup1\n              swap2\n              div\n              mul\n              0x20\n              add\n              mload(0x40)\n              swap1\n              dup2\n              add\n              0x40\n              mstore\n              dup1\n              swap3\n              swap2\n              swap1\n              dup2\n              dup2\n              mstore\n              0x20\n              add\n              dup3\n              dup1\n              sload\n              tag_180\n              swap1\n              tag_144\n              jump\t// in\n            tag_180:\n              dup1\n              iszero\n              tag_181\n              jumpi\n              dup1\n              0x1f\n              lt\n              tag_182\n              jumpi\n              0x0100\n              dup1\n              dup4\n              sload\n              div\n              mul\n              dup4\n              mstore\n              swap2\n              0x20\n              add\n              swap2\n              jump(tag_181)\n            tag_182:\n              dup3\n              add\n              swap2\n              swap1\n              0x00\n              mstore\n              keccak256(0x00, 0x20)\n              swap1\n            tag_183:\n              dup2\n              sload\n              dup2\n              mstore\n              swap1\n              0x01\n              add\n              swap1\n              0x20\n              add\n              dup1\n              dup4\n              gt\n              tag_183\n              jumpi\n              dup3\n              swap1\n              sub\n              0x1f\n              and\n              dup3\n              add\n              swap2\n            tag_181:\n              pop\n              pop\n              pop\n              pop\n              pop\n              swap1\n              dup1\n              0x02\n              add\n              0x00\n              swap1\n              sload\n              swap1\n              0x0100\n              exp\n              swap1\n              div\n              0xffffffffffffffffffffffffffffffffffffffff\n              and\n              swap1\n              dup1\n              0x03\n              add\n              sload\n              swap1\n              dup1\n              0x04\n              add\n              sload\n              swap1\n              dup1\n              0x05\n              add\n              0x00\n              swap1\n              sload\n              swap1\n              0x0100\n              exp\n              swap1\n              div\n              0xff\n              and\n              swap1\n              pop\n              dup7\n              jump\t// out\n                /* \"AEIOU.sol\":1798:1822  uint public targetAmount */\n            tag_86:\n              sload(0x04)\n              dup2\n              jump\t// out\n                /* \"AEIOU.sol\":1767:1792  uint public minimumAmount */\n            tag_90:\n              sload(0x03)\n              dup2\n              jump\t// out\n                /* \"AEIOU.sol\":2638:2884  function contribute() public payable {... */\n            tag_93:\n                /* \"AEIOU.sol\":2706:2719  minimumAmount */\n              sload(0x03)\n                /* \"AEIOU.sol\":2693:2702  msg.value */\n              callvalue\n                /* \"AEIOU.sol\":2693:2719  msg.value >= minimumAmount */\n              lt\n              iszero\n                /* \"AEIOU.sol\":2685:2720  require(msg.value >= minimumAmount) */\n              tag_185\n              jumpi\n              0x00\n              dup1\n              revert\n            tag_185:\n                /* \"AEIOU.sol\":2739:2751  contributors */\n              0x06\n                /* \"AEIOU.sol\":2739:2763  contributors[msg.sender] */\n              0x00\n                /* \"AEIOU.sol\":2752:2762  msg.sender */\n              caller\n                /* \"AEIOU.sol\":2739:2763  contributors[msg.sender] */\n              0xffffffffffffffffffffffffffffffffffffffff\n              and\n              0xffffffffffffffffffffffffffffffffffffffff\n              and\n              dup2\n              mstore\n              0x20\n              add\n              swap1\n              dup2\n              mstore\n              0x20\n              add\n              0x00\n              keccak256\n              0x00\n              swap1\n              sload\n              swap1\n              0x0100\n              exp\n              swap1\n              div\n              0xff\n              and\n                /* \"AEIOU.sol\":2738:2763  !contributors[msg.sender] */\n              iszero\n                /* \"AEIOU.sol\":2730:2764  require(!contributors[msg.sender]) */\n              tag_186\n              jumpi\n              0x00\n              dup1\n              revert\n            tag_186:\n                /* \"AEIOU.sol\":2801:2805  true */\n              0x01\n                /* \"AEIOU.sol\":2774:2786  contributors */\n              0x06\n                /* \"AEIOU.sol\":2774:2798  contributors[msg.sender] */\n              0x00\n                /* \"AEIOU.sol\":2787:2797  msg.sender */\n              caller\n                /* \"AEIOU.sol\":2774:2798  contributors[msg.sender] */\n              0xffffffffffffffffffffffffffffffffffffffff\n              and\n              0xffffffffffffffffffffffffffffffffffffffff\n              and\n              dup2\n              mstore\n              0x20\n              add\n              swap1\n              dup2\n              mstore\n              0x20\n              add\n              0x00\n              keccak256\n              0x00\n                /* \"AEIOU.sol\":2774:2805  contributors[msg.sender] = true */\n              0x0100\n              exp\n              dup2\n              sload\n              dup2\n              0xff\n              mul\n              not\n              and\n              swap1\n              dup4\n              iszero\n              iszero\n              mul\n              or\n              swap1\n              sstore\n              pop\n                /* \"AEIOU.sol\":2815:2831  contributorsList */\n              0x07\n                /* \"AEIOU.sol\":2837:2847  msg.sender */\n              caller\n                /* \"AEIOU.sol\":2815:2848  contributorsList.push(msg.sender) */\n              swap1\n              dup1\n              0x01\n              dup2\n              sload\n              add\n              dup1\n              dup3\n              sstore\n              dup1\n              swap2\n              pop\n              pop\n              0x01\n              swap1\n              sub\n              swap1\n              0x00\n              mstore\n              keccak256(0x00, 0x20)\n              add\n              0x00\n              swap1\n              swap2\n              swap1\n              swap2\n              swap1\n              swap2\n              0x0100\n              exp\n              dup2\n              sload\n              dup2\n              0xffffffffffffffffffffffffffffffffffffffff\n              mul\n              not\n              and\n              swap1\n              dup4\n              0xffffffffffffffffffffffffffffffffffffffff\n              and\n              mul\n              or\n              swap1\n              sstore\n              pop\n                /* \"AEIOU.sol\":2858:2875  totalContributors */\n              0x08\n              0x00\n                /* \"AEIOU.sol\":2858:2877  totalContributors++ */\n              dup2\n              sload\n              dup1\n              swap3\n              swap2\n              swap1\n              tag_188\n              swap1\n              tag_189\n              jump\t// in\n            tag_188:\n              swap2\n              swap1\n              pop\n              sstore\n              pop\n                /* \"AEIOU.sol\":2638:2884  function contribute() public payable {... */\n              jump\t// out\n                /* \"AEIOU.sol\":3935:4209  function approveRequest(uint requestIndex) public {... */\n            tag_97:\n                /* \"AEIOU.sol\":4003:4015  contributors */\n              0x06\n                /* \"AEIOU.sol\":4003:4027  contributors[msg.sender] */\n              0x00\n                /* \"AEIOU.sol\":4016:4026  msg.sender */\n              caller\n                /* \"AEIOU.sol\":4003:4027  contributors[msg.sender] */\n              0xffffffffffffffffffffffffffffffffffffffff\n              and\n              0xffffffffffffffffffffffffffffffffffffffff\n              and\n              dup2\n              mstore\n              0x20\n              add\n              swap1\n              dup2\n              mstore\n              0x20\n              add\n              0x00\n              keccak256\n              0x00\n              swap1\n              sload\n              swap1\n              0x0100\n              exp\n              swap1\n              div\n              0xff\n              and\n                /* \"AEIOU.sol\":3995:4028  require(contributors[msg.sender]) */\n              tag_191\n              jumpi\n              0x00\n              dup1\n              revert\n            tag_191:\n                /* \"AEIOU.sol\":4047:4055  requests */\n              0x09\n                /* \"AEIOU.sol\":4056:4068  requestIndex */\n              dup2\n                /* \"AEIOU.sol\":4047:4069  requests[requestIndex] */\n              dup2\n              sload\n              dup2\n              lt\n              tag_192\n              jumpi\n              tag_193\n              tag_113\n              jump\t// in\n            tag_193:\n            tag_192:\n              swap1\n              0x00\n              mstore\n              keccak256(0x00, 0x20)\n              swap1\n              0x07\n              mul\n              add\n                /* \"AEIOU.sol\":4047:4079  requests[requestIndex].approvals */\n              0x06\n              add\n                /* \"AEIOU.sol\":4047:4091  requests[requestIndex].approvals[msg.sender] */\n              0x00\n                /* \"AEIOU.sol\":4080:4090  msg.sender */\n              caller\n                /* \"AEIOU.sol\":4047:4091  requests[requestIndex].approvals[msg.sender] */\n              0xffffffffffffffffffffffffffffffffffffffff\n              and\n              0xffffffffffffffffffffffffffffffffffffffff\n              and\n              dup2\n              mstore\n              0x20\n              add\n              swap1\n              dup2\n              mstore\n              0x20\n              add\n              0x00\n              keccak256\n              0x00\n              swap1\n              sload\n              swap1\n              0x0100\n              exp\n              swap1\n              div\n              0xff\n              and\n                /* \"AEIOU.sol\":4046:4091  !requests[requestIndex].approvals[msg.sender] */\n              iszero\n                /* \"AEIOU.sol\":4038:4092  require(!requests[requestIndex].approvals[msg.sender]) */\n              tag_195\n              jumpi\n              0x00\n              dup1\n              revert\n            tag_195:\n                /* \"AEIOU.sol\":4149:4153  true */\n              0x01\n                /* \"AEIOU.sol\":4102:4110  requests */\n              0x09\n                /* \"AEIOU.sol\":4111:4123  requestIndex */\n              dup3\n                /* \"AEIOU.sol\":4102:4124  requests[requestIndex] */\n              dup2\n              sload\n              dup2\n              lt\n              tag_196\n              jumpi\n              tag_197\n              tag_113\n              jump\t// in\n            tag_197:\n            tag_196:\n              swap1\n              0x00\n              mstore\n              keccak256(0x00, 0x20)\n              swap1\n              0x07\n              mul\n              add\n                /* \"AEIOU.sol\":4102:4134  requests[requestIndex].approvals */\n              0x06\n              add\n                /* \"AEIOU.sol\":4102:4146  requests[requestIndex].approvals[msg.sender] */\n              0x00\n                /* \"AEIOU.sol\":4135:4145  msg.sender */\n              caller\n                /* \"AEIOU.sol\":4102:4146  requests[requestIndex].approvals[msg.sender] */\n              0xffffffffffffffffffffffffffffffffffffffff\n              and\n              0xffffffffffffffffffffffffffffffffffffffff\n              and\n              dup2\n              mstore\n              0x20\n              add\n              swap1\n              dup2\n              mstore\n              0x20\n              add\n              0x00\n              keccak256\n              0x00\n                /* \"AEIOU.sol\":4102:4153  requests[requestIndex].approvals[msg.sender] = true */\n              0x0100\n              exp\n              dup2\n              sload\n              dup2\n              0xff\n              mul\n              not\n              and\n              swap1\n              dup4\n              iszero\n              iszero\n              mul\n              or\n              swap1\n              sstore\n              pop\n                /* \"AEIOU.sol\":4163:4171  requests */\n              0x09\n                /* \"AEIOU.sol\":4172:4184  requestIndex */\n              dup2\n                /* \"AEIOU.sol\":4163:4185  requests[requestIndex] */\n              dup2\n              sload\n              dup2\n              lt\n              tag_199\n              jumpi\n              tag_200\n              tag_113\n              jump\t// in\n            tag_200:\n            tag_199:\n              swap1\n              0x00\n              mstore\n              keccak256(0x00, 0x20)\n              swap1\n              0x07\n              mul\n              add\n                /* \"AEIOU.sol\":4163:4200  requests[requestIndex].approvalsCount */\n              0x04\n              add\n              0x00\n                /* \"AEIOU.sol\":4163:4202  requests[requestIndex].approvalsCount++ */\n              dup2\n              sload\n              dup1\n              swap3\n              swap2\n              swap1\n              tag_202\n              swap1\n              tag_189\n              jump\t// in\n            tag_202:\n              swap2\n              swap1\n              pop\n              sstore\n              pop\n                /* \"AEIOU.sol\":3935:4209  function approveRequest(uint requestIndex) public {... */\n              pop\n              jump\t// out\n                /* \"AEIOU.sol\":1946:1975  uint public totalContributors */\n            tag_100:\n              sload(0x08)\n              dup2\n              jump\t// out\n                /* \"AEIOU.sol\":1742:1761  string public image */\n            tag_104:\n              0x02\n              dup1\n              sload\n              tag_203\n              swap1\n              tag_144\n              jump\t// in\n            tag_203:\n              dup1\n              0x1f\n              add\n              0x20\n              dup1\n              swap2\n              div\n              mul\n              0x20\n              add\n              mload(0x40)\n              swap1\n              dup2\n              add\n              0x40\n              mstore\n              dup1\n              swap3\n              swap2\n              swap1\n              dup2\n              dup2\n              mstore\n              0x20\n              add\n              dup3\n              dup1\n              sload\n              tag_204\n              swap1\n              tag_144\n              jump\t// in\n            tag_204:\n              dup1\n              iszero\n              tag_205\n              jumpi\n              dup1\n              0x1f\n              lt\n              tag_206\n              jumpi\n              0x0100\n              dup1\n              dup4\n              sload\n              div\n              mul\n              dup4\n              mstore\n              swap2\n              0x20\n              add\n              swap2\n              jump(tag_205)\n            tag_206:\n              dup3\n              add\n              swap2\n              swap1\n              0x00\n              mstore\n              keccak256(0x00, 0x20)\n              swap1\n            tag_207:\n              dup2\n              sload\n              dup2\n              mstore\n              swap1\n              0x01\n              add\n              swap1\n              0x20\n              add\n              dup1\n              dup4\n              gt\n              tag_207\n              jumpi\n              dup3\n              swap1\n              sub\n              0x1f\n              and\n              dup3\n              add\n              swap2\n            tag_205:\n              pop\n              pop\n              pop\n              pop\n              pop\n              dup2\n              jump\t// out\n            tag_139:\n              dup3\n              dup1\n              sload\n              tag_208\n              swap1\n              tag_144\n              jump\t// in\n            tag_208:\n              swap1\n              0x00\n              mstore\n              keccak256(0x00, 0x20)\n              swap1\n              0x1f\n              add\n              0x20\n              swap1\n              div\n              dup2\n              add\n              swap3\n              dup3\n              tag_210\n              jumpi\n              0x00\n              dup6\n              sstore\n              jump(tag_209)\n            tag_210:\n              dup3\n              0x1f\n              lt\n              tag_211\n              jumpi\n              dup1\n              mload\n              not(0xff)\n              and\n              dup4\n              dup1\n              add\n              or\n              dup6\n              sstore\n              jump(tag_209)\n            tag_211:\n              dup3\n              dup1\n              add\n              0x01\n              add\n              dup6\n              sstore\n              dup3\n              iszero\n              tag_209\n              jumpi\n              swap2\n              dup3\n              add\n            tag_212:\n              dup3\n              dup2\n              gt\n              iszero\n              tag_213\n              jumpi\n              dup3\n              mload\n              dup3\n              sstore\n              swap2\n              0x20\n              add\n              swap2\n              swap1\n              0x01\n              add\n              swap1\n              jump(tag_212)\n            tag_213:\n            tag_209:\n              pop\n              swap1\n              pop\n              tag_214\n              swap2\n              swap1\n              tag_215\n              jump\t// in\n            tag_214:\n              pop\n              swap1\n              jump\t// out\n            tag_215:\n            tag_216:\n              dup1\n              dup3\n              gt\n              iszero\n              tag_217\n              jumpi\n              0x00\n              dup2\n              0x00\n              swap1\n              sstore\n              pop\n              0x01\n              add\n              jump(tag_216)\n            tag_217:\n              pop\n              swap1\n              jump\t// out\n                /* \"#utility.yul\":7:82   */\n            tag_218:\n                /* \"#utility.yul\":40:46   */\n              0x00\n                /* \"#utility.yul\":73:75   */\n              0x40\n                /* \"#utility.yul\":67:76   */\n              mload\n                /* \"#utility.yul\":57:76   */\n              swap1\n              pop\n                /* \"#utility.yul\":7:82   */\n              swap1\n              jump\t// out\n                /* \"#utility.yul\":88:205   */\n            tag_219:\n                /* \"#utility.yul\":197:198   */\n              0x00\n                /* \"#utility.yul\":194:195   */\n              dup1\n                /* \"#utility.yul\":187:199   */\n              revert\n                /* \"#utility.yul\":211:328   */\n            tag_220:\n                /* \"#utility.yul\":320:321   */\n              0x00\n                /* \"#utility.yul\":317:318   */\n              dup1\n                /* \"#utility.yul\":310:322   */\n              revert\n                /* \"#utility.yul\":334:411   */\n            tag_221:\n                /* \"#utility.yul\":371:378   */\n              0x00\n                /* \"#utility.yul\":400:405   */\n              dup2\n                /* \"#utility.yul\":389:405   */\n              swap1\n              pop\n                /* \"#utility.yul\":334:411   */\n              swap2\n              swap1\n              pop\n              jump\t// out\n                /* \"#utility.yul\":417:539   */\n            tag_222:\n                /* \"#utility.yul\":490:514   */\n              tag_262\n                /* \"#utility.yul\":508:513   */\n              dup2\n                /* \"#utility.yul\":490:514   */\n              tag_221\n              jump\t// in\n            tag_262:\n                /* \"#utility.yul\":483:488   */\n              dup2\n                /* \"#utility.yul\":480:515   */\n              eq\n                /* \"#utility.yul\":470:533   */\n              tag_263\n              jumpi\n                /* \"#utility.yul\":529:530   */\n              0x00\n                /* \"#utility.yul\":526:527   */\n              dup1\n                /* \"#utility.yul\":519:531   */\n              revert\n                /* \"#utility.yul\":470:533   */\n            tag_263:\n                /* \"#utility.yul\":417:539   */\n              pop\n              jump\t// out\n                /* \"#utility.yul\":545:684   */\n            tag_223:\n                /* \"#utility.yul\":591:596   */\n              0x00\n                /* \"#utility.yul\":629:635   */\n              dup2\n                /* \"#utility.yul\":616:636   */\n              calldataload\n                /* \"#utility.yul\":607:636   */\n              swap1\n              pop\n                /* \"#utility.yul\":645:678   */\n              tag_265\n                /* \"#utility.yul\":672:677   */\n              dup2\n                /* \"#utility.yul\":645:678   */\n              tag_222\n              jump\t// in\n            tag_265:\n                /* \"#utility.yul\":545:684   */\n              swap3\n              swap2\n              pop\n              pop\n              jump\t// out\n                /* \"#utility.yul\":690:1019   */\n            tag_26:\n                /* \"#utility.yul\":749:755   */\n              0x00\n                /* \"#utility.yul\":798:800   */\n              0x20\n                /* \"#utility.yul\":786:795   */\n              dup3\n                /* \"#utility.yul\":777:784   */\n              dup5\n                /* \"#utility.yul\":773:796   */\n              sub\n                /* \"#utility.yul\":769:801   */\n              slt\n                /* \"#utility.yul\":766:885   */\n              iszero\n              tag_267\n              jumpi\n                /* \"#utility.yul\":804:883   */\n              tag_268\n              tag_219\n              jump\t// in\n            tag_268:\n                /* \"#utility.yul\":766:885   */\n            tag_267:\n                /* \"#utility.yul\":924:925   */\n              0x00\n                /* \"#utility.yul\":949:1002   */\n              tag_269\n                /* \"#utility.yul\":994:1001   */\n              dup5\n                /* \"#utility.yul\":985:991   */\n              dup3\n                /* \"#utility.yul\":974:983   */\n              dup6\n                /* \"#utility.yul\":970:992   */\n              add\n                /* \"#utility.yul\":949:1002   */\n              tag_223\n              jump\t// in\n            tag_269:\n                /* \"#utility.yul\":939:1002   */\n              swap2\n              pop\n                /* \"#utility.yul\":895:1012   */\n              pop\n                /* \"#utility.yul\":690:1019   */\n              swap3\n              swap2\n              pop\n              pop\n              jump\t// out\n                /* \"#utility.yul\":1025:1151   */\n            tag_224:\n                /* \"#utility.yul\":1062:1069   */\n              0x00\n                /* \"#utility.yul\":1102:1144   */\n              0xffffffffffffffffffffffffffffffffffffffff\n                /* \"#utility.yul\":1095:1100   */\n              dup3\n                /* \"#utility.yul\":1091:1145   */\n              and\n                /* \"#utility.yul\":1080:1145   */\n              swap1\n              pop\n                /* \"#utility.yul\":1025:1151   */\n              swap2\n              swap1\n              pop\n              jump\t// out\n                /* \"#utility.yul\":1157:1253   */\n            tag_225:\n                /* \"#utility.yul\":1194:1201   */\n              0x00\n                /* \"#utility.yul\":1223:1247   */\n              tag_272\n                /* \"#utility.yul\":1241:1246   */\n              dup3\n                /* \"#utility.yul\":1223:1247   */\n              tag_224\n              jump\t// in\n            tag_272:\n                /* \"#utility.yul\":1212:1247   */\n              swap1\n              pop\n                /* \"#utility.yul\":1157:1253   */\n              swap2\n              swap1\n              pop\n              jump\t// out\n                /* \"#utility.yul\":1259:1377   */\n            tag_226:\n                /* \"#utility.yul\":1346:1370   */\n              tag_274\n                /* \"#utility.yul\":1364:1369   */\n              dup2\n                /* \"#utility.yul\":1346:1370   */\n              tag_225\n              jump\t// in\n            tag_274:\n                /* \"#utility.yul\":1341:1344   */\n              dup3\n                /* \"#utility.yul\":1334:1371   */\n              mstore\n                /* \"#utility.yul\":1259:1377   */\n              pop\n              pop\n              jump\t// out\n                /* \"#utility.yul\":1383:1605   */\n            tag_33:\n                /* \"#utility.yul\":1476:1480   */\n              0x00\n                /* \"#utility.yul\":1514:1516   */\n              0x20\n                /* \"#utility.yul\":1503:1512   */\n              dup3\n                /* \"#utility.yul\":1499:1517   */\n              add\n                /* \"#utility.yul\":1491:1517   */\n              swap1\n              pop\n                /* \"#utility.yul\":1527:1598   */\n              tag_276\n                /* \"#utility.yul\":1595:1596   */\n              0x00\n                /* \"#utility.yul\":1584:1593   */\n              dup4\n                /* \"#utility.yul\":1580:1597   */\n              add\n                /* \"#utility.yul\":1571:1577   */\n              dup5\n                /* \"#utility.yul\":1527:1598   */\n              tag_226\n              jump\t// in\n            tag_276:\n                /* \"#utility.yul\":1383:1605   */\n              swap3\n              swap2\n              pop\n              pop\n              jump\t// out\n                /* \"#utility.yul\":1611:1729   */\n            tag_227:\n                /* \"#utility.yul\":1698:1722   */\n              tag_278\n                /* \"#utility.yul\":1716:1721   */\n              dup2\n                /* \"#utility.yul\":1698:1722   */\n              tag_221\n              jump\t// in\n            tag_278:\n                /* \"#utility.yul\":1693:1696   */\n              dup3\n                /* \"#utility.yul\":1686:1723   */\n              mstore\n                /* \"#utility.yul\":1611:1729   */\n              pop\n              pop\n              jump\t// out\n                /* \"#utility.yul\":1735:1957   */\n            tag_38:\n                /* \"#utility.yul\":1828:1832   */\n              0x00\n                /* \"#utility.yul\":1866:1868   */\n              0x20\n                /* \"#utility.yul\":1855:1864   */\n              dup3\n                /* \"#utility.yul\":1851:1869   */\n              add\n                /* \"#utility.yul\":1843:1869   */\n              swap1\n              pop\n                /* \"#utility.yul\":1879:1950   */\n              tag_280\n                /* \"#utility.yul\":1947:1948   */\n              0x00\n                /* \"#utility.yul\":1936:1945   */\n              dup4\n                /* \"#utility.yul\":1932:1949   */\n              add\n                /* \"#utility.yul\":1923:1929   */\n              dup5\n                /* \"#utility.yul\":1879:1950   */\n              tag_227\n              jump\t// in\n            tag_280:\n                /* \"#utility.yul\":1735:1957   */\n              swap3\n              swap2\n              pop\n              pop\n              jump\t// out\n                /* \"#utility.yul\":1963:2085   */\n            tag_228:\n                /* \"#utility.yul\":2036:2060   */\n              tag_282\n                /* \"#utility.yul\":2054:2059   */\n              dup2\n                /* \"#utility.yul\":2036:2060   */\n              tag_225\n              jump\t// in\n            tag_282:\n                /* \"#utility.yul\":2029:2034   */\n              dup2\n                /* \"#utility.yul\":2026:2061   */\n              eq\n                /* \"#utility.yul\":2016:2079   */\n              tag_283\n              jumpi\n                /* \"#utility.yul\":2075:2076   */\n              0x00\n                /* \"#utility.yul\":2072:2073   */\n              dup1\n                /* \"#utility.yul\":2065:2077   */\n              revert\n                /* \"#utility.yul\":2016:2079   */\n            tag_283:\n                /* \"#utility.yul\":1963:2085   */\n              pop\n              jump\t// out\n                /* \"#utility.yul\":2091:2230   */\n            tag_229:\n                /* \"#utility.yul\":2137:2142   */\n              0x00\n                /* \"#utility.yul\":2175:2181   */\n              dup2\n                /* \"#utility.yul\":2162:2182   */\n              calldataload\n                /* \"#utility.yul\":2153:2182   */\n              swap1\n              pop\n                /* \"#utility.yul\":2191:2224   */\n              tag_285\n                /* \"#utility.yul\":2218:2223   */\n              dup2\n                /* \"#utility.yul\":2191:2224   */\n              tag_228\n              jump\t// in\n            tag_285:\n                /* \"#utility.yul\":2091:2230   */\n              swap3\n              swap2\n              pop\n              pop\n              jump\t// out\n                /* \"#utility.yul\":2236:2565   */\n            tag_42:\n                /* \"#utility.yul\":2295:2301   */\n              0x00\n                /* \"#utility.yul\":2344:2346   */\n              0x20\n                /* \"#utility.yul\":2332:2341   */\n              dup3\n                /* \"#utility.yul\":2323:2330   */\n              dup5\n                /* \"#utility.yul\":2319:2342   */\n              sub\n                /* \"#utility.yul\":2315:2347   */\n              slt\n                /* \"#utility.yul\":2312:2431   */\n              iszero\n              tag_287\n              jumpi\n                /* \"#utility.yul\":2350:2429   */\n              tag_288\n              tag_219\n              jump\t// in\n            tag_288:\n                /* \"#utility.yul\":2312:2431   */\n            tag_287:\n                /* \"#utility.yul\":2470:2471   */\n              0x00\n                /* \"#utility.yul\":2495:2548   */\n              tag_289\n                /* \"#utility.yul\":2540:2547   */\n              dup5\n                /* \"#utility.yul\":2531:2537   */\n              dup3\n                /* \"#utility.yul\":2520:2529   */\n              dup6\n                /* \"#utility.yul\":2516:2538   */\n              add\n                /* \"#utility.yul\":2495:2548   */\n              tag_229\n              jump\t// in\n            tag_289:\n                /* \"#utility.yul\":2485:2548   */\n              swap2\n              pop\n                /* \"#utility.yul\":2441:2558   */\n              pop\n                /* \"#utility.yul\":2236:2565   */\n              swap3\n              swap2\n              pop\n              pop\n              jump\t// out\n                /* \"#utility.yul\":2571:2661   */\n            tag_230:\n                /* \"#utility.yul\":2605:2612   */\n              0x00\n                /* \"#utility.yul\":2648:2653   */\n              dup2\n                /* \"#utility.yul\":2641:2654   */\n              iszero\n                /* \"#utility.yul\":2634:2655   */\n              iszero\n                /* \"#utility.yul\":2623:2655   */\n              swap1\n              pop\n                /* \"#utility.yul\":2571:2661   */\n              swap2\n              swap1\n              pop\n              jump\t// out\n                /* \"#utility.yul\":2667:2776   */\n            tag_231:\n                /* \"#utility.yul\":2748:2769   */\n              tag_292\n                /* \"#utility.yul\":2763:2768   */\n              dup2\n                /* \"#utility.yul\":2748:2769   */\n              tag_230\n              jump\t// in\n            tag_292:\n                /* \"#utility.yul\":2743:2746   */\n              dup3\n                /* \"#utility.yul\":2736:2770   */\n              mstore\n                /* \"#utility.yul\":2667:2776   */\n              pop\n              pop\n              jump\t// out\n                /* \"#utility.yul\":2782:2992   */\n            tag_45:\n                /* \"#utility.yul\":2869:2873   */\n              0x00\n                /* \"#utility.yul\":2907:2909   */\n              0x20\n                /* \"#utility.yul\":2896:2905   */\n              dup3\n                /* \"#utility.yul\":2892:2910   */\n              add\n                /* \"#utility.yul\":2884:2910   */\n              swap1\n              pop\n                /* \"#utility.yul\":2920:2985   */\n              tag_294\n                /* \"#utility.yul\":2982:2983   */\n              0x00\n                /* \"#utility.yul\":2971:2980   */\n              dup4\n                /* \"#utility.yul\":2967:2984   */\n              add\n                /* \"#utility.yul\":2958:2964   */\n              dup5\n                /* \"#utility.yul\":2920:2985   */\n              tag_231\n              jump\t// in\n            tag_294:\n                /* \"#utility.yul\":2782:2992   */\n              swap3\n              swap2\n              pop\n              pop\n              jump\t// out\n                /* \"#utility.yul\":2998:3115   */\n            tag_232:\n                /* \"#utility.yul\":3107:3108   */\n              0x00\n                /* \"#utility.yul\":3104:3105   */\n              dup1\n                /* \"#utility.yul\":3097:3109   */\n              revert\n                /* \"#utility.yul\":3121:3238   */\n            tag_233:\n                /* \"#utility.yul\":3230:3231   */\n              0x00\n                /* \"#utility.yul\":3227:3228   */\n              dup1\n                /* \"#utility.yul\":3220:3232   */\n              revert\n                /* \"#utility.yul\":3244:3346   */\n            tag_234:\n                /* \"#utility.yul\":3285:3291   */\n              0x00\n                /* \"#utility.yul\":3336:3338   */\n              0x1f\n                /* \"#utility.yul\":3332:3339   */\n              not\n                /* \"#utility.yul\":3327:3329   */\n              0x1f\n                /* \"#utility.yul\":3320:3325   */\n              dup4\n                /* \"#utility.yul\":3316:3330   */\n              add\n                /* \"#utility.yul\":3312:3340   */\n              and\n                /* \"#utility.yul\":3302:3340   */\n              swap1\n              pop\n                /* \"#utility.yul\":3244:3346   */\n              swap2\n              swap1\n              pop\n              jump\t// out\n                /* \"#utility.yul\":3352:3532   */\n            tag_235:\n                /* \"#utility.yul\":3400:3477   */\n              0x4e487b7100000000000000000000000000000000000000000000000000000000\n                /* \"#utility.yul\":3397:3398   */\n              0x00\n                /* \"#utility.yul\":3390:3478   */\n              mstore\n                /* \"#utility.yul\":3497:3501   */\n              0x41\n                /* \"#utility.yul\":3494:3495   */\n              0x04\n                /* \"#utility.yul\":3487:3502   */\n              mstore\n                /* \"#utility.yul\":3521:3525   */\n              0x24\n                /* \"#utility.yul\":3518:3519   */\n              0x00\n                /* \"#utility.yul\":3511:3526   */\n              revert\n                /* \"#utility.yul\":3538:3819   */\n            tag_236:\n                /* \"#utility.yul\":3621:3648   */\n              tag_300\n                /* \"#utility.yul\":3643:3647   */\n              dup3\n                /* \"#utility.yul\":3621:3648   */\n              tag_234\n              jump\t// in\n            tag_300:\n                /* \"#utility.yul\":3613:3619   */\n              dup2\n                /* \"#utility.yul\":3609:3649   */\n              add\n                /* \"#utility.yul\":3751:3757   */\n              dup2\n                /* \"#utility.yul\":3739:3749   */\n              dup2\n                /* \"#utility.yul\":3736:3758   */\n              lt\n                /* \"#utility.yul\":3715:3733   */\n              0xffffffffffffffff\n                /* \"#utility.yul\":3703:3713   */\n              dup3\n                /* \"#utility.yul\":3700:3734   */\n              gt\n                /* \"#utility.yul\":3697:3759   */\n              or\n                /* \"#utility.yul\":3694:3782   */\n              iszero\n              tag_301\n              jumpi\n                /* \"#utility.yul\":3762:3780   */\n              tag_302\n              tag_235\n              jump\t// in\n            tag_302:\n                /* \"#utility.yul\":3694:3782   */\n            tag_301:\n                /* \"#utility.yul\":3802:3812   */\n              dup1\n                /* \"#utility.yul\":3798:3800   */\n              0x40\n                /* \"#utility.yul\":3791:3813   */\n              mstore\n                /* \"#utility.yul\":3581:3819   */\n              pop\n                /* \"#utility.yul\":3538:3819   */\n              pop\n              pop\n              jump\t// out\n                /* \"#utility.yul\":3825:3954   */\n            tag_237:\n                /* \"#utility.yul\":3859:3865   */\n              0x00\n                /* \"#utility.yul\":3886:3906   */\n              tag_304\n              tag_218\n              jump\t// in\n            tag_304:\n                /* \"#utility.yul\":3876:3906   */\n              swap1\n              pop\n                /* \"#utility.yul\":3915:3948   */\n              tag_305\n                /* \"#utility.yul\":3943:3947   */\n              dup3\n                /* \"#utility.yul\":3935:3941   */\n              dup3\n                /* \"#utility.yul\":3915:3948   */\n              tag_236\n              jump\t// in\n            tag_305:\n                /* \"#utility.yul\":3825:3954   */\n              swap2\n              swap1\n              pop\n              jump\t// out\n                /* \"#utility.yul\":3960:4268   */\n            tag_238:\n                /* \"#utility.yul\":4022:4026   */\n              0x00\n                /* \"#utility.yul\":4112:4130   */\n              0xffffffffffffffff\n                /* \"#utility.yul\":4104:4110   */\n              dup3\n                /* \"#utility.yul\":4101:4131   */\n              gt\n                /* \"#utility.yul\":4098:4154   */\n              iszero\n              tag_307\n              jumpi\n                /* \"#utility.yul\":4134:4152   */\n              tag_308\n              tag_235\n              jump\t// in\n            tag_308:\n                /* \"#utility.yul\":4098:4154   */\n            tag_307:\n                /* \"#utility.yul\":4172:4201   */\n              tag_309\n                /* \"#utility.yul\":4194:4200   */\n              dup3\n                /* \"#utility.yul\":4172:4201   */\n              tag_234\n              jump\t// in\n            tag_309:\n                /* \"#utility.yul\":4164:4201   */\n              swap1\n              pop\n                /* \"#utility.yul\":4256:4260   */\n              0x20\n                /* \"#utility.yul\":4250:4254   */\n              dup2\n                /* \"#utility.yul\":4246:4261   */\n              add\n                /* \"#utility.yul\":4238:4261   */\n              swap1\n              pop\n                /* \"#utility.yul\":3960:4268   */\n              swap2\n              swap1\n              pop\n              jump\t// out\n                /* \"#utility.yul\":4274:4428   */\n            tag_239:\n                /* \"#utility.yul\":4358:4364   */\n              dup3\n                /* \"#utility.yul\":4353:4356   */\n              dup2\n                /* \"#utility.yul\":4348:4351   */\n              dup4\n                /* \"#utility.yul\":4335:4365   */\n              calldatacopy\n                /* \"#utility.yul\":4420:4421   */\n              0x00\n                /* \"#utility.yul\":4411:4417   */\n              dup4\n                /* \"#utility.yul\":4406:4409   */\n              dup4\n                /* \"#utility.yul\":4402:4418   */\n              add\n                /* \"#utility.yul\":4395:4422   */\n              mstore\n                /* \"#utility.yul\":4274:4428   */\n              pop\n              pop\n              pop\n              jump\t// out\n                /* \"#utility.yul\":4434:4846   */\n            tag_240:\n                /* \"#utility.yul\":4512:4517   */\n              0x00\n                /* \"#utility.yul\":4537:4603   */\n              tag_312\n                /* \"#utility.yul\":4553:4602   */\n              tag_313\n                /* \"#utility.yul\":4595:4601   */\n              dup5\n                /* \"#utility.yul\":4553:4602   */\n              tag_238\n              jump\t// in\n            tag_313:\n                /* \"#utility.yul\":4537:4603   */\n              tag_237\n              jump\t// in\n            tag_312:\n                /* \"#utility.yul\":4528:4603   */\n              swap1\n              pop\n                /* \"#utility.yul\":4626:4632   */\n              dup3\n                /* \"#utility.yul\":4619:4624   */\n              dup2\n                /* \"#utility.yul\":4612:4633   */\n              mstore\n                /* \"#utility.yul\":4664:4668   */\n              0x20\n                /* \"#utility.yul\":4657:4662   */\n              dup2\n                /* \"#utility.yul\":4653:4669   */\n              add\n                /* \"#utility.yul\":4702:4705   */\n              dup5\n                /* \"#utility.yul\":4693:4699   */\n              dup5\n                /* \"#utility.yul\":4688:4691   */\n              dup5\n                /* \"#utility.yul\":4684:4700   */\n              add\n                /* \"#utility.yul\":4681:4706   */\n              gt\n                /* \"#utility.yul\":4678:4790   */\n              iszero\n              tag_314\n              jumpi\n                /* \"#utility.yul\":4709:4788   */\n              tag_315\n              tag_233\n              jump\t// in\n            tag_315:\n                /* \"#utility.yul\":4678:4790   */\n            tag_314:\n                /* \"#utility.yul\":4799:4840   */\n              tag_316\n                /* \"#utility.yul\":4833:4839   */\n              dup5\n                /* \"#utility.yul\":4828:4831   */\n              dup3\n                /* \"#utility.yul\":4823:4826   */\n              dup6\n                /* \"#utility.yul\":4799:4840   */\n              tag_239\n              jump\t// in\n            tag_316:\n                /* \"#utility.yul\":4518:4846   */\n              pop\n                /* \"#utility.yul\":4434:4846   */\n              swap4\n              swap3\n              pop\n              pop\n              pop\n              jump\t// out\n                /* \"#utility.yul\":4866:5206   */\n            tag_241:\n                /* \"#utility.yul\":4922:4927   */\n              0x00\n                /* \"#utility.yul\":4971:4974   */\n              dup3\n                /* \"#utility.yul\":4964:4968   */\n              0x1f\n                /* \"#utility.yul\":4956:4962   */\n              dup4\n                /* \"#utility.yul\":4952:4969   */\n              add\n                /* \"#utility.yul\":4948:4975   */\n              slt\n                /* \"#utility.yul\":4938:5060   */\n              tag_318\n              jumpi\n                /* \"#utility.yul\":4979:5058   */\n              tag_319\n              tag_232\n              jump\t// in\n            tag_319:\n                /* \"#utility.yul\":4938:5060   */\n            tag_318:\n                /* \"#utility.yul\":5096:5102   */\n              dup2\n                /* \"#utility.yul\":5083:5103   */\n              calldataload\n                /* \"#utility.yul\":5121:5200   */\n              tag_320\n                /* \"#utility.yul\":5196:5199   */\n              dup5\n                /* \"#utility.yul\":5188:5194   */\n              dup3\n                /* \"#utility.yul\":5181:5185   */\n              0x20\n                /* \"#utility.yul\":5173:5179   */\n              dup7\n                /* \"#utility.yul\":5169:5186   */\n              add\n                /* \"#utility.yul\":5121:5200   */\n              tag_240\n              jump\t// in\n            tag_320:\n                /* \"#utility.yul\":5112:5200   */\n              swap2\n              pop\n                /* \"#utility.yul\":4928:5206   */\n              pop\n                /* \"#utility.yul\":4866:5206   */\n              swap3\n              swap2\n              pop\n              pop\n              jump\t// out\n                /* \"#utility.yul\":5212:6337   */\n            tag_49:\n                /* \"#utility.yul\":5318:5324   */\n              0x00\n                /* \"#utility.yul\":5326:5332   */\n              dup1\n                /* \"#utility.yul\":5334:5340   */\n              0x00\n                /* \"#utility.yul\":5342:5348   */\n              dup1\n                /* \"#utility.yul\":5391:5394   */\n              0x80\n                /* \"#utility.yul\":5379:5388   */\n              dup6\n                /* \"#utility.yul\":5370:5377   */\n              dup8\n                /* \"#utility.yul\":5366:5389   */\n              sub\n                /* \"#utility.yul\":5362:5395   */\n              slt\n                /* \"#utility.yul\":5359:5479   */\n              iszero\n              tag_322\n              jumpi\n                /* \"#utility.yul\":5398:5477   */\n              tag_323\n              tag_219\n              jump\t// in\n            tag_323:\n                /* \"#utility.yul\":5359:5479   */\n            tag_322:\n                /* \"#utility.yul\":5546:5547   */\n              0x00\n                /* \"#utility.yul\":5535:5544   */\n              dup6\n                /* \"#utility.yul\":5531:5548   */\n              add\n                /* \"#utility.yul\":5518:5549   */\n              calldataload\n                /* \"#utility.yul\":5576:5594   */\n              0xffffffffffffffff\n                /* \"#utility.yul\":5568:5574   */\n              dup2\n                /* \"#utility.yul\":5565:5595   */\n              gt\n                /* \"#utility.yul\":5562:5679   */\n              iszero\n              tag_324\n              jumpi\n                /* \"#utility.yul\":5598:5677   */\n              tag_325\n              tag_220\n              jump\t// in\n            tag_325:\n                /* \"#utility.yul\":5562:5679   */\n            tag_324:\n                /* \"#utility.yul\":5703:5766   */\n              tag_326\n                /* \"#utility.yul\":5758:5765   */\n              dup8\n                /* \"#utility.yul\":5749:5755   */\n              dup3\n                /* \"#utility.yul\":5738:5747   */\n              dup9\n                /* \"#utility.yul\":5734:5756   */\n              add\n                /* \"#utility.yul\":5703:5766   */\n              tag_241\n              jump\t// in\n            tag_326:\n                /* \"#utility.yul\":5693:5766   */\n              swap5\n              pop\n                /* \"#utility.yul\":5489:5776   */\n              pop\n                /* \"#utility.yul\":5843:5845   */\n              0x20\n                /* \"#utility.yul\":5832:5841   */\n              dup6\n                /* \"#utility.yul\":5828:5846   */\n              add\n                /* \"#utility.yul\":5815:5847   */\n              calldataload\n                /* \"#utility.yul\":5874:5892   */\n              0xffffffffffffffff\n                /* \"#utility.yul\":5866:5872   */\n              dup2\n                /* \"#utility.yul\":5863:5893   */\n              gt\n                /* \"#utility.yul\":5860:5977   */\n              iszero\n              tag_327\n              jumpi\n                /* \"#utility.yul\":5896:5975   */\n              tag_328\n              tag_220\n              jump\t// in\n            tag_328:\n                /* \"#utility.yul\":5860:5977   */\n            tag_327:\n                /* \"#utility.yul\":6001:6064   */\n              tag_329\n                /* \"#utility.yul\":6056:6063   */\n              dup8\n                /* \"#utility.yul\":6047:6053   */\n              dup3\n                /* \"#utility.yul\":6036:6045   */\n              dup9\n                /* \"#utility.yul\":6032:6054   */\n              add\n                /* \"#utility.yul\":6001:6064   */\n              tag_241\n              jump\t// in\n            tag_329:\n                /* \"#utility.yul\":5991:6064   */\n              swap4\n              pop\n                /* \"#utility.yul\":5786:6074   */\n              pop\n                /* \"#utility.yul\":6113:6115   */\n              0x40\n                /* \"#utility.yul\":6139:6192   */\n              tag_330\n                /* \"#utility.yul\":6184:6191   */\n              dup8\n                /* \"#utility.yul\":6175:6181   */\n              dup3\n                /* \"#utility.yul\":6164:6173   */\n              dup9\n                /* \"#utility.yul\":6160:6182   */\n              add\n                /* \"#utility.yul\":6139:6192   */\n              tag_229\n              jump\t// in\n            tag_330:\n                /* \"#utility.yul\":6129:6192   */\n              swap3\n              pop\n                /* \"#utility.yul\":6084:6202   */\n              pop\n                /* \"#utility.yul\":6241:6243   */\n              0x60\n                /* \"#utility.yul\":6267:6320   */\n              tag_331\n                /* \"#utility.yul\":6312:6319   */\n              dup8\n                /* \"#utility.yul\":6303:6309   */\n              dup3\n                /* \"#utility.yul\":6292:6301   */\n              dup9\n                /* \"#utility.yul\":6288:6310   */\n              add\n                /* \"#utility.yul\":6267:6320   */\n              tag_223\n              jump\t// in\n            tag_331:\n                /* \"#utility.yul\":6257:6320   */\n              swap2\n              pop\n                /* \"#utility.yul\":6212:6330   */\n              pop\n                /* \"#utility.yul\":5212:6337   */\n              swap3\n              swap6\n              swap2\n              swap5\n              pop\n              swap3\n              pop\n              jump\t// out\n                /* \"#utility.yul\":6343:6442   */\n            tag_242:\n                /* \"#utility.yul\":6395:6401   */\n              0x00\n                /* \"#utility.yul\":6429:6434   */\n              dup2\n                /* \"#utility.yul\":6423:6435   */\n              mload\n                /* \"#utility.yul\":6413:6435   */\n              swap1\n              pop\n                /* \"#utility.yul\":6343:6442   */\n              swap2\n              swap1\n              pop\n              jump\t// out\n                /* \"#utility.yul\":6448:6617   */\n            tag_243:\n                /* \"#utility.yul\":6532:6543   */\n              0x00\n                /* \"#utility.yul\":6566:6572   */\n              dup3\n                /* \"#utility.yul\":6561:6564   */\n              dup3\n                /* \"#utility.yul\":6554:6573   */\n              mstore\n                /* \"#utility.yul\":6606:6610   */\n              0x20\n                /* \"#utility.yul\":6601:6604   */\n              dup3\n                /* \"#utility.yul\":6597:6611   */\n              add\n                /* \"#utility.yul\":6582:6611   */\n              swap1\n              pop\n                /* \"#utility.yul\":6448:6617   */\n              swap3\n              swap2\n              pop\n              pop\n              jump\t// out\n                /* \"#utility.yul\":6623:6930   */\n            tag_244:\n                /* \"#utility.yul\":6691:6692   */\n              0x00\n                /* \"#utility.yul\":6701:6814   */\n            tag_335:\n                /* \"#utility.yul\":6715:6721   */\n              dup4\n                /* \"#utility.yul\":6712:6713   */\n              dup2\n                /* \"#utility.yul\":6709:6722   */\n              lt\n                /* \"#utility.yul\":6701:6814   */\n              iszero\n              tag_337\n              jumpi\n                /* \"#utility.yul\":6800:6801   */\n              dup1\n                /* \"#utility.yul\":6795:6798   */\n              dup3\n                /* \"#utility.yul\":6791:6802   */\n              add\n                /* \"#utility.yul\":6785:6803   */\n              mload\n                /* \"#utility.yul\":6781:6782   */\n              dup2\n                /* \"#utility.yul\":6776:6779   */\n              dup5\n                /* \"#utility.yul\":6772:6783   */\n              add\n                /* \"#utility.yul\":6765:6804   */\n              mstore\n                /* \"#utility.yul\":6737:6739   */\n              0x20\n                /* \"#utility.yul\":6734:6735   */\n              dup2\n                /* \"#utility.yul\":6730:6740   */\n              add\n                /* \"#utility.yul\":6725:6740   */\n              swap1\n              pop\n                /* \"#utility.yul\":6701:6814   */\n              jump(tag_335)\n            tag_337:\n                /* \"#utility.yul\":6832:6838   */\n              dup4\n                /* \"#utility.yul\":6829:6830   */\n              dup2\n                /* \"#utility.yul\":6826:6839   */\n              gt\n                /* \"#utility.yul\":6823:6924   */\n              iszero\n              tag_338\n              jumpi\n                /* \"#utility.yul\":6912:6913   */\n              0x00\n                /* \"#utility.yul\":6903:6909   */\n              dup5\n                /* \"#utility.yul\":6898:6901   */\n              dup5\n                /* \"#utility.yul\":6894:6910   */\n              add\n                /* \"#utility.yul\":6887:6914   */\n              mstore\n                /* \"#utility.yul\":6823:6924   */\n            tag_338:\n                /* \"#utility.yul\":6672:6930   */\n              pop\n                /* \"#utility.yul\":6623:6930   */\n              pop\n              pop\n              pop\n              jump\t// out\n                /* \"#utility.yul\":6936:7300   */\n            tag_245:\n                /* \"#utility.yul\":7024:7027   */\n              0x00\n                /* \"#utility.yul\":7052:7091   */\n              tag_340\n                /* \"#utility.yul\":7085:7090   */\n              dup3\n                /* \"#utility.yul\":7052:7091   */\n              tag_242\n              jump\t// in\n            tag_340:\n                /* \"#utility.yul\":7107:7178   */\n              tag_341\n                /* \"#utility.yul\":7171:7177   */\n              dup2\n                /* \"#utility.yul\":7166:7169   */\n              dup6\n                /* \"#utility.yul\":7107:7178   */\n              tag_243\n              jump\t// in\n            tag_341:\n                /* \"#utility.yul\":7100:7178   */\n              swap4\n              pop\n                /* \"#utility.yul\":7187:7239   */\n              tag_342\n                /* \"#utility.yul\":7232:7238   */\n              dup2\n                /* \"#utility.yul\":7227:7230   */\n              dup6\n                /* \"#utility.yul\":7220:7224   */\n              0x20\n                /* \"#utility.yul\":7213:7218   */\n              dup7\n                /* \"#utility.yul\":7209:7225   */\n              add\n                /* \"#utility.yul\":7187:7239   */\n              tag_244\n              jump\t// in\n            tag_342:\n                /* \"#utility.yul\":7264:7293   */\n              tag_343\n                /* \"#utility.yul\":7286:7292   */\n              dup2\n                /* \"#utility.yul\":7264:7293   */\n              tag_234\n              jump\t// in\n            tag_343:\n                /* \"#utility.yul\":7259:7262   */\n              dup5\n                /* \"#utility.yul\":7255:7294   */\n              add\n                /* \"#utility.yul\":7248:7294   */\n              swap2\n              pop\n                /* \"#utility.yul\":7028:7300   */\n              pop\n                /* \"#utility.yul\":6936:7300   */\n              swap3\n              swap2\n              pop\n              pop\n              jump\t// out\n                /* \"#utility.yul\":7306:8687   */\n            tag_59:\n                /* \"#utility.yul\":7683:7687   */\n              0x00\n                /* \"#utility.yul\":7721:7724   */\n              0x0120\n                /* \"#utility.yul\":7710:7719   */\n              dup3\n                /* \"#utility.yul\":7706:7725   */\n              add\n                /* \"#utility.yul\":7698:7725   */\n              swap1\n              pop\n                /* \"#utility.yul\":7735:7806   */\n              tag_345\n                /* \"#utility.yul\":7803:7804   */\n              0x00\n                /* \"#utility.yul\":7792:7801   */\n              dup4\n                /* \"#utility.yul\":7788:7805   */\n              add\n                /* \"#utility.yul\":7779:7785   */\n              dup13\n                /* \"#utility.yul\":7735:7806   */\n              tag_227\n              jump\t// in\n            tag_345:\n                /* \"#utility.yul\":7816:7888   */\n              tag_346\n                /* \"#utility.yul\":7884:7886   */\n              0x20\n                /* \"#utility.yul\":7873:7882   */\n              dup4\n                /* \"#utility.yul\":7869:7887   */\n              add\n                /* \"#utility.yul\":7860:7866   */\n              dup12\n                /* \"#utility.yul\":7816:7888   */\n              tag_227\n              jump\t// in\n            tag_346:\n                /* \"#utility.yul\":7898:7970   */\n              tag_347\n                /* \"#utility.yul\":7966:7968   */\n              0x40\n                /* \"#utility.yul\":7955:7964   */\n              dup4\n                /* \"#utility.yul\":7951:7969   */\n              add\n                /* \"#utility.yul\":7942:7948   */\n              dup11\n                /* \"#utility.yul\":7898:7970   */\n              tag_227\n              jump\t// in\n            tag_347:\n                /* \"#utility.yul\":7980:8052   */\n              tag_348\n                /* \"#utility.yul\":8048:8050   */\n              0x60\n                /* \"#utility.yul\":8037:8046   */\n              dup4\n                /* \"#utility.yul\":8033:8051   */\n              add\n                /* \"#utility.yul\":8024:8030   */\n              dup10\n                /* \"#utility.yul\":7980:8052   */\n              tag_227\n              jump\t// in\n            tag_348:\n                /* \"#utility.yul\":8062:8135   */\n              tag_349\n                /* \"#utility.yul\":8130:8133   */\n              0x80\n                /* \"#utility.yul\":8119:8128   */\n              dup4\n                /* \"#utility.yul\":8115:8134   */\n              add\n                /* \"#utility.yul\":8106:8112   */\n              dup9\n                /* \"#utility.yul\":8062:8135   */\n              tag_227\n              jump\t// in\n            tag_349:\n                /* \"#utility.yul\":8145:8218   */\n              tag_350\n                /* \"#utility.yul\":8213:8216   */\n              0xa0\n                /* \"#utility.yul\":8202:8211   */\n              dup4\n                /* \"#utility.yul\":8198:8217   */\n              add\n                /* \"#utility.yul\":8189:8195   */\n              dup8\n                /* \"#utility.yul\":8145:8218   */\n              tag_226\n              jump\t// in\n            tag_350:\n                /* \"#utility.yul\":8266:8275   */\n              dup2\n                /* \"#utility.yul\":8260:8264   */\n              dup2\n                /* \"#utility.yul\":8256:8276   */\n              sub\n                /* \"#utility.yul\":8250:8253   */\n              0xc0\n                /* \"#utility.yul\":8239:8248   */\n              dup4\n                /* \"#utility.yul\":8235:8254   */\n              add\n                /* \"#utility.yul\":8228:8277   */\n              mstore\n                /* \"#utility.yul\":8294:8372   */\n              tag_351\n                /* \"#utility.yul\":8367:8371   */\n              dup2\n                /* \"#utility.yul\":8358:8364   */\n              dup7\n                /* \"#utility.yul\":8294:8372   */\n              tag_245\n              jump\t// in\n            tag_351:\n                /* \"#utility.yul\":8286:8372   */\n              swap1\n              pop\n                /* \"#utility.yul\":8420:8429   */\n              dup2\n                /* \"#utility.yul\":8414:8418   */\n              dup2\n                /* \"#utility.yul\":8410:8430   */\n              sub\n                /* \"#utility.yul\":8404:8407   */\n              0xe0\n                /* \"#utility.yul\":8393:8402   */\n              dup4\n                /* \"#utility.yul\":8389:8408   */\n              add\n                /* \"#utility.yul\":8382:8431   */\n              mstore\n                /* \"#utility.yul\":8448:8526   */\n              tag_352\n                /* \"#utility.yul\":8521:8525   */\n              dup2\n                /* \"#utility.yul\":8512:8518   */\n              dup6\n                /* \"#utility.yul\":8448:8526   */\n              tag_245\n              jump\t// in\n            tag_352:\n                /* \"#utility.yul\":8440:8526   */\n              swap1\n              pop\n                /* \"#utility.yul\":8574:8583   */\n              dup2\n                /* \"#utility.yul\":8568:8572   */\n              dup2\n                /* \"#utility.yul\":8564:8584   */\n              sub\n                /* \"#utility.yul\":8558:8561   */\n              0x0100\n                /* \"#utility.yul\":8547:8556   */\n              dup4\n                /* \"#utility.yul\":8543:8562   */\n              add\n                /* \"#utility.yul\":8536:8585   */\n              mstore\n                /* \"#utility.yul\":8602:8680   */\n              tag_353\n                /* \"#utility.yul\":8675:8679   */\n              dup2\n                /* \"#utility.yul\":8666:8672   */\n              dup5\n                /* \"#utility.yul\":8602:8680   */\n              tag_245\n              jump\t// in\n            tag_353:\n                /* \"#utility.yul\":8594:8680   */\n              swap1\n              pop\n                /* \"#utility.yul\":7306:8687   */\n              swap11\n              swap10\n              pop\n              pop\n              pop\n              pop\n              pop\n              pop\n              pop\n              pop\n              pop\n              pop\n              jump\t// out\n                /* \"#utility.yul\":8693:9006   */\n            tag_68:\n                /* \"#utility.yul\":8806:8810   */\n              0x00\n                /* \"#utility.yul\":8844:8846   */\n              0x20\n                /* \"#utility.yul\":8833:8842   */\n              dup3\n                /* \"#utility.yul\":8829:8847   */\n              add\n                /* \"#utility.yul\":8821:8847   */\n              swap1\n              pop\n                /* \"#utility.yul\":8893:8902   */\n              dup2\n                /* \"#utility.yul\":8887:8891   */\n              dup2\n                /* \"#utility.yul\":8883:8903   */\n              sub\n                /* \"#utility.yul\":8879:8880   */\n              0x00\n                /* \"#utility.yul\":8868:8877   */\n              dup4\n                /* \"#utility.yul\":8864:8881   */\n              add\n                /* \"#utility.yul\":8857:8904   */\n              mstore\n                /* \"#utility.yul\":8921:8999   */\n              tag_355\n                /* \"#utility.yul\":8994:8998   */\n              dup2\n                /* \"#utility.yul\":8985:8991   */\n              dup5\n                /* \"#utility.yul\":8921:8999   */\n              tag_245\n              jump\t// in\n            tag_355:\n                /* \"#utility.yul\":8913:8999   */\n              swap1\n              pop\n                /* \"#utility.yul\":8693:9006   */\n              swap3\n              swap2\n              pop\n              pop\n              jump\t// out\n                /* \"#utility.yul\":9012:9126   */\n            tag_246:\n                /* \"#utility.yul\":9079:9085   */\n              0x00\n                /* \"#utility.yul\":9113:9118   */\n              dup2\n                /* \"#utility.yul\":9107:9119   */\n              mload\n                /* \"#utility.yul\":9097:9119   */\n              swap1\n              pop\n                /* \"#utility.yul\":9012:9126   */\n              swap2\n              swap1\n              pop\n              jump\t// out\n                /* \"#utility.yul\":9132:9316   */\n            tag_247:\n                /* \"#utility.yul\":9231:9242   */\n              0x00\n                /* \"#utility.yul\":9265:9271   */\n              dup3\n                /* \"#utility.yul\":9260:9263   */\n              dup3\n                /* \"#utility.yul\":9253:9272   */\n              mstore\n                /* \"#utility.yul\":9305:9309   */\n              0x20\n                /* \"#utility.yul\":9300:9303   */\n              dup3\n                /* \"#utility.yul\":9296:9310   */\n              add\n                /* \"#utility.yul\":9281:9310   */\n              swap1\n              pop\n                /* \"#utility.yul\":9132:9316   */\n              swap3\n              swap2\n              pop\n              pop\n              jump\t// out\n                /* \"#utility.yul\":9322:9454   */\n            tag_248:\n                /* \"#utility.yul\":9389:9393   */\n              0x00\n                /* \"#utility.yul\":9412:9415   */\n              dup2\n                /* \"#utility.yul\":9404:9415   */\n              swap1\n              pop\n                /* \"#utility.yul\":9442:9446   */\n              0x20\n                /* \"#utility.yul\":9437:9440   */\n              dup3\n                /* \"#utility.yul\":9433:9447   */\n              add\n                /* \"#utility.yul\":9425:9447   */\n              swap1\n              pop\n                /* \"#utility.yul\":9322:9454   */\n              swap2\n              swap1\n              pop\n              jump\t// out\n                /* \"#utility.yul\":9460:9568   */\n            tag_249:\n                /* \"#utility.yul\":9537:9561   */\n              tag_360\n                /* \"#utility.yul\":9555:9560   */\n              dup2\n                /* \"#utility.yul\":9537:9561   */\n              tag_225\n              jump\t// in\n            tag_360:\n                /* \"#utility.yul\":9532:9535   */\n              dup3\n                /* \"#utility.yul\":9525:9562   */\n              mstore\n                /* \"#utility.yul\":9460:9568   */\n              pop\n              pop\n              jump\t// out\n                /* \"#utility.yul\":9574:9753   */\n            tag_250:\n                /* \"#utility.yul\":9643:9653   */\n              0x00\n                /* \"#utility.yul\":9664:9710   */\n              tag_362\n                /* \"#utility.yul\":9706:9709   */\n              dup4\n                /* \"#utility.yul\":9698:9704   */\n              dup4\n                /* \"#utility.yul\":9664:9710   */\n              tag_249\n              jump\t// in\n            tag_362:\n                /* \"#utility.yul\":9742:9746   */\n              0x20\n                /* \"#utility.yul\":9737:9740   */\n              dup4\n                /* \"#utility.yul\":9733:9747   */\n              add\n                /* \"#utility.yul\":9719:9747   */\n              swap1\n              pop\n                /* \"#utility.yul\":9574:9753   */\n              swap3\n              swap2\n              pop\n              pop\n              jump\t// out\n                /* \"#utility.yul\":9759:9872   */\n            tag_251:\n                /* \"#utility.yul\":9829:9833   */\n              0x00\n                /* \"#utility.yul\":9861:9865   */\n              0x20\n                /* \"#utility.yul\":9856:9859   */\n              dup3\n                /* \"#utility.yul\":9852:9866   */\n              add\n                /* \"#utility.yul\":9844:9866   */\n              swap1\n              pop\n                /* \"#utility.yul\":9759:9872   */\n              swap2\n              swap1\n              pop\n              jump\t// out\n                /* \"#utility.yul\":9908:10640   */\n            tag_252:\n                /* \"#utility.yul\":10027:10030   */\n              0x00\n                /* \"#utility.yul\":10056:10110   */\n              tag_365\n                /* \"#utility.yul\":10104:10109   */\n              dup3\n                /* \"#utility.yul\":10056:10110   */\n              tag_246\n              jump\t// in\n            tag_365:\n                /* \"#utility.yul\":10126:10212   */\n              tag_366\n                /* \"#utility.yul\":10205:10211   */\n              dup2\n                /* \"#utility.yul\":10200:10203   */\n              dup6\n                /* \"#utility.yul\":10126:10212   */\n              tag_247\n              jump\t// in\n            tag_366:\n                /* \"#utility.yul\":10119:10212   */\n              swap4\n              pop\n                /* \"#utility.yul\":10236:10292   */\n              tag_367\n                /* \"#utility.yul\":10286:10291   */\n              dup4\n                /* \"#utility.yul\":10236:10292   */\n              tag_248\n              jump\t// in\n            tag_367:\n                /* \"#utility.yul\":10315:10322   */\n              dup1\n                /* \"#utility.yul\":10346:10347   */\n              0x00\n                /* \"#utility.yul\":10331:10615   */\n            tag_368:\n                /* \"#utility.yul\":10356:10362   */\n              dup4\n                /* \"#utility.yul\":10353:10354   */\n              dup2\n                /* \"#utility.yul\":10350:10363   */\n              lt\n                /* \"#utility.yul\":10331:10615   */\n              iszero\n              tag_370\n              jumpi\n                /* \"#utility.yul\":10432:10438   */\n              dup2\n                /* \"#utility.yul\":10426:10439   */\n              mload\n                /* \"#utility.yul\":10459:10522   */\n              tag_371\n                /* \"#utility.yul\":10518:10521   */\n              dup9\n                /* \"#utility.yul\":10503:10516   */\n              dup3\n                /* \"#utility.yul\":10459:10522   */\n              tag_250\n              jump\t// in\n            tag_371:\n                /* \"#utility.yul\":10452:10522   */\n              swap8\n              pop\n                /* \"#utility.yul\":10545:10605   */\n              tag_372\n                /* \"#utility.yul\":10598:10604   */\n              dup4\n                /* \"#utility.yul\":10545:10605   */\n              tag_251\n              jump\t// in\n            tag_372:\n                /* \"#utility.yul\":10535:10605   */\n              swap3\n              pop\n                /* \"#utility.yul\":10391:10615   */\n              pop\n                /* \"#utility.yul\":10378:10379   */\n              0x01\n                /* \"#utility.yul\":10375:10376   */\n              dup2\n                /* \"#utility.yul\":10371:10380   */\n              add\n                /* \"#utility.yul\":10366:10380   */\n              swap1\n              pop\n                /* \"#utility.yul\":10331:10615   */\n              jump(tag_368)\n            tag_370:\n                /* \"#utility.yul\":10335:10349   */\n              pop\n                /* \"#utility.yul\":10631:10634   */\n              dup6\n                /* \"#utility.yul\":10624:10634   */\n              swap4\n              pop\n                /* \"#utility.yul\":10032:10640   */\n              pop\n              pop\n              pop\n                /* \"#utility.yul\":9908:10640   */\n              swap3\n              swap2\n              pop\n              pop\n              jump\t// out\n                /* \"#utility.yul\":10646:11019   */\n            tag_73:\n                /* \"#utility.yul\":10789:10793   */\n              0x00\n                /* \"#utility.yul\":10827:10829   */\n              0x20\n                /* \"#utility.yul\":10816:10825   */\n              dup3\n                /* \"#utility.yul\":10812:10830   */\n              add\n                /* \"#utility.yul\":10804:10830   */\n              swap1\n              pop\n                /* \"#utility.yul\":10876:10885   */\n              dup2\n                /* \"#utility.yul\":10870:10874   */\n              dup2\n                /* \"#utility.yul\":10866:10886   */\n              sub\n                /* \"#utility.yul\":10862:10863   */\n              0x00\n                /* \"#utility.yul\":10851:10860   */\n              dup4\n                /* \"#utility.yul\":10847:10864   */\n              add\n                /* \"#utility.yul\":10840:10887   */\n              mstore\n                /* \"#utility.yul\":10904:11012   */\n              tag_374\n                /* \"#utility.yul\":11007:11011   */\n              dup2\n                /* \"#utility.yul\":10998:11004   */\n              dup5\n                /* \"#utility.yul\":10904:11012   */\n              tag_252\n              jump\t// in\n            tag_374:\n                /* \"#utility.yul\":10896:11012   */\n              swap1\n              pop\n                /* \"#utility.yul\":10646:11019   */\n              swap3\n              swap2\n              pop\n              pop\n              jump\t// out\n                /* \"#utility.yul\":11025:11970   */\n            tag_83:\n                /* \"#utility.yul\":11292:11296   */\n              0x00\n                /* \"#utility.yul\":11330:11333   */\n              0xc0\n                /* \"#utility.yul\":11319:11328   */\n              dup3\n                /* \"#utility.yul\":11315:11334   */\n              add\n                /* \"#utility.yul\":11307:11334   */\n              swap1\n              pop\n                /* \"#utility.yul\":11380:11389   */\n              dup2\n                /* \"#utility.yul\":11374:11378   */\n              dup2\n                /* \"#utility.yul\":11370:11390   */\n              sub\n                /* \"#utility.yul\":11366:11367   */\n              0x00\n                /* \"#utility.yul\":11355:11364   */\n              dup4\n                /* \"#utility.yul\":11351:11368   */\n              add\n                /* \"#utility.yul\":11344:11391   */\n              mstore\n                /* \"#utility.yul\":11408:11486   */\n              tag_376\n                /* \"#utility.yul\":11481:11485   */\n              dup2\n                /* \"#utility.yul\":11472:11478   */\n              dup10\n                /* \"#utility.yul\":11408:11486   */\n              tag_245\n              jump\t// in\n            tag_376:\n                /* \"#utility.yul\":11400:11486   */\n              swap1\n              pop\n                /* \"#utility.yul\":11533:11542   */\n              dup2\n                /* \"#utility.yul\":11527:11531   */\n              dup2\n                /* \"#utility.yul\":11523:11543   */\n              sub\n                /* \"#utility.yul\":11518:11520   */\n              0x20\n                /* \"#utility.yul\":11507:11516   */\n              dup4\n                /* \"#utility.yul\":11503:11521   */\n              add\n                /* \"#utility.yul\":11496:11544   */\n              mstore\n                /* \"#utility.yul\":11561:11639   */\n              tag_377\n                /* \"#utility.yul\":11634:11638   */\n              dup2\n                /* \"#utility.yul\":11625:11631   */\n              dup9\n                /* \"#utility.yul\":11561:11639   */\n              tag_245\n              jump\t// in\n            tag_377:\n                /* \"#utility.yul\":11553:11639   */\n              swap1\n              pop\n                /* \"#utility.yul\":11649:11721   */\n              tag_378\n                /* \"#utility.yul\":11717:11719   */\n              0x40\n                /* \"#utility.yul\":11706:11715   */\n              dup4\n                /* \"#utility.yul\":11702:11720   */\n              add\n                /* \"#utility.yul\":11693:11699   */\n              dup8\n                /* \"#utility.yul\":11649:11721   */\n              tag_226\n              jump\t// in\n            tag_378:\n                /* \"#utility.yul\":11731:11803   */\n              tag_379\n                /* \"#utility.yul\":11799:11801   */\n              0x60\n                /* \"#utility.yul\":11788:11797   */\n              dup4\n                /* \"#utility.yul\":11784:11802   */\n              add\n                /* \"#utility.yul\":11775:11781   */\n              dup7\n                /* \"#utility.yul\":11731:11803   */\n              tag_227\n              jump\t// in\n            tag_379:\n                /* \"#utility.yul\":11813:11886   */\n              tag_380\n                /* \"#utility.yul\":11881:11884   */\n              0x80\n                /* \"#utility.yul\":11870:11879   */\n              dup4\n                /* \"#utility.yul\":11866:11885   */\n              add\n                /* \"#utility.yul\":11857:11863   */\n              dup6\n                /* \"#utility.yul\":11813:11886   */\n              tag_227\n              jump\t// in\n            tag_380:\n                /* \"#utility.yul\":11896:11963   */\n              tag_381\n                /* \"#utility.yul\":11958:11961   */\n              0xa0\n                /* \"#utility.yul\":11947:11956   */\n              dup4\n                /* \"#utility.yul\":11943:11962   */\n              add\n                /* \"#utility.yul\":11934:11940   */\n              dup5\n                /* \"#utility.yul\":11896:11963   */\n              tag_231\n              jump\t// in\n            tag_381:\n                /* \"#utility.yul\":11025:11970   */\n              swap8\n              swap7\n              pop\n              pop\n              pop\n              pop\n              pop\n              pop\n              pop\n              jump\t// out\n                /* \"#utility.yul\":11976:12156   */\n            tag_253:\n                /* \"#utility.yul\":12024:12101   */\n              0x4e487b7100000000000000000000000000000000000000000000000000000000\n                /* \"#utility.yul\":12021:12022   */\n              0x00\n                /* \"#utility.yul\":12014:12102   */\n              mstore\n                /* \"#utility.yul\":12121:12125   */\n              0x12\n                /* \"#utility.yul\":12118:12119   */\n              0x04\n                /* \"#utility.yul\":12111:12126   */\n              mstore\n                /* \"#utility.yul\":12145:12149   */\n              0x24\n                /* \"#utility.yul\":12142:12143   */\n              0x00\n                /* \"#utility.yul\":12135:12150   */\n              revert\n                /* \"#utility.yul\":12162:12342   */\n            tag_254:\n                /* \"#utility.yul\":12210:12287   */\n              0x4e487b7100000000000000000000000000000000000000000000000000000000\n                /* \"#utility.yul\":12207:12208   */\n              0x00\n                /* \"#utility.yul\":12200:12288   */\n              mstore\n                /* \"#utility.yul\":12307:12311   */\n              0x11\n                /* \"#utility.yul\":12304:12305   */\n              0x04\n                /* \"#utility.yul\":12297:12312   */\n              mstore\n                /* \"#utility.yul\":12331:12335   */\n              0x24\n                /* \"#utility.yul\":12328:12329   */\n              0x00\n                /* \"#utility.yul\":12321:12336   */\n              revert\n                /* \"#utility.yul\":12348:12533   */\n            tag_110:\n                /* \"#utility.yul\":12388:12389   */\n              0x00\n                /* \"#utility.yul\":12405:12425   */\n              tag_385\n                /* \"#utility.yul\":12423:12424   */\n              dup3\n                /* \"#utility.yul\":12405:12425   */\n              tag_221\n              jump\t// in\n            tag_385:\n                /* \"#utility.yul\":12400:12425   */\n              swap2\n              pop\n                /* \"#utility.yul\":12439:12459   */\n              tag_386\n                /* \"#utility.yul\":12457:12458   */\n              dup4\n                /* \"#utility.yul\":12439:12459   */\n              tag_221\n              jump\t// in\n            tag_386:\n                /* \"#utility.yul\":12434:12459   */\n              swap3\n              pop\n                /* \"#utility.yul\":12478:12479   */\n              dup3\n                /* \"#utility.yul\":12468:12503   */\n              tag_387\n              jumpi\n                /* \"#utility.yul\":12483:12501   */\n              tag_388\n              tag_253\n              jump\t// in\n            tag_388:\n                /* \"#utility.yul\":12468:12503   */\n            tag_387:\n                /* \"#utility.yul\":12525:12526   */\n              dup3\n                /* \"#utility.yul\":12522:12523   */\n              dup3\n                /* \"#utility.yul\":12518:12527   */\n              div\n                /* \"#utility.yul\":12513:12527   */\n              swap1\n              pop\n                /* \"#utility.yul\":12348:12533   */\n              swap3\n              swap2\n              pop\n              pop\n              jump\t// out\n                /* \"#utility.yul\":12539:12719   */\n            tag_113:\n                /* \"#utility.yul\":12587:12664   */\n              0x4e487b7100000000000000000000000000000000000000000000000000000000\n                /* \"#utility.yul\":12584:12585   */\n              0x00\n                /* \"#utility.yul\":12577:12665   */\n              mstore\n                /* \"#utility.yul\":12684:12688   */\n              0x32\n                /* \"#utility.yul\":12681:12682   */\n              0x04\n                /* \"#utility.yul\":12674:12689   */\n              mstore\n                /* \"#utility.yul\":12708:12712   */\n              0x24\n                /* \"#utility.yul\":12705:12706   */\n              0x00\n                /* \"#utility.yul\":12698:12713   */\n              revert\n                /* \"#utility.yul\":12725:12905   */\n            tag_255:\n                /* \"#utility.yul\":12773:12850   */\n              0x4e487b7100000000000000000000000000000000000000000000000000000000\n                /* \"#utility.yul\":12770:12771   */\n              0x00\n                /* \"#utility.yul\":12763:12851   */\n              mstore\n                /* \"#utility.yul\":12870:12874   */\n              0x22\n                /* \"#utility.yul\":12867:12868   */\n              0x04\n                /* \"#utility.yul\":12860:12875   */\n              mstore\n                /* \"#utility.yul\":12894:12898   */\n              0x24\n                /* \"#utility.yul\":12891:12892   */\n              0x00\n                /* \"#utility.yul\":12884:12899   */\n              revert\n                /* \"#utility.yul\":12911:13231   */\n            tag_144:\n                /* \"#utility.yul\":12955:12961   */\n              0x00\n                /* \"#utility.yul\":12992:12993   */\n              0x02\n                /* \"#utility.yul\":12986:12990   */\n              dup3\n                /* \"#utility.yul\":12982:12994   */\n              div\n                /* \"#utility.yul\":12972:12994   */\n              swap1\n              pop\n                /* \"#utility.yul\":13039:13040   */\n              0x01\n                /* \"#utility.yul\":13033:13037   */\n              dup3\n                /* \"#utility.yul\":13029:13041   */\n              and\n                /* \"#utility.yul\":13060:13078   */\n              dup1\n                /* \"#utility.yul\":13050:13131   */\n              tag_392\n              jumpi\n                /* \"#utility.yul\":13116:13120   */\n              0x7f\n                /* \"#utility.yul\":13108:13114   */\n              dup3\n                /* \"#utility.yul\":13104:13121   */\n              and\n                /* \"#utility.yul\":13094:13121   */\n              swap2\n              pop\n                /* \"#utility.yul\":13050:13131   */\n            tag_392:\n                /* \"#utility.yul\":13178:13180   */\n              0x20\n                /* \"#utility.yul\":13170:13176   */\n              dup3\n                /* \"#utility.yul\":13167:13181   */\n              lt\n                /* \"#utility.yul\":13147:13165   */\n              dup2\n                /* \"#utility.yul\":13144:13182   */\n              sub\n                /* \"#utility.yul\":13141:13225   */\n              tag_393\n              jumpi\n                /* \"#utility.yul\":13197:13215   */\n              tag_394\n              tag_255\n              jump\t// in\n            tag_394:\n                /* \"#utility.yul\":13141:13225   */\n            tag_393:\n                /* \"#utility.yul\":12962:13231   */\n              pop\n                /* \"#utility.yul\":12911:13231   */\n              swap2\n              swap1\n              pop\n              jump\t// out\n                /* \"#utility.yul\":13237:13470   */\n            tag_189:\n                /* \"#utility.yul\":13276:13279   */\n              0x00\n                /* \"#utility.yul\":13299:13323   */\n              tag_396\n                /* \"#utility.yul\":13317:13322   */\n              dup3\n                /* \"#utility.yul\":13299:13323   */\n              tag_221\n              jump\t// in\n            tag_396:\n                /* \"#utility.yul\":13290:13323   */\n              swap2\n              pop\n                /* \"#utility.yul\":13345:13411   */\n              0xffffffffffffffffffffffffffffffffffffffffffffffffffffffffffffffff\n                /* \"#utility.yul\":13338:13343   */\n              dup3\n                /* \"#utility.yul\":13335:13412   */\n              sub\n                /* \"#utility.yul\":13332:13435   */\n              tag_397\n              jumpi\n                /* \"#utility.yul\":13415:13433   */\n              tag_398\n              tag_254\n              jump\t// in\n            tag_398:\n                /* \"#utility.yul\":13332:13435   */\n            tag_397:\n                /* \"#utility.yul\":13462:13463   */\n              0x01\n                /* \"#utility.yul\":13455:13460   */\n              dup3\n                /* \"#utility.yul\":13451:13464   */\n              add\n                /* \"#utility.yul\":13444:13464   */\n              swap1\n              pop\n                /* \"#utility.yul\":13237:13470   */\n              swap2\n              swap1\n              pop\n              jump\t// out\n\n            auxdata: 0xa2646970667358221220d4d6cf61b05c0ff9fc9883053ab16a46cb2efdfb60adb30a5b3e03384973c6ea64736f6c634300080d0033\n        }\n    }\n\n    auxdata: 0xa2646970667358221220201355b9b556d33b78825602ea1bbc8edb3fad2f504a990e014ff03781f0f38164736f6c634300080d0033\n}\n","bytecode":{"linkReferences":{},"object":"608060405234801561001057600080fd5b506125d6806100206000396000f3fe60806040523480156200001157600080fd5b5060043610620000465760003560e01c8063141961bc146200004b57806386cdf6041462000081578063980f2e6614620000a3575b600080fd5b620000696004803603810190620000639190620002a2565b620000c3565b60405162000078919062000319565b60405180910390f35b6200008b62000103565b6040516200009a919062000404565b60405180910390f35b620000c16004803603810190620000bb91906200058a565b62000193565b005b60008181548110620000d457600080fd5b906000526020600020016000915054906101000a900473ffffffffffffffffffffffffffffffffffffffff1681565b606060008054806020026020016040519081016040528092919081815260200182805480156200018957602002820191906000526020600020905b8160009054906101000a900473ffffffffffffffffffffffffffffffffffffffff1673ffffffffffffffffffffffffffffffffffffffff16815260200190600101908083116200013e575b5050505050905090565b6000858585858533604051620001a99062000245565b620001ba9695949392919062000713565b604051809103906000f080158015620001d7573d6000803e3d6000fd5b5090506000819080600181540180825580915050600190039060005260206000200160009091909190916101000a81548173ffffffffffffffffffffffffffffffffffffffff021916908373ffffffffffffffffffffffffffffffffffffffff160217905550505050505050565b611e0b806200079683390190565b6000604051905090565b600080fd5b600080fd5b6000819050919050565b6200027c8162000267565b81146200028857600080fd5b50565b6000813590506200029c8162000271565b92915050565b600060208284031215620002bb57620002ba6200025d565b5b6000620002cb848285016200028b565b91505092915050565b600073ffffffffffffffffffffffffffffffffffffffff82169050919050565b60006200030182620002d4565b9050919050565b6200031381620002f4565b82525050565b600060208201905062000330600083018462000308565b92915050565b600081519050919050565b600082825260208201905092915050565b6000819050602082019050919050565b6200036d81620002f4565b82525050565b600062000381838362000362565b60208301905092915050565b6000602082019050919050565b6000620003a78262000336565b620003b3818562000341565b9350620003c08362000352565b8060005b83811015620003f7578151620003db888262000373565b9750620003e8836200038d565b925050600181019050620003c4565b5085935050505092915050565b600060208201905081810360008301526200042081846200039a565b905092915050565b600080fd5b600080fd5b6000601f19601f8301169050919050565b7f4e487b7100000000000000000000000000000000000000000000000000000000600052604160045260246000fd5b6200047d8262000432565b810181811067ffffffffffffffff821117156200049f576200049e62000443565b5b80604052505050565b6000620004b462000253565b9050620004c2828262000472565b919050565b600067ffffffffffffffff821115620004e557620004e462000443565b5b620004f08262000432565b9050602081019050919050565b82818337600083830152505050565b6000620005236200051d84620004c7565b620004a8565b9050828152602081018484840111156200054257620005416200042d565b5b6200054f848285620004fd565b509392505050565b600082601f8301126200056f576200056e62000428565b5b8135620005818482602086016200050c565b91505092915050565b600080600080600060a08688031215620005a957620005a86200025d565b5b600086013567ffffffffffffffff811115620005ca57620005c962000262565b5b620005d88882890162000557565b955050602086013567ffffffffffffffff811115620005fc57620005fb62000262565b5b6200060a8882890162000557565b945050604086013567ffffffffffffffff8111156200062e576200062d62000262565b5b6200063c8882890162000557565b93505060606200064f888289016200028b565b925050608062000662888289016200028b565b9150509295509295909350565b600081519050919050565b600082825260208201905092915050565b60005b83811015620006ab5780820151818401526020810190506200068e565b83811115620006bb576000848401525b50505050565b6000620006ce826200066f565b620006da81856200067a565b9350620006ec8185602086016200068b565b620006f78162000432565b840191505092915050565b6200070d8162000267565b82525050565b600060c08201905081810360008301526200072f8189620006c1565b90508181036020830152620007458188620006c1565b905081810360408301526200075b8187620006c1565b90506200076c606083018662000702565b6200077b608083018562000702565b6200078a60a083018462000308565b97965050505050505056fe60806040523480156200001157600080fd5b5060405162001e0b38038062001e0b8339818101604052810190620000379190620003ca565b85600090805190602001906200004f929190620000dd565b50846001908051906020019062000068929190620000dd565b50836002908051906020019062000081929190620000dd565b50826003819055508160048190555080600560006101000a81548173ffffffffffffffffffffffffffffffffffffffff021916908373ffffffffffffffffffffffffffffffffffffffff16021790555050505050505062000527565b828054620000eb90620004f2565b90600052602060002090601f0160209004810192826200010f57600085556200015b565b82601f106200012a57805160ff19168380011785556200015b565b828001600101855582156200015b579182015b828111156200015a5782518255916020019190600101906200013d565b5b5090506200016a91906200016e565b5090565b5b80821115620001895760008160009055506001016200016f565b5090565b6000604051905090565b600080fd5b600080fd5b600080fd5b600080fd5b6000601f19601f8301169050919050565b7f4e487b7100000000000000000000000000000000000000000000000000000000600052604160045260246000fd5b620001f682620001ab565b810181811067ffffffffffffffff82111715620002185762000217620001bc565b5b80604052505050565b60006200022d6200018d565b90506200023b8282620001eb565b919050565b600067ffffffffffffffff8211156200025e576200025d620001bc565b5b6200026982620001ab565b9050602081019050919050565b60005b838110156200029657808201518184015260208101905062000279565b83811115620002a6576000848401525b50505050565b6000620002c3620002bd8462000240565b62000221565b905082815260208101848484011115620002e257620002e1620001a6565b5b620002ef84828562000276565b509392505050565b600082601f8301126200030f576200030e620001a1565b5b815162000321848260208601620002ac565b91505092915050565b6000819050919050565b6200033f816200032a565b81146200034b57600080fd5b50565b6000815190506200035f8162000334565b92915050565b600073ffffffffffffffffffffffffffffffffffffffff82169050919050565b6000620003928262000365565b9050919050565b620003a48162000385565b8114620003b057600080fd5b50565b600081519050620003c48162000399565b92915050565b60008060008060008060c08789031215620003ea57620003e962000197565b5b600087015167ffffffffffffffff8111156200040b576200040a6200019c565b5b6200041989828a01620002f7565b965050602087015167ffffffffffffffff8111156200043d576200043c6200019c565b5b6200044b89828a01620002f7565b955050604087015167ffffffffffffffff8111156200046f576200046e6200019c565b5b6200047d89828a01620002f7565b94505060606200049089828a016200034e565b9350506080620004a389828a016200034e565b92505060a0620004b689828a01620003b3565b9150509295509295509295565b7f4e487b7100000000000000000000000000000000000000000000000000000000600052602260045260246000fd5b600060028204905060018216806200050b57607f821691505b602082108103620005215762000520620004c3565b5b50919050565b6118d480620005376000396000f3fe6080604052600436106101095760003560e01c806351f890ea11610095578063bb0c829811610064578063bb0c82981461037c578063d7bb99ba146103a7578063d7d1bbdb146103b1578063f251fc8c146103da578063f3ccaac01461040557610109565b806351f890ea146102b95780637284e416146102e457806381d12c581461030f578063953b8fb81461035157610109565b80632f814278116100dc5780632f814278146101dc5780633410452a146102055780634051ddac14610230578063481c6a75146102635780634a79d50c1461028e57610109565b8063034410061461010e5780630b9f2c4a1461013757806312065fe0146101745780631f6d49421461019f575b600080fd5b34801561011a57600080fd5b5061013560048036038101906101309190611176565b610430565b005b34801561014357600080fd5b5061015e60048036038101906101599190611176565b6105f8565b60405161016b91906111e4565b60405180910390f35b34801561018057600080fd5b50610189610637565b604051610196919061120e565b60405180910390f35b3480156101ab57600080fd5b506101c660048036038101906101c19190611255565b610656565b6040516101d3919061129d565b60405180910390f35b3480156101e857600080fd5b5061020360048036038101906101fe91906113fe565b610676565b005b34801561021157600080fd5b5061021a6107a0565b604051610227919061120e565b60405180910390f35b34801561023c57600080fd5b506102456107ad565b60405161025a99989796959493929190611525565b60405180910390f35b34801561026f57600080fd5b506102786109cc565b60405161028591906111e4565b60405180910390f35b34801561029a57600080fd5b506102a36109f2565b6040516102b091906115c7565b60405180910390f35b3480156102c557600080fd5b506102ce610a80565b6040516102db91906116a7565b60405180910390f35b3480156102f057600080fd5b506102f9610b0e565b60405161030691906115c7565b60405180910390f35b34801561031b57600080fd5b5061033660048036038101906103319190611176565b610b9c565b604051610348969594939291906116c9565b60405180910390f35b34801561035d57600080fd5b50610366610d25565b604051610373919061120e565b60405180910390f35b34801561038857600080fd5b50610391610d2b565b60405161039e919061120e565b60405180910390f35b6103af610d31565b005b3480156103bd57600080fd5b506103d860048036038101906103d39190611176565b610e6c565b005b3480156103e657600080fd5b506103ef610ff5565b6040516103fc919061120e565b60405180910390f35b34801561041157600080fd5b5061041a610ffb565b60405161042791906115c7565b60405180910390f35b600560009054906101000a900473ffffffffffffffffffffffffffffffffffffffff1673ffffffffffffffffffffffffffffffffffffffff163373ffffffffffffffffffffffffffffffffffffffff161461048a57600080fd5b60026008546104999190611796565b600982815481106104ad576104ac6117c7565b5b906000526020600020906007020160040154116104c957600080fd5b600981815481106104dd576104dc6117c7565b5b906000526020600020906007020160050160009054906101000a900460ff161561050657600080fd5b6009818154811061051a576105196117c7565b5b906000526020600020906007020160020160009054906101000a900473ffffffffffffffffffffffffffffffffffffffff1673ffffffffffffffffffffffffffffffffffffffff166108fc60098381548110610579576105786117c7565b5b9060005260206000209060070201600301549081150290604051600060405180830381858888f193505050501580156105b6573d6000803e3d6000fd5b506001600982815481106105cd576105cc6117c7565b5b906000526020600020906007020160050160006101000a81548160ff02191690831515021790555050565b6007818154811061060857600080fd5b906000526020600020016000915054906101000a900473ffffffffffffffffffffffffffffffffffffffff1681565b60003073ffffffffffffffffffffffffffffffffffffffff1631905090565b60066020528060005260406000206000915054906101000a900460ff1681565b600560009054906101000a900473ffffffffffffffffffffffffffffffffffffffff1673ffffffffffffffffffffffffffffffffffffffff163373ffffffffffffffffffffffffffffffffffffffff16146106d057600080fd5b6000600960018160018154018082558091505003906000526020600020906007020190508481600001908051906020019061070c929190611089565b5083816001019080519060200190610725929190611089565b50828160020160006101000a81548173ffffffffffffffffffffffffffffffffffffffff021916908373ffffffffffffffffffffffffffffffffffffffff16021790555081816003018190555060008160050160006101000a81548160ff021916908315150217905550600081600401819055505050505050565b6000600980549050905090565b60008060008060008060608060606003546004543073ffffffffffffffffffffffffffffffffffffffff1631600980549050600854600560009054906101000a900473ffffffffffffffffffffffffffffffffffffffff1660006001600282805461081790611825565b80601f016020809104026020016040519081016040528092919081815260200182805461084390611825565b80156108905780601f1061086557610100808354040283529160200191610890565b820191906000526020600020905b81548152906001019060200180831161087357829003601f168201915b505050505092508180546108a390611825565b80601f01602080910402602001604051908101604052809291908181526020018280546108cf90611825565b801561091c5780601f106108f15761010080835404028352916020019161091c565b820191906000526020600020905b8154815290600101906020018083116108ff57829003601f168201915b5050505050915080805461092f90611825565b80601f016020809104026020016040519081016040528092919081815260200182805461095b90611825565b80156109a85780601f1061097d576101008083540402835291602001916109a8565b820191906000526020600020905b81548152906001019060200180831161098b57829003601f168201915b50505050509050985098509850985098509850985098509850909192939495969798565b600560009054906101000a900473ffffffffffffffffffffffffffffffffffffffff1681565b600080546109ff90611825565b80601f0160208091040260200160405190810160405280929190818152602001828054610a2b90611825565b8015610a785780601f10610a4d57610100808354040283529160200191610a78565b820191906000526020600020905b815481529060010190602001808311610a5b57829003601f168201915b505050505081565b60606007805480602002602001604051908101604052809291908181526020018280548015610b0457602002820191906000526020600020905b8160009054906101000a900473ffffffffffffffffffffffffffffffffffffffff1673ffffffffffffffffffffffffffffffffffffffff1681526020019060010190808311610aba575b5050505050905090565b60018054610b1b90611825565b80601f0160208091040260200160405190810160405280929190818152602001828054610b4790611825565b8015610b945780601f10610b6957610100808354040283529160200191610b94565b820191906000526020600020905b815481529060010190602001808311610b7757829003601f168201915b505050505081565b60098181548110610bac57600080fd5b9060005260206000209060070201600091509050806000018054610bcf90611825565b80601f0160208091040260200160405190810160405280929190818152602001828054610bfb90611825565b8015610c485780601f10610c1d57610100808354040283529160200191610c48565b820191906000526020600020905b815481529060010190602001808311610c2b57829003601f168201915b505050505090806001018054610c5d90611825565b80601f0160208091040260200160405190810160405280929190818152602001828054610c8990611825565b8015610cd65780601f10610cab57610100808354040283529160200191610cd6565b820191906000526020600020905b815481529060010190602001808311610cb957829003601f168201915b5050505050908060020160009054906101000a900473ffffffffffffffffffffffffffffffffffffffff16908060030154908060040154908060050160009054906101000a900460ff16905086565b60045481565b60035481565b600354341015610d4057600080fd5b600660003373ffffffffffffffffffffffffffffffffffffffff1673ffffffffffffffffffffffffffffffffffffffff16815260200190815260200160002060009054906101000a900460ff1615610d9757600080fd5b6001600660003373ffffffffffffffffffffffffffffffffffffffff1673ffffffffffffffffffffffffffffffffffffffff16815260200190815260200160002060006101000a81548160ff0219169083151502179055506007339080600181540180825580915050600190039060005260206000200160009091909190916101000a81548173ffffffffffffffffffffffffffffffffffffffff021916908373ffffffffffffffffffffffffffffffffffffffff16021790555060086000815480929190610e6590611856565b9190505550565b600660003373ffffffffffffffffffffffffffffffffffffffff1673ffffffffffffffffffffffffffffffffffffffff16815260200190815260200160002060009054906101000a900460ff16610ec257600080fd5b60098181548110610ed657610ed56117c7565b5b906000526020600020906007020160060160003373ffffffffffffffffffffffffffffffffffffffff1673ffffffffffffffffffffffffffffffffffffffff16815260200190815260200160002060009054906101000a900460ff1615610f3c57600080fd5b600160098281548110610f5257610f516117c7565b5b906000526020600020906007020160060160003373ffffffffffffffffffffffffffffffffffffffff1673ffffffffffffffffffffffffffffffffffffffff16815260200190815260200160002060006101000a81548160ff02191690831515021790555060098181548110610fcb57610fca6117c7565b5b90600052602060002090600702016004016000815480929190610fed90611856565b919050555050565b60085481565b6002805461100890611825565b80601f016020809104026020016040519081016040528092919081815260200182805461103490611825565b80156110815780601f1061105657610100808354040283529160200191611081565b820191906000526020600020905b81548152906001019060200180831161106457829003601f168201915b505050505081565b82805461109590611825565b90600052602060002090601f0160209004810192826110b757600085556110fe565b82601f106110d057805160ff19168380011785556110fe565b828001600101855582156110fe579182015b828111156110fd5782518255916020019190600101906110e2565b5b50905061110b919061110f565b5090565b5b80821115611128576000816000905550600101611110565b5090565b6000604051905090565b600080fd5b600080fd5b6000819050919050565b61115381611140565b811461115e57600080fd5b50565b6000813590506111708161114a565b92915050565b60006020828403121561118c5761118b611136565b5b600061119a84828501611161565b91505092915050565b600073ffffffffffffffffffffffffffffffffffffffff82169050919050565b60006111ce826111a3565b9050919050565b6111de816111c3565b82525050565b60006020820190506111f960008301846111d5565b92915050565b61120881611140565b82525050565b600060208201905061122360008301846111ff565b92915050565b611232816111c3565b811461123d57600080fd5b50565b60008135905061124f81611229565b92915050565b60006020828403121561126b5761126a611136565b5b600061127984828501611240565b91505092915050565b60008115159050919050565b61129781611282565b82525050565b60006020820190506112b2600083018461128e565b92915050565b600080fd5b600080fd5b6000601f19601f8301169050919050565b7f4e487b7100000000000000000000000000000000000000000000000000000000600052604160045260246000fd5b61130b826112c2565b810181811067ffffffffffffffff8211171561132a576113296112d3565b5b80604052505050565b600061133d61112c565b90506113498282611302565b919050565b600067ffffffffffffffff821115611369576113686112d3565b5b611372826112c2565b9050602081019050919050565b82818337600083830152505050565b60006113a161139c8461134e565b611333565b9050828152602081018484840111156113bd576113bc6112bd565b5b6113c884828561137f565b509392505050565b600082601f8301126113e5576113e46112b8565b5b81356113f584826020860161138e565b91505092915050565b6000806000806080858703121561141857611417611136565b5b600085013567ffffffffffffffff8111156114365761143561113b565b5b611442878288016113d0565b945050602085013567ffffffffffffffff8111156114635761146261113b565b5b61146f878288016113d0565b935050604061148087828801611240565b925050606061149187828801611161565b91505092959194509250565b600081519050919050565b600082825260208201905092915050565b60005b838110156114d75780820151818401526020810190506114bc565b838111156114e6576000848401525b50505050565b60006114f78261149d565b61150181856114a8565b93506115118185602086016114b9565b61151a816112c2565b840191505092915050565b60006101208201905061153b600083018c6111ff565b611548602083018b6111ff565b611555604083018a6111ff565b61156260608301896111ff565b61156f60808301886111ff565b61157c60a08301876111d5565b81810360c083015261158e81866114ec565b905081810360e08301526115a281856114ec565b90508181036101008301526115b781846114ec565b90509a9950505050505050505050565b600060208201905081810360008301526115e181846114ec565b905092915050565b600081519050919050565b600082825260208201905092915050565b6000819050602082019050919050565b61161e816111c3565b82525050565b60006116308383611615565b60208301905092915050565b6000602082019050919050565b6000611654826115e9565b61165e81856115f4565b935061166983611605565b8060005b8381101561169a5781516116818882611624565b975061168c8361163c565b92505060018101905061166d565b5085935050505092915050565b600060208201905081810360008301526116c18184611649565b905092915050565b600060c08201905081810360008301526116e381896114ec565b905081810360208301526116f781886114ec565b905061170660408301876111d5565b61171360608301866111ff565b61172060808301856111ff565b61172d60a083018461128e565b979650505050505050565b7f4e487b7100000000000000000000000000000000000000000000000000000000600052601260045260246000fd5b7f4e487b7100000000000000000000000000000000000000000000000000000000600052601160045260246000fd5b60006117a182611140565b91506117ac83611140565b9250826117bc576117bb611738565b5b828204905092915050565b7f4e487b7100000000000000000000000000000000000000000000000000000000600052603260045260246000fd5b7f4e487b7100000000000000000000000000000000000000000000000000000000600052602260045260246000fd5b6000600282049050600182168061183d57607f821691505b6020821081036118505761184f6117f6565b5b50919050565b600061186182611140565b91507fffffffffffffffffffffffffffffffffffffffffffffffffffffffffffffffff820361189357611892611767565b5b60018201905091905056fea2646970667358221220d4d6cf61b05c0ff9fc9883053ab16a46cb2efdfb60adb30a5b3e03384973c6ea64736f6c634300080d0033a2646970667358221220201355b9b556d33b78825602ea1bbc8edb3fad2f504a990e014ff03781f0f38164736f6c634300080d0033","opcodes":"PUSH1 0x80 PUSH1 0x40 MSTORE CALLVALUE DUP1 ISZERO PUSH2 0x10 JUMPI PUSH1 0x0 DUP1 REVERT JUMPDEST POP PUSH2 0x25D6 DUP1 PUSH2 0x20 PUSH1 0x0 CODECOPY PUSH1 0x0 RETURN INVALID PUSH1 0x80 PUSH1 0x40 MSTORE CALLVALUE DUP1 ISZERO PUSH3 0x11 JUMPI PUSH1 0x0 DUP1 REVERT JUMPDEST POP PUSH1 0x4 CALLDATASIZE LT PUSH3 0x46 JUMPI PUSH1 0x0 CALLDATALOAD PUSH1 0xE0 SHR DUP1 PUSH4 0x141961BC EQ PUSH3 0x4B JUMPI DUP1 PUSH4 0x86CDF604 EQ PUSH3 0x81 JUMPI DUP1 PUSH4 0x980F2E66 EQ PUSH3 0xA3 JUMPI JUMPDEST PUSH1 0x0 DUP1 REVERT JUMPDEST PUSH3 0x69 PUSH1 0x4 DUP1 CALLDATASIZE SUB DUP2 ADD SWAP1 PUSH3 0x63 SWAP2 SWAP1 PUSH3 0x2A2 JUMP JUMPDEST PUSH3 0xC3 JUMP JUMPDEST PUSH1 0x40 MLOAD PUSH3 0x78 SWAP2 SWAP1 PUSH3 0x319 JUMP JUMPDEST PUSH1 0x40 MLOAD DUP1 SWAP2 SUB SWAP1 RETURN JUMPDEST PUSH3 0x8B PUSH3 0x103 JUMP JUMPDEST PUSH1 0x40 MLOAD PUSH3 0x9A SWAP2 SWAP1 PUSH3 0x404 JUMP JUMPDEST PUSH1 0x40 MLOAD DUP1 SWAP2 SUB SWAP1 RETURN JUMPDEST PUSH3 0xC1 PUSH1 0x4 DUP1 CALLDATASIZE SUB DUP2 ADD SWAP1 PUSH3 0xBB SWAP2 SWAP1 PUSH3 0x58A JUMP JUMPDEST PUSH3 0x193 JUMP JUMPDEST STOP JUMPDEST PUSH1 0x0 DUP2 DUP2 SLOAD DUP2 LT PUSH3 0xD4 JUMPI PUSH1 0x0 DUP1 REVERT JUMPDEST SWAP1 PUSH1 0x0 MSTORE PUSH1 0x20 PUSH1 0x0 KECCAK256 ADD PUSH1 0x0 SWAP2 POP SLOAD SWAP1 PUSH2 0x100 EXP SWAP1 DIV PUSH20 0xFFFFFFFFFFFFFFFFFFFFFFFFFFFFFFFFFFFFFFFF AND DUP2 JUMP JUMPDEST PUSH1 0x60 PUSH1 0x0 DUP1 SLOAD DUP1 PUSH1 0x20 MUL PUSH1 0x20 ADD PUSH1 0x40 MLOAD SWAP1 DUP2 ADD PUSH1 0x40 MSTORE DUP1 SWAP3 SWAP2 SWAP1 DUP2 DUP2 MSTORE PUSH1 0x20 ADD DUP3 DUP1 SLOAD DUP1 ISZERO PUSH3 0x189 JUMPI PUSH1 0x20 MUL DUP3 ADD SWAP2 SWAP1 PUSH1 0x0 MSTORE PUSH1 0x20 PUSH1 0x0 KECCAK256 SWAP1 JUMPDEST DUP2 PUSH1 0x0 SWAP1 SLOAD SWAP1 PUSH2 0x100 EXP SWAP1 DIV PUSH20 0xFFFFFFFFFFFFFFFFFFFFFFFFFFFFFFFFFFFFFFFF AND PUSH20 0xFFFFFFFFFFFFFFFFFFFFFFFFFFFFFFFFFFFFFFFF AND DUP2 MSTORE PUSH1 0x20 ADD SWAP1 PUSH1 0x1 ADD SWAP1 DUP1 DUP4 GT PUSH3 0x13E JUMPI JUMPDEST POP POP POP POP POP SWAP1 POP SWAP1 JUMP JUMPDEST PUSH1 0x0 DUP6 DUP6 DUP6 DUP6 DUP6 CALLER PUSH1 0x40 MLOAD PUSH3 0x1A9 SWAP1 PUSH3 0x245 JUMP JUMPDEST PUSH3 0x1BA SWAP7 SWAP6 SWAP5 SWAP4 SWAP3 SWAP2 SWAP1 PUSH3 0x713 JUMP JUMPDEST PUSH1 0x40 MLOAD DUP1 SWAP2 SUB SWAP1 PUSH1 0x0 CREATE DUP1 ISZERO DUP1 ISZERO PUSH3 0x1D7 JUMPI RETURNDATASIZE PUSH1 0x0 DUP1 RETURNDATACOPY RETURNDATASIZE PUSH1 0x0 REVERT JUMPDEST POP SWAP1 POP PUSH1 0x0 DUP2 SWAP1 DUP1 PUSH1 0x1 DUP2 SLOAD ADD DUP1 DUP3 SSTORE DUP1 SWAP2 POP POP PUSH1 0x1 SWAP1 SUB SWAP1 PUSH1 0x0 MSTORE PUSH1 0x20 PUSH1 0x0 KECCAK256 ADD PUSH1 0x0 SWAP1 SWAP2 SWAP1 SWAP2 SWAP1 SWAP2 PUSH2 0x100 EXP DUP2 SLOAD DUP2 PUSH20 0xFFFFFFFFFFFFFFFFFFFFFFFFFFFFFFFFFFFFFFFF MUL NOT AND SWAP1 DUP4 PUSH20 0xFFFFFFFFFFFFFFFFFFFFFFFFFFFFFFFFFFFFFFFF AND MUL OR SWAP1 SSTORE POP POP POP POP POP POP POP JUMP JUMPDEST PUSH2 0x1E0B DUP1 PUSH3 0x796 DUP4 CODECOPY ADD SWAP1 JUMP JUMPDEST PUSH1 0x0 PUSH1 0x40 MLOAD SWAP1 POP SWAP1 JUMP JUMPDEST PUSH1 0x0 DUP1 REVERT JUMPDEST PUSH1 0x0 DUP1 REVERT JUMPDEST PUSH1 0x0 DUP2 SWAP1 POP SWAP2 SWAP1 POP JUMP JUMPDEST PUSH3 0x27C DUP2 PUSH3 0x267 JUMP JUMPDEST DUP2 EQ PUSH3 0x288 JUMPI PUSH1 0x0 DUP1 REVERT JUMPDEST POP JUMP JUMPDEST PUSH1 0x0 DUP2 CALLDATALOAD SWAP1 POP PUSH3 0x29C DUP2 PUSH3 0x271 JUMP JUMPDEST SWAP3 SWAP2 POP POP JUMP JUMPDEST PUSH1 0x0 PUSH1 0x20 DUP3 DUP5 SUB SLT ISZERO PUSH3 0x2BB JUMPI PUSH3 0x2BA PUSH3 0x25D JUMP JUMPDEST JUMPDEST PUSH1 0x0 PUSH3 0x2CB DUP5 DUP3 DUP6 ADD PUSH3 0x28B JUMP JUMPDEST SWAP2 POP POP SWAP3 SWAP2 POP POP JUMP JUMPDEST PUSH1 0x0 PUSH20 0xFFFFFFFFFFFFFFFFFFFFFFFFFFFFFFFFFFFFFFFF DUP3 AND SWAP1 POP SWAP2 SWAP1 POP JUMP JUMPDEST PUSH1 0x0 PUSH3 0x301 DUP3 PUSH3 0x2D4 JUMP JUMPDEST SWAP1 POP SWAP2 SWAP1 POP JUMP JUMPDEST PUSH3 0x313 DUP2 PUSH3 0x2F4 JUMP JUMPDEST DUP3 MSTORE POP POP JUMP JUMPDEST PUSH1 0x0 PUSH1 0x20 DUP3 ADD SWAP1 POP PUSH3 0x330 PUSH1 0x0 DUP4 ADD DUP5 PUSH3 0x308 JUMP JUMPDEST SWAP3 SWAP2 POP POP JUMP JUMPDEST PUSH1 0x0 DUP2 MLOAD SWAP1 POP SWAP2 SWAP1 POP JUMP JUMPDEST PUSH1 0x0 DUP3 DUP3 MSTORE PUSH1 0x20 DUP3 ADD SWAP1 POP SWAP3 SWAP2 POP POP JUMP JUMPDEST PUSH1 0x0 DUP2 SWAP1 POP PUSH1 0x20 DUP3 ADD SWAP1 POP SWAP2 SWAP1 POP JUMP JUMPDEST PUSH3 0x36D DUP2 PUSH3 0x2F4 JUMP JUMPDEST DUP3 MSTORE POP POP JUMP JUMPDEST PUSH1 0x0 PUSH3 0x381 DUP4 DUP4 PUSH3 0x362 JUMP JUMPDEST PUSH1 0x20 DUP4 ADD SWAP1 POP SWAP3 SWAP2 POP POP JUMP JUMPDEST PUSH1 0x0 PUSH1 0x20 DUP3 ADD SWAP1 POP SWAP2 SWAP1 POP JUMP JUMPDEST PUSH1 0x0 PUSH3 0x3A7 DUP3 PUSH3 0x336 JUMP JUMPDEST PUSH3 0x3B3 DUP2 DUP6 PUSH3 0x341 JUMP JUMPDEST SWAP4 POP PUSH3 0x3C0 DUP4 PUSH3 0x352 JUMP JUMPDEST DUP1 PUSH1 0x0 JUMPDEST DUP4 DUP2 LT ISZERO PUSH3 0x3F7 JUMPI DUP2 MLOAD PUSH3 0x3DB DUP9 DUP3 PUSH3 0x373 JUMP JUMPDEST SWAP8 POP PUSH3 0x3E8 DUP4 PUSH3 0x38D JUMP JUMPDEST SWAP3 POP POP PUSH1 0x1 DUP2 ADD SWAP1 POP PUSH3 0x3C4 JUMP JUMPDEST POP DUP6 SWAP4 POP POP POP POP SWAP3 SWAP2 POP POP JUMP JUMPDEST PUSH1 0x0 PUSH1 0x20 DUP3 ADD SWAP1 POP DUP2 DUP2 SUB PUSH1 0x0 DUP4 ADD MSTORE PUSH3 0x420 DUP2 DUP5 PUSH3 0x39A JUMP JUMPDEST SWAP1 POP SWAP3 SWAP2 POP POP JUMP JUMPDEST PUSH1 0x0 DUP1 REVERT JUMPDEST PUSH1 0x0 DUP1 REVERT JUMPDEST PUSH1 0x0 PUSH1 0x1F NOT PUSH1 0x1F DUP4 ADD AND SWAP1 POP SWAP2 SWAP1 POP JUMP JUMPDEST PUSH32 0x4E487B7100000000000000000000000000000000000000000000000000000000 PUSH1 0x0 MSTORE PUSH1 0x41 PUSH1 0x4 MSTORE PUSH1 0x24 PUSH1 0x0 REVERT JUMPDEST PUSH3 0x47D DUP3 PUSH3 0x432 JUMP JUMPDEST DUP2 ADD DUP2 DUP2 LT PUSH8 0xFFFFFFFFFFFFFFFF DUP3 GT OR ISZERO PUSH3 0x49F JUMPI PUSH3 0x49E PUSH3 0x443 JUMP JUMPDEST JUMPDEST DUP1 PUSH1 0x40 MSTORE POP POP POP JUMP JUMPDEST PUSH1 0x0 PUSH3 0x4B4 PUSH3 0x253 JUMP JUMPDEST SWAP1 POP PUSH3 0x4C2 DUP3 DUP3 PUSH3 0x472 JUMP JUMPDEST SWAP2 SWAP1 POP JUMP JUMPDEST PUSH1 0x0 PUSH8 0xFFFFFFFFFFFFFFFF DUP3 GT ISZERO PUSH3 0x4E5 JUMPI PUSH3 0x4E4 PUSH3 0x443 JUMP JUMPDEST JUMPDEST PUSH3 0x4F0 DUP3 PUSH3 0x432 JUMP JUMPDEST SWAP1 POP PUSH1 0x20 DUP2 ADD SWAP1 POP SWAP2 SWAP1 POP JUMP JUMPDEST DUP3 DUP2 DUP4 CALLDATACOPY PUSH1 0x0 DUP4 DUP4 ADD MSTORE POP POP POP JUMP JUMPDEST PUSH1 0x0 PUSH3 0x523 PUSH3 0x51D DUP5 PUSH3 0x4C7 JUMP JUMPDEST PUSH3 0x4A8 JUMP JUMPDEST SWAP1 POP DUP3 DUP2 MSTORE PUSH1 0x20 DUP2 ADD DUP5 DUP5 DUP5 ADD GT ISZERO PUSH3 0x542 JUMPI PUSH3 0x541 PUSH3 0x42D JUMP JUMPDEST JUMPDEST PUSH3 0x54F DUP5 DUP3 DUP6 PUSH3 0x4FD JUMP JUMPDEST POP SWAP4 SWAP3 POP POP POP JUMP JUMPDEST PUSH1 0x0 DUP3 PUSH1 0x1F DUP4 ADD SLT PUSH3 0x56F JUMPI PUSH3 0x56E PUSH3 0x428 JUMP JUMPDEST JUMPDEST DUP2 CALLDATALOAD PUSH3 0x581 DUP5 DUP3 PUSH1 0x20 DUP7 ADD PUSH3 0x50C JUMP JUMPDEST SWAP2 POP POP SWAP3 SWAP2 POP POP JUMP JUMPDEST PUSH1 0x0 DUP1 PUSH1 0x0 DUP1 PUSH1 0x0 PUSH1 0xA0 DUP7 DUP9 SUB SLT ISZERO PUSH3 0x5A9 JUMPI PUSH3 0x5A8 PUSH3 0x25D JUMP JUMPDEST JUMPDEST PUSH1 0x0 DUP7 ADD CALLDATALOAD PUSH8 0xFFFFFFFFFFFFFFFF DUP2 GT ISZERO PUSH3 0x5CA JUMPI PUSH3 0x5C9 PUSH3 0x262 JUMP JUMPDEST JUMPDEST PUSH3 0x5D8 DUP9 DUP3 DUP10 ADD PUSH3 0x557 JUMP JUMPDEST SWAP6 POP POP PUSH1 0x20 DUP7 ADD CALLDATALOAD PUSH8 0xFFFFFFFFFFFFFFFF DUP2 GT ISZERO PUSH3 0x5FC JUMPI PUSH3 0x5FB PUSH3 0x262 JUMP JUMPDEST JUMPDEST PUSH3 0x60A DUP9 DUP3 DUP10 ADD PUSH3 0x557 JUMP JUMPDEST SWAP5 POP POP PUSH1 0x40 DUP7 ADD CALLDATALOAD PUSH8 0xFFFFFFFFFFFFFFFF DUP2 GT ISZERO PUSH3 0x62E JUMPI PUSH3 0x62D PUSH3 0x262 JUMP JUMPDEST JUMPDEST PUSH3 0x63C DUP9 DUP3 DUP10 ADD PUSH3 0x557 JUMP JUMPDEST SWAP4 POP POP PUSH1 0x60 PUSH3 0x64F DUP9 DUP3 DUP10 ADD PUSH3 0x28B JUMP JUMPDEST SWAP3 POP POP PUSH1 0x80 PUSH3 0x662 DUP9 DUP3 DUP10 ADD PUSH3 0x28B JUMP JUMPDEST SWAP2 POP POP SWAP3 SWAP6 POP SWAP3 SWAP6 SWAP1 SWAP4 POP JUMP JUMPDEST PUSH1 0x0 DUP2 MLOAD SWAP1 POP SWAP2 SWAP1 POP JUMP JUMPDEST PUSH1 0x0 DUP3 DUP3 MSTORE PUSH1 0x20 DUP3 ADD SWAP1 POP SWAP3 SWAP2 POP POP JUMP JUMPDEST PUSH1 0x0 JUMPDEST DUP4 DUP2 LT ISZERO PUSH3 0x6AB JUMPI DUP1 DUP3 ADD MLOAD DUP2 DUP5 ADD MSTORE PUSH1 0x20 DUP2 ADD SWAP1 POP PUSH3 0x68E JUMP JUMPDEST DUP4 DUP2 GT ISZERO PUSH3 0x6BB JUMPI PUSH1 0x0 DUP5 DUP5 ADD MSTORE JUMPDEST POP POP POP POP JUMP JUMPDEST PUSH1 0x0 PUSH3 0x6CE DUP3 PUSH3 0x66F JUMP JUMPDEST PUSH3 0x6DA DUP2 DUP6 PUSH3 0x67A JUMP JUMPDEST SWAP4 POP PUSH3 0x6EC DUP2 DUP6 PUSH1 0x20 DUP7 ADD PUSH3 0x68B JUMP JUMPDEST PUSH3 0x6F7 DUP2 PUSH3 0x432 JUMP JUMPDEST DUP5 ADD SWAP2 POP POP SWAP3 SWAP2 POP POP JUMP JUMPDEST PUSH3 0x70D DUP2 PUSH3 0x267 JUMP JUMPDEST DUP3 MSTORE POP POP JUMP JUMPDEST PUSH1 0x0 PUSH1 0xC0 DUP3 ADD SWAP1 POP DUP2 DUP2 SUB PUSH1 0x0 DUP4 ADD MSTORE PUSH3 0x72F DUP2 DUP10 PUSH3 0x6C1 JUMP JUMPDEST SWAP1 POP DUP2 DUP2 SUB PUSH1 0x20 DUP4 ADD MSTORE PUSH3 0x745 DUP2 DUP9 PUSH3 0x6C1 JUMP JUMPDEST SWAP1 POP DUP2 DUP2 SUB PUSH1 0x40 DUP4 ADD MSTORE PUSH3 0x75B DUP2 DUP8 PUSH3 0x6C1 JUMP JUMPDEST SWAP1 POP PUSH3 0x76C PUSH1 0x60 DUP4 ADD DUP7 PUSH3 0x702 JUMP JUMPDEST PUSH3 0x77B PUSH1 0x80 DUP4 ADD DUP6 PUSH3 0x702 JUMP JUMPDEST PUSH3 0x78A PUSH1 0xA0 DUP4 ADD DUP5 PUSH3 0x308 JUMP JUMPDEST SWAP8 SWAP7 POP POP POP POP POP POP POP JUMP INVALID PUSH1 0x80 PUSH1 0x40 MSTORE CALLVALUE DUP1 ISZERO PUSH3 0x11 JUMPI PUSH1 0x0 DUP1 REVERT JUMPDEST POP PUSH1 0x40 MLOAD PUSH3 0x1E0B CODESIZE SUB DUP1 PUSH3 0x1E0B DUP4 CODECOPY DUP2 DUP2 ADD PUSH1 0x40 MSTORE DUP2 ADD SWAP1 PUSH3 0x37 SWAP2 SWAP1 PUSH3 0x3CA JUMP JUMPDEST DUP6 PUSH1 0x0 SWAP1 DUP1 MLOAD SWAP1 PUSH1 0x20 ADD SWAP1 PUSH3 0x4F SWAP3 SWAP2 SWAP1 PUSH3 0xDD JUMP JUMPDEST POP DUP5 PUSH1 0x1 SWAP1 DUP1 MLOAD SWAP1 PUSH1 0x20 ADD SWAP1 PUSH3 0x68 SWAP3 SWAP2 SWAP1 PUSH3 0xDD JUMP JUMPDEST POP DUP4 PUSH1 0x2 SWAP1 DUP1 MLOAD SWAP1 PUSH1 0x20 ADD SWAP1 PUSH3 0x81 SWAP3 SWAP2 SWAP1 PUSH3 0xDD JUMP JUMPDEST POP DUP3 PUSH1 0x3 DUP2 SWAP1 SSTORE POP DUP2 PUSH1 0x4 DUP2 SWAP1 SSTORE POP DUP1 PUSH1 0x5 PUSH1 0x0 PUSH2 0x100 EXP DUP2 SLOAD DUP2 PUSH20 0xFFFFFFFFFFFFFFFFFFFFFFFFFFFFFFFFFFFFFFFF MUL NOT AND SWAP1 DUP4 PUSH20 0xFFFFFFFFFFFFFFFFFFFFFFFFFFFFFFFFFFFFFFFF AND MUL OR SWAP1 SSTORE POP POP POP POP POP POP POP PUSH3 0x527 JUMP JUMPDEST DUP3 DUP1 SLOAD PUSH3 0xEB SWAP1 PUSH3 0x4F2 JUMP JUMPDEST SWAP1 PUSH1 0x0 MSTORE PUSH1 0x20 PUSH1 0x0 KECCAK256 SWAP1 PUSH1 0x1F ADD PUSH1 0x20 SWAP1 DIV DUP2 ADD SWAP3 DUP3 PUSH3 0x10F JUMPI PUSH1 0x0 DUP6 SSTORE PUSH3 0x15B JUMP JUMPDEST DUP3 PUSH1 0x1F LT PUSH3 0x12A JUMPI DUP1 MLOAD PUSH1 0xFF NOT AND DUP4 DUP1 ADD OR DUP6 SSTORE PUSH3 0x15B JUMP JUMPDEST DUP3 DUP1 ADD PUSH1 0x1 ADD DUP6 SSTORE DUP3 ISZERO PUSH3 0x15B JUMPI SWAP2 DUP3 ADD JUMPDEST DUP3 DUP2 GT ISZERO PUSH3 0x15A JUMPI DUP3 MLOAD DUP3 SSTORE SWAP2 PUSH1 0x20 ADD SWAP2 SWAP1 PUSH1 0x1 ADD SWAP1 PUSH3 0x13D JUMP JUMPDEST JUMPDEST POP SWAP1 POP PUSH3 0x16A SWAP2 SWAP1 PUSH3 0x16E JUMP JUMPDEST POP SWAP1 JUMP JUMPDEST JUMPDEST DUP1 DUP3 GT ISZERO PUSH3 0x189 JUMPI PUSH1 0x0 DUP2 PUSH1 0x0 SWAP1 SSTORE POP PUSH1 0x1 ADD PUSH3 0x16F JUMP JUMPDEST POP SWAP1 JUMP JUMPDEST PUSH1 0x0 PUSH1 0x40 MLOAD SWAP1 POP SWAP1 JUMP JUMPDEST PUSH1 0x0 DUP1 REVERT JUMPDEST PUSH1 0x0 DUP1 REVERT JUMPDEST PUSH1 0x0 DUP1 REVERT JUMPDEST PUSH1 0x0 DUP1 REVERT JUMPDEST PUSH1 0x0 PUSH1 0x1F NOT PUSH1 0x1F DUP4 ADD AND SWAP1 POP SWAP2 SWAP1 POP JUMP JUMPDEST PUSH32 0x4E487B7100000000000000000000000000000000000000000000000000000000 PUSH1 0x0 MSTORE PUSH1 0x41 PUSH1 0x4 MSTORE PUSH1 0x24 PUSH1 0x0 REVERT JUMPDEST PUSH3 0x1F6 DUP3 PUSH3 0x1AB JUMP JUMPDEST DUP2 ADD DUP2 DUP2 LT PUSH8 0xFFFFFFFFFFFFFFFF DUP3 GT OR ISZERO PUSH3 0x218 JUMPI PUSH3 0x217 PUSH3 0x1BC JUMP JUMPDEST JUMPDEST DUP1 PUSH1 0x40 MSTORE POP POP POP JUMP JUMPDEST PUSH1 0x0 PUSH3 0x22D PUSH3 0x18D JUMP JUMPDEST SWAP1 POP PUSH3 0x23B DUP3 DUP3 PUSH3 0x1EB JUMP JUMPDEST SWAP2 SWAP1 POP JUMP JUMPDEST PUSH1 0x0 PUSH8 0xFFFFFFFFFFFFFFFF DUP3 GT ISZERO PUSH3 0x25E JUMPI PUSH3 0x25D PUSH3 0x1BC JUMP JUMPDEST JUMPDEST PUSH3 0x269 DUP3 PUSH3 0x1AB JUMP JUMPDEST SWAP1 POP PUSH1 0x20 DUP2 ADD SWAP1 POP SWAP2 SWAP1 POP JUMP JUMPDEST PUSH1 0x0 JUMPDEST DUP4 DUP2 LT ISZERO PUSH3 0x296 JUMPI DUP1 DUP3 ADD MLOAD DUP2 DUP5 ADD MSTORE PUSH1 0x20 DUP2 ADD SWAP1 POP PUSH3 0x279 JUMP JUMPDEST DUP4 DUP2 GT ISZERO PUSH3 0x2A6 JUMPI PUSH1 0x0 DUP5 DUP5 ADD MSTORE JUMPDEST POP POP POP POP JUMP JUMPDEST PUSH1 0x0 PUSH3 0x2C3 PUSH3 0x2BD DUP5 PUSH3 0x240 JUMP JUMPDEST PUSH3 0x221 JUMP JUMPDEST SWAP1 POP DUP3 DUP2 MSTORE PUSH1 0x20 DUP2 ADD DUP5 DUP5 DUP5 ADD GT ISZERO PUSH3 0x2E2 JUMPI PUSH3 0x2E1 PUSH3 0x1A6 JUMP JUMPDEST JUMPDEST PUSH3 0x2EF DUP5 DUP3 DUP6 PUSH3 0x276 JUMP JUMPDEST POP SWAP4 SWAP3 POP POP POP JUMP JUMPDEST PUSH1 0x0 DUP3 PUSH1 0x1F DUP4 ADD SLT PUSH3 0x30F JUMPI PUSH3 0x30E PUSH3 0x1A1 JUMP JUMPDEST JUMPDEST DUP2 MLOAD PUSH3 0x321 DUP5 DUP3 PUSH1 0x20 DUP7 ADD PUSH3 0x2AC JUMP JUMPDEST SWAP2 POP POP SWAP3 SWAP2 POP POP JUMP JUMPDEST PUSH1 0x0 DUP2 SWAP1 POP SWAP2 SWAP1 POP JUMP JUMPDEST PUSH3 0x33F DUP2 PUSH3 0x32A JUMP JUMPDEST DUP2 EQ PUSH3 0x34B JUMPI PUSH1 0x0 DUP1 REVERT JUMPDEST POP JUMP JUMPDEST PUSH1 0x0 DUP2 MLOAD SWAP1 POP PUSH3 0x35F DUP2 PUSH3 0x334 JUMP JUMPDEST SWAP3 SWAP2 POP POP JUMP JUMPDEST PUSH1 0x0 PUSH20 0xFFFFFFFFFFFFFFFFFFFFFFFFFFFFFFFFFFFFFFFF DUP3 AND SWAP1 POP SWAP2 SWAP1 POP JUMP JUMPDEST PUSH1 0x0 PUSH3 0x392 DUP3 PUSH3 0x365 JUMP JUMPDEST SWAP1 POP SWAP2 SWAP1 POP JUMP JUMPDEST PUSH3 0x3A4 DUP2 PUSH3 0x385 JUMP JUMPDEST DUP2 EQ PUSH3 0x3B0 JUMPI PUSH1 0x0 DUP1 REVERT JUMPDEST POP JUMP JUMPDEST PUSH1 0x0 DUP2 MLOAD SWAP1 POP PUSH3 0x3C4 DUP2 PUSH3 0x399 JUMP JUMPDEST SWAP3 SWAP2 POP POP JUMP JUMPDEST PUSH1 0x0 DUP1 PUSH1 0x0 DUP1 PUSH1 0x0 DUP1 PUSH1 0xC0 DUP8 DUP10 SUB SLT ISZERO PUSH3 0x3EA JUMPI PUSH3 0x3E9 PUSH3 0x197 JUMP JUMPDEST JUMPDEST PUSH1 0x0 DUP8 ADD MLOAD PUSH8 0xFFFFFFFFFFFFFFFF DUP2 GT ISZERO PUSH3 0x40B JUMPI PUSH3 0x40A PUSH3 0x19C JUMP JUMPDEST JUMPDEST PUSH3 0x419 DUP10 DUP3 DUP11 ADD PUSH3 0x2F7 JUMP JUMPDEST SWAP7 POP POP PUSH1 0x20 DUP8 ADD MLOAD PUSH8 0xFFFFFFFFFFFFFFFF DUP2 GT ISZERO PUSH3 0x43D JUMPI PUSH3 0x43C PUSH3 0x19C JUMP JUMPDEST JUMPDEST PUSH3 0x44B DUP10 DUP3 DUP11 ADD PUSH3 0x2F7 JUMP JUMPDEST SWAP6 POP POP PUSH1 0x40 DUP8 ADD MLOAD PUSH8 0xFFFFFFFFFFFFFFFF DUP2 GT ISZERO PUSH3 0x46F JUMPI PUSH3 0x46E PUSH3 0x19C JUMP JUMPDEST JUMPDEST PUSH3 0x47D DUP10 DUP3 DUP11 ADD PUSH3 0x2F7 JUMP JUMPDEST SWAP5 POP POP PUSH1 0x60 PUSH3 0x490 DUP10 DUP3 DUP11 ADD PUSH3 0x34E JUMP JUMPDEST SWAP4 POP POP PUSH1 0x80 PUSH3 0x4A3 DUP10 DUP3 DUP11 ADD PUSH3 0x34E JUMP JUMPDEST SWAP3 POP POP PUSH1 0xA0 PUSH3 0x4B6 DUP10 DUP3 DUP11 ADD PUSH3 0x3B3 JUMP JUMPDEST SWAP2 POP POP SWAP3 SWAP6 POP SWAP3 SWAP6 POP SWAP3 SWAP6 JUMP JUMPDEST PUSH32 0x4E487B7100000000000000000000000000000000000000000000000000000000 PUSH1 0x0 MSTORE PUSH1 0x22 PUSH1 0x4 MSTORE PUSH1 0x24 PUSH1 0x0 REVERT JUMPDEST PUSH1 0x0 PUSH1 0x2 DUP3 DIV SWAP1 POP PUSH1 0x1 DUP3 AND DUP1 PUSH3 0x50B JUMPI PUSH1 0x7F DUP3 AND SWAP2 POP JUMPDEST PUSH1 0x20 DUP3 LT DUP2 SUB PUSH3 0x521 JUMPI PUSH3 0x520 PUSH3 0x4C3 JUMP JUMPDEST JUMPDEST POP SWAP2 SWAP1 POP JUMP JUMPDEST PUSH2 0x18D4 DUP1 PUSH3 0x537 PUSH1 0x0 CODECOPY PUSH1 0x0 RETURN INVALID PUSH1 0x80 PUSH1 0x40 MSTORE PUSH1 0x4 CALLDATASIZE LT PUSH2 0x109 JUMPI PUSH1 0x0 CALLDATALOAD PUSH1 0xE0 SHR DUP1 PUSH4 0x51F890EA GT PUSH2 0x95 JUMPI DUP1 PUSH4 0xBB0C8298 GT PUSH2 0x64 JUMPI DUP1 PUSH4 0xBB0C8298 EQ PUSH2 0x37C JUMPI DUP1 PUSH4 0xD7BB99BA EQ PUSH2 0x3A7 JUMPI DUP1 PUSH4 0xD7D1BBDB EQ PUSH2 0x3B1 JUMPI DUP1 PUSH4 0xF251FC8C EQ PUSH2 0x3DA JUMPI DUP1 PUSH4 0xF3CCAAC0 EQ PUSH2 0x405 JUMPI PUSH2 0x109 JUMP JUMPDEST DUP1 PUSH4 0x51F890EA EQ PUSH2 0x2B9 JUMPI DUP1 PUSH4 0x7284E416 EQ PUSH2 0x2E4 JUMPI DUP1 PUSH4 0x81D12C58 EQ PUSH2 0x30F JUMPI DUP1 PUSH4 0x953B8FB8 EQ PUSH2 0x351 JUMPI PUSH2 0x109 JUMP JUMPDEST DUP1 PUSH4 0x2F814278 GT PUSH2 0xDC JUMPI DUP1 PUSH4 0x2F814278 EQ PUSH2 0x1DC JUMPI DUP1 PUSH4 0x3410452A EQ PUSH2 0x205 JUMPI DUP1 PUSH4 0x4051DDAC EQ PUSH2 0x230 JUMPI DUP1 PUSH4 0x481C6A75 EQ PUSH2 0x263 JUMPI DUP1 PUSH4 0x4A79D50C EQ PUSH2 0x28E JUMPI PUSH2 0x109 JUMP JUMPDEST DUP1 PUSH4 0x3441006 EQ PUSH2 0x10E JUMPI DUP1 PUSH4 0xB9F2C4A EQ PUSH2 0x137 JUMPI DUP1 PUSH4 0x12065FE0 EQ PUSH2 0x174 JUMPI DUP1 PUSH4 0x1F6D4942 EQ PUSH2 0x19F JUMPI JUMPDEST PUSH1 0x0 DUP1 REVERT JUMPDEST CALLVALUE DUP1 ISZERO PUSH2 0x11A JUMPI PUSH1 0x0 DUP1 REVERT JUMPDEST POP PUSH2 0x135 PUSH1 0x4 DUP1 CALLDATASIZE SUB DUP2 ADD SWAP1 PUSH2 0x130 SWAP2 SWAP1 PUSH2 0x1176 JUMP JUMPDEST PUSH2 0x430 JUMP JUMPDEST STOP JUMPDEST CALLVALUE DUP1 ISZERO PUSH2 0x143 JUMPI PUSH1 0x0 DUP1 REVERT JUMPDEST POP PUSH2 0x15E PUSH1 0x4 DUP1 CALLDATASIZE SUB DUP2 ADD SWAP1 PUSH2 0x159 SWAP2 SWAP1 PUSH2 0x1176 JUMP JUMPDEST PUSH2 0x5F8 JUMP JUMPDEST PUSH1 0x40 MLOAD PUSH2 0x16B SWAP2 SWAP1 PUSH2 0x11E4 JUMP JUMPDEST PUSH1 0x40 MLOAD DUP1 SWAP2 SUB SWAP1 RETURN JUMPDEST CALLVALUE DUP1 ISZERO PUSH2 0x180 JUMPI PUSH1 0x0 DUP1 REVERT JUMPDEST POP PUSH2 0x189 PUSH2 0x637 JUMP JUMPDEST PUSH1 0x40 MLOAD PUSH2 0x196 SWAP2 SWAP1 PUSH2 0x120E JUMP JUMPDEST PUSH1 0x40 MLOAD DUP1 SWAP2 SUB SWAP1 RETURN JUMPDEST CALLVALUE DUP1 ISZERO PUSH2 0x1AB JUMPI PUSH1 0x0 DUP1 REVERT JUMPDEST POP PUSH2 0x1C6 PUSH1 0x4 DUP1 CALLDATASIZE SUB DUP2 ADD SWAP1 PUSH2 0x1C1 SWAP2 SWAP1 PUSH2 0x1255 JUMP JUMPDEST PUSH2 0x656 JUMP JUMPDEST PUSH1 0x40 MLOAD PUSH2 0x1D3 SWAP2 SWAP1 PUSH2 0x129D JUMP JUMPDEST PUSH1 0x40 MLOAD DUP1 SWAP2 SUB SWAP1 RETURN JUMPDEST CALLVALUE DUP1 ISZERO PUSH2 0x1E8 JUMPI PUSH1 0x0 DUP1 REVERT JUMPDEST POP PUSH2 0x203 PUSH1 0x4 DUP1 CALLDATASIZE SUB DUP2 ADD SWAP1 PUSH2 0x1FE SWAP2 SWAP1 PUSH2 0x13FE JUMP JUMPDEST PUSH2 0x676 JUMP JUMPDEST STOP JUMPDEST CALLVALUE DUP1 ISZERO PUSH2 0x211 JUMPI PUSH1 0x0 DUP1 REVERT JUMPDEST POP PUSH2 0x21A PUSH2 0x7A0 JUMP JUMPDEST PUSH1 0x40 MLOAD PUSH2 0x227 SWAP2 SWAP1 PUSH2 0x120E JUMP JUMPDEST PUSH1 0x40 MLOAD DUP1 SWAP2 SUB SWAP1 RETURN JUMPDEST CALLVALUE DUP1 ISZERO PUSH2 0x23C JUMPI PUSH1 0x0 DUP1 REVERT JUMPDEST POP PUSH2 0x245 PUSH2 0x7AD JUMP JUMPDEST PUSH1 0x40 MLOAD PUSH2 0x25A SWAP10 SWAP9 SWAP8 SWAP7 SWAP6 SWAP5 SWAP4 SWAP3 SWAP2 SWAP1 PUSH2 0x1525 JUMP JUMPDEST PUSH1 0x40 MLOAD DUP1 SWAP2 SUB SWAP1 RETURN JUMPDEST CALLVALUE DUP1 ISZERO PUSH2 0x26F JUMPI PUSH1 0x0 DUP1 REVERT JUMPDEST POP PUSH2 0x278 PUSH2 0x9CC JUMP JUMPDEST PUSH1 0x40 MLOAD PUSH2 0x285 SWAP2 SWAP1 PUSH2 0x11E4 JUMP JUMPDEST PUSH1 0x40 MLOAD DUP1 SWAP2 SUB SWAP1 RETURN JUMPDEST CALLVALUE DUP1 ISZERO PUSH2 0x29A JUMPI PUSH1 0x0 DUP1 REVERT JUMPDEST POP PUSH2 0x2A3 PUSH2 0x9F2 JUMP JUMPDEST PUSH1 0x40 MLOAD PUSH2 0x2B0 SWAP2 SWAP1 PUSH2 0x15C7 JUMP JUMPDEST PUSH1 0x40 MLOAD DUP1 SWAP2 SUB SWAP1 RETURN JUMPDEST CALLVALUE DUP1 ISZERO PUSH2 0x2C5 JUMPI PUSH1 0x0 DUP1 REVERT JUMPDEST POP PUSH2 0x2CE PUSH2 0xA80 JUMP JUMPDEST PUSH1 0x40 MLOAD PUSH2 0x2DB SWAP2 SWAP1 PUSH2 0x16A7 JUMP JUMPDEST PUSH1 0x40 MLOAD DUP1 SWAP2 SUB SWAP1 RETURN JUMPDEST CALLVALUE DUP1 ISZERO PUSH2 0x2F0 JUMPI PUSH1 0x0 DUP1 REVERT JUMPDEST POP PUSH2 0x2F9 PUSH2 0xB0E JUMP JUMPDEST PUSH1 0x40 MLOAD PUSH2 0x306 SWAP2 SWAP1 PUSH2 0x15C7 JUMP JUMPDEST PUSH1 0x40 MLOAD DUP1 SWAP2 SUB SWAP1 RETURN JUMPDEST CALLVALUE DUP1 ISZERO PUSH2 0x31B JUMPI PUSH1 0x0 DUP1 REVERT JUMPDEST POP PUSH2 0x336 PUSH1 0x4 DUP1 CALLDATASIZE SUB DUP2 ADD SWAP1 PUSH2 0x331 SWAP2 SWAP1 PUSH2 0x1176 JUMP JUMPDEST PUSH2 0xB9C JUMP JUMPDEST PUSH1 0x40 MLOAD PUSH2 0x348 SWAP7 SWAP6 SWAP5 SWAP4 SWAP3 SWAP2 SWAP1 PUSH2 0x16C9 JUMP JUMPDEST PUSH1 0x40 MLOAD DUP1 SWAP2 SUB SWAP1 RETURN JUMPDEST CALLVALUE DUP1 ISZERO PUSH2 0x35D JUMPI PUSH1 0x0 DUP1 REVERT JUMPDEST POP PUSH2 0x366 PUSH2 0xD25 JUMP JUMPDEST PUSH1 0x40 MLOAD PUSH2 0x373 SWAP2 SWAP1 PUSH2 0x120E JUMP JUMPDEST PUSH1 0x40 MLOAD DUP1 SWAP2 SUB SWAP1 RETURN JUMPDEST CALLVALUE DUP1 ISZERO PUSH2 0x388 JUMPI PUSH1 0x0 DUP1 REVERT JUMPDEST POP PUSH2 0x391 PUSH2 0xD2B JUMP JUMPDEST PUSH1 0x40 MLOAD PUSH2 0x39E SWAP2 SWAP1 PUSH2 0x120E JUMP JUMPDEST PUSH1 0x40 MLOAD DUP1 SWAP2 SUB SWAP1 RETURN JUMPDEST PUSH2 0x3AF PUSH2 0xD31 JUMP JUMPDEST STOP JUMPDEST CALLVALUE DUP1 ISZERO PUSH2 0x3BD JUMPI PUSH1 0x0 DUP1 REVERT JUMPDEST POP PUSH2 0x3D8 PUSH1 0x4 DUP1 CALLDATASIZE SUB DUP2 ADD SWAP1 PUSH2 0x3D3 SWAP2 SWAP1 PUSH2 0x1176 JUMP JUMPDEST PUSH2 0xE6C JUMP JUMPDEST STOP JUMPDEST CALLVALUE DUP1 ISZERO PUSH2 0x3E6 JUMPI PUSH1 0x0 DUP1 REVERT JUMPDEST POP PUSH2 0x3EF PUSH2 0xFF5 JUMP JUMPDEST PUSH1 0x40 MLOAD PUSH2 0x3FC SWAP2 SWAP1 PUSH2 0x120E JUMP JUMPDEST PUSH1 0x40 MLOAD DUP1 SWAP2 SUB SWAP1 RETURN JUMPDEST CALLVALUE DUP1 ISZERO PUSH2 0x411 JUMPI PUSH1 0x0 DUP1 REVERT JUMPDEST POP PUSH2 0x41A PUSH2 0xFFB JUMP JUMPDEST PUSH1 0x40 MLOAD PUSH2 0x427 SWAP2 SWAP1 PUSH2 0x15C7 JUMP JUMPDEST PUSH1 0x40 MLOAD DUP1 SWAP2 SUB SWAP1 RETURN JUMPDEST PUSH1 0x5 PUSH1 0x0 SWAP1 SLOAD SWAP1 PUSH2 0x100 EXP SWAP1 DIV PUSH20 0xFFFFFFFFFFFFFFFFFFFFFFFFFFFFFFFFFFFFFFFF AND PUSH20 0xFFFFFFFFFFFFFFFFFFFFFFFFFFFFFFFFFFFFFFFF AND CALLER PUSH20 0xFFFFFFFFFFFFFFFFFFFFFFFFFFFFFFFFFFFFFFFF AND EQ PUSH2 0x48A JUMPI PUSH1 0x0 DUP1 REVERT JUMPDEST PUSH1 0x2 PUSH1 0x8 SLOAD PUSH2 0x499 SWAP2 SWAP1 PUSH2 0x1796 JUMP JUMPDEST PUSH1 0x9 DUP3 DUP2 SLOAD DUP2 LT PUSH2 0x4AD JUMPI PUSH2 0x4AC PUSH2 0x17C7 JUMP JUMPDEST JUMPDEST SWAP1 PUSH1 0x0 MSTORE PUSH1 0x20 PUSH1 0x0 KECCAK256 SWAP1 PUSH1 0x7 MUL ADD PUSH1 0x4 ADD SLOAD GT PUSH2 0x4C9 JUMPI PUSH1 0x0 DUP1 REVERT JUMPDEST PUSH1 0x9 DUP2 DUP2 SLOAD DUP2 LT PUSH2 0x4DD JUMPI PUSH2 0x4DC PUSH2 0x17C7 JUMP JUMPDEST JUMPDEST SWAP1 PUSH1 0x0 MSTORE PUSH1 0x20 PUSH1 0x0 KECCAK256 SWAP1 PUSH1 0x7 MUL ADD PUSH1 0x5 ADD PUSH1 0x0 SWAP1 SLOAD SWAP1 PUSH2 0x100 EXP SWAP1 DIV PUSH1 0xFF AND ISZERO PUSH2 0x506 JUMPI PUSH1 0x0 DUP1 REVERT JUMPDEST PUSH1 0x9 DUP2 DUP2 SLOAD DUP2 LT PUSH2 0x51A JUMPI PUSH2 0x519 PUSH2 0x17C7 JUMP JUMPDEST JUMPDEST SWAP1 PUSH1 0x0 MSTORE PUSH1 0x20 PUSH1 0x0 KECCAK256 SWAP1 PUSH1 0x7 MUL ADD PUSH1 0x2 ADD PUSH1 0x0 SWAP1 SLOAD SWAP1 PUSH2 0x100 EXP SWAP1 DIV PUSH20 0xFFFFFFFFFFFFFFFFFFFFFFFFFFFFFFFFFFFFFFFF AND PUSH20 0xFFFFFFFFFFFFFFFFFFFFFFFFFFFFFFFFFFFFFFFF AND PUSH2 0x8FC PUSH1 0x9 DUP4 DUP2 SLOAD DUP2 LT PUSH2 0x579 JUMPI PUSH2 0x578 PUSH2 0x17C7 JUMP JUMPDEST JUMPDEST SWAP1 PUSH1 0x0 MSTORE PUSH1 0x20 PUSH1 0x0 KECCAK256 SWAP1 PUSH1 0x7 MUL ADD PUSH1 0x3 ADD SLOAD SWAP1 DUP2 ISZERO MUL SWAP1 PUSH1 0x40 MLOAD PUSH1 0x0 PUSH1 0x40 MLOAD DUP1 DUP4 SUB DUP2 DUP6 DUP9 DUP9 CALL SWAP4 POP POP POP POP ISZERO DUP1 ISZERO PUSH2 0x5B6 JUMPI RETURNDATASIZE PUSH1 0x0 DUP1 RETURNDATACOPY RETURNDATASIZE PUSH1 0x0 REVERT JUMPDEST POP PUSH1 0x1 PUSH1 0x9 DUP3 DUP2 SLOAD DUP2 LT PUSH2 0x5CD JUMPI PUSH2 0x5CC PUSH2 0x17C7 JUMP JUMPDEST JUMPDEST SWAP1 PUSH1 0x0 MSTORE PUSH1 0x20 PUSH1 0x0 KECCAK256 SWAP1 PUSH1 0x7 MUL ADD PUSH1 0x5 ADD PUSH1 0x0 PUSH2 0x100 EXP DUP2 SLOAD DUP2 PUSH1 0xFF MUL NOT AND SWAP1 DUP4 ISZERO ISZERO MUL OR SWAP1 SSTORE POP POP JUMP JUMPDEST PUSH1 0x7 DUP2 DUP2 SLOAD DUP2 LT PUSH2 0x608 JUMPI PUSH1 0x0 DUP1 REVERT JUMPDEST SWAP1 PUSH1 0x0 MSTORE PUSH1 0x20 PUSH1 0x0 KECCAK256 ADD PUSH1 0x0 SWAP2 POP SLOAD SWAP1 PUSH2 0x100 EXP SWAP1 DIV PUSH20 0xFFFFFFFFFFFFFFFFFFFFFFFFFFFFFFFFFFFFFFFF AND DUP2 JUMP JUMPDEST PUSH1 0x0 ADDRESS PUSH20 0xFFFFFFFFFFFFFFFFFFFFFFFFFFFFFFFFFFFFFFFF AND BALANCE SWAP1 POP SWAP1 JUMP JUMPDEST PUSH1 0x6 PUSH1 0x20 MSTORE DUP1 PUSH1 0x0 MSTORE PUSH1 0x40 PUSH1 0x0 KECCAK256 PUSH1 0x0 SWAP2 POP SLOAD SWAP1 PUSH2 0x100 EXP SWAP1 DIV PUSH1 0xFF AND DUP2 JUMP JUMPDEST PUSH1 0x5 PUSH1 0x0 SWAP1 SLOAD SWAP1 PUSH2 0x100 EXP SWAP1 DIV PUSH20 0xFFFFFFFFFFFFFFFFFFFFFFFFFFFFFFFFFFFFFFFF AND PUSH20 0xFFFFFFFFFFFFFFFFFFFFFFFFFFFFFFFFFFFFFFFF AND CALLER PUSH20 0xFFFFFFFFFFFFFFFFFFFFFFFFFFFFFFFFFFFFFFFF AND EQ PUSH2 0x6D0 JUMPI PUSH1 0x0 DUP1 REVERT JUMPDEST PUSH1 0x0 PUSH1 0x9 PUSH1 0x1 DUP2 PUSH1 0x1 DUP2 SLOAD ADD DUP1 DUP3 SSTORE DUP1 SWAP2 POP POP SUB SWAP1 PUSH1 0x0 MSTORE PUSH1 0x20 PUSH1 0x0 KECCAK256 SWAP1 PUSH1 0x7 MUL ADD SWAP1 POP DUP5 DUP2 PUSH1 0x0 ADD SWAP1 DUP1 MLOAD SWAP1 PUSH1 0x20 ADD SWAP1 PUSH2 0x70C SWAP3 SWAP2 SWAP1 PUSH2 0x1089 JUMP JUMPDEST POP DUP4 DUP2 PUSH1 0x1 ADD SWAP1 DUP1 MLOAD SWAP1 PUSH1 0x20 ADD SWAP1 PUSH2 0x725 SWAP3 SWAP2 SWAP1 PUSH2 0x1089 JUMP JUMPDEST POP DUP3 DUP2 PUSH1 0x2 ADD PUSH1 0x0 PUSH2 0x100 EXP DUP2 SLOAD DUP2 PUSH20 0xFFFFFFFFFFFFFFFFFFFFFFFFFFFFFFFFFFFFFFFF MUL NOT AND SWAP1 DUP4 PUSH20 0xFFFFFFFFFFFFFFFFFFFFFFFFFFFFFFFFFFFFFFFF AND MUL OR SWAP1 SSTORE POP DUP2 DUP2 PUSH1 0x3 ADD DUP2 SWAP1 SSTORE POP PUSH1 0x0 DUP2 PUSH1 0x5 ADD PUSH1 0x0 PUSH2 0x100 EXP DUP2 SLOAD DUP2 PUSH1 0xFF MUL NOT AND SWAP1 DUP4 ISZERO ISZERO MUL OR SWAP1 SSTORE POP PUSH1 0x0 DUP2 PUSH1 0x4 ADD DUP2 SWAP1 SSTORE POP POP POP POP POP POP JUMP JUMPDEST PUSH1 0x0 PUSH1 0x9 DUP1 SLOAD SWAP1 POP SWAP1 POP SWAP1 JUMP JUMPDEST PUSH1 0x0 DUP1 PUSH1 0x0 DUP1 PUSH1 0x0 DUP1 PUSH1 0x60 DUP1 PUSH1 0x60 PUSH1 0x3 SLOAD PUSH1 0x4 SLOAD ADDRESS PUSH20 0xFFFFFFFFFFFFFFFFFFFFFFFFFFFFFFFFFFFFFFFF AND BALANCE PUSH1 0x9 DUP1 SLOAD SWAP1 POP PUSH1 0x8 SLOAD PUSH1 0x5 PUSH1 0x0 SWAP1 SLOAD SWAP1 PUSH2 0x100 EXP SWAP1 DIV PUSH20 0xFFFFFFFFFFFFFFFFFFFFFFFFFFFFFFFFFFFFFFFF AND PUSH1 0x0 PUSH1 0x1 PUSH1 0x2 DUP3 DUP1 SLOAD PUSH2 0x817 SWAP1 PUSH2 0x1825 JUMP JUMPDEST DUP1 PUSH1 0x1F ADD PUSH1 0x20 DUP1 SWAP2 DIV MUL PUSH1 0x20 ADD PUSH1 0x40 MLOAD SWAP1 DUP2 ADD PUSH1 0x40 MSTORE DUP1 SWAP3 SWAP2 SWAP1 DUP2 DUP2 MSTORE PUSH1 0x20 ADD DUP3 DUP1 SLOAD PUSH2 0x843 SWAP1 PUSH2 0x1825 JUMP JUMPDEST DUP1 ISZERO PUSH2 0x890 JUMPI DUP1 PUSH1 0x1F LT PUSH2 0x865 JUMPI PUSH2 0x100 DUP1 DUP4 SLOAD DIV MUL DUP4 MSTORE SWAP2 PUSH1 0x20 ADD SWAP2 PUSH2 0x890 JUMP JUMPDEST DUP3 ADD SWAP2 SWAP1 PUSH1 0x0 MSTORE PUSH1 0x20 PUSH1 0x0 KECCAK256 SWAP1 JUMPDEST DUP2 SLOAD DUP2 MSTORE SWAP1 PUSH1 0x1 ADD SWAP1 PUSH1 0x20 ADD DUP1 DUP4 GT PUSH2 0x873 JUMPI DUP3 SWAP1 SUB PUSH1 0x1F AND DUP3 ADD SWAP2 JUMPDEST POP POP POP POP POP SWAP3 POP DUP2 DUP1 SLOAD PUSH2 0x8A3 SWAP1 PUSH2 0x1825 JUMP JUMPDEST DUP1 PUSH1 0x1F ADD PUSH1 0x20 DUP1 SWAP2 DIV MUL PUSH1 0x20 ADD PUSH1 0x40 MLOAD SWAP1 DUP2 ADD PUSH1 0x40 MSTORE DUP1 SWAP3 SWAP2 SWAP1 DUP2 DUP2 MSTORE PUSH1 0x20 ADD DUP3 DUP1 SLOAD PUSH2 0x8CF SWAP1 PUSH2 0x1825 JUMP JUMPDEST DUP1 ISZERO PUSH2 0x91C JUMPI DUP1 PUSH1 0x1F LT PUSH2 0x8F1 JUMPI PUSH2 0x100 DUP1 DUP4 SLOAD DIV MUL DUP4 MSTORE SWAP2 PUSH1 0x20 ADD SWAP2 PUSH2 0x91C JUMP JUMPDEST DUP3 ADD SWAP2 SWAP1 PUSH1 0x0 MSTORE PUSH1 0x20 PUSH1 0x0 KECCAK256 SWAP1 JUMPDEST DUP2 SLOAD DUP2 MSTORE SWAP1 PUSH1 0x1 ADD SWAP1 PUSH1 0x20 ADD DUP1 DUP4 GT PUSH2 0x8FF JUMPI DUP3 SWAP1 SUB PUSH1 0x1F AND DUP3 ADD SWAP2 JUMPDEST POP POP POP POP POP SWAP2 POP DUP1 DUP1 SLOAD PUSH2 0x92F SWAP1 PUSH2 0x1825 JUMP JUMPDEST DUP1 PUSH1 0x1F ADD PUSH1 0x20 DUP1 SWAP2 DIV MUL PUSH1 0x20 ADD PUSH1 0x40 MLOAD SWAP1 DUP2 ADD PUSH1 0x40 MSTORE DUP1 SWAP3 SWAP2 SWAP1 DUP2 DUP2 MSTORE PUSH1 0x20 ADD DUP3 DUP1 SLOAD PUSH2 0x95B SWAP1 PUSH2 0x1825 JUMP JUMPDEST DUP1 ISZERO PUSH2 0x9A8 JUMPI DUP1 PUSH1 0x1F LT PUSH2 0x97D JUMPI PUSH2 0x100 DUP1 DUP4 SLOAD DIV MUL DUP4 MSTORE SWAP2 PUSH1 0x20 ADD SWAP2 PUSH2 0x9A8 JUMP JUMPDEST DUP3 ADD SWAP2 SWAP1 PUSH1 0x0 MSTORE PUSH1 0x20 PUSH1 0x0 KECCAK256 SWAP1 JUMPDEST DUP2 SLOAD DUP2 MSTORE SWAP1 PUSH1 0x1 ADD SWAP1 PUSH1 0x20 ADD DUP1 DUP4 GT PUSH2 0x98B JUMPI DUP3 SWAP1 SUB PUSH1 0x1F AND DUP3 ADD SWAP2 JUMPDEST POP POP POP POP POP SWAP1 POP SWAP9 POP SWAP9 POP SWAP9 POP SWAP9 POP SWAP9 POP SWAP9 POP SWAP9 POP SWAP9 POP SWAP9 POP SWAP1 SWAP2 SWAP3 SWAP4 SWAP5 SWAP6 SWAP7 SWAP8 SWAP9 JUMP JUMPDEST PUSH1 0x5 PUSH1 0x0 SWAP1 SLOAD SWAP1 PUSH2 0x100 EXP SWAP1 DIV PUSH20 0xFFFFFFFFFFFFFFFFFFFFFFFFFFFFFFFFFFFFFFFF AND DUP2 JUMP JUMPDEST PUSH1 0x0 DUP1 SLOAD PUSH2 0x9FF SWAP1 PUSH2 0x1825 JUMP JUMPDEST DUP1 PUSH1 0x1F ADD PUSH1 0x20 DUP1 SWAP2 DIV MUL PUSH1 0x20 ADD PUSH1 0x40 MLOAD SWAP1 DUP2 ADD PUSH1 0x40 MSTORE DUP1 SWAP3 SWAP2 SWAP1 DUP2 DUP2 MSTORE PUSH1 0x20 ADD DUP3 DUP1 SLOAD PUSH2 0xA2B SWAP1 PUSH2 0x1825 JUMP JUMPDEST DUP1 ISZERO PUSH2 0xA78 JUMPI DUP1 PUSH1 0x1F LT PUSH2 0xA4D JUMPI PUSH2 0x100 DUP1 DUP4 SLOAD DIV MUL DUP4 MSTORE SWAP2 PUSH1 0x20 ADD SWAP2 PUSH2 0xA78 JUMP JUMPDEST DUP3 ADD SWAP2 SWAP1 PUSH1 0x0 MSTORE PUSH1 0x20 PUSH1 0x0 KECCAK256 SWAP1 JUMPDEST DUP2 SLOAD DUP2 MSTORE SWAP1 PUSH1 0x1 ADD SWAP1 PUSH1 0x20 ADD DUP1 DUP4 GT PUSH2 0xA5B JUMPI DUP3 SWAP1 SUB PUSH1 0x1F AND DUP3 ADD SWAP2 JUMPDEST POP POP POP POP POP DUP2 JUMP JUMPDEST PUSH1 0x60 PUSH1 0x7 DUP1 SLOAD DUP1 PUSH1 0x20 MUL PUSH1 0x20 ADD PUSH1 0x40 MLOAD SWAP1 DUP2 ADD PUSH1 0x40 MSTORE DUP1 SWAP3 SWAP2 SWAP1 DUP2 DUP2 MSTORE PUSH1 0x20 ADD DUP3 DUP1 SLOAD DUP1 ISZERO PUSH2 0xB04 JUMPI PUSH1 0x20 MUL DUP3 ADD SWAP2 SWAP1 PUSH1 0x0 MSTORE PUSH1 0x20 PUSH1 0x0 KECCAK256 SWAP1 JUMPDEST DUP2 PUSH1 0x0 SWAP1 SLOAD SWAP1 PUSH2 0x100 EXP SWAP1 DIV PUSH20 0xFFFFFFFFFFFFFFFFFFFFFFFFFFFFFFFFFFFFFFFF AND PUSH20 0xFFFFFFFFFFFFFFFFFFFFFFFFFFFFFFFFFFFFFFFF AND DUP2 MSTORE PUSH1 0x20 ADD SWAP1 PUSH1 0x1 ADD SWAP1 DUP1 DUP4 GT PUSH2 0xABA JUMPI JUMPDEST POP POP POP POP POP SWAP1 POP SWAP1 JUMP JUMPDEST PUSH1 0x1 DUP1 SLOAD PUSH2 0xB1B SWAP1 PUSH2 0x1825 JUMP JUMPDEST DUP1 PUSH1 0x1F ADD PUSH1 0x20 DUP1 SWAP2 DIV MUL PUSH1 0x20 ADD PUSH1 0x40 MLOAD SWAP1 DUP2 ADD PUSH1 0x40 MSTORE DUP1 SWAP3 SWAP2 SWAP1 DUP2 DUP2 MSTORE PUSH1 0x20 ADD DUP3 DUP1 SLOAD PUSH2 0xB47 SWAP1 PUSH2 0x1825 JUMP JUMPDEST DUP1 ISZERO PUSH2 0xB94 JUMPI DUP1 PUSH1 0x1F LT PUSH2 0xB69 JUMPI PUSH2 0x100 DUP1 DUP4 SLOAD DIV MUL DUP4 MSTORE SWAP2 PUSH1 0x20 ADD SWAP2 PUSH2 0xB94 JUMP JUMPDEST DUP3 ADD SWAP2 SWAP1 PUSH1 0x0 MSTORE PUSH1 0x20 PUSH1 0x0 KECCAK256 SWAP1 JUMPDEST DUP2 SLOAD DUP2 MSTORE SWAP1 PUSH1 0x1 ADD SWAP1 PUSH1 0x20 ADD DUP1 DUP4 GT PUSH2 0xB77 JUMPI DUP3 SWAP1 SUB PUSH1 0x1F AND DUP3 ADD SWAP2 JUMPDEST POP POP POP POP POP DUP2 JUMP JUMPDEST PUSH1 0x9 DUP2 DUP2 SLOAD DUP2 LT PUSH2 0xBAC JUMPI PUSH1 0x0 DUP1 REVERT JUMPDEST SWAP1 PUSH1 0x0 MSTORE PUSH1 0x20 PUSH1 0x0 KECCAK256 SWAP1 PUSH1 0x7 MUL ADD PUSH1 0x0 SWAP2 POP SWAP1 POP DUP1 PUSH1 0x0 ADD DUP1 SLOAD PUSH2 0xBCF SWAP1 PUSH2 0x1825 JUMP JUMPDEST DUP1 PUSH1 0x1F ADD PUSH1 0x20 DUP1 SWAP2 DIV MUL PUSH1 0x20 ADD PUSH1 0x40 MLOAD SWAP1 DUP2 ADD PUSH1 0x40 MSTORE DUP1 SWAP3 SWAP2 SWAP1 DUP2 DUP2 MSTORE PUSH1 0x20 ADD DUP3 DUP1 SLOAD PUSH2 0xBFB SWAP1 PUSH2 0x1825 JUMP JUMPDEST DUP1 ISZERO PUSH2 0xC48 JUMPI DUP1 PUSH1 0x1F LT PUSH2 0xC1D JUMPI PUSH2 0x100 DUP1 DUP4 SLOAD DIV MUL DUP4 MSTORE SWAP2 PUSH1 0x20 ADD SWAP2 PUSH2 0xC48 JUMP JUMPDEST DUP3 ADD SWAP2 SWAP1 PUSH1 0x0 MSTORE PUSH1 0x20 PUSH1 0x0 KECCAK256 SWAP1 JUMPDEST DUP2 SLOAD DUP2 MSTORE SWAP1 PUSH1 0x1 ADD SWAP1 PUSH1 0x20 ADD DUP1 DUP4 GT PUSH2 0xC2B JUMPI DUP3 SWAP1 SUB PUSH1 0x1F AND DUP3 ADD SWAP2 JUMPDEST POP POP POP POP POP SWAP1 DUP1 PUSH1 0x1 ADD DUP1 SLOAD PUSH2 0xC5D SWAP1 PUSH2 0x1825 JUMP JUMPDEST DUP1 PUSH1 0x1F ADD PUSH1 0x20 DUP1 SWAP2 DIV MUL PUSH1 0x20 ADD PUSH1 0x40 MLOAD SWAP1 DUP2 ADD PUSH1 0x40 MSTORE DUP1 SWAP3 SWAP2 SWAP1 DUP2 DUP2 MSTORE PUSH1 0x20 ADD DUP3 DUP1 SLOAD PUSH2 0xC89 SWAP1 PUSH2 0x1825 JUMP JUMPDEST DUP1 ISZERO PUSH2 0xCD6 JUMPI DUP1 PUSH1 0x1F LT PUSH2 0xCAB JUMPI PUSH2 0x100 DUP1 DUP4 SLOAD DIV MUL DUP4 MSTORE SWAP2 PUSH1 0x20 ADD SWAP2 PUSH2 0xCD6 JUMP JUMPDEST DUP3 ADD SWAP2 SWAP1 PUSH1 0x0 MSTORE PUSH1 0x20 PUSH1 0x0 KECCAK256 SWAP1 JUMPDEST DUP2 SLOAD DUP2 MSTORE SWAP1 PUSH1 0x1 ADD SWAP1 PUSH1 0x20 ADD DUP1 DUP4 GT PUSH2 0xCB9 JUMPI DUP3 SWAP1 SUB PUSH1 0x1F AND DUP3 ADD SWAP2 JUMPDEST POP POP POP POP POP SWAP1 DUP1 PUSH1 0x2 ADD PUSH1 0x0 SWAP1 SLOAD SWAP1 PUSH2 0x100 EXP SWAP1 DIV PUSH20 0xFFFFFFFFFFFFFFFFFFFFFFFFFFFFFFFFFFFFFFFF AND SWAP1 DUP1 PUSH1 0x3 ADD SLOAD SWAP1 DUP1 PUSH1 0x4 ADD SLOAD SWAP1 DUP1 PUSH1 0x5 ADD PUSH1 0x0 SWAP1 SLOAD SWAP1 PUSH2 0x100 EXP SWAP1 DIV PUSH1 0xFF AND SWAP1 POP DUP7 JUMP JUMPDEST PUSH1 0x4 SLOAD DUP2 JUMP JUMPDEST PUSH1 0x3 SLOAD DUP2 JUMP JUMPDEST PUSH1 0x3 SLOAD CALLVALUE LT ISZERO PUSH2 0xD40 JUMPI PUSH1 0x0 DUP1 REVERT JUMPDEST PUSH1 0x6 PUSH1 0x0 CALLER PUSH20 0xFFFFFFFFFFFFFFFFFFFFFFFFFFFFFFFFFFFFFFFF AND PUSH20 0xFFFFFFFFFFFFFFFFFFFFFFFFFFFFFFFFFFFFFFFF AND DUP2 MSTORE PUSH1 0x20 ADD SWAP1 DUP2 MSTORE PUSH1 0x20 ADD PUSH1 0x0 KECCAK256 PUSH1 0x0 SWAP1 SLOAD SWAP1 PUSH2 0x100 EXP SWAP1 DIV PUSH1 0xFF AND ISZERO PUSH2 0xD97 JUMPI PUSH1 0x0 DUP1 REVERT JUMPDEST PUSH1 0x1 PUSH1 0x6 PUSH1 0x0 CALLER PUSH20 0xFFFFFFFFFFFFFFFFFFFFFFFFFFFFFFFFFFFFFFFF AND PUSH20 0xFFFFFFFFFFFFFFFFFFFFFFFFFFFFFFFFFFFFFFFF AND DUP2 MSTORE PUSH1 0x20 ADD SWAP1 DUP2 MSTORE PUSH1 0x20 ADD PUSH1 0x0 KECCAK256 PUSH1 0x0 PUSH2 0x100 EXP DUP2 SLOAD DUP2 PUSH1 0xFF MUL NOT AND SWAP1 DUP4 ISZERO ISZERO MUL OR SWAP1 SSTORE POP PUSH1 0x7 CALLER SWAP1 DUP1 PUSH1 0x1 DUP2 SLOAD ADD DUP1 DUP3 SSTORE DUP1 SWAP2 POP POP PUSH1 0x1 SWAP1 SUB SWAP1 PUSH1 0x0 MSTORE PUSH1 0x20 PUSH1 0x0 KECCAK256 ADD PUSH1 0x0 SWAP1 SWAP2 SWAP1 SWAP2 SWAP1 SWAP2 PUSH2 0x100 EXP DUP2 SLOAD DUP2 PUSH20 0xFFFFFFFFFFFFFFFFFFFFFFFFFFFFFFFFFFFFFFFF MUL NOT AND SWAP1 DUP4 PUSH20 0xFFFFFFFFFFFFFFFFFFFFFFFFFFFFFFFFFFFFFFFF AND MUL OR SWAP1 SSTORE POP PUSH1 0x8 PUSH1 0x0 DUP2 SLOAD DUP1 SWAP3 SWAP2 SWAP1 PUSH2 0xE65 SWAP1 PUSH2 0x1856 JUMP JUMPDEST SWAP2 SWAP1 POP SSTORE POP JUMP JUMPDEST PUSH1 0x6 PUSH1 0x0 CALLER PUSH20 0xFFFFFFFFFFFFFFFFFFFFFFFFFFFFFFFFFFFFFFFF AND PUSH20 0xFFFFFFFFFFFFFFFFFFFFFFFFFFFFFFFFFFFFFFFF AND DUP2 MSTORE PUSH1 0x20 ADD SWAP1 DUP2 MSTORE PUSH1 0x20 ADD PUSH1 0x0 KECCAK256 PUSH1 0x0 SWAP1 SLOAD SWAP1 PUSH2 0x100 EXP SWAP1 DIV PUSH1 0xFF AND PUSH2 0xEC2 JUMPI PUSH1 0x0 DUP1 REVERT JUMPDEST PUSH1 0x9 DUP2 DUP2 SLOAD DUP2 LT PUSH2 0xED6 JUMPI PUSH2 0xED5 PUSH2 0x17C7 JUMP JUMPDEST JUMPDEST SWAP1 PUSH1 0x0 MSTORE PUSH1 0x20 PUSH1 0x0 KECCAK256 SWAP1 PUSH1 0x7 MUL ADD PUSH1 0x6 ADD PUSH1 0x0 CALLER PUSH20 0xFFFFFFFFFFFFFFFFFFFFFFFFFFFFFFFFFFFFFFFF AND PUSH20 0xFFFFFFFFFFFFFFFFFFFFFFFFFFFFFFFFFFFFFFFF AND DUP2 MSTORE PUSH1 0x20 ADD SWAP1 DUP2 MSTORE PUSH1 0x20 ADD PUSH1 0x0 KECCAK256 PUSH1 0x0 SWAP1 SLOAD SWAP1 PUSH2 0x100 EXP SWAP1 DIV PUSH1 0xFF AND ISZERO PUSH2 0xF3C JUMPI PUSH1 0x0 DUP1 REVERT JUMPDEST PUSH1 0x1 PUSH1 0x9 DUP3 DUP2 SLOAD DUP2 LT PUSH2 0xF52 JUMPI PUSH2 0xF51 PUSH2 0x17C7 JUMP JUMPDEST JUMPDEST SWAP1 PUSH1 0x0 MSTORE PUSH1 0x20 PUSH1 0x0 KECCAK256 SWAP1 PUSH1 0x7 MUL ADD PUSH1 0x6 ADD PUSH1 0x0 CALLER PUSH20 0xFFFFFFFFFFFFFFFFFFFFFFFFFFFFFFFFFFFFFFFF AND PUSH20 0xFFFFFFFFFFFFFFFFFFFFFFFFFFFFFFFFFFFFFFFF AND DUP2 MSTORE PUSH1 0x20 ADD SWAP1 DUP2 MSTORE PUSH1 0x20 ADD PUSH1 0x0 KECCAK256 PUSH1 0x0 PUSH2 0x100 EXP DUP2 SLOAD DUP2 PUSH1 0xFF MUL NOT AND SWAP1 DUP4 ISZERO ISZERO MUL OR SWAP1 SSTORE POP PUSH1 0x9 DUP2 DUP2 SLOAD DUP2 LT PUSH2 0xFCB JUMPI PUSH2 0xFCA PUSH2 0x17C7 JUMP JUMPDEST JUMPDEST SWAP1 PUSH1 0x0 MSTORE PUSH1 0x20 PUSH1 0x0 KECCAK256 SWAP1 PUSH1 0x7 MUL ADD PUSH1 0x4 ADD PUSH1 0x0 DUP2 SLOAD DUP1 SWAP3 SWAP2 SWAP1 PUSH2 0xFED SWAP1 PUSH2 0x1856 JUMP JUMPDEST SWAP2 SWAP1 POP SSTORE POP POP JUMP JUMPDEST PUSH1 0x8 SLOAD DUP2 JUMP JUMPDEST PUSH1 0x2 DUP1 SLOAD PUSH2 0x1008 SWAP1 PUSH2 0x1825 JUMP JUMPDEST DUP1 PUSH1 0x1F ADD PUSH1 0x20 DUP1 SWAP2 DIV MUL PUSH1 0x20 ADD PUSH1 0x40 MLOAD SWAP1 DUP2 ADD PUSH1 0x40 MSTORE DUP1 SWAP3 SWAP2 SWAP1 DUP2 DUP2 MSTORE PUSH1 0x20 ADD DUP3 DUP1 SLOAD PUSH2 0x1034 SWAP1 PUSH2 0x1825 JUMP JUMPDEST DUP1 ISZERO PUSH2 0x1081 JUMPI DUP1 PUSH1 0x1F LT PUSH2 0x1056 JUMPI PUSH2 0x100 DUP1 DUP4 SLOAD DIV MUL DUP4 MSTORE SWAP2 PUSH1 0x20 ADD SWAP2 PUSH2 0x1081 JUMP JUMPDEST DUP3 ADD SWAP2 SWAP1 PUSH1 0x0 MSTORE PUSH1 0x20 PUSH1 0x0 KECCAK256 SWAP1 JUMPDEST DUP2 SLOAD DUP2 MSTORE SWAP1 PUSH1 0x1 ADD SWAP1 PUSH1 0x20 ADD DUP1 DUP4 GT PUSH2 0x1064 JUMPI DUP3 SWAP1 SUB PUSH1 0x1F AND DUP3 ADD SWAP2 JUMPDEST POP POP POP POP POP DUP2 JUMP JUMPDEST DUP3 DUP1 SLOAD PUSH2 0x1095 SWAP1 PUSH2 0x1825 JUMP JUMPDEST SWAP1 PUSH1 0x0 MSTORE PUSH1 0x20 PUSH1 0x0 KECCAK256 SWAP1 PUSH1 0x1F ADD PUSH1 0x20 SWAP1 DIV DUP2 ADD SWAP3 DUP3 PUSH2 0x10B7 JUMPI PUSH1 0x0 DUP6 SSTORE PUSH2 0x10FE JUMP JUMPDEST DUP3 PUSH1 0x1F LT PUSH2 0x10D0 JUMPI DUP1 MLOAD PUSH1 0xFF NOT AND DUP4 DUP1 ADD OR DUP6 SSTORE PUSH2 0x10FE JUMP JUMPDEST DUP3 DUP1 ADD PUSH1 0x1 ADD DUP6 SSTORE DUP3 ISZERO PUSH2 0x10FE JUMPI SWAP2 DUP3 ADD JUMPDEST DUP3 DUP2 GT ISZERO PUSH2 0x10FD JUMPI DUP3 MLOAD DUP3 SSTORE SWAP2 PUSH1 0x20 ADD SWAP2 SWAP1 PUSH1 0x1 ADD SWAP1 PUSH2 0x10E2 JUMP JUMPDEST JUMPDEST POP SWAP1 POP PUSH2 0x110B SWAP2 SWAP1 PUSH2 0x110F JUMP JUMPDEST POP SWAP1 JUMP JUMPDEST JUMPDEST DUP1 DUP3 GT ISZERO PUSH2 0x1128 JUMPI PUSH1 0x0 DUP2 PUSH1 0x0 SWAP1 SSTORE POP PUSH1 0x1 ADD PUSH2 0x1110 JUMP JUMPDEST POP SWAP1 JUMP JUMPDEST PUSH1 0x0 PUSH1 0x40 MLOAD SWAP1 POP SWAP1 JUMP JUMPDEST PUSH1 0x0 DUP1 REVERT JUMPDEST PUSH1 0x0 DUP1 REVERT JUMPDEST PUSH1 0x0 DUP2 SWAP1 POP SWAP2 SWAP1 POP JUMP JUMPDEST PUSH2 0x1153 DUP2 PUSH2 0x1140 JUMP JUMPDEST DUP2 EQ PUSH2 0x115E JUMPI PUSH1 0x0 DUP1 REVERT JUMPDEST POP JUMP JUMPDEST PUSH1 0x0 DUP2 CALLDATALOAD SWAP1 POP PUSH2 0x1170 DUP2 PUSH2 0x114A JUMP JUMPDEST SWAP3 SWAP2 POP POP JUMP JUMPDEST PUSH1 0x0 PUSH1 0x20 DUP3 DUP5 SUB SLT ISZERO PUSH2 0x118C JUMPI PUSH2 0x118B PUSH2 0x1136 JUMP JUMPDEST JUMPDEST PUSH1 0x0 PUSH2 0x119A DUP5 DUP3 DUP6 ADD PUSH2 0x1161 JUMP JUMPDEST SWAP2 POP POP SWAP3 SWAP2 POP POP JUMP JUMPDEST PUSH1 0x0 PUSH20 0xFFFFFFFFFFFFFFFFFFFFFFFFFFFFFFFFFFFFFFFF DUP3 AND SWAP1 POP SWAP2 SWAP1 POP JUMP JUMPDEST PUSH1 0x0 PUSH2 0x11CE DUP3 PUSH2 0x11A3 JUMP JUMPDEST SWAP1 POP SWAP2 SWAP1 POP JUMP JUMPDEST PUSH2 0x11DE DUP2 PUSH2 0x11C3 JUMP JUMPDEST DUP3 MSTORE POP POP JUMP JUMPDEST PUSH1 0x0 PUSH1 0x20 DUP3 ADD SWAP1 POP PUSH2 0x11F9 PUSH1 0x0 DUP4 ADD DUP5 PUSH2 0x11D5 JUMP JUMPDEST SWAP3 SWAP2 POP POP JUMP JUMPDEST PUSH2 0x1208 DUP2 PUSH2 0x1140 JUMP JUMPDEST DUP3 MSTORE POP POP JUMP JUMPDEST PUSH1 0x0 PUSH1 0x20 DUP3 ADD SWAP1 POP PUSH2 0x1223 PUSH1 0x0 DUP4 ADD DUP5 PUSH2 0x11FF JUMP JUMPDEST SWAP3 SWAP2 POP POP JUMP JUMPDEST PUSH2 0x1232 DUP2 PUSH2 0x11C3 JUMP JUMPDEST DUP2 EQ PUSH2 0x123D JUMPI PUSH1 0x0 DUP1 REVERT JUMPDEST POP JUMP JUMPDEST PUSH1 0x0 DUP2 CALLDATALOAD SWAP1 POP PUSH2 0x124F DUP2 PUSH2 0x1229 JUMP JUMPDEST SWAP3 SWAP2 POP POP JUMP JUMPDEST PUSH1 0x0 PUSH1 0x20 DUP3 DUP5 SUB SLT ISZERO PUSH2 0x126B JUMPI PUSH2 0x126A PUSH2 0x1136 JUMP JUMPDEST JUMPDEST PUSH1 0x0 PUSH2 0x1279 DUP5 DUP3 DUP6 ADD PUSH2 0x1240 JUMP JUMPDEST SWAP2 POP POP SWAP3 SWAP2 POP POP JUMP JUMPDEST PUSH1 0x0 DUP2 ISZERO ISZERO SWAP1 POP SWAP2 SWAP1 POP JUMP JUMPDEST PUSH2 0x1297 DUP2 PUSH2 0x1282 JUMP JUMPDEST DUP3 MSTORE POP POP JUMP JUMPDEST PUSH1 0x0 PUSH1 0x20 DUP3 ADD SWAP1 POP PUSH2 0x12B2 PUSH1 0x0 DUP4 ADD DUP5 PUSH2 0x128E JUMP JUMPDEST SWAP3 SWAP2 POP POP JUMP JUMPDEST PUSH1 0x0 DUP1 REVERT JUMPDEST PUSH1 0x0 DUP1 REVERT JUMPDEST PUSH1 0x0 PUSH1 0x1F NOT PUSH1 0x1F DUP4 ADD AND SWAP1 POP SWAP2 SWAP1 POP JUMP JUMPDEST PUSH32 0x4E487B7100000000000000000000000000000000000000000000000000000000 PUSH1 0x0 MSTORE PUSH1 0x41 PUSH1 0x4 MSTORE PUSH1 0x24 PUSH1 0x0 REVERT JUMPDEST PUSH2 0x130B DUP3 PUSH2 0x12C2 JUMP JUMPDEST DUP2 ADD DUP2 DUP2 LT PUSH8 0xFFFFFFFFFFFFFFFF DUP3 GT OR ISZERO PUSH2 0x132A JUMPI PUSH2 0x1329 PUSH2 0x12D3 JUMP JUMPDEST JUMPDEST DUP1 PUSH1 0x40 MSTORE POP POP POP JUMP JUMPDEST PUSH1 0x0 PUSH2 0x133D PUSH2 0x112C JUMP JUMPDEST SWAP1 POP PUSH2 0x1349 DUP3 DUP3 PUSH2 0x1302 JUMP JUMPDEST SWAP2 SWAP1 POP JUMP JUMPDEST PUSH1 0x0 PUSH8 0xFFFFFFFFFFFFFFFF DUP3 GT ISZERO PUSH2 0x1369 JUMPI PUSH2 0x1368 PUSH2 0x12D3 JUMP JUMPDEST JUMPDEST PUSH2 0x1372 DUP3 PUSH2 0x12C2 JUMP JUMPDEST SWAP1 POP PUSH1 0x20 DUP2 ADD SWAP1 POP SWAP2 SWAP1 POP JUMP JUMPDEST DUP3 DUP2 DUP4 CALLDATACOPY PUSH1 0x0 DUP4 DUP4 ADD MSTORE POP POP POP JUMP JUMPDEST PUSH1 0x0 PUSH2 0x13A1 PUSH2 0x139C DUP5 PUSH2 0x134E JUMP JUMPDEST PUSH2 0x1333 JUMP JUMPDEST SWAP1 POP DUP3 DUP2 MSTORE PUSH1 0x20 DUP2 ADD DUP5 DUP5 DUP5 ADD GT ISZERO PUSH2 0x13BD JUMPI PUSH2 0x13BC PUSH2 0x12BD JUMP JUMPDEST JUMPDEST PUSH2 0x13C8 DUP5 DUP3 DUP6 PUSH2 0x137F JUMP JUMPDEST POP SWAP4 SWAP3 POP POP POP JUMP JUMPDEST PUSH1 0x0 DUP3 PUSH1 0x1F DUP4 ADD SLT PUSH2 0x13E5 JUMPI PUSH2 0x13E4 PUSH2 0x12B8 JUMP JUMPDEST JUMPDEST DUP2 CALLDATALOAD PUSH2 0x13F5 DUP5 DUP3 PUSH1 0x20 DUP7 ADD PUSH2 0x138E JUMP JUMPDEST SWAP2 POP POP SWAP3 SWAP2 POP POP JUMP JUMPDEST PUSH1 0x0 DUP1 PUSH1 0x0 DUP1 PUSH1 0x80 DUP6 DUP8 SUB SLT ISZERO PUSH2 0x1418 JUMPI PUSH2 0x1417 PUSH2 0x1136 JUMP JUMPDEST JUMPDEST PUSH1 0x0 DUP6 ADD CALLDATALOAD PUSH8 0xFFFFFFFFFFFFFFFF DUP2 GT ISZERO PUSH2 0x1436 JUMPI PUSH2 0x1435 PUSH2 0x113B JUMP JUMPDEST JUMPDEST PUSH2 0x1442 DUP8 DUP3 DUP9 ADD PUSH2 0x13D0 JUMP JUMPDEST SWAP5 POP POP PUSH1 0x20 DUP6 ADD CALLDATALOAD PUSH8 0xFFFFFFFFFFFFFFFF DUP2 GT ISZERO PUSH2 0x1463 JUMPI PUSH2 0x1462 PUSH2 0x113B JUMP JUMPDEST JUMPDEST PUSH2 0x146F DUP8 DUP3 DUP9 ADD PUSH2 0x13D0 JUMP JUMPDEST SWAP4 POP POP PUSH1 0x40 PUSH2 0x1480 DUP8 DUP3 DUP9 ADD PUSH2 0x1240 JUMP JUMPDEST SWAP3 POP POP PUSH1 0x60 PUSH2 0x1491 DUP8 DUP3 DUP9 ADD PUSH2 0x1161 JUMP JUMPDEST SWAP2 POP POP SWAP3 SWAP6 SWAP2 SWAP5 POP SWAP3 POP JUMP JUMPDEST PUSH1 0x0 DUP2 MLOAD SWAP1 POP SWAP2 SWAP1 POP JUMP JUMPDEST PUSH1 0x0 DUP3 DUP3 MSTORE PUSH1 0x20 DUP3 ADD SWAP1 POP SWAP3 SWAP2 POP POP JUMP JUMPDEST PUSH1 0x0 JUMPDEST DUP4 DUP2 LT ISZERO PUSH2 0x14D7 JUMPI DUP1 DUP3 ADD MLOAD DUP2 DUP5 ADD MSTORE PUSH1 0x20 DUP2 ADD SWAP1 POP PUSH2 0x14BC JUMP JUMPDEST DUP4 DUP2 GT ISZERO PUSH2 0x14E6 JUMPI PUSH1 0x0 DUP5 DUP5 ADD MSTORE JUMPDEST POP POP POP POP JUMP JUMPDEST PUSH1 0x0 PUSH2 0x14F7 DUP3 PUSH2 0x149D JUMP JUMPDEST PUSH2 0x1501 DUP2 DUP6 PUSH2 0x14A8 JUMP JUMPDEST SWAP4 POP PUSH2 0x1511 DUP2 DUP6 PUSH1 0x20 DUP7 ADD PUSH2 0x14B9 JUMP JUMPDEST PUSH2 0x151A DUP2 PUSH2 0x12C2 JUMP JUMPDEST DUP5 ADD SWAP2 POP POP SWAP3 SWAP2 POP POP JUMP JUMPDEST PUSH1 0x0 PUSH2 0x120 DUP3 ADD SWAP1 POP PUSH2 0x153B PUSH1 0x0 DUP4 ADD DUP13 PUSH2 0x11FF JUMP JUMPDEST PUSH2 0x1548 PUSH1 0x20 DUP4 ADD DUP12 PUSH2 0x11FF JUMP JUMPDEST PUSH2 0x1555 PUSH1 0x40 DUP4 ADD DUP11 PUSH2 0x11FF JUMP JUMPDEST PUSH2 0x1562 PUSH1 0x60 DUP4 ADD DUP10 PUSH2 0x11FF JUMP JUMPDEST PUSH2 0x156F PUSH1 0x80 DUP4 ADD DUP9 PUSH2 0x11FF JUMP JUMPDEST PUSH2 0x157C PUSH1 0xA0 DUP4 ADD DUP8 PUSH2 0x11D5 JUMP JUMPDEST DUP2 DUP2 SUB PUSH1 0xC0 DUP4 ADD MSTORE PUSH2 0x158E DUP2 DUP7 PUSH2 0x14EC JUMP JUMPDEST SWAP1 POP DUP2 DUP2 SUB PUSH1 0xE0 DUP4 ADD MSTORE PUSH2 0x15A2 DUP2 DUP6 PUSH2 0x14EC JUMP JUMPDEST SWAP1 POP DUP2 DUP2 SUB PUSH2 0x100 DUP4 ADD MSTORE PUSH2 0x15B7 DUP2 DUP5 PUSH2 0x14EC JUMP JUMPDEST SWAP1 POP SWAP11 SWAP10 POP POP POP POP POP POP POP POP POP POP JUMP JUMPDEST PUSH1 0x0 PUSH1 0x20 DUP3 ADD SWAP1 POP DUP2 DUP2 SUB PUSH1 0x0 DUP4 ADD MSTORE PUSH2 0x15E1 DUP2 DUP5 PUSH2 0x14EC JUMP JUMPDEST SWAP1 POP SWAP3 SWAP2 POP POP JUMP JUMPDEST PUSH1 0x0 DUP2 MLOAD SWAP1 POP SWAP2 SWAP1 POP JUMP JUMPDEST PUSH1 0x0 DUP3 DUP3 MSTORE PUSH1 0x20 DUP3 ADD SWAP1 POP SWAP3 SWAP2 POP POP JUMP JUMPDEST PUSH1 0x0 DUP2 SWAP1 POP PUSH1 0x20 DUP3 ADD SWAP1 POP SWAP2 SWAP1 POP JUMP JUMPDEST PUSH2 0x161E DUP2 PUSH2 0x11C3 JUMP JUMPDEST DUP3 MSTORE POP POP JUMP JUMPDEST PUSH1 0x0 PUSH2 0x1630 DUP4 DUP4 PUSH2 0x1615 JUMP JUMPDEST PUSH1 0x20 DUP4 ADD SWAP1 POP SWAP3 SWAP2 POP POP JUMP JUMPDEST PUSH1 0x0 PUSH1 0x20 DUP3 ADD SWAP1 POP SWAP2 SWAP1 POP JUMP JUMPDEST PUSH1 0x0 PUSH2 0x1654 DUP3 PUSH2 0x15E9 JUMP JUMPDEST PUSH2 0x165E DUP2 DUP6 PUSH2 0x15F4 JUMP JUMPDEST SWAP4 POP PUSH2 0x1669 DUP4 PUSH2 0x1605 JUMP JUMPDEST DUP1 PUSH1 0x0 JUMPDEST DUP4 DUP2 LT ISZERO PUSH2 0x169A JUMPI DUP2 MLOAD PUSH2 0x1681 DUP9 DUP3 PUSH2 0x1624 JUMP JUMPDEST SWAP8 POP PUSH2 0x168C DUP4 PUSH2 0x163C JUMP JUMPDEST SWAP3 POP POP PUSH1 0x1 DUP2 ADD SWAP1 POP PUSH2 0x166D JUMP JUMPDEST POP DUP6 SWAP4 POP POP POP POP SWAP3 SWAP2 POP POP JUMP JUMPDEST PUSH1 0x0 PUSH1 0x20 DUP3 ADD SWAP1 POP DUP2 DUP2 SUB PUSH1 0x0 DUP4 ADD MSTORE PUSH2 0x16C1 DUP2 DUP5 PUSH2 0x1649 JUMP JUMPDEST SWAP1 POP SWAP3 SWAP2 POP POP JUMP JUMPDEST PUSH1 0x0 PUSH1 0xC0 DUP3 ADD SWAP1 POP DUP2 DUP2 SUB PUSH1 0x0 DUP4 ADD MSTORE PUSH2 0x16E3 DUP2 DUP10 PUSH2 0x14EC JUMP JUMPDEST SWAP1 POP DUP2 DUP2 SUB PUSH1 0x20 DUP4 ADD MSTORE PUSH2 0x16F7 DUP2 DUP9 PUSH2 0x14EC JUMP JUMPDEST SWAP1 POP PUSH2 0x1706 PUSH1 0x40 DUP4 ADD DUP8 PUSH2 0x11D5 JUMP JUMPDEST PUSH2 0x1713 PUSH1 0x60 DUP4 ADD DUP7 PUSH2 0x11FF JUMP JUMPDEST PUSH2 0x1720 PUSH1 0x80 DUP4 ADD DUP6 PUSH2 0x11FF JUMP JUMPDEST PUSH2 0x172D PUSH1 0xA0 DUP4 ADD DUP5 PUSH2 0x128E JUMP JUMPDEST SWAP8 SWAP7 POP POP POP POP POP POP POP JUMP JUMPDEST PUSH32 0x4E487B7100000000000000000000000000000000000000000000000000000000 PUSH1 0x0 MSTORE PUSH1 0x12 PUSH1 0x4 MSTORE PUSH1 0x24 PUSH1 0x0 REVERT JUMPDEST PUSH32 0x4E487B7100000000000000000000000000000000000000000000000000000000 PUSH1 0x0 MSTORE PUSH1 0x11 PUSH1 0x4 MSTORE PUSH1 0x24 PUSH1 0x0 REVERT JUMPDEST PUSH1 0x0 PUSH2 0x17A1 DUP3 PUSH2 0x1140 JUMP JUMPDEST SWAP2 POP PUSH2 0x17AC DUP4 PUSH2 0x1140 JUMP JUMPDEST SWAP3 POP DUP3 PUSH2 0x17BC JUMPI PUSH2 0x17BB PUSH2 0x1738 JUMP JUMPDEST JUMPDEST DUP3 DUP3 DIV SWAP1 POP SWAP3 SWAP2 POP POP JUMP JUMPDEST PUSH32 0x4E487B7100000000000000000000000000000000000000000000000000000000 PUSH1 0x0 MSTORE PUSH1 0x32 PUSH1 0x4 MSTORE PUSH1 0x24 PUSH1 0x0 REVERT JUMPDEST PUSH32 0x4E487B7100000000000000000000000000000000000000000000000000000000 PUSH1 0x0 MSTORE PUSH1 0x22 PUSH1 0x4 MSTORE PUSH1 0x24 PUSH1 0x0 REVERT JUMPDEST PUSH1 0x0 PUSH1 0x2 DUP3 DIV SWAP1 POP PUSH1 0x1 DUP3 AND DUP1 PUSH2 0x183D JUMPI PUSH1 0x7F DUP3 AND SWAP2 POP JUMPDEST PUSH1 0x20 DUP3 LT DUP2 SUB PUSH2 0x1850 JUMPI PUSH2 0x184F PUSH2 0x17F6 JUMP JUMPDEST JUMPDEST POP SWAP2 SWAP1 POP JUMP JUMPDEST PUSH1 0x0 PUSH2 0x1861 DUP3 PUSH2 0x1140 JUMP JUMPDEST SWAP2 POP PUSH32 0xFFFFFFFFFFFFFFFFFFFFFFFFFFFFFFFFFFFFFFFFFFFFFFFFFFFFFFFFFFFFFFFF DUP3 SUB PUSH2 0x1893 JUMPI PUSH2 0x1892 PUSH2 0x1767 JUMP JUMPDEST JUMPDEST PUSH1 0x1 DUP3 ADD SWAP1 POP SWAP2 SWAP1 POP JUMP INVALID LOG2 PUSH5 0x6970667358 0x22 SLT KECCAK256 0xD4 0xD6 0xCF PUSH2 0xB05C 0xF 0xF9 0xFC SWAP9 DUP4 SDIV GASPRICE 0xB1 PUSH11 0x46CB2EFDFB60ADB30A5B3E SUB CODESIZE 0x49 PUSH20 0xC6EA64736F6C634300080D0033A2646970667358 0x22 SLT KECCAK256 KECCAK256 SGT SSTORE 0xB9 0xB5 JUMP 0xD3 EXTCODESIZE PUSH25 0x825602EA1BBC8EDB3FAD2F504A990E014FF03781F0F3816473 PUSH16 0x6C634300080D00330000000000000000 "},"gasEstimates":{"creation":{"codeDepositCost":"1937200","executionCost":"2048","totalCost":"1939248"},"external":{"campaigns(uint256)":"4934","createCampaign(string,string,string,uint256,uint256)":"infinite","getAllCampaigns()":"infinite"}},"methodIdentifiers":{"campaigns(uint256)":"141961bc","createCampaign(string,string,string,uint256,uint256)":"980f2e66","getAllCampaigns()":"86cdf604"}},"storageLayout":{"storage":[{"astId":4,"contract":"AEIOU.sol:AEIOUCampaignFactory","label":"campaigns","offset":0,"slot":"0","type":"t_array(t_address)dyn_storage"}],"types":{"t_address":{"encoding":"inplace","label":"address","numberOfBytes":"20"},"t_array(t_address)dyn_storage":{"base":"t_address","encoding":"dynamic_array","label":"address[]","numberOfBytes":"32"}}},"userdoc":{"kind":"user","methods":{},"version":1}}